:1000000000800020BD010000192E0000D12D00004D
:10001000D12D0000D12D0000D12D0000D12D0000E8
:10002000D12D0000D12D0000D12D0000192E00008F
:10003000192E0000D12D0000954C0000994D0000B4
:10004000192E0000192E0000192E0000192E000094
:10005000192E0000192E0000192E0000192E000084
:10006000192E0000192E0000192E0000192E000074
:10007000192E0000192E0000192E0000192E000064
:10008000192E0000192E0000192E0000192E000054
:10009000192E0000192E0000192E0000192E000044
:1000A000F1270000FD270000192E0000192E000086
:1000B000192E0000192E0000192E0000192E000024
:1000C000192E0000192E0000192E0000192E000014
:1000D000192E0000192E0000192E0000192E000004
:1000E000192E0000192E0000192E0000192E0000F4
:1000F000192E0000B14E0000192E00003139000009
:10010000192E0000DD4F0000192E0000192E0000EE
:10011000192E0000192E0000192E0000192E0000C3
:10012000192E0000192E0000192E0000192E0000B3
:10013000192E0000192E0000192E0000192E0000A3
:10014000192E0000192E0000192E0000192E000093
:10015000192E0000192E0000192E0000192E000083
:10016000192E0000F13B0000192E0000192E00008E
:10017000192E0000192E0000192E0000192E000063
:10018000192E0000192E0000192E0000192E000053
:10019000192E0000192E0000192E0000192E000043
:1001A000192E0000192E0000192E0000192E000033
:1001B000192E0000192E0000192E0000564B4CF28B
:1001C000205210B51A804DF628121A8000BF00BFC9
:1001D00002F026FE514B4FF010621A60504A9A60AE
:1001E000504ADA60504A136813F4807304D14F49BF
:1001F0000B604FF4A85313604D4B1A78110703D5C9
:100200001A7842F008021A704A4B4B492A221A7097
:100210004A4A4B4B8B4204D252F8040F43F8040B6A
:10022000F8E7484B484900228B4202D243F8042B9E
:10023000FAE74649464A002352F8230041F82300D2
:1002400001336F2BF8D1434B434A802103F8011B44
:100250009342FBD1414B3D4A1A60414B8A221A70AE
:10026000A3F5805324225A70A0221A709A7992071B
:10027000FCD59A79D406FCD43A4A937903F00C035E
:10028000082B384BF9D103221A7140225A719A79FE
:100290009006FCD5334A9179324B4906FBD5324A58
:1002A000324911600221516020221A709A7902F0BD
:1002B0000C020C2AFAD12E4B2E4A1A602E4B2F4AD2
:1002C0001A6000225A60072243F8042C2C4AC3F813
:1002D0000C2D62B602F096FF144B1B68DA0705D5A9
:1002E000284802F023FF284B284A1A60284B1B7825
:1002F0005B0609D5244C254B22689A4204D121483B
:1003000002F014FF0023236005F090FB02F08EFD45
:1003100002F0BCFCFEE700BF0E2005403080044028
:10032000823F04000100002B10D0034014D0034092
:1003300002D0074000E00740A098FF1F74A400000F
:100340002087FF1FA098FF1FD8ACFF1F0082FF1F50
:100350000000000000E400E05FE400E008ED00E0E1
:100360000050064000400640448004400000030165
:1003700004800440C010050014E000E0FF76010096
:1003800000002020A5AAA05D1CE00340A5C3945A4C
:1003900000F00740FFFFFFFFFFFFFFFFFFFFFFFF32
:1003A000FFFFFFFFFFFFFFFFFFFFFFFFFFFFFFFF5D
:1003B000FFFFFFFFFFFFFFFFFFFFFFFFFFFFFFFF4D
:1003C000FFFFFFFFFFFFFFFFFFFFFFFFFFFFFFFF3D
:1003D000FFFFFFFFFFFFFFFFFFFFFFFFFFFFFFFF2D
:1003E000FFFFFFFFFFFFFFFFFFFFFFFFFFFFFFFF1D
:1003F000FFFFFFFFFFFFFFFFFFFFFFFFFFFFFFFF0D
:10040000FFFFFFFFFFFFFFFFFFFFFFFFDEF9FFFF23
:1004100010B5054C237833B9044B13B10448AFF33E
:1004200000800123237010BDA098FF1F0000000072
:1004300070A40000084B10B51BB108490848AFF381
:1004400000800848036803B910BD074B002BFBD0A0
:10045000BDE81040184700BF00000000A498FF1F2F
:1004600070A40000A098FF1F0000000090B583B0AA
:1004700000AF786039607B681B6804331C6838689B
:1004800006F0FEF803461A4639687868A047034626
:1004900018460C37BD4690BD80B582B000AF78607D
:1004A0000B46FB707B681B681B68FA7811467868FE
:1004B0009847034618460837BD4680BD80B582B0D0
:1004C00000AF7860396039687868FFF7CFFF03467E
:1004D00018460837BD4680BD80B582B000AF786051
:1004E0000B46FB70F97800230A22786802F03AFB89
:1004F000034618460837BD4680BD00BF90B583B09F
:1005000000AF78600B46FB70FB7819467868FFF700
:10051000C3FF0446786802F0FFFA034623441846F6
:100520000C37BD4690BD00BF90B583B000AF78607A
:10053000396039687868FFF7C1FF0446786802F0CF
:10054000EBFA0346234418460C37BD4690BD00BF66
:1005500090B583B000AF78600B46FB70FB7819460E
:100560007868FFF7B9FF0446786802F0D5FA0346C9
:10057000234418460C37BD4690BD00BF80B582B0FD
:1005800000AF786039603B685B0803F1376303F5BF
:10059000D8333A68B3FBF2F3184602F0A3FE00BF6B
:1005A0000837BD4680BD00BF80B483B000AF78601F
:1005B000396000BF0C37BD4680BC704780B582B043
:1005C00000AF786004F07CF9034618460837BD4652
:1005D00080BD00BF80B582B000AF786004F034F910
:1005E000034618460837BD4680BD00BF80B483B0BF
:1005F00000AF78600B46FB70FB789B000133034A29
:10060000D35C18460C37BD4680BC7047889E0000FE
:1006100080B483B000AF78600B46FB70FB789B0022
:100620000233034AD35C18460C37BD4680BC704782
:10063000889E0000F0B589B006AF78600846114684
:100640001A460346FB700B46BB7013467B707B68F3
:100650001C697B685D7B7B7819467868FFF7C6FF6D
:1006600003461E467B7819467868FFF7D1FF03469C
:100670001846B978FA7897F8283005937B6A04937E
:1006800097F82030039302900196002300930B46C5
:100690002946204601F0BCFC00BF0C37BD46F0BD2A
:1006A00080B582B000AF786039607B681B681B68DA
:1006B0003A68D2B211467868984703461846083718
:1006C000BD4680BD80B584B000AFF860B9607A6087
:1006D000FB681B6804331B687A68B968F868984738
:1006E000034618461037BD4680BD00BF80B584B0B4
:1006F00000AFF860B9607A60FB681B697A68B96816
:10070000184601F00BFD034618461037BD4680BD64
:1007100080B483B000AF786039607B681B693A6849
:10072000C3F8682200BF0C37BD4680BC704700BFCD
:1007300080B483B000AF786039607B681B693A6829
:10074000C3F86C2200BF0C37BD4680BC704700BFA9
:1007500080B48BB000AFF860B9607A602A4B1B6838
:10076000002B2BD100233B623B6AFF2B23DC3B6A2F
:100770007B620023FB61FB69072B13DC7B6A03F0C0
:100780000103002B07D07B6A5B087B627A6A1F4BF0
:1007900053407B6202E07B6A5B087B62FB6901334A
:1007A000FB61E8E71A493B6A7A6A41F823203B6A11
:1007B00001333B62D8E7144B01221A60FB68DB432C
:1007C000FB60BA687B6813447B61BB68BB61BA6934
:1007D0007B699A4211D2BB691B78FB74FB681A0AC9
:1007E000FB68D9B2FB7C4B40094951F82330534098
:1007F000FB60BB690133BB61E9E7FB68DB4318467B
:100800002C37BD4680BC7047BC98FF1F2083B8EDD5
:10081000C098FF1F84B080B582B000AF07F1100E02
:100820008EE80F0020233B7400237B607B68B3F5C8
:10083000806F09DA07F111027B68134400221A70F5
:100840007B6801337B60F1E700233B603B682F2B23
:1008500009DC07F211423B681344FF221A703B681F
:1008600001333B60F2E7002387F84134FF2387F828
:10087000423400BF0837BD46BDE8804004B0704731
:1008800080B483B000AF786039607A683B689A4280
:1008900001DD7B6800E03B6818460C37BD4680BC34
:1008A000704700BF80B483B000AF786039607A6869
:1008B0003B689A4201DA7B6800E03B6818460C37D7
:1008C000BD4680BC704700BF80B485B000AF786083
:1008D0000023FB60FB68022B19DC0023BB60BB68B4
:1008E000022B10DCFA6813465B0013447A681A4442
:1008F000BB6813441B785F2B01D1012308E0BB6860
:100900000133BB60EBE7FB680133FB60E2E70023E8
:1009100018461437BD4680BC704700BF80B485B010
:1009200000AF78600023FB60FB68022B3EDCFA68B6
:1009300013465B0013447A6813441978FA68134627
:100940005B0013447A6813445B7899422AD1FA68B1
:1009500013465B0013447A6813445978FA681346C7
:100960005B0013447A6813449B7899421AD1FA6861
:1009700013465B0013447A6813441A78494B1B787A
:100980009A4201D10A2387E0FA6813465B001344B8
:100990007A6813441A78444B1B789A4202D16FF05C
:1009A000090379E0FB680133FB60BDE70023BB600E
:1009B000BB68022B2FDC7A68BB6813441A787B680B
:1009C000D91CBB680B441B789A4220D17B68DA1C87
:1009D000BB6813441A787B68991DBB680B441B786D
:1009E0009A4214D17A68BB6813441A782D4B1B784D
:1009F0009A4201D10A234FE07A68BB6813441A78FF
:100A0000294B1B789A4202D16FF0090344E0BB687E
:100A10000133BB60CCE77B681A787B6803335B7873
:100A20009A4218D17B6803335A787B6806339B78E7
:100A30009A4210D17B681A781A4B1B789A4201D1DE
:100A40000A2329E07B681A78174B1B789A4202D157
:100A50006FF0090320E07B689A787B6803335B784A
:100A60009A4218D17B6803335A787B6806331B7827
:100A70009A4210D17B689A780A4B1B789A4201D12E
:100A80000A2309E07B689A78074B1B789A4202D1C7
:100A90006FF0090300E0002318461437BD4680BC00
:100AA000704700BF0588FF1F0488FF1F80B58CB00A
:100AB00000AFF860B9607A60F868FFF72FFF7861DF
:100AC0007B690A2B01D17B69A7E07B6913F10A0FCF
:100AD00001D17B69A1E0F868FFF7F6FE0346002B21
:100AE0000CBF01230023DBB2002B01D0002394E0D4
:100AF0007B68002B48D04B4BFB620023BB62BB6A78
:100B0000022B3FDC00237B627B6A022B36DCBA6A55
:100B100013465B001344FA681A447B6A13441B783B
:100B20005F2B27D1BA6A13465B001344FA681A4454
:100B30003D4B19787B6A13440A461A70BB68591CEE
:100B40007B68002B0CBF01230023DBB21A46F86838
:100B5000FFF7ACFF03461946F86AFFF791FEF8620B
:100B6000BA6A13465B001344FA681A447B6A13445A
:100B70005F221A707B6A01337B62C5E7BB6A01336F
:100B8000BB62BCE7FB6A48E04FF47A733B62002328
:100B9000FB61FB69022B3FDC0023BB61BB69022BBD
:100BA00036DCFA6913465B001344FA681A44BB69E1
:100BB00013441B785F2B27D1FA6913465B0013445B
:100BC000FA681A44194B1978BB6913440A461A701B
:100BD000BB68591C7B68002B0CBF01230023DBB2D0
:100BE0001A46F868FFF762FF03461946386AFFF7AE
:100BF00059FE3862FA6913465B001344FA681A44D6
:100C0000BB6913445F221A70BB690133BB61C5E73E
:100C1000FB690133FB61BCE73B6A18463037BD46D0
:100C200080BD00BF18FCFFFF0588FF1F0488FF1F61
:100C300080B586B000AF786039602A4B7B617B68F5
:100C40004FF0FF321A607B684FF0FF325A6000238A
:100C50003B613B69022B3FDC0023FB60FB68022BFE
:100C600036DC3A6913465B0013443A681A44FB6861
:100C700013441B785F2B27D13A6913465B0013445A
:100C80003A681A44184B1978FB6813440A461A70DC
:100C9000002200213868FFF709FFB8603A6913465F
:100CA0005B0013443A681A44FB6813445F221A70CD
:100CB000BA687B699A4207DD7B683A691A607B688B
:100CC000FA685A60BB687B61FB680133FB60C5E76B
:100CD0003B6901333B61BCE700BF78681837BD460C
:100CE00080BD00BF18FCFFFF0588FF1F84B0B0B5B2
:100CF000ADF5027D00AF07F5067484E80F004FF4F0
:100D00000073C7F8F03107F5EA738049184601F01F
:100D1000A9FF7F4B07F5DA741D4628686968AA6841
:100D2000EB680FC428696969AA6907C4AB8BAA7FFD
:100D300023801346A37007F5C873212200211846AB
:100D400005F0DEF93B4618464FF4C8731A460021F9
:100D500005F0D6F90023C7F804320023C7F80032A3
:100D60000023C7F8FC31D7F8FC312F2B14DCD7F85F
:100D7000FC3103F5007307F5067213445B785BB230
:100D800019463B46D7F8FC2143F82210D7F8FC312E
:100D90000133C7F8FC31E6E70023C7F8F831D7F88C
:100DA000F8310F2B16DCD7F8F83103F13002D7F801
:100DB000F83103F5107307F506710B445B785BB2ED
:100DC00019463B4643F82210D7F8F8310133C7F8EB
:100DD000F831E4E70023C7F8F431D7F8F4311E2BDB
:100DE00014DCD7F8F43103F1400207F5DA71D7F8D3
:100DF000F4310B441B785BB219463B4643F8221092
:100E0000D7F8F4310133C7F8F431E6E7D7F8003208
:100E1000002B61DBD7F800323C2B5ADCD7F80032CC
:100E20005A1CC7F800223A4652F82330C7F8EC3172
:100E3000D7F800325A1CC7F800223A4652F823303D
:100E4000C7F8E831D7F800325A1CC7F800223A46F2
:100E500052F82330C7F8E431D7F8EC31B3F1FF3F53
:100E600039D0D7F8E831B3F1FF3F11D1D7F80432C8
:100E70001E2B0DDCD7F804325A1CC7F804223A4660
:100E8000D7F8EC1152F82120D1B2224AD1541FE0F8
:100E90003B46D7F8E82153F822203B46D7F8EC111F
:100EA00053F82130D11A3B46D7F8E82143F82210F5
:100EB0003B46D7F8E82153F82230002BD4BF01235A
:100EC0000023DBB2002BA1D0D7F8E431C7F8003201
:100ED0009CE700BF00E000BF0E4A0F490F4801F039
:100EE00033FE0C4B0822DA770D4B01221A7000BF3B
:100EF00007F5EA73184601F075FE00BF07F50277A3
:100F0000BD46BDE8B04004B0704700BF989D0000EA
:100F1000C09D00004CA5FF1FB09D0000388EFF1F34
:100F20006DA5FF1F84B0B0B596B000AF07F168049F
:100F300084E80F00642002F017F9694B07F11C04E4
:100F40001D460FCD0FC495E80F0007C4238002345F
:100F50001B0C2370634A07F110031068516803C328
:100F6000127A1A7000237B6400237B6500233B65A3
:100F70003B6D022B6BDC07F110031846FFF7CEFC2C
:100F80000346594A82FB03129210DB17D31A7B6483
:100F90007B6C002B2DD13B6D9C3307F16802134411
:100FA0005B781B09DBB23B643B6D9C3307F1680245
:100FB00013445B7803F00F03FB633A6C13465B004A
:100FC000134407F158021A44FB6B1344483B1B7847
:100FD0005F2B0CD13A6C13465B00134407F15802A7
:100FE0001A44FB6B1344483B6F221A7001E0012343
:100FF0007B6507F110031846FFF790FC03463A4A59
:1010000082FB03129210DB17D31A7B647B6C002BDC
:1010100019D13B4607F1100211461846FFF708FEAA
:1010200007F108033A4692E8030083E80300BA6830
:10103000F96813465B00134407F1580213440B444C
:10104000483B78221A703B6D01333B6590E707F10E
:1010500010031846FFF762FC0346234A82FB031283
:101060009210DB17D31A7B647B6C002B03D07B6C54
:10107000B3F1FF3F15D17B6D002B12D10023FB6430
:10108000FB6C1F2B1DDC07F11C02FB6C1344197851
:10109000164AFB6C13440A461A70FB6C0133FB645E
:1010A000EEE70023BB64BB6C1F2B0BDC104BD9B2EB
:1010B0000E4ABB6C13440A461A70BB6C0133BB6406
:1010C000F1E700BF094B0922DA770A4B01221A70B7
:1010D00000BF5837BD46BDE8B04004B0704700BF00
:1010E000E49D0000089E0000676666664CA5FF1F31
:1010F000E09D00006DA5FF1F84B0B0B48FB000AFBD
:1011000007F1480484E80F00424B3C461D460FCDD2
:101110000FC495E80F0007C4238002341B0C237012
:1011200097F879341B021BB223F47F6323F00F037B
:101130001AB297F8E8301B021BB213431AB297F8A1
:10114000E9301BB213431AB297F879341B011BB272
:10115000DBB21BB213431BB2FB844AF6E143BB84F0
:10116000BB8CFB8600233B633B6B40F25562934292
:101170001EDCFB8E9B101AB2B7F9363053401AB200
:10118000FB8EDB101BB253401AB2FB8E5B111BB2FD
:1011900053401BB27B84FB8E5B101AB27B8CDB034B
:1011A0001BB213431BB2FB863B6B01333B63DBE794
:1011B000FA8EFB8C9A4211D10023FB62FB6A1F2B33
:1011C0001CDC3A46FB6A13441978134AFB6A134441
:1011D0000A461A70FB6A0133FB62EFE70023BB6229
:1011E000BB6A1F2B0ADC0D4BD9B20B4ABB6A1344F6
:1011F0000A461A70BB6A0133BB62F1E7064B0A224A
:10120000DA77074B01221A7000BF3C37BD46B0BCED
:1012100004B07047149E00004CA5FF1FE09D000025
:101220006DA5FF1F84B0B0B58EB000AF07F14804C4
:1012300084E80F002E4B07F108041D460FCD0FC4A4
:1012400095E80F0007C4238002341B0C237097F825
:10125000EA303B7197F8EB307B7197F8EC30BB715B
:1012600097F8ED30FB713B1D042219460020FFF773
:101270006FFAB862002387F83730BB6A1D4A934281
:1012800002D1012387F8373097F83730002B12D07E
:1012900000233B633B6B1E2B1DDC07F108023B6BFD
:1012A00013441978144A3B6B13440A461A703B6B7B
:1012B00001333B63EEE70023FB62FB6A1E2B0ADC73
:1012C0000E4BD9B20C4AFB6A13440A461A70FB6AE9
:1012D0000133FB62F1E7084B0B22DA77084B01225E
:1012E0001A7000BF3837BD46BDE8B04004B0704743
:1012F000389E0000846647364CA5FF1FE09D000025
:101300006DA5FF1F84B080B5ADF5856D4FF4856781
:101310006F4407F1080E8EE80F002F492F48FFF7A2
:1013200003F9684607F1180340F22342194601F019
:10133000B5FC07F108030FCB00F06CF897F83A34CE
:10134000083B032B42D801A252F823F05D130000A2
:101350007913000095130000B1130000684607F1EF
:10136000180340F22342194601F098FC07F10803E4
:101370000FCBFFF7BBFC29E0684607F1180340F2EA
:101380002342194601F08AFC07F108030FCBFFF74F
:10139000C9FD1BE0684607F1180340F223421946D5
:1013A00001F07CFC07F108030FCBFFF7A5FE0DE071
:1013B000684607F1180340F22342194601F06EFC1B
:1013C00007F108030FCBFFF72DFF00BF00BFBD469D
:1013D000BDE8804004B070475C9E0000388EFF1F5F
:1013E00080B483B000AF00237B607B6840F2394259
:1013F000934208DC064A7B68134400221A707B681B
:1014000001337B60F1E700BF0C37BD4680BC7047FD
:1014100078A5FF1F84B080B584B000AF07F1180E27
:101420008EE80F003B7E19463048FFF767F800232F
:10143000FB60FB68B3F5806F1EDA0023BB60BB68FE
:101440001F2B12DCFA68BB68134407F1180213441F
:101450005B7819462548FFF73FF825492348FFF7F1
:101460002DF8BB680133BB60E9E7204801F054FB6D
:10147000FB682033FB60DCE700237B607B682F2B5D
:1014800020DC00233B603B68022B13DC7A683B685E
:10149000134407F11802134493F801341946134812
:1014A000FFF71AF812491148FFF708F83B680133B3
:1014B0003B60E8E70F490D48FFF736F87B680333D8
:1014C0007B60DBE797F8493419460848FFF740F896
:1014D00097F84A3419460548FFF73AF800BF103725
:1014E000BD46BDE8804004B0704700BF388EFF1F86
:1014F000E09D0000709E000090B5ADF2444D4FF4A9
:1015000085676F447448FFF759F80346002B14BFF2
:1015100001230023DBB2002B00F0D9800123FB75EF
:101520006E4B00221A6000237B606C4B1B6840F2FC
:10153000324293423DDC6848FFF740F80346002BF7
:10154000CCBF01230023DBB2002B0ED0634B1C6801
:101550006148FFF73FF80346DAB2614B1A555F4B1B
:101560001B6801335D4A1360DFE7012001F0FCFDD9
:101570005B4B1B78702BD8D0594B1B78632BD4D086
:10158000574B1B78612BD0D05348FFF717F8034611
:10159000002BCCBF01230023DBB2002B03D04E482D
:1015A000FFF718F8F0E70023FB754C4B42F210727E
:1015B0001A60FB7D002B00F08880494B1A78494B5C
:1015C0001A70484B1B78702B24D100233B613B6978
:1015D000B3F5806F0DDA3B690133414AD15C414A72
:1015E0003B69134401330A461A703B6901333B617E
:1015F000EDE73C4C684604F1100340F223421946E3
:1016000001F04CFB94E80F00FFF704FF364B01227A
:101610001A705AE0334B1B78632B2DD10023FB60EB
:10162000FB68B3F5806F0DDAFB6801332C4AD15C9F
:101630002C4AFB68134401330A461A70FB680133D5
:10164000FB60EDE7264B93F83224264B83F83124D8
:10165000234B93F83324234B83F83224214C6846E0
:1016600004F1100340F22342194601F017FB94E8FD
:101670000F00FFF7CFFE28E01A4B1B78612B1AD121
:101680004FF48063BB60BB68B3F5866F0FDABB684D
:10169000A3F58063BA6801321149895C114A134489
:1016A0000A4683F80124BB680133BB60EBE70F4BAC
:1016B00001221A7009E00848FEF78CFF0346DB435D
:1016C000DB0FDBB2002B00D0F5E7FFF789FE00BF90
:1016D0001C37BD4690BD00BF388EFF1FE09CFF1F2A
:1016E00078A5FF1F18A1FF1F6CA5FF1F74A5FF1F82
:1016F00080B584B004AF17491748FEF755FF4FF483
:1017000061411648FEF73AFF154B00221A70154B3F
:1017100000221A7001230293134B019301230093BB
:101720000123012201211148FEF784FF10490F48CF
:10173000FEF7EEFF0F490D48FEF7FAFF0E49064887
:10174000FEF7F2FE4FF47A7001F00EFD00BFBD46C9
:1017500080BD00BF80841E00388EFF1F408DFF1F9C
:101760006CA5FF1F74A5FF1FA0860100C8A9FF1F5D
:10177000B917000049190000749E000080B500AF41
:101780000B48FEF71BFF0346002B14BF0123002369
:10179000DBB2002B01D0FFF7AFFE4FF4FA7001F07F
:1017A000E3FC04490248FEF7BFFE00BF80BD00BF56
:1017B000388EFF1F809E000090B5ADF24C4D4FF467
:1017C00085676F4478607A685A495B48FEF78EFFF8
:1017D000584B1B783B61574B5B78FB603B69002B98
:1017E00006D1564A3B691360554AFB6813609DE079
:1017F0003B69012B7DD1514A3B691360504AFB681C
:1018000013604F4B1B68002B04D14A4B9A784D4B09
:101810001A708BE04A4B1B68002B20DD484B1B687D
:10182000232B1CDC0223FB61FA697B689A427CD281
:10183000434B1B685A1E13461B019B1A5B001A463A
:10184000FB691344023B3B49FA690A4411783D4A5B
:1018500013440A465A70FB690133FB61E4E7384BD5
:101860001B68242B14D10223BB61BA697B689A429E
:101870005CD2BB69023B2F49BA690A441178314AEC
:1018800013440A4683F80124BB690133BB61ECE7CA
:101890002B4B1B68252B14D102237B617A697B6853
:1018A0009A4243D27B691C3322497A690A441178EF
:1018B000244A13440A4683F801247B6901337B617F
:1018C000ECE71C4B9A781F4B83F83124194BDA78DC
:1018D0001C4B83F832241B4C684604F1100340F281
:1018E0002342194601F0DAF994E80F00FFF70AFDE8
:1018F0001CE03B69022B06D1104A3B691360104A79
:10190000FB68136012E03B69032B06D10B4A3B696D
:1019100013600B4AFB68136008E0094B00221A6051
:10192000064B4FF0FF321A6000E000BF00BF2437C3
:10193000BD4690BDC09CFF1FC8A9FF1F0088FF1FA8
:1019400070A5FF1FE49CFF1F90B5ADF23C4D4FF416
:1019500085676F44794B1B68002B56D1784B1B78F9
:10196000002B4DD0774B1B68002B04D1702176489B
:10197000FEF796FEDEE0734B1B68002B21DD714BFA
:101980001B68202B1DDC0023FB60FB681F2B11DC78
:101990006C4B1B68013B5A01FB6813446B4A1344B0
:1019A00059786B4AFB6813440A461A70FB68013386
:1019B000FB60EAE7202266496348FEF783FE00BF2A
:1019C000B8E0624B93F8313419465F4800F0F8F8FC
:1019D0005E4B93F8323419465B4800F0F1F8584BEF
:1019E00000221A70594C684604F1100340F2234259
:1019F000194601F053F994E80F00FEF70BFF99E048
:101A000078215148FEF74CFE94E04C4B1B68012BAB
:101A100030D1504B1B78002B27D04A4B1B68002B32
:101A200004D172214848FEF73BFE83E0454B1B681A
:101A3000012B7FD10023BB60BB681F2B0CDC464A07
:101A4000BB6813441978424ABB6813440A461A70AB
:101A5000BB680133BB60EFE720223D493A48FEF7FF
:101A600031FE3C4B00221A7064E078213648FEF7C4
:101A700017FE5FE0314B1B68032B5BD1374B1B78A4
:101A8000002B53D02F4B1B68002B04D161212E4813
:101A9000FEF706FE4EE02B4B1B68012B19D10023ED
:101AA0007B607B681F2B0EDC284A7B68134403F2A3
:101AB00001431978264A7B6813440A461A707B68EA
:101AC00001337B60EDE7202221491F48FEF7FAFD34
:101AD00030E01C4B1B68022B2CD120233B603B6861
:101AE0002F2B0DDC3B68203B18493A680A4402F270
:101AF00001421178164AD1543B6801333B60EEE74E
:101B0000102213491048FEF7DDFD144B00221A7015
:101B10000E4C684604F1100340F22342194601F0CE
:101B2000BDF894E80F00FEF775FE03E07821064843
:101B3000FEF7B6FD00BF1437BD4690BD0088FF1FFD
:101B40006CA5FF1F70A5FF1FC8A9FF1F18A1FF1FCD
:101B5000C09CFF1F6DA5FF1F4CA5FF1F74A5FF1F95
:101B6000002070470369D3F83801D3F83431C01A24
:101B7000704700BF0369D3F83411D3F8382191427C
:101B800008D2D3F83421511C1A44C3F8341192F806
:101B9000300070474FF0FF30704700BF0369D3F843
:101BA0003411D3F8382191423DBFD3F834219B182A
:101BB00093F830004FF0FF30704700BF704700BF10
:101BC0000369D3F84422B2F5817F03D9012303715D
:101BD00000207047D3F8442210B49C180132C3F897
:101BE000442284F83C11012010BC704738B50369C9
:101BF0000A4A026093F84822022A044601D020468D
:101C000038BDD3F87452002DF9D0284600F0CEFE2E
:101C10002846082101F042F9204638BDA49E000064
:101C200038B503690546D3F84402B0F5817F1AD868
:101C30001446D3F84422D3F84402C2F5817201322B
:101C400003F59E73A242184402D2012314462B715D
:101C5000224601F023F82A69D2F844322344C2F81C
:101C60004432204638BD01232B71002038BD00BF0F
:101C70002DE9F0471E46044617469DF820909DF832
:101C800024309DF828A00D4659B301290FD090F8B3
:101C90004A329A424FF0000800D14DB3012D0ED0C8
:101CA00094F84B329E4212D00020BDE8F0871D2FE1
:101CB0004FD01A2F77D094F84A324FF000081E2EDA
:101CC0001AD01F2E6DD094F84B329E42ECD1BAF14F
:101CD000000FE9D00025B8F1000FE5D0002DE3D0CA
:101CE00031E0102A35D0132A33D090F84A32884692
:101CF000A6F11103012BE6D8022594F84B329E423F
:101D000057D0BAF1000F09D094F84C3294F84B0236
:101D1000002B14BF0221002101F020FA2B02B9F19F
:101D2000000F13D143F06403264A02EBC6020121DF
:101D30005268136084F84B6284F84C9284F89912CC
:101D4000B8F1000FB0D00120BDE8F08743F00303E5
:101D5000EAE74FF0020894F84A22974226D04BB1A6
:101D600094F84C3294F84A02002B14BF022100214F
:101D700001F0F4F94FEA0822B9F1000F0ED142F058
:101D80006402104B03EBC703596801230A6084F80F
:101D90004A7284F84C9284F898327EE742F003024B
:101DA000EFE70625A9E74FF00608D4E7002BE1D0BE
:101DB00073E7BAF1000FB1D0B8F1000F3FF474AF80
:101DC0008CE700BF38A00000F8B5C3681B789B06FD
:101DD00010D483680D4680211970C36812211970D0
:101DE00090F84932012B044606D08AB980F848227F
:101DF0000120F8BD0020F8BD1A4675B9474B4FF0D9
:101E000080711960022A0FD0012084F84802F8BDC1
:101E1000531E012BF1D90120F8BD012DF2D13F4B0A
:101E20004FF000711960EDE7D4F87462002E6AD0AB
:101E30003379102B30D0002D3CD132683849938B48
:101E4000384F9BB243F0080393833279531102F168
:101E500010009B0041F8207003F1604303F56143DB
:101E6000012102F01F0201FA02F231681A608B8B25
:101E70009BB243F002038B83337903F1804303F574
:101E8000043396221D701A700022022384F85E2209
:101E900084F848320120F8BD304600F087FD304616
:101EA000082100F0FBFF00230120C4F8743284F8FD
:101EB0004802F8BD012DE7D132681949938B1A4FBA
:101EC0009BB243F0080393833279531102F110005F
:101ED0009B0041F8207003F1604303F5614302F079
:101EE0001F02954032681D60938B9BB243F0020342
:101EF0009383337903F1804303F504330021972260
:101F000019701A70C0E7082000F0C6FF3146074676
:101F10003E4600F0E7FCC4F8747289E700E100E097
:101F20000082FF1FF1270000FD270000F0B5284EBA
:101F3000DFF8ACE0A6FB0143A6FB02429E09370294
:101F40007546960914240023B7FBF6F604E0013326
:101F5000372B1BD055F8044F22029642F7DA83BB89
:101F600014241C4A4568B1FBF4F491422B70C0F86C
:101F7000504207D8184B8269A3FB0131C1F30751C6
:101F80001170F0BD836904221A70F0BD002422464E
:101F90004FF470274FF470654FF0360CB21AF71BF0
:101FA000002A87EAE776A6EBE776B8BF5242964268
:101FB00002DD0A4AD35CD4E7084B2C4613F80C30F8
:101FC000CFE703F1FF3C5EF82C502F02E6E700BF9D
:101FD000D34D6210FF6BDC02819F5E169C9F000058
:101FE000C09E0000F0B49DF814409DF810609DF86C
:101FF00018503CB135B1C7683F78BF0602D5002004
:10200000F0BC7047069505940496F0BCFFF730BE0F
:102010002DE9F04184B0044694469DF828609DF86F
:102020002C209DF830009DF834E09DF83C700D4662
:1020300000294BD1DFF8E080D8F8001041F04001D2
:10204000C8F80010002184F849C284F85512BCF188
:10205000000F2AD163692021197012B994F84A221D
:10206000D2B210B994F84B02C0B294F8981294F816
:10207000996202960346CDF800E001912046294678
:10208000FFF7B0FF0E9A23492046FFF74FFF3A466D
:1020900029462046FFF798FE94F8493263B3A368B7
:1020A000C0221A7004B0BDE8F0816169CEB14FF072
:1020B000280C81F800C09E42216823D95B00DBB266
:1020C0000B707600E369F6B21E70C6E70129B9D13C
:1020D000DFF84480D8F8001041F08001C8F8001003
:1020E000B0E74FF0200C81F800C021685B00DBB244
:1020F0000B70E3691E70B0E7A36880221A7004B009
:10210000BDE8F0817600F6B20E705E00E369F6B2CB
:102110001E70A2E7006CDC023480044070B5D0F879
:102120003841D0F834319C4218D9D0F83831D0F841
:102130003451D0F834615D1B954228BF15460446E2
:1021400000F130032A460846991900F0A7FDD4F89B
:1021500034312B44C4F83431284670BD002070BDA2
:102160002DE9F041C04E337804460133DBB2C0683C
:10217000A768337005783B78DBB203F0200282B0A9
:10218000EDB23AB313F0100F94F85E327AD0022B0E
:1021900000F0D88094F85E32032B00F0D38094F8DE
:1021A0005532082B00F0298294F85532092B00F0A3
:1021B000648294F85532012B00F0D38180233B7068
:1021C000E36802221A703378013BDBB2337002B04D
:1021D000BDE8F08102F0FF08EA0624D405F04002D1
:1021E00002F0FF0E1ABB03F0100303F0FF02002BF6
:1021F00000F0838015F0010540F0A881D4F840225A
:10220000D4F844329A4207D2D4F840325A1C2344BC
:10221000C4F8402293F83C5123691D70A368D02272
:102220001A70E0686EE0102303706806C8D594F851
:1022300055320C2B00F0098105F0040505F0FF076D
:10224000002D64D0A3680021D0220B2084F8550211
:10225000C4F844121A702269D4F86C1213785B081F
:1022600084F8563209B188472269D4F84432002BE9
:1022700000F0748194F83C8182F800800123C4F856
:1022800040329DE7022B00F0A68094F85E32032BCB
:1022900000F0A180D4F83831D4F8582202339342A8
:1022A00000F04F8194F85532012B00F04581D4F8AD
:1022B00038310133934280F0198194F85532012B63
:1022C00000F00F81D4F838312269591CC4F8381154
:1022D0002344127883F83020E36802221A7094F8BD
:1022E0005532DBB2012B7FF46EAF94F85D22002AE9
:1022F0007FF469AF84F85D3265E794F855320C2BB2
:1023000000F09C810223037002B0BDE8F081574BBE
:10231000574A94F84B0284F85C72002914BF1146A6
:102320001946032200F042FEA3680C21C02284F863
:102330005512C4F838711A7023691B785B0884F849
:1023400056323DE7D4F8742213689B8B190604D5E6
:1023500094F85E32022B00F0B88094F85E32032BC2
:1023600000F08E80434B12791968012393400B4291
:102370003FF429AF4049414B0A70D4F874120979EF
:1023800019700022072384F85E2284F85532D4F8AD
:102390009432013304D0D4F894320133C4F8943227
:1023A000EA0611D5042384F85532D4F88C3201336F
:1023B00004D0D4F88C320133C4F88C32E268102196
:1023C00000231170C4F84032A36880221A70E368B9
:1023D00002221A7032E0D4F874321A68928B120614
:1023E00003D594F85E22022A63D094F85E22032A71
:1023F00000F0DA801F491A790968012393400B42E3
:102400003FF4E1AE1C491D4B0A70D4F874221279D6
:102410001A70A36880220020072184F85E0284F8E5
:1024200055121A70E36802221A70D4F894320133FC
:1024300004D0D4F894320133C4F89432D4F8703212
:10244000002B3FF4C0AE9847BDE6D4F86832002BAD
:102450003FF4F2AE0022C4F83421D4F838010191DF
:1024600098470199E8E600BFDCA9FF1F612800003A
:102470006D2800002C8000401E8000401F8000401E
:1024800003781906FCD5C14B12791A70002384F821
:102490005E32D4F844322169013BC4F84032D4F8AA
:1024A00040322344022293F83C310B70E3681A70E7
:1024B00089E6B7491B790B70A368E8211970E368B6
:1024C000032184F85E121A707DE6B14912790A7010
:1024D000A268F0211170E268032184F85E12137083
:1024E00071E694F85D32002B3FF4ECAEA368002156
:1024F000B02284F85D121A70D4F838312269591C60
:10250000C4F838112344127883F8302094F85432F8
:10251000012B00F0C480E36802221A7094F855324F
:10252000012B33D0D4F86432002284F85522002BDA
:102530003FF4D5AE9847D2E694F85D32002B7FF495
:10254000B6AEE8233B70D4F85822B0E6C0233B7007
:102550002369E0681B7884F855E2D3E684F83C31BF
:102560008AE694F85432012B0CBF8023B0233B70D1
:10257000E36802221A70D4F8803201333FF45EAF70
:10258000D4F880320133C4F8803257E7D4F880326F
:10259000013304D0D4F880320133C4F88032D4F847
:1025A0007032002BC6D19AE6784A1B791370A36863
:1025B0000021B02284F85E121A70D4F858322269D1
:1025C000013BC4F83831D4F83831591CC4F83811FB
:1025D0002344127883F8302094F85432012B00F011
:1025E000C180E36802221A70D4F86432002284F8B1
:1025F0005522002B7FF427AFE5E505F0100303F02B
:10260000FF02002B52D000230421102284F85E32F6
:1026100084F855120270A26880211170E268C4F833
:10262000403202231370D4F88C3201333FF406AFEA
:10263000D4F88C320133C4F88C32FFE6554B564D3A
:1026400084F85C22002914BF29461946032294F815
:102650004B0200F0ABFC23691B78D4F83821B2F5AB
:10266000817FDBB207D8D4F83821A1180132C4F831
:10267000382181F83030E06844E6EB062ED504229C
:10268000102384F855220370A36880221A70E3682F
:1026900002221A70D4F88C320133C9D1CEE620233D
:1026A000013BFDD1A36880221A7034E715F00105C3
:1026B00028D084F85E22D4F84032002B59D102236E
:1026C00084F85532D4F88432013304D0D4F88432FB
:1026D0000133C4F8843280233B7078E6E9072CD5B7
:1026E0000223802284F855323A70E2681370D4F8DD
:1026F000843201333FF4A2AED4F884320133C4F8FB
:1027000084329BE6D4F840320133C4F84032D4F826
:102710004422934242D394F8543284F85552012B08
:102720000CBF8023B0233B70E36802221A70D4F8F8
:102730006032002B7FF487AE45E594F85E32012BC2
:1027400034D0D4F85832012B4FF00A020CBFE823E2
:10275000E02384F855223B702269E3681278022254
:102760001A7030E52023013BFDD1A36880221A7046
:1027700037E7032384F85532D4F888320133AAD0DE
:10278000D4F888320133C4F88832A4E71C800040B2
:102790001F800040612800006D28000094F85E3220
:1027A000012B12D0D4F8403221697AE60223E122CB
:1027B00084F85E323A70D4F874120C4A09791170B8
:1027C0002169E26809781370FDE40223F12284F89C
:1027D0005E323A70D4F87412044A09791170226991
:1027E00094F83D111170E2681370ECE41B80004016
:1027F00000210148FFF7B4BC0888FF1F01210148F0
:10280000FFF7AEBCA48AFF1FC3681B7803F0200348
:102810005BB190F85C320133DBB2012B80F85C32A3
:1028200017D990F84B0200F03DBC70B503F0FF05DE
:10283000044680F8555290F84B0200F033FCD4F86F
:1028400068325BB1C4F83451D4F83801BDE8704047
:10285000184790F84932012BE3D1704770BD00BF93
:1028600000210148FFF7D0BF0888FF1F0121014860
:10287000FFF7CABFA48AFF1F2DE9F843134BDFF807
:102880005C90DFF85C80124E124D1E6000244FF405
:102890007A774A4641461C711C739F6018465C73E8
:1028A0001D6103F0B1F80C4B4FF0010E05F52775D3
:1028B0001C711C7383F80DE04A46414618461D61A1
:1028C0009F601E60BDE8F84303F09EB8C8A9FF1FD3
:1028D000A49E00000888FF1FB4A9FF1FFC87FF1FEC
:1028E000ED1B0000F0B572B699B902688AB10379A0
:1028F0000F2B0ED8274C218841FA03F5ED070AD596
:1029000003F1007303F59063B2EB431F03D162B68A
:10291000F0BD204C2188002341FA03F212F001029D
:1029200007D00133102BF7D162B600220371026089
:10293000F0BD01259D402943218062B6164E174DFA
:10294000174FDFF864E0D9B20171346844F0020433
:1029500034602C6844F002042C60A6F580268224A2
:10296000A5F5802503F100733C6003F59063223EDA
:10297000243D0C4C8EF800105B01317029702170E1
:1029800003601A605A609A60DA601A615A619A614B
:10299000DA61F0BDDEA9FF1F408004403C800440A6
:1029A000008000401F8000401A80004003790F2BF8
:1029B00011D8094A10B4137072B6084904790A880C
:1029C0000123A34022EA03030B8062B610220023F6
:1029D00010BC0271036070471A800040DEA9FF1F1F
:1029E00008B5084600F048FE012008BD08B50846B5
:1029F00000F042FE012008BD38B508460D4603F040
:102A00003FFE04460146284600F08EFE204638BDB3
:102A100010B508461446114600F086FE204610BD4B
:102A200000F060BF08B5084600F006FE003018BF91
:102A3000012008BD08B5084600F0DCFD003018BFD5
:102A4000012008BD0846114600F06CBD084600F0A4
:102A5000A3BD00BF084600F049BD00BF00F0E4BCC4
:102A600010B54B0803F13760144600F5D830B0FBC1
:102A7000F1F000F037FC2046BDE8104000F0A8BCA3
:102A800000F018BF00F0E2BE00F0D0BE00F0B0BE13
:102A900000F0BABE0368064A1B68934205D110B520
:102AA000C8B200F0E9FD012010BDC9B2184700BF4F
:102AB000ED2900000368064A1B68934205D110B552
:102AC000C8B200F0D9FD012010BDC9B2184700BF3F
:102AD000ED2900000368064A1B68934205D110B532
:102AE000C8B200F0C9FD012010BDC9B2184700BF2F
:102AF000ED2900000368064A1B68934205D110B512
:102B0000C8B200F0B9FD012010BDC9B2184700BF1E
:102B1000ED290000704700BF00B5064A036812881F
:102B20005B6883B001A9ADF804200222984703B086
:102B30005DF804FB34A0000010B5036814465B6820
:102B40009847204610BD00BF0EB400B582B003AA5E
:102B500052F8041B019203F027FE02B05DF804EB6B
:102B600003B07047F0B507468BB0002A33D0012A76
:102B700008BF0A2251B3212400E0F4B2B1FBF2F500
:102B800002FB1511C8B2092900F1300198BFC8B283
:102B90000AA988BF3730214488BFC0B201F8240C8D
:102BA000661E2946002DE8D133B1013CE4B20AABE0
:102BB00023442D2203F8242C3B6801AA11195B68D9
:102BC0003846C4F1220298470BB0F0BD30228DF890
:102BD00025202124E8E70368C9B21B6898470BB099
:102BE000F0BD00BF10B50446006802F04FFF20465C
:102BF00010BD00BF38B543688B4201D3012038BDFA
:102C00000D4604460131006803F0CCFA0028F6D0E6
:102C1000A36884E82100002BF0D10370EEE700BF29
:102C2000F8B50446154632B9036803B11A7000239B
:102C3000A3602046F8BD0E461146FFF7DBFF0746AE
:102C400048B9206810B102F021FF276000236360BB
:102C5000A3602046F8BDA5603146206803F0ACFCB7
:102C6000E7E700BF38B50023044603604360836094
:102C7000037341B108460D4603F002FD29460246A2
:102C80002046FFF7CDFF204638BD00BF08B5FEF750
:102C90002FFDFEF773FD01F041FFFAE7844641EA9C
:102CA000000313F003036DD1403A41D351F8043BC4
:102CB00040F8043B51F8043B40F8043B51F8043B16
:102CC00040F8043B51F8043B40F8043B51F8043B06
:102CD00040F8043B51F8043B40F8043B51F8043BF6
:102CE00040F8043B51F8043B40F8043B51F8043BE6
:102CF00040F8043B51F8043B40F8043B51F8043BD6
:102D000040F8043B51F8043B40F8043B51F8043BC5
:102D100040F8043B51F8043B40F8043B51F8043BB5
:102D200040F8043B51F8043B40F8043B403ABDD224
:102D3000303211D351F8043B40F8043B51F8043BC6
:102D400040F8043B51F8043B40F8043B51F8043B85
:102D500040F8043B103AEDD20C3205D351F8043B55
:102D600040F8043B043AF9D2043208D0D2071CBF21
:102D700011F8013B00F8013B01D30B88038060464A
:102D8000704700BF082A13D38B078DD010F00303C0
:102D90008AD0C3F10403D21ADB071CBF11F8013B30
:102DA00000F8013B80D331F8023B20F8023B7BE77F
:102DB000043AD9D3013A11F8013B00F8013BF9D2AA
:102DC0000B7803704B7843708B7883706046704744
:102DD00008B5104C08E0236859050DD423681A057E
:102DE0000FD42368DB0411D423685803F3D500F013
:102DF000FFFE23685905F1D502F05AF823681A0539
:102E0000EFD500F095FD2368DB04EDD502F0E6F880
:102E1000EAE700BF3480044008B5FFF7D9FF00BFE0
:102E2000014B10221A80704700200540704700BFF8
:102E3000094908B50B6830B16A461844A2F58052BA
:102E4000904202D20860184608BD02F0E9FD0C234A
:102E500003604FF0FF3008BD508DFF1FEFF313806C
:102E600070B9EFF310836BB9EFF305825AB94FF4E1
:102E70008070EFF311832BB1984228BF184670473A
:102E80004FF0FF3070470F2A01D81846F1E7014B89
:102E9000D05CEEE7F0E300E002F0F0BD02F0F6BD3A
:102EA000F0B44D1E2E46002400E00134B0FBF2F3D6
:102EB00002FB1300092800F130078ABF3730F8B24F
:102EC000C0B206F8010F1846002BEED10A19537054
:102ED0004CB1107815F8016F28700133E01A834265
:102EE00002F80169F5DB0846F0BC7047704700BF87
:102EF00010B40F4B53F8302092F880422CB10123CC
:102F000069B182F8803010BC704703EBC0035B6886
:102F10001A6841B922F002021A6010BC704782F8A8
:102F2000003110BC704742F003021A6010BC7047B9
:102F300038A000001C4A02EBC00301295B6811D0D5
:102F400004291BD052F83000002280F8802229B1D9
:102F5000022920D0032922D01A6070474FF48072D2
:102F60001A60704752F830004FF4A27280F8801255
:102F70001A601A6822F020021A60704752F8301066
:102F80004FF4A272012081F880021A601A6842F0A0
:102F900020021A60704740F203121A6070474FF423
:102FA00081721A60704700BF38A00000212848D8FD
:102FB000F8B5042A44D8DFE802F0484B4E03450038
:102FC0004FF410262B4B03EBC0030D465C682168C1
:102FD00011F4E06148D0284B284A2949C3F89C21C4
:102FE00004F140422748C3F8A411A2F59221264FCC
:102FF000C3F8A0017C292548C3F8A871C3F8AC0127
:103000002CD9A2F594237C2B2AD9A2F596237C2BCC
:1030100028D9A2F598237C2B29D9A2F59A227C2ABB
:1030200027D81B4872B6236823F4702343F08072BC
:10303000C4F384011643236040F82150266062B631
:10304000F8BD70474FF43026BCE74FF40026B9E7CF
:103050004FF44026B6E74FF42026B3E70D48E1E7EA
:103060000D48DFE70D48DDE7FFF764FFB3E70C48E5
:10307000D8E7F8BD38A000000082FF1FD187FF1FEE
:103080007987FF1FA587FF1F4D87FF1F2187FF1F20
:103090002C8EFF1F548DFF1F8C8DFF1FDC8DFF1F9B
:1030A0000C8EFF1F1A4B03EBC00010B4426802F1F4
:1030B0004043A3F592217C2923D9A3F594217C29AF
:1030C0000DD9A3F596217C291FD9A3F598217C2938
:1030D00019D9A3F59A237C2B11D80E4C00E00E4C85
:1030E00072B613680D4823F08773C2F3840123F48A
:1030F000803343F08073136044F8210062B610BC43
:103100007047074CECE7074CEAE7074CE8E700BFDD
:1031100038A000002C8EFF1F8C8DFF1FED2E0000AD
:10312000548DFF1F0C8EFF1FDC8DFF1F30B4054B2D
:10313000054D064C002210211A602A60206019609B
:1031400030BC704714D0034004D0034000D003408B
:10315000212801D8FFF7CCBE704700BF212801D835
:10316000FFF7E8BE704700BF2DE9F843054672B689
:10317000204F214B214A1B683C68126862B65201FD
:1031800002D5322B88BF013495B3C3F5BB331C4E37
:10319000DFF86490DFF86480FF334FF47A72A6FBA7
:1031A000031302FB04F404EB931472B6D9F8001075
:1031B0003A68D8F800E062B6C1F5BB33FF33A6FB2E
:1031C00003031EF0806FC4EB93134FF47A7002D0A8
:1031D000322988BF013200FB0233B3F57A7F04D372
:1031E000013D05D004F57A74DFE701F097FCDCE7D8
:1031F000BDE8F883E0A9FF1F18E000E004ED00E05F
:10320000ABAAAAAAF8B52D4B2D49DFF8D0E0DFF81C
:10321000D0C02C4E2C4D2D4C2D4A2E4F4FF400007B
:1032200018604FF0807018604FF0007018604FF019
:10323000806018604FF0006018600020086028234C
:103240004BF6FF71CCF80010CEF8003033601360FD
:103250002B6023603B60B3629362092245F8242C03
:10326000C4F8D80F05F57F65C7F8D41F07F5FF2709
:1032700007F5FA67C6F8F83F2B6006F5FF26C4F895
:10328000D42F05F5FD2504F5FF24386006F2F47609
:103290001148316005F5FF6504F5FD642B6023607E
:1032A000026001F085FD1920FFF75EFF01F008FACA
:1032B00040F21310BDE8F840FFF756BF08E100E008
:1032C0000480034014800340248003402C8003408A
:1032D0001C8003403480034000800B400C8003407E
:1032E000088003402B4A2C491368F0B543F400636F
:1032F00013600A78294F2A4E2A4D2B4C2B49002364
:10330000092A3B7033702B7023700B703DD01A2A42
:1033100021D0274B1B780A2B25D01F2B30D01F28FC
:1033200027D8002002460125224B234C1A7023493E
:103330005D7004224FF0020E88273C2640259872CB
:103340009A704FF4004083F813E05A751F74DE70D2
:1033500025700860F0BD1A4B40F213321A60144B0E
:103360001B780A2BD9D1174B4FF451721F281A60C2
:10337000D7D9C0F34432C0F3471500F01F00D3E79C
:10338000114B4FF451721A60C9E7104B40F21332DF
:103390001A60BEE734800440348EFF1F54AAFF1F1A
:1033A000E9A9FF1F5CAAFF1F55AAFF1FE8A9FF1F7D
:1033B000358EFF1F00B006402FE400E004E100E07E
:1033C00004D0044010B0044000D004400CB00440CD
:1033D000144B14499B7803F0EC0200F003031343F1
:1033E000420700F00F0248BF43F01003042A8B701D
:1033F00013D00C4B0B4A5B79C10603F0EF0348BFB7
:1034000043F0100353719379820603F0EF03054AEA
:1034100048BF43F01003937170478B7943F040032A
:103420008B71E6E700B00640234B1B681B0542D5B5
:1034300010B5224C237823B101F070FB2378002BC8
:10344000FAD11F481F4A204B4FF40044002104606A
:10345000D1701B78092B1FD01A2B03D11B4B40F2C4
:1034600003121A601A4B1B7803F07F030A2B1DD03E
:103470001F2B03D1174B40F203121A60164A114B4F
:103480001648174912681C79DB79002303700B700A
:103490000AB10123137010BD124B40F203121A60DF
:1034A0000B4B1B7803F07F030A2BE1D10E4B40F24C
:1034B00003121A60E2E7704734800440E8A9FF1F56
:1034C00084E100E000B00640348EFF1F04D00440C9
:1034D000358EFF1F00D00440E4A9FF1F54AAFF1F30
:1034E000E9A9FF1F0CB0044010B004400A4A38B5E7
:1034F0000546137803F0FF04002BFAD1012128467A
:10350000FFF72CFE21462846FFF722FE034A044B14
:1035100052F835201A6038BDE8A9FF1F38A0000016
:1035200058AAFF1F09B140F08000174A137898424B
:1035300016D010B4154C246824050FD503F07F0372
:103540000A2B1CD01F2B11D0002900F07F0114BFC3
:10355000602344230A290DD01F2902D0107010BC0B
:1035600070470B4943F440730B60F7E7084B0024A6
:103570001C60E9E7074943F440730B60EEE7054B35
:1035800000241C60E0E700BF358EFF1F348004403C
:1035900000D0044010B00440124B1A7882420CD084
:1035A00011490968090507D5092A16D01A2A0AD02F
:1035B00009280DD01A2801D0187070470B4A40F224
:1035C00013311160F8E7094A002109281160F1D18F
:1035D000074A40F213311160EEE7054A00211160FD
:1035E000E6E700BF348EFF1F3480044004D004405F
:1035F0000CB004400D4B1B6813F4006305D0212868
:1036000005D90B4B00201860704718467047094BCE
:1036100010B5074C53F8303023600121FFF79EFDB1
:10362000236800221A70012010BD00BF34800440BE
:10363000E4A9FF1F38A000000C4B1B6813F40063C3
:1036400006D0172806D00A4A537B03F0FE035373B3
:1036500000207047074B064A40F202311960537B45
:1036600043F0010353730120704700BF34800440CE
:1036700000B0064008B004402DE9F84F234B1B680A
:103680001A053BD5224B1B680BB101221A70DFF8DB
:103690009090204D99F80040DFF888801E4E01344C
:1036A000272C8ABF4FF0000A5FFA84FA5446074677
:1036B000AB462B789C4216D1FFF7D0FB40281FDC8D
:1036C00033791B06F5D59BF800300133272B86BFD5
:1036D00000221346DAB218F80330DBB2F3712A7015
:1036E0002B789C42E8D00D490B4BFFB20120BC2245
:1036F00008F80470087089F800A0DA70BDE8F88F47
:10370000FF28D6DD01F00AFAD3E700BF3480044079
:1037100058AAFF1F55AAFF1F00B00640E8A9FF1FC7
:103720005CAAFF1FECA9FF1F2DE9F84F294B1B686E
:103730001A0548D5284B1B6805460BB101221A70A3
:1037400005EB010A554540D2DFF89C80234CDFF899
:103750009C90234F0AE015F8012B09F80B20214A11
:103760000123AA45137088F800602ED098F8003025
:10377000227803F1010BBBF1270F86BF0026B34669
:103780005FFA8BF69345E6D1BC22FA7005E03A79F0
:1037900013060BD422789345DDD1FFF75FFB402859
:1037A000F5DDFF28F6DD01F0B9F9F3E72278013203
:1037B000272A86BF00210A46D1B219F80220D2B2C8
:1037C000FA712170E6E7BDE8F88F054BBC22DA708C
:1037D000BDE8F88F3480044058AAFF1F55AAFF1F88
:1037E00000B00640E8A9FF1F5CAAFF1FECA9FF1F5D
:1037F00010B5044C237823B101F090F92378002B05
:10380000FAD110BDE8A9FF1F064A074B1B781078B4
:10381000DBB2C0B283422CBF273000F1FF30C01AA8
:10382000704700BF55AAFF1F5CAAFF1F054A064B41
:1038300010781B78C0B2DBB2984238BF4030C01A53
:10384000704700BF54AAFF1FE9A9FF1F30B4154BF2
:10385000154C1A782378D2B2DBB29A421ED00133CB
:103860003F2B0ED91149124B087819680023C0B2BA
:10387000237021B1D31A1A2B01DC00230B7030BC4A
:1038800070470A480A49C05C0968DDB2C0B22570B9
:103890000029F4D09A4238BF4032EBE74FF0FF30B6
:1038A000EDE700BF54AAFF1FE9A9FF1F14AAFF1FDD
:1038B000E4A9FF1F084A094B12781B78DBB29A4231
:1038C00007D00133402B28BF0023054AD05CC0B28B
:1038D00070474FF0FF30704754AAFF1FE9A9FF1F40
:1038E00014AAFF1F0D4B1B681B0516D530B40C4BDB
:1038F0000C4CDA780C480D4902F0CB024025DA7006
:103900005D74DA7842F03402DA7023780268DBB250
:103910000B700AB10023137030BC70473480044030
:1039200000B00640E9A9FF1FE4A9FF1F54AAFF1F2A
:10393000F0B4384B1A7912F0300F2CD072B6997D52
:1039400001F0FF0200293DD062B6334F3349387889
:103950000D78334E1C46C0B2EDB2431C402BE179CA
:1039600028BF0023AB4202F1FF32C9B21CBFF154A1
:10397000184612F0FF02F0D12A4B1B68C2B23A700F
:103980004BB1A84236BFC5F14005401B401927285E
:10399000C4BF01221A701F49CA78D2B2150616D4C4
:1039A00052060DD51B4B1B795B0609D51E4B1F49D3
:1039B0001B6800220A7003B11A70164B3C22DA70A1
:1039C000F0BC70474022D9795A7462B6E3E70B79AC
:1039D0001C06E5D5164B174E1C783378E4B2DBB2E3
:1039E0009C420ED0144D01E0A3420AD00133282B93
:1039F00028BF00230879E85CC0B2C871087D072899
:103A0000F2D9DBB2034933700B79180644BF7C232B
:103A1000CB70C5E700B0064054AAFF1FE9A9FF1FFD
:103A200014AAFF1FE4A9FF1F58AAFF1FE8A9FF1F40
:103A30005CAAFF1F55AAFF1FECA9FF1F431E032B03
:103A400014D872B60A4951F8230068B170B4094C11
:103A5000058834F81320466841F82360521B24F887
:103A6000132062B670BC704762B670470020704782
:103A7000B8AAFF1FC0ACFF1F013803280BD872B6CD
:103A8000074B53F8203043B100205B680130002B16
:103A9000FBD162B67047002070471846F9E700BFB7
:103AA0000CABFF1F30B472B62B4A13781D0706D536
:103AB0002A4B196A002936D0996A002941D05378D7
:103AC0001C0706D5254B196C00293ED0996C00299E
:103AD00039D09378190705D5204B196E002936D0B7
:103AE000996E89B1D3781B0707D51C4BD3F880207A
:103AF0007AB3D3F8882011213AB162B6184B00226C
:103B00001A7030BC00F07ABE0D21154C154D22788C
:103B100043F8315003EBC1030830013A586022707A
:103B200062B630BC704704220D4C0F4D217843F82B
:103B3000325003EBC20308304A1E5860227062B64E
:103B4000EFE70521E1E70921DFE70822ECE70C2296
:103B5000EAE71022E8E700BF70A100000080FF1F25
:103B600035ABFF1FC800400088004000431E032BF8
:103B70001DD81B4A400140F0100030B4104472B60A
:103B8000184CE25C032A1BD8DFE802F0021215177A
:103B900003220D88E25410F0080F14BFC8238823B5
:103BA00043EA054308310360416062B630BC7047A8
:103BB00008300222EDE70522EBE708300422E8E7AF
:103BC000094A52F8230038B1084A52F823004160EC
:103BD00042F8231062B6E9E742F82310034AF7E7F8
:103BE0000080FF1F44ABFF1F0CABFF1F1CABFF1F70
:103BF0002DE9F04FDFF80CB3DFF80CA387B044E0F9
:103C0000AB4F4FEA930807EBC809013ED9F80420EF
:103C100003F00803F6B2A2F1080003F0FF04002B42
:103C200040F0028157F838301B0C99B222F8081C7A
:103C3000002B00F0F0809F4B22F8064C42F8044C19
:103C400053F82620002A00F0C5829B4D55F82630F7
:103C500058609A4C45F8260034F81630194424F878
:103C6000161000F0ABFD002800F0AD82944A954B91
:103C700019F0080F00F1080018BF1346C9F8040036
:103C800047F8383008238BF800309BF80040E4B246
:103C900061071AD58C4B1B78A3B18C490A7802F0C6
:103CA000FF0322B1013BDBB20B7003B900BE8849B0
:103CB0000A7802F0FF032AB1013BDBB20B70002B44
:103CC00000F0578204238BF8003004F0080303F05F
:103CD000FF02002B00F0CC809AF80030DBB21E0906
:103CE0008ED19C08DFF8C89159F8342009EBC40143
:103CF000C2F38302013A49680C2A00F28880DFE8A7
:103D000002F07C7C868686868686478686860700C5
:103D10000868704D4A68704F704E286081B240F25A
:103D20008160674B6A604FF0010E0022814249F8C2
:103D300034303A60C9F81020C9F8182086F800E03D
:103D40005B4C00F2E380B1F5D06F80F04683B1F5B3
:103D5000817F00F0FC8200F28D82802900F0778361
:103D6000822940F0FA82A98801F07F01042900F23B
:103D7000F4825B485B4C89000844227062700278D0
:103D8000930740F1588484F800E04FF0020E42E3BC
:103D9000514F3A6832B3544B504E544918883478D6
:103DA0000D784028864645F0020828BF4FF0400EA7
:103DB000002C84F001043470CEEB00000CBF88248A
:103DC000C82409EBC80680B285F0010544EA0E4418
:103DD0007260188049F8384072440D70002800F075
:103DE00045813A603B4B1A88B2F5A06F0FD1002194
:103DF0009A7859703E4B1A7009E0364A108842F2A0
:103E00002102904200F037812D4A49F83420394A86
:103E10000123137036E72A4A2A4B19F0080F18BFFE
:103E2000134647F838302DE700F0E8FC324A3349B2
:103E300052F82630002B00F0D18158688C5D42F892
:103E4000260003F10802C9F80420032C05D8DFE896
:103E500004F02C02292602228A551A8819F0080F2C
:103E60000CBF8823C82343EA024347F8383009E7E8
:103E7000E00700F18181210600F1F281A20706D559
:103E80001F4A204913780220DBB213700870E30642
:103E900002D51C4B10221A7007B0BDE8F08F042227
:103EA0008A55DAE705228A55D7E703228A55D4E7EF
:103EB0000080FF1FB8AAFF1F64AAFF1FC0ACFF1F2E
:103EC000C80040008800400040ABFF1FC9AAFF1F88
:103ED00048ABFF1F2CABFF1F60AAFF1FC8AAFF1F24
:103EE000C020074038ABFF1F74AAFF1F34ABFF1F71
:103EF00098200740942007400CABFF1F44ABFF1FE6
:103F000088200740802007409020074042F221008F
:103F1000814200F02A8100F2D880B1F5086F00F0EC
:103F20007682B1F5106F40F01882226AB349A87802
:103F30000870120600F13A83D9F82820B049130618
:103F400000F10C83D9F83020AD49150600F101834A
:103F5000D9F83820AA49140600F1F682D9F8402091
:103F6000A749100600F14A83D9F84820A44912064F
:103F700000F13F83D9F85020A149130600F13483A2
:103F8000D9F858209E49150600F12983D9F86020F8
:103F90009B49140600F11E83D9F868209849100641
:103FA00000F11383D9F870209549120600F10883B7
:103FB000D9F878209249130600F1FD82D9F88020C3
:103FC0008F49150600F13183D9F888208C491406F1
:103FD00000F12583D9F890208949100600F1198352
:103FE000D9F898208649120600F10D838548864A43
:103FF000864901908648874D874C04970023059693
:10400000029580460F4616461D460394306828B137
:10401000446800F0F3FB2046002CF9D10023336004
:10402000029B38681A46002342F8253028B14468BC
:1040300000F0E4FB2046002CF9D100223A60019AFE
:1040400098F800301146002241F8042B039A0191A0
:10405000023B4FF0000122F81510032B00F22B81D8
:10406000DFE813F07001250170012501BEF1400F5A
:1040700018BF0022B5E6694A0D784878157050706F
:104080008D78C8789570D07010680D791571862874
:104090004D7989795571917100F09B816049614E2C
:1040A0000A78307882F00105002842F002020D7093
:1040B0000CBF8821C82149F8321009EBC20280F0F8
:1040C00001000021307051609EE642F221208142C1
:1040D00040F0CB81544B554C5549A8781D6825605C
:1040E000CDF804E008700020029080468446044623
:1040F0004B490D7845F0020E09EBCE030393019B6B
:10410000002B039B5C600CBF8824C82444EA08038E
:1041100085F0010449F83E3032700C70DFF8E0E0C1
:10412000404BDFF8FC80002840F01E81BCF1400FBE
:104130001BD144F0020C09EBCC03029CDFF8C0E079
:104140005C60002A40F02681020442F088029DF85B
:1041500004304EF83C20044433700D702346402850
:1041600003D10020334A3B601080334A012313708F
:104170004DE600F0AFFCA5E5214B2F4828491A6118
:104180004FF0020E80F800E02C4F0A702C491960A5
:1041900099602C4E2C4D2D4C9A610D213970FF21C8
:1041A0003170DFF8B8E029702270294D294A8EF865
:1041B00000109F27012406F8047C5D600470DA601B
:1041C00007B0BDE8F08F244A47F838001378013370
:1041D000137057E543F826000E4D3AE58B5D032B2F
:1041E00000F2F08001A252F823F000BF853C0000ED
:1041F000853C0000A9420000A342000040ABFF1F25
:104200000080FF1F1CABFF1FB8AAFF1F0CABFF1FD6
:1042100044ABFF1F64AAFF1FC0ACFF1FC8ACFF1F49
:1042200034ABFF1FC8AAFF1FE0A9FF1FD0ACFF1FC0
:1042300058ABFF1F74AAFF1F94200740C0200740FF
:1042400088004000882007408020074098200740D1
:1042500078AAFF1FCCAAFF1F35ABFF1F8C20074099
:10426000C149C24B80220D2008701A70A2077FF549
:104270000EAE05E640F20232914240F0EE80A9888F
:1042800001F07F01042968D86A88002A65D1B64800
:10429000CDF804E089000844017841F00201017082
:1042A00021E701238B55EDE400238B55EAE44FF021
:1042B000010388F800300135042D06F1040607F1EA
:1042C000040708F101087FF4A1AEA94CA94B22789C
:1042D000A94D049F059E002129701A70130700F153
:1042E00005816278A549DFF8A0820A7010074FF0B7
:1042F0000001C9F83010C9F8381000F1E080A04979
:10430000A2780A700021C9F85010C9F85810110796
:10431000DFF8748200F10181E2789A499A4C0A70C0
:1043200000211207C9F87010C9F8781000F1B080A8
:1043300033780193002183F00102C9F89010C9F885
:104340009810D0E64FF0000388F80030B3E7A98852
:1043500001F07F01042940F28D80834A0F231370FE
:104360008A4A0123137052E540287FF6E2AE44F0FA
:1043700002040EEBC401029E4E60BAB19DF8041017
:10438000834A19703346403888F8005040334EF85D
:104390003420E7E69DF8043033700204029B0D7070
:1043A00042F0C80203444EF83C20D8E69DF80410C1
:1043B0001970029B774A88F80050403840334EF815
:1043C0003420CFE619F0080F0CBF022303238B55CE
:1043D00058E4714A0F21117060E6704A5468002C4D
:1043E000BBD06888B5F804E003E00C325468002CB8
:1043F000B3D013888342F8D153887345F5D1000AAE
:1044000003280CBF94F800E0B2F808E003E0644A27
:10441000644C12782270E888704580F03F816249D0
:104420000D784028844645F0020E28BF4FF0400C1E
:1044300004EB0C0309EBCE02029301235460CCEB96
:1044400000004FEA0C4800220193C8245EE6554C58
:104450004FF0020E22706270DDE7B1F5A06F7FF4BD
:104460007CAF0123002201933DE642F221329142CA
:10447000F7D072E76A88002A7FF46FAF3A48CDF828
:1044800004E089000844017821F0020101702AE665
:1044900000F094F9002800F0EF8008303D4AC4F89D
:1044A0008400C4F8802000F089F9002800F0DE8044
:1044B0000830374AC9F88C00C9F8882038E700F07E
:1044C0007DF9002800F0C0800830324AC8F8440066
:1044D000C8F8402000F072F9002800F0AF800830E2
:1044E0002B4AC9F84C00C9F8482008E700F066F9E3
:1044F000002800F0CD800830264AC9F82400C9F809
:10450000202000F05BF9002800F0BC800830204A31
:10451000C9F82C00C9F82820E3E600F04FF900287C
:1045200000F09E8008301B4AC8F86400C8F860207C
:1045300000F044F9002800F08D800830144AC9F8D2
:104540006C00C9F86820E7E6C86B083800F056F937
:1045500004E5486B083800F051F9F9E4C86A0838F6
:1045600000F04CF9EEE400BFC02007408020074077
:1045700070A10000C420074035ABFF1FC8200740D2
:10458000CC200740D02007400080FF1F9420074028
:10459000C800400088004000C9AAFF1F74A10000A5
:1045A00040ABFF1F38ABFF1F34ABFF1F606A0838FA
:1045B00000F024F9C0E4C86F083800F01FF9FDE4EA
:1045C000486F083800F01AF9F2E4C86E083800F0B5
:1045D00015F9E7E4486E083800F010F9DCE4C86D1E
:1045E000083800F00BF9D1E4486D083800F006F9FE
:1045F000C6E4C86C083800F001F9BBE4486C083820
:1046000000F0FCF8B0E4D1F89C00083800F0F6F8AF
:10461000ECE4D1F89400083800F0F0F8E0E4D1F8C8
:104620008C00083800F0EAF8D4E4D1F884000838A7
:1046300000F0E4F8C8E44FF0020EECE62A78C9F87E
:10464000480001322A705AE62A78C8F84000013240
:104650002A703FE72A78C9F8680001322A705BE6C1
:104660002A78C8F8600001322A7061E72A78C9F810
:10467000880001322A705BE62A78C4F88000013293
:104680002A7010E72A78C9F8280001322A7028E633
:104690002A78C9F8200001322A7032E7BEF1400FB3
:1046A000F44628BF4FF0400C04EB0C0302930123A7
:1046B000CCEB0E004FEA0C480022019318E500BF36
:1046C000F8B500F0F7FC294B29482A4C2A4F2B4D0E
:1046D000DFF8BCC0DFF8BCE0294E00221A605A6047
:1046E0009A60DA601A615A619A61DA611A625A62F2
:1046F0009A62DA621A635A639A63DA631A645A64D2
:104700009A64DA641A655A659A65DA651A665A66B1
:104710009A66DA661A675A679A67DA67C3F880207A
:104720000168C3F8842041F480210160C3F30721AC
:104730002170C3F30740134938701B0E2B70FF2301
:104740008CF80030104D8EF8003010480B700123AB
:10475000337084F8642070264FF40074102207F838
:104760002C3C2E70046081F8F820F8BD0080FF1FFB
:10477000348004409C200740B0200740B42007400C
:10478000942007401020074049E400E008E100E0E1
:10479000802007408820074000F0A0B800F078B8DB
:1047A00000F06CB900F046B90846114600F0B2B806
:1047B000084600F033B900BF704700BF72B60D481D
:1047C0000268B2FA82F30B2B10DC4FF00041D940A3
:1047D00022EA0102026062B6074803EBC303DB0072
:1047E000C2180021C15010465160704762B60020C7
:1047F000704700BF488EFF1FBC83FF1F0D4B0E4A42
:10480000C31AA2FB03231B090B2B0CD80B4A1278EB
:1048100052B972B60A484FF00041026821FA03F318
:104820001A43026062B67047064A1278002AF0D036
:10483000FFF738B9BC83FF1F398EE33835ABFF1F54
:10484000488EFF1F40ABFF1F38B50F4D286878B169
:1048500043880288C118013393420C7A02D2438004
:10486000204638BDFFF7CAFF002320462B6038BD25
:10487000064B1B782BB10320FFF7E0F828600028D7
:10488000E6D14FF0FF3038BD54ABFF1F40ABFF1FE8
:1048900010B5094C206818B143881844007A10BD3F
:1048A000064B1B782BB10320FFF7C8F820600028C7
:1048B000F2D14FF0FF3010BD54ABFF1F40ABFF1FD4
:1048C000044B054A1B6890881BB11A885B88D31A71
:1048D0001844704754ABFF1FC0ACFF1F0B4B1B7835
:1048E0009BB110B50A4C206848B1FFF787FF002341
:1048F00003202360FFF7A2F830B1FFF77FFF03200A
:10490000FFF79CF80028F8D110BD704740ABFF1F9F
:1049100054ABFF1F2DE9F04FDFF8F89083B0012270
:1049200089F80020019169B3DFF8EC80364F019ED1
:104930008346D8F80000B0B3344D4488C4F1400138
:10494000B14228BF314604EB010E00221FFA8EFE51
:104950002A70761AA0F802E000F1080251B1013C79
:10496000224459441BF8014B02F8014F8B45F9D101
:10497000B0F802E0BEF13F0F0BD8254A05211170B7
:10498000002ED6D10198002389F8003003B0BDE88D
:10499000F08F4022028001460420FFF7E7F8002252
:1049A000C8F80020E9E73A782AB3184D4AF2F9240A
:1049B0004FF0010A07E0013C16D02A78A2B900F0B6
:1049C000ADF83A78BAB10420FFF756F80728F2D8C4
:1049D00089F800A0FFF7F2FEC8F800000028ACD16B
:1049E0000C4B013C1870E8D101234FF0FF302B70C5
:1049F00003B0BDE8F08F00234FF0FF3089F800309E
:104A000003B0BDE8F08F00BF40ABFF1F50ABFF1FEE
:104A100048ABFF1F49ABFF1F4CABFF1F00B583B076
:104A200002AB012103F8010D1846FFF773FF03B035
:104A30005DF804FB38B50E4D0E4C28680123237039
:104A400028B1408800232370C0F1400038BD0A4BD4
:104A50001B7813B90020207038BD0420FFF70CF834
:104A60000728F7D8FFF7AAFE28600028E9D1F1E768
:104A70004CABFF1F49ABFF1F40ABFF1FF8B5114BFD
:104A80001B788BB1104E114D346801272F7064B123
:104A90000F4A638800271770214623800420FFF700
:104AA00065F8376000232B70F8BDFFF787FE084BD1
:104AB00028B1014604201C70FFF758F8F2E71F7078
:104AC000F0E700BF40ABFF1F4CABFF1F49ABFF1F20
:104AD00048ABFF1F38B50E4B1B7873B90D4C2168DE
:104AE00061B103F0FF054B880B800420FFF73EF80F
:104AF000256038BD084B01221A7038BDFFF75EFEF5
:104B00000028F7D00146BDE838400420FFF72EB852
:104B100049ABFF1F4CABFF1F48ABFF1F38B5224C02
:104B2000237803B138BD01232370FFF7C9FE70BBA2
:104B300000F0AEF940BBFEF779FE10BB00F03EFA84
:104B4000E0B900232370EFF30583002BEAD1EFF3E4
:104B5000108172B6154B1868E0B1154C2278CAB9AD
:104B600045691D6001232370C5B1AA6101B962B610
:104B700000254577836898472570D3E700F016F93C
:104B8000DFE7FDF7C7FFD9E700F00EF9D3E7FFF73E
:104B900013FECDE70029C5D162B638BD054B1D60B7
:104BA0000029E5D1E3E700BF59ABFF1F6CABFF1F46
:104BB00070ABFF1F68ABFF1F10B4EFF3108272B62B
:104BC000437F33B9017F012907D003290FD0012387
:104BD000437702B962B610BC7047124C2168A1B18C
:104BE000114943610B68836108605861EFE70F4C1E
:104BF000216881B10E4943610B6883610860586187
:104C00000C4B4FF080511960E1E7074B4161816126
:104C100020601860DBE7064B41618161206018600D
:104C2000EEE700BF6CABFF1F68ABFF1F5CABFF1F65
:104C300060ABFF1F04ED00E010B4047F4160022C64
:104C4000C26002D010BCFFF7B7BF836810BC184722
:104C500070B5EFF3108272B60C4C206880B10C4E28
:104C600000254369236073B19D6102B962B645773F
:104C700083689847EFF3108272B620680028F0D15D
:104C800002B962B670BD3360EFE700BF5CABFF1FD7
:104C900060ABFF1FFFF7DCBF184A30B41468002C6C
:104CA00027D0036821688B420ED2CB1A0021846082
:104CB000C1602360E06010600223037530BC704760
:104CC00011688B42144608D3A2685B1A0360002A5D
:104CD000F6D18260C460A060EEE7D268C2608460F2
:104CE000E060C568CB1A0222A8602360027530BC60
:104CF00070478460C4601060DEE700BF64ABFF1FD4
:104D0000F8B5224E34682CB32368002B3AD1204FDB
:104D10001D4604E03468ECB12368002B32D1A3684F
:104D200003B1DD6020693360036825751B68BB42F1
:104D300021D1037F4560022BC46020D0FFF73CFFE8
:104D40006368002BE6D023602046FFF7A5FF346898
:104D5000002CE1D1EFF3108372B60E4A00211068E7
:104D6000116003B962B628B18468FFF795FF204649
:104D70000028F9D1F8BD224600219847E0E7836872
:104D80009847DDE7013B2360E4E700BF64ABFF1F0A
:104D9000394C000074ABFF1F024A136801331360E3
:104DA000FFF7AEBFE0A9FF1F704700BF704700BF0D
:104DB00030B42948294A2A4B2A4D6024E121047045
:104DC00011701B78284C082B30D00A2B2748284913
:104DD00037D00C2B0CBF35223D2212232A602360D2
:104DE00002600B60234B24491B78244ABBB101238A
:104DF0000B601360224B23491B78234A012B26D9D1
:104E0000042B0FD9082B1ED9102B94BF8623872380
:104E10000B6013601D4B01221A7030BC70470B6091
:104E20001360E7E784230B601360F3E700F58E203F
:104E30000F490830012213232A60236002600B60AF
:104E4000D0E73922F7E785230B601360E2E7802380
:104E50000B601360DEE700BF0040074001400740E1
:104E60004C8EFF1F08B003400CB0034008B00B404D
:104E70000CB00B4079ABFF1F20B0034020B00B40BB
:104E80004D8EFF1F24B0034024B00B4078ABFF1FB2
:104E9000054A064B10781B78C0B2DBB2984238BF87
:104EA0004030C01A704700BF80ABFF1F81ABFF1FAF
:104EB000F0B4384B1A7912F0300F2CD072B6997DBD
:104EC00001F0FF0200293DD062B6334F33493878F4
:104ED0000D78334E1C46C0B2EDB2431C402BE17935
:104EE00028BF0023AB4202F1FF32C9B21CBFF1540C
:104EF000184612F0FF02F0D12A4B1B68C2B23A707A
:104F00004BB1A84236BFC5F14005401B40192728C8
:104F1000C4BF01221A701F49CA78D2B2150616D42E
:104F200052060DD51B4B1B795B0609D51E4B1F493D
:104F30001B6800220A7003B11A70164B3C22DA700B
:104F4000F0BC70474022D9795A7462B6E3E70B7916
:104F50001C06E5D5164B174E1C783378E4B2DBB24D
:104F60009C420ED0144D01E0A3420AD00133402BE5
:104F700028BF00230879E85CC0B2C871087D072803
:104F8000F2D9DBB2034933700B79180644BF7C2396
:104F9000CB70C5E700A0064080ABFF1F81ABFF1FB1
:104FA000C4ABFF1F7CABFF1F08ACFF1F04ACFF1F8F
:104FB0000CACFF1F05ACFF1F84ABFF1F054A064B5F
:104FC00010781B78C0B2DBB2984238BF4030C01AAC
:104FD000704700BF14ACFF1F15ACFF1F30B42B4B44
:104FE0001A7994061FD52A48DA79037829490133BA
:104FF0003F2B0978C8BF00238B42D2B203D0264C86
:10500000D9B2E2540170254A116861B1244A12787C
:10501000D2B2934236BFC2F140029B1A9B18272B93
:10502000C4BF01230B70194AD378DBB2180611D420
:105030005A060DD5154B1B795B0609D5194B1A4934
:105040001B6800220A7003B11A70104B2C22DA7010
:1050500030BC704711790906EAD5144910480C781C
:105060000178C9B28C420DD04A1C272A84BF002186
:105070000A460F4D054C98BFD1B2AA5CD2B2E2717C
:105080000170D5E76C21D170D2E700BF00C00640A7
:1050900014ACFF1F15ACFF1F40ACFF1F10ACFF1F6F
:1050A00081ACFF1F84ACFF1F80ACFF1F88ACFF1FCB
:1050B00018ACFF1F70B584B072B6194B194D1A4861
:1050C000702241260F2480211A702E701A46047017
:1050D000197013781B06FCD5144B186862B6144B74
:1050E000144C984298BF00EB800001A998BF400083
:1050F0000A22FDF7D5FE01A92046002311F8012B55
:1051000001333AB10A2B20F8022FF7D1162323706E
:1051100004B070BD5B00DBB2237004B070BD00BF93
:105120000000024007000240060002400800024062
:105130007F969800DC8EFF1F81F0004102E000BFE7
:1051400083F0004330B54FEA41044FEA430594EA47
:10515000050F08BF90EA020F1FBF54EA000C55EA82
:10516000020C7FEA645C7FEA655C00F0E2804FEA53
:105170005454D4EB5555B8BF6D420CDD2C4480EA35
:10518000020281EA030382EA000083EA010180EA65
:10519000020281EA0303362D88BF30BD11F0004FB3
:1051A0004FEA01314FF4801C4CEA113102D04042E9
:1051B00061EB410113F0004F4FEA03334CEA133324
:1051C00002D0524263EB430394EA050F00F0A7803C
:1051D000A4F10104D5F1200E0DDB02FA0EFC22FA37
:1051E00005F2801841F1000103FA0EF2801843FA2B
:1051F00005F359410EE0A5F120050EF1200E012A1C
:1052000003FA0EFC28BF4CF0020C43FA05F3C01859
:1052100051EBE37101F0004507D54FF0000EDCF1D2
:10522000000C7EEB00006EEB0101B1F5801F1BD37B
:10523000B1F5001F0CD349085FEA30004FEA3C0C7F
:1052400004F101044FEA445212F5800F80F09A8075
:10525000BCF1004F08BF5FEA500C50F1000041EB79
:10526000045141EA050130BD5FEA4C0C404141EB7D
:10527000010111F4801FA4F10104E9D191F0000FA4
:1052800004BF01460020B1FA81F308BF2033A3F127
:105290000B03B3F120020CDA0C3208DD02F1140C1E
:1052A000C2F10C0201FA0CF021FA02F10CE002F159
:1052B0001402D8BFC2F1200C01FA02F120FA0CFC52
:1052C000DCBF41EA0C019040E41AA2BF01EB04519B
:1052D000294330BD6FEA04041F3C1CDA0C340EDC99
:1052E00004F11404C4F1200220FA04F001FA02F3DC
:1052F00040EA030021FA04F345EA030130BDC4F19A
:105300000C04C4F1200220FA02F001FA04F340EA8E
:105310000300294630BD21FA04F0294630BD94F03F
:10532000000F83F4801306BF81F480110134013D26
:105330004EE77FEA645C18BF7FEA655C29D094EA97
:10534000050F08BF90EA020F05D054EA000C04BF15
:105350001946104630BD91EA030F1EBF0021002000
:1053600030BD5FEA545C05D14000494128BF41F09F
:10537000004130BD14F580043CBF01F5801130BD03
:1053800001F0004545F0FE4141F470014FF000008E
:1053900030BD7FEA645C1ABF194610467FEA655C3F
:1053A0001CBF0B46024650EA013406BF52EA0335E1
:1053B00091EA030F41F4002130BD00BF90F0000FCF
:1053C00004BF0021704730B54FF4806404F132040B
:1053D0004FF000054FF0000150E700BF90F0000FC4
:1053E00004BF0021704730B54FF4806404F13204EB
:1053F00010F0004548BF40424FF000013EE700BFBB
:1054000042004FEAE2014FEA31014FEA02701FBF4A
:1054100012F07F4393F07F4F81F06051704792F01C
:10542000000F14BF93F07F4F704730B54FF4607496
:1054300001F0004521F0004120E700BF50EA0102E1
:1054400008BF704730B54FF000050AE050EA01028E
:1054500008BF704730B511F0004502D5404261EBFE
:1054600041014FF4806404F132045FEA915C3FF43F
:10547000DCAE4FF003025FEADC0C18BF03325FEAD8
:10548000DC0C18BF033202EBDC02C2F1200300FA8D
:1054900003FC20FA02F001FA03FE40EA0E0021FAB2
:1054A00002F11444C1E600BF70B54FF0FF0C4CF49C
:1054B000E06C1CEA11541DBF1CEA135594EA0C0F52
:1054C00095EA0C0F00F0DEF82C4481EA030621EA8D
:1054D0004C5123EA4C5350EA013518BF52EA0335C8
:1054E00041F4801143F4801338D0A0FB02CE4FF07A
:1054F0000005E1FB02E506F00042E0FB03E54FF0AA
:105500000006E1FB03569CF0000F18BF4EF0010EA1
:10551000A4F1FF04B6F5007F64F5407404D25FEA9D
:105520004E0E6D4146EB060642EAC62141EA555150
:105530004FEAC52040EA5E504FEACE2EB4F1FD0C92
:1055400088BFBCF5E06F1ED8BEF1004F08BF5FEA10
:10555000500E50F1000041EB045170BD06F00046C2
:1055600046EA010140EA020081EA0301B4EB5C046F
:10557000C2BFD4EB0C0541EA045170BD41F4801167
:105580004FF0000E013C00F3AB8014F1360FDEBF8C
:10559000002001F0004170BDC4F10004203C35DA68
:1055A0000C341BDC04F11404C4F1200500FA05F3EB
:1055B00020FA04F001FA05F240EA020001F000428C
:1055C00021F0004110EBD37021FA04F642EB060102
:1055D0005EEA430E08BF20EAD37070BDC4F10C042C
:1055E000C4F1200500FA04F320FA05F001FA04F2F0
:1055F00040EA020001F0004110EBD37041F10001DC
:105600005EEA430E08BF20EAD37070BDC4F12005E6
:1056100000FA05F24EEA020E20FA04F301FA05F24E
:1056200043EA020321FA04F001F0004121FA04F2F6
:1056300020EA020000EBD3705EEA430E08BF20EAC6
:10564000D37070BD94F0000F0FD101F00046400000
:1056500041EB010111F4801F08BF013CF7D041EA82
:10566000060195F0000F18BF704703F00046520086
:1056700043EB030313F4801F08BF013DF7D043EA57
:105680000603704794EA0C0F0CEA135518BF95EA0D
:105690000C0F0CD050EA410618BF52EA4306D1D194
:1056A00081EA030101F000414FF0000070BD50EAB3
:1056B000410606BF1046194652EA430619D094EA3D
:1056C0000C0F02D150EA013613D195EA0C0F05D127
:1056D00052EA03361CBF104619460AD181EA03017B
:1056E00001F0004141F0FE4141F470014FF0000033
:1056F00070BD41F0FE4141F4780170BD70B54FF0CE
:10570000FF0C4CF4E06C1CEA11541DBF1CEA13554D
:1057100094EA0C0F95EA0C0F00F0A7F8A4EB05042F
:1057200081EA030E52EA03354FEA013100F0888026
:105730004FEA03334FF0805545EA131343EA1263EF
:105740004FEA022245EA111545EA10654FEA0026A4
:105750000EF000419D4208BF964244F1FD0404F55D
:10576000407402D25B084FEA3202B61A65EB0305B9
:105770005B084FEA32024FF480104FF4002CB6EB76
:10578000020E75EB030E22BFB61A754640EA0C00F6
:105790005B084FEA3202B6EB020E75EB030E22BF36
:1057A000B61A754640EA5C005B084FEA3202B6EB77
:1057B000020E75EB030E22BFB61A754640EA9C0036
:1057C0005B084FEA3202B6EB020E75EB030E22BF06
:1057D000B61A754640EADC0055EA060E18D04FEAC4
:1057E000051545EA16754FEA06164FEAC30343EA64
:1057F00052734FEAC2025FEA1C1CC0D111F4801F31
:105800000BD141EA00014FF000004FF0004CB6E729
:1058100011F4801F04BF01430020B4F1FD0C88BFC8
:10582000BCF5E06F3FF6AFAEB5EB030C04BFB6EBD3
:10583000020C5FEA500C50F1000041EB045170BDC6
:105840000EF0004E4EEA113114EB5C04C2BFD4EBF3
:105850000C0541EA045170BD41F480114FF0000E77
:10586000013C90E645EA060E8DE60CEA135594EAF3
:105870000C0F08BF95EA0C0F3FF43BAF94EA0C0FF6
:105880000AD150EA01347FF434AF95EA0C0F7FF46B
:1058900025AF104619462CE795EA0C0F06D152EABF
:1058A00003353FF4FDAE1046194622E750EA4106A3
:1058B00018BF52EA43067FF4C5AE50EA41047FF4B4
:1058C0000DAF52EA43057FF4EBAE12E74FF0FF3C19
:1058D00006E000BF4FF0010C02E000BF4FF0010CEA
:1058E0004DF804CD4FEA410C7FEA6C5C4FEA430C63
:1058F00018BF7FEA6C5C1BD001B050EA410C0CBFB2
:1059000052EA430C91EA030F02BF90EA020F002013
:10591000704710F1000F91EA030F58BF994208BF7A
:1059200090422CBFD8176FEAE37040F00100704737
:105930004FEA410C7FEA6C5C02D150EA013C07D18E
:105940004FEA430C7FEA6C5CD6D152EA033CD3D0D9
:105950005DF8040B704700BF8446104662468C46D3
:105960001946634600E000BF01B5FFF7B7FF002806
:1059700048BF10F1000F01BD4DF808EDFFF7F4FF2F
:105980000CBF012000205DF808FB00BF4DF808EDBA
:10599000FFF7EAFF34BF012000205DF808FB00BFDD
:1059A0004DF808EDFFF7E0FF94BF012000205DF8FF
:1059B00008FB00BF4DF808EDFFF7CEFF94BF0120B4
:1059C00000205DF808FB00BF4DF808EDFFF7C4FFAD
:1059D00034BF012000205DF808FB00BF4FEA410CF6
:1059E0007FEA6C5C02D150EA013C0AD14FEA430CD9
:1059F0007FEA6C5C02D152EA033C02D14FF0000016
:105A000070474FF0010070470B460146184600F002
:105A100001B800BF13460A460146022000F0F4BE5A
:105A2000014B1868704700BF2093FF1F70B50F4EE1
:105A30000F4D761BB61018BF002405D0013455F861
:105A4000043B9847A642F9D10A4E0B4D761B04F051
:105A500001FDB61018BF002406D0013455F8043BF0
:105A60009847A642F9D170BD70BD00BF60A4000088
:105A700060A400006CA4000060A40000024B01467A
:105A8000186800F00BB800BF2093FF1F024B0146BF
:105A9000186800F07DBF00BF2093FF1F2DE9F04F75
:105AA00001F10B05162D83B0064640F29F8035F0BC
:105AB000070500F1BF80A94200F2BC8000F06EFB38
:105AC000B5F5FC7FC0F09C826B0A00F0BA80042B15
:105AD00000F28381A80900F1390E4FEA4E033830F5
