:1000000000800020BD010000393C0000F13B0000F1
:10001000F13B0000F13B0000F13B0000F13B000030
:10002000F13B0000F13B0000F13B0000393C0000D7
:10003000393C0000F13B0000B55A0000B95B0000FC
:10004000393C0000393C0000393C0000393C0000DC
:10005000393C0000393C0000393C0000393C0000CC
:10006000393C0000393C0000393C0000393C0000BC
:10007000393C0000393C0000393C0000393C0000AC
:10008000393C0000393C0000393C0000393C00009C
:10009000393C0000393C0000393C0000393C00008C
:1000A0002D36000039360000393C0000393C000094
:1000B000393C0000393C0000393C0000393C00006C
:1000C000393C0000393C0000393C0000393C00005C
:1000D000393C0000393C0000393C0000393C00004C
:1000E000393C0000393C0000393C0000393C00003C
:1000F000393C0000D15C0000393C00005147000051
:10010000393C0000FD5D0000393C0000393C000036
:10011000393C0000393C0000393C0000393C00000B
:10012000393C0000393C0000393C0000393C0000FB
:10013000393C0000393C0000393C0000393C0000EB
:10014000393C0000393C0000393C0000393C0000DB
:10015000393C0000393C0000393C0000393C0000CB
:10016000393C0000114A0000393C0000393C0000D5
:10017000393C0000393C0000393C0000393C0000AB
:10018000393C0000393C0000393C0000393C00009B
:10019000393C0000393C0000393C0000393C00008B
:1001A000393C0000393C0000393C0000393C00007B
:1001B000393C0000393C0000393C0000564B4CF201
:1001C000205210B51A804DF628121A8000BF00BFC9
:1001D00003F036FD514B4FF010621A60504A9A609E
:1001E000504ADA60504A136813F4807304D14F49BF
:1001F0000B604FF4A85313604D4B1A78110703D5C9
:100200001A7842F008021A704A4B4B492A221A7097
:100210004A4A4B4B8B4204D252F8040F43F8040B6A
:10022000F8E7484B484900228B4202D243F8042B9E
:10023000FAE74649464A002352F8230041F82300D2
:1002400001336F2BF8D1434B434A802103F8011B44
:100250009342FBD1414B3D4A1A60414B8A221A70AE
:10026000A3F5805324225A70A0221A709A7992071B
:10027000FCD59A79D406FCD43A4A937903F00C035E
:10028000082B384BF9D103221A7140225A719A79FE
:100290009006FCD5334A9179324B4906FBD5324A58
:1002A000324911600221516020221A709A7902F0BD
:1002B0000C020C2AFAD12E4B2E4A1A602E4B2F4AD2
:1002C0001A6000225A60072243F8042C2C4AC3F813
:1002D0000C2D62B603F0A6FE144B1B68DA0705D599
:1002E000284803F033FE284B284A1A60284B1B7815
:1002F0005B0609D5244C254B22689A4204D121483B
:1003000003F024FE0023236006F0A0FA03F09EFC15
:1003100003F0CCFBFEE700BF0E2005403080044018
:10032000823F04000100002B10D0034014D0034092
:1003300002D0074000E00740D898FF1FC0B6000079
:100340002087FF1FD898FF1F0CA9FF1F0082FF1FE7
:100350000000000000E400E05FE400E008ED00E0E1
:100360000050064000400640448004400000030165
:1003700004800440C010050014E000E0FF76010096
:1003800000002020BE1C965D1CE00340A5C3945ACB
:1003900000F00740FFFFFFFFFFFFFFFFFFFFFFFF32
:1003A000FFFFFFFFFFFFFFFFFFFFFFFFFFFFFFFF5D
:1003B000FFFFFFFFFFFFFFFFFFFFFFFFFFFFFFFF4D
:1003C000FFFFFFFFFFFFFFFFFFFFFFFFFFFFFFFF3D
:1003D000FFFFFFFFFFFFFFFFFFFFFFFFFFFFFFFF2D
:1003E000FFFFFFFFFFFFFFFFFFFFFFFFFFFFFFFF1D
:1003F000FFFFFFFFFFFFFFFFFFFFFFFFFFFFFFFF0D
:10040000FFFFFFFFFFFFFFFFFFFFFFFFDEF9FFFF23
:1004100010B5054C237833B9044B13B10448AFF33E
:1004200000800123237010BDD898FF1F000000003A
:10043000BCB60000084B10B51BB108490848AFF323
:1004400000800848036803B910BD074B002BFBD0A0
:10045000BDE81040184700BF00000000DC98FF1FF7
:10046000BCB60000D898FF1F0000000090B583B014
:1004700000AF786039607B681B6804331C6838689B
:1004800007F0BEF903461A4639687868A047034664
:1004900018460C37BD4690BD80B582B000AF78607D
:1004A0000B46FB707B681B681B68FA7811467868FE
:1004B0009847034618460837BD4680BD80B582B0D0
:1004C00000AF7860396039687868FFF7CFFF03467E
:1004D00018460837BD4680BD80B582B000AF786051
:1004E0000B46FB70F97800230A22786803F042FA81
:1004F000034618460837BD4680BD00BF80B582B0B0
:1005000000AF786039603968786803F073FA0346A1
:1005100018460837BD4680BD90B583B000AF7860FF
:100520000B46FB70FB7819467868FFF7B5FF044669
:10053000786803F00FFA0346234418460C37BD468B
:1005400090BD00BF90B583B000AF78603960396866
:100550007868FFF7B3FF0446786803F0FBF90346B9
:10056000234418460C37BD4690BD00BF90B583B0FC
:1005700000AF78600B46FB70FB7819467868FFF790
:10058000ABFF0446786803F0E5F9034623441846B8
:100590000C37BD4690BD00BF90B583B000AF78600A
:1005A000396039687868FFF7A9FF0446786803F076
:1005B000D1F90346234418460C37BD4690BD00BF11
:1005C00080B582B000AF786039603B685B0803F1AA
:1005D000376303F5D8333A68B3FBF2F3184603F0F8
:1005E00091FD00BF0837BD4680BD00BF80B483B019
:1005F00000AF7860396000BF0C37BD4680BC7047E3
:1006000080B582B000AF786005F06AF803461846FE
:100610000837BD4680BD00BF80B582B000AF7860AE
:1006200005F022F8034618460837BD4680BD00BFD6
:1006300080B483B000AF78600B46FB70FB789B0002
:100640000133034AD35C18460C37BD4680BC704763
:10065000D4AF000080B483B000AF78600B46FB706D
:10066000FB789B000233034AD35C18460C37BD4627
:1006700080BC7047D4AF0000F0B589B006AF786099
:10068000084611461A460346FB700B46BB701346DC
:100690007B707B681C697B685D7B7B78194678681A
:1006A000FFF7C6FF03461E467B7819467868FFF7BA
:1006B000D1FF03461846B978FA7897F828300593A1
:1006C0007B6A049397F820300393029001960023ED
:1006D00000930B462946204602F0B8FB00BF0C37BA
:1006E000BD46F0BD80B582B000AF786039607B68F0
:1006F0001B681B683A68D2B211467868984703466F
:1007000018460837BD4680BD80B584B000AFF8609C
:10071000B9607A60FB681B6804331B687A68B96843
:10072000F8689847034618461037BD4680BD00BF9D
:1007300080B584B000AFF860B9607A60FB681B696F
:100740007A68B968184602F007FC03461846103765
:10075000BD4680BD80B483B000AF786039607B68EF
:100760001B693A68C3F8682200BF0C37BD4680BCDD
:10077000704700BF80B483B000AF786039607B6899
:100780001B693A68C3F86C2200BF0C37BD4680BCB9
:10079000704700BF80B596B000AF786039607B6865
:1007A0001B687B657B685B683B657B689B68FB645B
:1007B0007B68DB68BB6407F1080340223968184690
:1007C00000F064FE7A6D396DFB6C19403B6DD843C7
:1007D000BB6C03401943BB680B441A44A24B13443F
:1007E0007B657B6D4FEA73637B657A6D3B6D13446C
:1007F0007B65BA6C796D3B6D19407B6DD843FB6CA2
:1008000003401943FB680B441A44984B1344BB64E0
:10081000BB6C4FEA3353BB64BA6C7B6D1344BB644F
:10082000FA6CB96C7B6D1940BB6CD8433B6D0340CF
:1008300019433B690B441A448D4B1344FB64FB6C16
:100840004FEAF333FB64FA6CBB6C1344FB643A6D00
:10085000F96CBB6C1940FB6CD8437B6D03401943AA
:100860007B690B441A44834B13443B653B6D4FEA51
:10087000B3233B653A6DFB6C13443B657A6D396D70
:10088000FB6C19403B6DD843BB6C03401943BB69FB
:100890000B441A44784B13447B657B6D4FEA7363BA
:1008A0007B657A6D3B6D13447B65BA6C796D3B6DEE
:1008B00019407B6DD843FB6C03401943FB690B4423
:1008C0001A446E4B1344BB64BB6C4FEA3353BB6496
:1008D000BA6C7B6D1344BB64FA6CB96C7B6D1940C8
:1008E000BB6CD8433B6D034019433B6A0B441A442D
:1008F000634B1344FB64FB6C4FEAF333FB64FA6C09
:10090000BB6C1344FB643A6DF96CBB6C1940FB6C17
:10091000D8437B6D034019437B6A0B441A44594BFF
:1009200013443B653B6D4FEAB3233B653A6DFB6C6B
:1009300013443B657A6D396DFB6C19403B6DD843B0
:10094000BB6C03401943BB6A0B441A444E4B13441F
:100950007B657B6D4FEA73637B657A6D3B6D1344FA
:100960007B65BA6C796D3B6D19407B6DD843FB6C30
:1009700003401943FB6A0B441A44444B1344BB64C1
:10098000BB6C4FEA3353BB64BA6C7B6D1344BB64DE
:10099000FA6CB96C7B6D1940BB6CD8433B6D03405E
:1009A00019433B6B0B441344A3F524434F3BFB64B7
:1009B000FB6C4FEAF333FB64FA6CBB6C1344FB64CF
:1009C0003A6DF96CBB6C1940FB6CD8437B6D0340EE
:1009D00019437B6B0B441A442D4B13443B653B6D11
:1009E0004FEAB3233B653A6DFB6C13443B657A6D6C
:1009F000396DFB6C19403B6DD843BB6C0340194308
:100A0000BB6B0B441A44234B13447B657B6D4FEA4D
:100A100073637B657A6D3B6D13447B65BA6C796D4E
:100A20003B6D19407B6DD843FB6C03401943FB6B56
:100A30000B441A44184B1344BB64BB6C4FEA33534A
:100A4000BB64BA6C7B6D1344BB64FA6CB96C7B6D90
:100A50001940BB6CD8433B6D034019433B6C0B44BE
:100A60001A440E4B13441BE078A46AD756B7C7E864
:100A7000DB702024EECEBDC1AF0F7CF52AC68747C0
:100A8000134630A8019546FDD8988069AFF7448B8E
:100A9000BED75C892211906B937198FD8E4379A625
:100AA000FB64FB6C4FEAF333FB64FA6CBB6C1344DE
:100AB000FB643A6DF96CBB6C1940FB6CD8437B6DE1
:100AC000034019437B6C0B441A44A24B13443B650F
:100AD0003B6D4FEAB3233B653A6DFB6C13443B65BA
:100AE0007A6D396DBB6C1940F86CBB6CDB4303400D
:100AF0001943FB680B441A44974B13447B657B6D89
:100B00004FEAF3637B657A6D3B6D13447B65BA6C8A
:100B1000796DFB6C1940386DFB6CDB430340194366
:100B20003B6A0B441A448D4B1344BB64BB6C4FEAC5
:100B3000F353BB64BA6C7B6D1344BB64FA6CB96C41
:100B40003B6D1940786D3B6DDB43034019437B6B74
:100B50000B441A44824B1344FB64FB6C4FEAB343CF
:100B6000FB64FA6CBB6C1344FB643A6DF96C7B6DEF
:100B70001940B86C7B6DDB4303401943BB680B44E1
:100B80001A44784B13443B653B6D4FEA33333B6566
:100B90003A6DFB6C13443B657A6D396DBB6C194043
:100BA000F86CBB6CDB4303401943FB690B441A44EC
:100BB0006D4B13447B657B6D4FEAF3637B657A6D08
:100BC0003B6D13447B65BA6C796DFB6C1940386DD5
:100BD000FB6CDB43034019433B6B0B441A44634BF0
:100BE0001344BB64BB6C4FEAF353BB64BA6C7B6DBC
:100BF0001344BB64FA6CB96C3B6D1940786D3B6D66
:100C0000DB43034019437B6C0B441A44584B134499
:100C1000FB64FB6C4FEAB343FB64FA6CBB6C13449C
:100C2000FB643A6DF96C7B6D1940B86C7B6DDB43EE
:100C300003401943BB690B441A444E4B13443B65B4
:100C40003B6D4FEA33333B653A6DFB6C13443B65B8
:100C50007A6D396DBB6C1940F86CBB6CDB4303409B
:100C60001943FB6A0B441A44434B13447B657B6D69
:100C70004FEAF3637B657A6D3B6D13447B65BA6C19
:100C8000796DFB6C1940386DFB6CDB4303401943F5
:100C90003B6C0B441A44394B1344BB64BB6C4FEAA6
:100CA000F353BB64BA6C7B6D1344BB64FA6CB96CD0
:100CB0003B6D1940786D3B6DDB43034019437B6905
:100CC0000B441A442E4B1344FB64FB6C4FEAB343B2
:100CD000FB64FA6CBB6C1344FB643A6DF96C7B6D7E
:100CE0001940B86C7B6DDB4303401943BB6A0B446E
:100CF0001A44244B13443B653B6D4FEA33333B6549
:100D00003A6DFB6C13443B657A6D396DBB6C1940D1
:100D1000F86CBB6CDB4303401943FB6B0B441A4478
:100D2000194B13447B657B6D4FEAF3637B657A6DEA
:100D30003B6D13447B65BA6C796DFB6C1940386D63
:100D4000FB6CDB43034019433B690B441A440F4BD4
:100D500013441DE02108B44962251EF640B340C08B
:100D6000515A5E26AAC7B6E95D102FD65314440225
:100D700081E6A1D8C8FBD3E7E6CDE121D60737C38A
:100D8000870DD5F4ED145A4505E9E3A9F8A3EFFC66
:100D9000BB64BB6C4FEAF353BB64BA6C7B6D13440A
:100DA000BB64FA6CB96C3B6D1940786D3B6DDB43ED
:100DB000034019437B6A0B441A449F4B1344FB6462
:100DC000FB6C4FEAB343FB64FA6CBB6C1344FB64EB
:100DD0003A6DF96C7B6D1940B86C7B6DDB43034059
:100DE0001943BB6B0B441A44944B13443B653B6D56
:100DF0004FEA33333B653A6DFB6C13443B657A6DC8
:100E0000396DFB6C5940BB6C5940FB690B44134472
:100E1000A3F5B823A3F2BE637B657B6D4FEA337302
:100E20007B657A6D3B6D13447B65BA6C796D3B6D68
:100E30005940FB6C5940BB6A0B441A44804B134425
:100E4000BB64BB6C4FEA7353BB64BA6C7B6D1344D9
:100E5000BB64FA6CB96C7B6D59403B6D59407B6B40
:100E60000B441A44774B1344FB64FB6C4FEA334347
:100E7000FB64FA6CBB6C1344FB643A6DF96CBB6C9D
:100E800059407B6D59403B6C0B441A446E4B1344E4
:100E90003B653B6D4FEA73233B653A6DFB6C134436
:100EA0003B657A6D396DFB6C5940BB6C5940FB68F2
:100EB0000B441A44654B13447B657B6D4FEA3373D7
:100EC0007B657A6D3B6D13447B65BA6C796D3B6DC8
:100ED0005940FB6C5940BB690B441A445C4B1344AA
:100EE000BB64BB6C4FEA7353BB64BA6C7B6D134439
:100EF000BB64FA6CB96C7B6D59403B6D59407B6AA1
:100F00000B441A44534B1344FB64FB6C4FEA3343CA
:100F1000FB64FA6CBB6C1344FB643A6DF96CBB6CFC
:100F200059407B6D59403B6B0B441A444A4B134468
:100F30003B653B6D4FEA73233B653A6DFB6C134495
:100F40003B657A6D396DFB6C5940BB6C5940FB6B4E
:100F50000B441A44414B13447B657B6D4FEA33735A
:100F60007B657A6D3B6D13447B65BA6C796D3B6D27
:100F70005940FB6C5940BB680B441A44384B13442E
:100F8000BB64BB6C4FEA7353BB64BA6C7B6D134498
:100F9000BB64FA6CB96C7B6D59403B6D59407B6901
:100FA0000B441A442F4B1344FB64FB6C4FEA33434E
:100FB000FB64FA6CBB6C1344FB643A6DF96CBB6C5C
:100FC00059407B6D59403B6A0B441A44264B1344ED
:100FD0003B653B6D4FEA73233B653A6DFB6C1344F5
:100FE0003B657A6D396DFB6C5940BB6C5940FB6AAF
:100FF0000B441A441D4B13447B657B6D4FEA3373DE
:101000007B657A6D3B6D13447B65BA6C796D3B6D86
:101010005940FB6C5940BB6B0B441A44144B1344AE
:10102000BB64BB6C4FEA7353BB64BA6C7B6D1344F7
:10103000BB64FA6CB96C1DE0D9026F678A4C2A8DCB
:1010400081F6718722619D6D0C38E5FD44EABEA4EE
:10105000A9CFDE4B604BBBF670BCBFBEC67E9B28E3
:10106000FA27A1EA8530EFD4051D880439D0D4D9F8
:10107000E599DBE67B6D59403B6D59407B6C0B4439
:101080001A44A24B1344FB64FB6C4FEA3343FB64EA
:10109000FA6CBB6C1344FB643A6DF96CBB6C594041
:1010A0007B6D59403B690B441A44994B13443B6593
:1010B0003B6D4FEA73233B653A6DFB6C13443B6514
:1010C0007A6DF96C386DBB6CDB4303435940BB68E8
:1010D0000B441A448F4B13447B657B6D4FEAB3631B
:1010E0007B657A6D3B6D13447B65BA6C396D786DA9
:1010F000FB6CDB43034359407B6A0B441A44864B29
:101100001344BB64BB6C4FEAB353BB64BA6C7B6DD6
:101110001344BB64FA6C796DB86C3B6DDB430343DD
:1011200059403B6C0B441A447C4B1344FB64FB6CEE
:101130004FEA7343FB64FA6CBB6C1344FB643A6D77
:10114000B96CF86C7B6DDB4303435940FB690B447E
:101150001A44734B13443B653B6D4FEAF3233B65E5
:101160003A6DFB6C13443B657A6DF96C386DBB6C62
:10117000DB4303435940BB6B0B441A44694B134494
:101180007B657B6D4FEAB3637B657A6D3B6D134482
:101190007B65BA6C396D786DFB6CDB43034359405A
:1011A0007B690B441A44604B1344BB64BB6C4FEA2D
:1011B000B353BB64BA6C7B6D1344BB64FA6C796D3A
:1011C000B86C3B6DDB43034359403B6B0B4413440A
:1011D000A3F58013A3F68333FB64FB6C4FEA7343E0
:1011E000FB64FA6CBB6C1344FB643A6DB96CF86C2D
:1011F0007B6DDB4303435940FB680B441A444B4B64
:1012000013443B653B6D4FEAF3233B653A6DFB6C42
:1012100013443B657A6DF96C386DBB6CDB4303435B
:101220005940BB6A0B441A44414B13447B657B6DA8
:101230004FEAB3637B657A6D3B6D13447B65BA6C93
:10124000396D786DFB6CDB43034359407B6C0B4479
:101250001A44384B1344BB64BB6C4FEAB353BB64B2
:10126000BA6C7B6D1344BB64FA6C796DB86C3B6DE2
:10127000DB43034359403B6A0B441A442E4B13444F
:10128000FB64FB6C4FEA7343FB64FA6CBB6C134466
:10129000FB643A6DB96CF86C7B6DDB4303435940DA
:1012A000FB6B0B441A44254B13443B653B6D4FEAE3
:1012B000F3233B653A6DFB6C13443B657A6DF96C27
:1012C000386DBB6CDB4303435940BB690B441A4484
:1012D0001B4B13447B657B6D4FEAB3637B657A6D73
:1012E0003B6D13447B65BA6C396D786DFB6CDB43E9
:1012F000034359407B6B0B441A44124B1344BB64A9
:10130000BB6C4FEAB353BB64BA6C1DE0F87CA21F00
:101310006556ACC4442229F497FF2A43A72394AB13
:1013200039A093FCC3595B6592CC0C8FD15D848549
:101330004F7EA86FE0E62CFE144301A3A111084ED6
:10134000827E53F735F23ABD7B6D1344BB64FA6C71
:10135000796DB86C3B6DDB43034359403B690B44EB
:101360001A44244B1344FB64FB6C4FEA7343FB6445
:10137000FA6CBB6C1344FB643A6DB96CF86C7B6D12
:10138000DB4303435940FB6A0B441A441A4B134492
:101390003B653B6D4FEAF3233B653A6DFB6C1344B1
:1013A0003B657B681A687B6D1A447B681A607B68B2
:1013B00004337A68043211683A6D0A441A607B6813
:1013C00008337A6808321168FA6C0A441A607B683C
:1013D0000C337A680C321168BA6C0A441A6007F14F
:1013E000080340220021184605F09AFD00BF583737
:1013F000BD4680BDBBD2D72A91D386EB80B487B0DF
:1014000000AFF860B9607A6000237B6100233B6124
:101410003A697B689A4234D2FA683B6913447A6924
:101420009200B9680A441268D2B21A703B6901335B
:10143000FA6813447A699200B9680A441268120A79
:10144000D2B21A703B690233FA6813447A69920087
:10145000B9680A441268120CD2B21A703B6903339D
:10146000FA6813447A699200B9680A441268120E45
:10147000D2B21A707B6901337B613B6904333B61F3
:10148000C6E700BF1C37BD4680BC704780B487B03C
:1014900000AFF860B9607A6000237B6100233B6194
:1014A0003A697B689A4226D27B699B00FA681344AA
:1014B000B9683A690A44127810463A690132B96843
:1014C0000A441278120240EA02013A690232B8680C
:1014D00002441278120411433A690332B868024494
:1014E000127812060A431A607B6901337B613B69FB
:1014F00004333B61D4E700BF1C37BD4680BC704756
:1015000080B582B000AF7860786800F005F87B683D
:1015100018460837BD4680BD80B483B000AF786000
:101520007B6800225A617B685A697B681A617B6814
:10153000074A1A607B68074A5A607B68064A9A60C5
:101540007B68064ADA6000BF0C37BD4680BC704736
:101550000123456789ABCDEFFEDCBA987654321093
:1015600080B588B000AFF860B9607A60FB681B692D
:10157000DB0803F03F03BB61FB681A697B68DB0093
:101580001A44FB681A61FB681A697B68DB009A429F
:1015900034BF01230023DBB2002B04D0FB685B695E
:1015A0005A1CFB685A61FB685A697B685B0F1A44D6
:1015B000FB685A61BB69C3F140037B617A687B6950
:1015C0009A4225D3BB691833FA6813447A69B9681B
:1015D000184602F073FAFA68FB6818331946104689
:1015E000FFF7D8F87B69FB61FB6903F13F027B6879
:1015F0009A420AD2F868BA68FB6913441946FFF7A1
:10160000C9F8FB694033FB61EEE70023BB6101E0F1
:101610000023FB61BB691833FA68D018BA68FB690C
:10162000D1187A68FB69D31A1A4602F047FA00BF4C
:101630002037BD4680BD00BF80B586B000AF786062
:101640007B6803F1100107F1080308221846FFF731
:10165000D5FE7B681B69DB0803F03F037B617B6978
:10166000372B03D87B69C3F1380302E07B69C3F1F0
:1016700078033B613A690C497868FFF771FF07F11D
:101680000803082219467868FFF76AFF7B68583319
:10169000796810221846FFF7B1FE786800F006F866
:1016A00000BF1837BD4680BD0488FF1F80B584B0D9
:1016B00000AF78600023FB60FB680F2B11DC7B68B8
:1016C0006833FA68520098187A68FB6813445833F4
:1016D0001B781A46054905F07FFEFB680133FB6065
:1016E000EAE700BF1037BD4680BD00BF24AE000052
:1016F00084B080B582B000AF07F1100E8EE80F0005
:1017000020233B7400237B607B68B3F5806F09DA8C
:1017100007F111027B68134400221A707B680133C1
:101720007B60F1E700233B603B682F2B09DC07F26D
:1017300011423B681344FF221A703B6801333B603F
:10174000F2E7002387F84134FF2387F8423400BFD3
:101750000837BD46BDE8804004B0704784B0B0B4DF
:10176000B3B000AF07F1D80484E80F000023C7F836
:10177000C430D7F8C4301D2B2FDCD7F8C430DA0FB3
:1017800013445B10843307F1D80213445B781B09C0
:10179000DBB21A46D7F8C4309B0007F1C8010B44EE
:1017A00043F8902CD7F8C430591CD7F8C430DA0F5E
:1017B00013445B10843307F1D80213445B7803F0C1
:1017C0000F028B0007F1C8010B4443F8902CD7F8A7
:1017D000C4300233C7F8C430CBE75B4B07F12004B9
:1017E0001D4628686968AA68EB680FC4286969699A
:1017F00003C4564B3C461D460FCD0FC495E80F0061
:1018000007C4238002341B0C23700023C7F8C030A8
:101810000723C7F8BC300023C7F8B8300123C7F846
:10182000B4301E22D7F8B4309A4268D9D7F8B8300D
:10183000002B5ED1D7F8B4309B0007F1C8021344E7
:1018400053F8902CD7F8B430013B9B0007F1C80146
:101850000B4453F8903C9A4246D0D7F8B4309B00E2
:1018600007F1C802134453F8903C002B0AD0D7F874
:10187000B430013B9B0007F1C802134453F8903C7D
:10188000002B2DD1D7F8B430013B9B0007F1C802E3
:10189000134453F8903C002B1ED0D7F8B430013BD2
:1018A0009B0007F1C802134453F8902C13465B00C9
:1018B000134407F1C8021A44D7F8C0301344A83BB8
:1018C00019783A46D7F8BC3013440A461A70D7F84C
:1018D000BC300133C7F8BC300023C7F8C03008E083
:1018E0000123C7F8B83004E0D7F8C0300133C7F897
:1018F000C030D7F8B4300133C7F8B43091E70023D3
:10190000C7F8B030D7F8B0301E2B10DC3A46D7F805
:10191000B030134419780E4AD7F8B03013440A4651
:101920001A70D7F8B0300133C7F8B030EAE7084B87
:101930000422DA77074B01221A7000BFCC37BD466C
:10194000B0BC04B0704700BF2CAE000044AE000035
:1019500080A1FF1FA1A1FF1F84B0B0B5BEB000AF32
:1019600007F5847484E80F005C4A07F1D80307CABE
:1019700003C31A705A4B07F128041D46286869688A
:10198000AA68EB680FC428696969AA69EB690FC482
:101990000023C7F8F430D7F8F430072B13DCD7F85E
:1019A000F430933307F584721344597807F1D80261
:1019B000D7F8F43013440A461A70D7F8F4300133DC
:1019C000C7F8F430E7E707F14803184600F02AFFAC
:1019D00007F1D80107F148030822184600F04EFF2E
:1019E00007F1B80207F148031146184600F068FFF6
:1019F0000023C7F8F0300023C7F8EC30D7F8EC30FC
:101A00001F2B18DC07F1B802D7F8EC3013441A7812
:101A100007F12801D7F8EC300B441B789A4204D127
:101A2000D7F8F0300133C7F8F030D7F8EC30013395
:101A3000C7F8EC30E2E72B4B3C1D1D460FCD0FC421
:101A40000FCD0FC42B682370D7F8F030202B17D19F
:101A50000023C7F8E830D7F8E8301E2B25DC3A1D04
:101A6000D7F8E830134419781F4AD7F8E830134400
:101A70000A461A70D7F8E8300133C7F8E830EAE7C9
:101A80000023C7F8E430D7F8E4301E2B0DDC174BE9
:101A9000D9B2154AD7F8E43013440A461A70D7F879
:101AA000E4300133C7F8E430EDE70F4B0522DA7775
:101AB0000D4BDB7F19460E48FEF76EFDD7F8F01090
:101AC0000B48FEF769FD0B4B01221A7000BFF83777
:101AD000BD46BDE8B04004B0704700BF6CAE00002A
:101AE00078AE000098AE000080A1FF1F68AE000035
:101AF000748EFF1FA1A1FF1F84B0B0B5BEB000AFB0
:101B000007F5847484E80F00554B07F1C0041D46A7
:101B10000FCD0FC40FCD0FC495E8070084E8070070
:101B200097F8A43187F8EB3007F1B0034D49184618
:101B300001F0A8FF002387F8F73007F124031846C7
:101B4000FFF7DEFC07F124031846FFF7E5FC07F179
:101B5000C00107F124032C221846FFF701FD07F10D
:101B600024031846FFF768FD07F1240368333E4954
:101B7000184605F069FC0346002B02D1012387F8C3
:101B8000F73007F1C00319463848FEF7DBFC07F1D0
:101B90002403683319463548FEF7D4FC32493348EC
:101BA000FEF7D0FC07F1240368332F49184605F0EF
:101BB0004BFC034619462D48FEF7EEFC4FF0FF3173
:101BC0002A48FEF7E9FC2A4B3C461D460FCD0FC4C0
:101BD0000FCD0FC42B68237097F8F730002B17D068
:101BE0000023C7F8F030D7F8F0301E2B25DC3A463A
:101BF000D7F8F030134419781E4AD7F8F030134460
:101C00000A461A70D7F8F0300133C7F8F030EAE727
:101C10000023C7F8EC30D7F8EC301E2B0DDC164B48
:101C2000D9B2144AD7F8EC3013440A461A70D7F8E0
:101C3000EC300133C7F8EC30EDE70E4B0622DA77D3
:101C40000E4B01221A7000BF07F1B003184601F0D5
:101C5000D9FE00BFF837BD46BDE8B04004B07047BC
:101C6000F4AE0000BCAE0000D0AE0000748EFF1FCA
:101C700020AF000080A1FF1F68AE0000A1A1FF1FE0
:101C800084B0B0B5ADF5AB6D4FF485676F4407F523
:101C9000A07484E80F0007F586736749184601F0C1
:101CA000F1FE664B07F19C041D4628686968AA6826
:101CB000EB680FC428696969AA69EB690FC46846B3
:101CC00007F5A87340F22342194601F0F7FE07F525
:101CD000A0730FCB00F046F94FF47073C7F82C31A6
:101CE000D7F82C31B3F57C7F14DAD7F82C31A3F573
:101CF000707307F24111D7F82C210A44127807F5C6
:101D000098710B4403F8542CD7F82C310133C7F8E1
:101D10002C31E5E707F12803184600F083FD07F1B1
:101D2000DC0107F128030822184600F0A7FD07F19F
:101D3000BC0207F128031146184600F0C1FD00233C
:101D4000C7F828310023C7F82431D7F824311F2BD6
:101D500018DC07F1BC02D7F8243113441A7807F1D4
:101D60009C01D7F824310B441B789A4204D1D7F850
:101D700028310133C7F82831D7F824310133C7F8A7
:101D80002431E2E73B1D2E4A1C4615460FCD0FC4F9
:101D90000FCD0FC42B682370D7F82831202B17D113
:101DA0000023C7F82031D7F820311E2B25DC3A1D3F
:101DB000D7F8203113441978224AD7F82031134438
:101DC0000A461A70D7F820310133C7F82031EAE704
:101DD0000023C7F81C31D7F81C311E2B0DDC1A4B21
:101DE000D9B2184AD7F81C3113440A461A70D7F8EA
:101DF0001C310133C7F81C31EDE7124B0722DA77AB
:101E000010491248FEF79EFB0E4BDB7F19460F4828
:101E1000FEF7C2FB0E4B01221A7000BF07F5867356
:101E2000184601F0EFFD00BF07F59877BD46BDE805
:101E3000B04004B0704700BF44AF00006CAF00007A
:101E40008CAF000080A1FF1F68AE0000748EFF1FE2
:101E5000A1A1FF1F84B080B5ADF5856D4FF48567F6
:101E60006F4407F1080E8EE80F002F492F48FEF748
:101E700069FB684607F1180340F22342194601F056
:101E80001DFE07F108030FCB00F06CF897F83A3409
:101E9000043B032B42D801A252F823F0AD1E0000F0
:101EA000C91E0000E51E0000011F0000684607F182
:101EB000180340F22342194601F000FE07F108031F
:101EC0000FCBFFF74BFC29E0684607F1180340F2FF
:101ED0002342194601F0F2FD07F108030FCBFFF78B
:101EE0003BFD1BE0684607F1180340F22342194608
:101EF00001F0E4FD07F108030FCBFFF7FDFD0DE056
:101F0000684607F1180340F22342194601F0D6FD56
:101F100007F108030FCBFFF7B3FE00BF00BFBD46BC
:101F2000BDE8804004B07047B0AF0000748EFF1F62
:101F300080B483B000AF00237B607B6840F23942FD
:101F4000934208DC064A7B68134400221A707B68BF
:101F500001337B60F1E700BF0C37BD4680BC7047A2
:101F6000ACA1FF1F84B080B584B000AF07F1180E9C
:101F70008EE80F003B7E19463048FEF7CDFA00236D
:101F8000FB60FB68B3F5806F1EDA0023BB60BB68A3
:101F90001F2B12DCFA68BB68134407F118021344C4
:101FA0005B7819462548FEF797FA25492348FEF73E
:101FB00085FABB680133BB60E9E7204801F0CAFC41
:101FC000FB682033FB60DCE700237B607B682F2B02
:101FD00020DC00233B603B68022B13DC7A683B6803
:101FE000134407F11802134493F8013419461348B7
:101FF000FEF772FA12491148FEF760FA3B680133A6
:102000003B60E8E70F490D48FEF79CFA7B68033315
:102010007B60DBE797F8493419460848FEF7A6FAD3
:1020200097F84A3419460548FEF7A0FA00BF103762
:10203000BD46BDE8804004B0704700BF748EFF1FEE
:1020400068AE0000C4AF000090B5ADF2444D4FF44F
:1020500085676F447448FEF7D3FA0346002B14BF1C
:1020600001230023DBB2002B00F0D9800123FB7594
:102070006E4B00221A6000237B606C4B1B6840F2A1
:10208000324293423DDC6848FEF7BAFA0346002B21
:10209000CCBF01230023DBB2002B0ED0634B1C68A6
:1020A0006148FEF7B9FA0346DAB2614B1A555F4B45
:1020B0001B6801335D4A1360DFE7012001F064FF14
:1020C0005B4B1B78702BD8D0594B1B78632BD4D02B
:1020D000574B1B78612BD0D05348FEF791FA03463B
:1020E000002BCCBF01230023DBB2002B03D04E48D2
:1020F000FEF792FAF0E70023FB754C4B42F21072A8
:102100001A60FB7D002B00F08880494B1A78494B00
:102110001A70484B1B78702B24D100233B613B691C
:10212000B3F5806F0DDA3B690133414AD15C414A16
:102130003B69134401330A461A703B6901333B6122
:10214000EDE73C4C684604F1100340F22342194687
:1021500001F0B4FC94E80F00FFF704FF364B0122B6
:102160001A705AE0334B1B78632B2DD10023FB6090
:10217000FB68B3F5806F0DDAFB6801332C4AD15C44
:102180002C4AFB68134401330A461A70FB6801337A
:10219000FB60EDE7264B93F83224264B83F831247D
:1021A000234B93F83324234B83F83224214C684685
:1021B00004F1100340F22342194601F07FFC94E839
:1021C0000F00FFF7CFFE28E01A4B1B78612B1AD1C6
:1021D0004FF48063BB60BB68B3F5866F0FDABB68F2
:1021E000A3F58063BA6801321149895C114A13442E
:1021F0000A4683F80124BB680133BB60EBE70F4B51
:1022000001221A7009E00848FEF706FA0346DB438C
:10221000DB0FDBB2002B00D0F5E7FFF789FE00BF34
:102220001C37BD4690BD00BF748EFF1F1499FF1F61
:10223000ACA1FF1F4C9DFF1FA0A1FF1FA8A1FF1F66
:1022400080B584B004AF17491748FEF7CFF94FF4B3
:1022500061411648FEF7B4F9154B00221A70154B70
:1022600000221A7001230293134B01930123009360
:102270000123012201211148FEF7FEF910490F4800
:10228000FEF768FA0F490D48FEF774FA0E49064842
:10229000FEF758F94FF47A7001F076FE00BFBD46A4
:1022A00080BD00BF80841E00748EFF1F7C8DFF1FC9
:1022B000A0A1FF1FA8A1FF1FA0860100FCA5FF1F72
:1022C000FD2200008D240000C8AF000080B500AFE3
:1022D0000948FEF795F90346002B14BF012300239C
:1022E000DBB2002B01D0FFF7AFFE4FF4FA7001F024
:1022F0004BFE00BF80BD00BF748EFF1F90B5ADF2D6
:102300004C4D4FF485676F4478607A685A495B4852
:10231000FEF70EFA584B1B783B61574B5B78FB601E
:102320003B69002B06D1564A3B691360554AFB684E
:1023300013609DE03B69012B7DD1514A3B691360DD
:10234000504AFB6813604F4B1B68002B04D14A4B6B
:102350009A784D4B1A708BE04A4B1B68002B20DD9E
:10236000484B1B68232B1CDC0223FB61FA697B684A
:102370009A427CD2434B1B685A1E13461B019B1A80
:102380005B001A46FB691344023B3B49FA690A4465
:1023900011783D4A13440A465A70FB690133FB61C8
:1023A000E4E7384B1B68242B14D10223BB61BA69C4
:1023B0007B689A425CD2BB69023B2F49BA690A44E6
:1023C0001178314A13440A4683F80124BB6901336A
:1023D000BB61ECE72B4B1B68252B14D102237B61DF
:1023E0007A697B689A4243D27B691C3322497A69B5
:1023F0000A441178244A13440A4683F801247B696D
:1024000001337B61ECE71C4B9A781F4B83F8312436
:10241000194BDA781C4B83F832241B4C684604F1C4
:10242000100340F22342194601F048FB94E80F00E4
:10243000FFF710FD1CE03B69022B06D1104A3B69F7
:102440001360104AFB68136012E03B69032B06D14E
:102450000B4A3B6913600B4AFB68136008E0094BA9
:1024600000221A60064B4FF0FF321A6000E000BFF6
:1024700000BF2437BD4690BDF498FF1FFCA5FF1F89
:102480000088FF1FA4A1FF1F1899FF1F90B5ADF290
:102490003C4D4FF485676F44794B1B68002B56D138
:1024A000784B1B78002B4DD0774B1B68002B04D149
:1024B00070217648FEF716F9DEE0734B1B68002B9F
:1024C00021DD714B1B68202B1DDC0023FB60FB68AA
:1024D0001F2B11DC6C4B1B68013B5A01FB6813443A
:1024E0006B4A134459786B4AFB6813440A461A70C6
:1024F000FB680133FB60EAE7202266496348FEF788
:1025000003F900BFB8E0624B93F8313419465F48D5
:1025100000F074FA5E4B93F8323419465B4800F0D1
:102520006DFA584B00221A70594C684604F110039A
:1025300040F22342194601F0C1FA94E80F00FFF778
:10254000D7F899E078215148FEF7CCF894E04C4B4D
:102550001B68012B30D1504B1B78002B27D04A4BE6
:102560001B68002B04D172214848FEF7BBF883E0BA
:10257000454B1B68012B7FD10023BB60BB681F2B21
:102580000CDC464ABB6813441978424ABB681344C2
:102590000A461A70BB680133BB60EFE720223D4951
:1025A0003A48FEF7B1F83C4B00221A7064E07821FB
:1025B0003648FEF797F85FE0314B1B68032B5BD181
:1025C000374B1B78002B53D02F4B1B68002B04D1AB
:1025D00061212E48FEF786F84EE02B4B1B68012B3D
:1025E00019D100237B607B681F2B0EDC284A7B6897
:1025F000134403F201431978264A7B6813440A46C0
:102600001A707B6801337B60EDE7202221491F4867
:10261000FEF77AF830E01C4B1B68022B2CD12023EC
:102620003B603B682F2B0DDC3B68203B18493A6828
:102630000A4402F201421178164AD1543B68013330
:102640003B60EEE7102213491048FEF75DF8144B8B
:1026500000221A700E4C684604F1100340F2234227
:10266000194601F02BFA94E80F00FFF741F803E058
:1026700078210648FEF736F800BF1437BD4690BDF6
:102680000088FF1FA0A1FF1FA4A1FF1FFCA5FF1F23
:102690004C9DFF1FF498FF1FA1A1FF1F80A1FF1FEA
:1026A000A8A1FF1F2DE9F04FCDB00DF12C0A03902A
:1026B000013156461BAC087811F8013C8A784D78F8
:1026C000000440EA0363134343EA052346F8043F4A
:1026D000A64201F10401EED110200DF1640E14AFF9
:1026E0000CAE554684465EF8049F56F8043F57F8F2
:1026F000041F55F8040F4FEAF9484FEAB34288EA3D
:10270000794888EA9928014482EAF312414482EA2E
:10271000D3030CF1010C0B44BCF1400F44F8043F0F
:10272000E1D1039ADFF8F890136D05931E46134626
:10273000526D0692194610461A469B6D07931F4626
:10274000D36D126E08931C4615464B6E09928A6E25
:102750000493C96E304B0A920B918646A346DDF86E
:1027600010800191944602930BE0CDF804C0C4465A
:10277000A8461D4659F8043F0293BB467746B64625
:1027800006464FEAF52205EA080182EAB5122CEA6C
:10279000050482EA75624C405AF8041F019B1444F8
:1027A00087EA0E0221444FEA763002EA06040EEA76
:1027B000070219445440029B184A80EAB60080EA96
:1027C000B650194420444A4501EB0B030844CCD1D0
:1027D0000899059A39440F4609991944049B2B44DA
:1027E00002441D460A9B1446069A43441846324446
:1027F0000B9B1646079A634472448E461946039B08
:102800001C655E659A65DF65C3F860E05D66986685
:10281000D9664DB0BDE8F08F982F8A42E4B0000031
:10282000E8AF000000220023F0B4C0E912230C4BF3
:102830000365A3F16263A3F511230A4F0A4E0B4D02
:102840000B4C0C490264A3F64E130B4A4765866590
:10285000C565046641668266C366F0BC704700BF0A
:1028600067E6096A85AE67BB72F36E3C3AF54FA521
:102870007F520E518C68059BABD9831FFAB1F8B516
:1028800004460D468E18002701E0B54216D0236C91
:1028900015F8011BE1540133402B2364F5D1214687
:1028A0002046FFF7FFFED4E9122312F5007243F130
:1028B0000003B542C4E912232764E8D1F8BD70478C
:1028C000F8B5036C372B05460C464ED84FF0800206
:1028D000C25406D0C2180021373002F8011F8242CC
:1028E000FBD1D5E91201DB00C01841F10001030A58
:1028F0000A0C4FEA104E070E0E0A85F83E300B0EFA
:10290000C5E9120185F83F0085F83B1085F83920AC
:1029100085F83DE085F83C7085F83A6085F83830F8
:1029200029462846FFF7BEFE0322296DD300D94071
:102930002170696DD9402171A96DD9402172E96D6D
:10294000D9402173296ED9402174696ED94021750F
:10295000A96ED9402176E96E013A21FA03F3237773
:10296000531C04F10104E0D1F8BD5A1C80213F2A18
:10297000C15407D8034400F13F01002203F8012F9E
:102980008B42FBD129462846FFF78CFE38220021D6
:10299000284604F0C5FA2B6CA3E700BF002070475F
:1029A0000369D3F83801D3F83431C01A704700BF37
:1029B0000369D3F83411D3F83821914208D2D3F8FF
:1029C0003421511C1A44C3F8341192F83000704776
:1029D0004FF0FF30704700BF0369D3F83411D3F8CC
:1029E000382191423DBFD3F834219B1893F8300031
:1029F0004FF0FF30704700BF704700BF0369D3F846
:102A00004422B2F5817F03D901230371002070476E
:102A1000D3F8442210B49C180132C3F8442284F83D
:102A20003C11012010BC704738B503690A4A0260A6
:102A300093F84822022A044601D0204638BDD3F834
:102A40007452002DF9D0284600F0CEFE2846082109
:102A500001F034F9204638BDF0B0000038B5036904
:102A60000546D3F84402B0F5817F1AD81446D3F84E
:102A70004422D3F84402C2F58172013203F59E73F9
:102A8000A242184402D2012314462B71224601F0BF
:102A900015F82A69D2F844322344C2F84432204659
:102AA00038BD01232B71002038BD00BF2DE9F04750
:102AB0001E46044617469DF820909DF824309DF848
:102AC00028A00D4659B301290FD090F84A329A42F6
:102AD0004FF0000800D14DB3012D0ED094F84B32C9
:102AE0009E4212D00020BDE8F0871D2F4FD01A2F34
:102AF00077D094F84A324FF000081E2E1AD01F2EBD
:102B00006DD094F84B329E42ECD1BAF1000FE9D06F
:102B10000025B8F1000FE5D0002DE3D031E0102AF8
:102B200035D0132A33D090F84A328846A6F11103E3
:102B3000012BE6D8022594F84B329E4257D0BAF1C9
:102B4000000F09D094F84C3294F84B02002B14BFBC
:102B50000221002101F012FA2B02B9F1000F13D16A
:102B600043F06403264A02EBC60201215268136057
:102B700084F84B6284F84C9284F89912B8F1000FF3
:102B8000B0D00120BDE8F08743F00303EAE74FF03F
:102B9000020894F84A22974226D04BB194F84C325E
:102BA00094F84A02002B14BF0221002101F0E6F93B
:102BB0004FEA0822B9F1000F0ED142F06402104B27
:102BC00003EBC703596801230A6084F84A7284F84A
:102BD0004C9284F898327EE742F00302EFE7062534
:102BE000A9E74FF00608D4E7002BE1D073E7BAF16C
:102BF000000FB1D0B8F1000F3FF474AF8CE700BF05
:102C000084B20000F8B5C3681B789B0610D48368B3
:102C10000D4680211970C3681221197090F849324D
:102C2000012B044606D08AB980F848220120F8BD5D
:102C30000020F8BD1A4675B9474B4FF080711960F6
:102C4000022A0FD0012084F84802F8BD531E012B40
:102C5000F1D90120F8BD012DF2D13F4B4FF00071A9
:102C60001960EDE7D4F87462002E6AD03379102B26
:102C700030D0002D3CD132683849938B384F9BB20D
:102C800043F0080393833279531102F110009B0043
:102C900041F8207003F1604303F56143012102F024
:102CA0001F0201FA02F231681A608B8B9BB243F06B
:102CB00002038B83337903F1804303F504339622B7
:102CC0001D701A700022022384F85E2284F84832B4
:102CD0000120F8BD304600F087FD3046082100F0A5
:102CE000EDFF00230120C4F8743284F84802F8BDD7
:102CF000012DE7D132681949938B1A4F9BB243F0EB
:102D0000080393833279531102F110009B0041F8BC
:102D1000207003F1604303F5614302F01F02954008
:102D200032681D60938B9BB243F002039383337927
:102D300003F1804303F504330021972219701A70C0
:102D4000C0E7082000F0B8FF314607463E4600F0D5
:102D5000E7FCC4F8747289E700E100E00082FF1F1D
:102D60002D36000039360000F0B5284EDFF8ACE013
:102D7000A6FB0143A6FB02429E093702754696094F
:102D800014240023B7FBF6F604E00133372B1BD0E5
:102D900055F8044F22029642F7DA83BB14241C4AEA
:102DA0004568B1FBF4F491422B70C0F8504207D84B
:102DB000184B8269A3FB0131C1F307511170F0BDBB
:102DC000836904221A70F0BD002422464FF4702754
:102DD0004FF470654FF0360CB21AF71B002A87EAE1
:102DE000E776A6EBE776B8BF5242964202DD0A4A82
:102DF000D35CD4E7084B2C4613F80C30CFE703F133
:102E0000FF3C5EF82C502F02E6E700BFD34D621066
:102E1000FF6BDC02819F5E16E8B100000CB1000080
:102E2000F0B49DF814409DF810609DF818503CB126
:102E300035B1C7683F78BF0602D50020F0BC7047A7
:102E4000069505940496F0BCFFF730BE2DE9F041DD
:102E500084B0044694469DF828609DF82C209DF887
:102E600030009DF834E09DF83C700D4600294BD1B0
:102E7000DFF8E080D8F8001041F04001C8F80010F9
:102E8000002184F849C284F85512BCF1000F2AD100
:102E900063692021197012B994F84A22D2B210B98C
:102EA00094F84B02C0B294F8981294F89962029682
:102EB0000346CDF800E0019120462946FFF7B0FF18
:102EC0000E9A23492046FFF74FFF3A4629462046EF
:102ED000FFF798FE94F8493263B3A368C0221A70D2
:102EE00004B0BDE8F0816169CEB14FF0280C81F8E3
:102EF00000C09E42216823D95B00DBB20B707600D4
:102F0000E369F6B21E70C6E70129B9D1DFF8448043
:102F1000D8F8001041F08001C8F80010B0E74FF079
:102F2000200C81F800C021685B00DBB20B70E36904
:102F30001E70B0E7A36880221A7004B0BDE8F0816B
:102F40007600F6B20E705E00E369F6B21E70A2E77C
:102F5000006CDC023480044070B5D0F83841D0F801
:102F600034319C4218D9D0F83831D0F83451D0F8E7
:102F700034615D1B954228BF1546044600F13003BD
:102F80002A460846991900F099FDD4F834312B44AB
:102F9000C4F83431284670BD002070BD2DE9F041E1
:102FA000C04E337804460133DBB2C068A768337083
:102FB00005783B78DBB203F0200282B0EDB23AB381
:102FC00013F0100F94F85E327AD0022B00F0D88004
:102FD00094F85E32032B00F0D38094F85532082B1E
:102FE00000F0298294F85532092B00F0648294F89D
:102FF0005532012B00F0D38180233B70E36802221D
:103000001A703378013BDBB2337002B0BDE8F08157
:1030100002F0FF08EA0624D405F0400202F0FF0E99
:103020001ABB03F0100303F0FF02002B00F08380B3
:1030300015F0010540F0A881D4F84022D4F84432BC
:103040009A4207D2D4F840325A1C2344C4F8402292
:1030500093F83C5123691D70A368D0221A70E06870
:103060006EE0102303706806C8D594F855320C2B17
:1030700000F0098105F0040505F0FF07002D64D07C
:10308000A3680021D0220B2084F85502C4F8441212
:103090001A702269D4F86C1213785B0884F85632DF
:1030A00009B188472269D4F84432002B00F07481BA
:1030B00094F83C8182F800800123C4F840329DE7F7
:1030C000022B00F0A68094F85E32032B00F0A18062
:1030D000D4F83831D4F858220233934200F04F81AB
:1030E00094F85532012B00F04581D4F83831013382
:1030F000934280F0198194F85532012B00F00F8132
:10310000D4F838312269591CC4F838112344127894
:1031100083F83020E36802221A7094F85532DBB24B
:10312000012B7FF46EAF94F85D22002A7FF469AF23
:1031300084F85D3265E794F855320C2B00F09C81E1
:103140000223037002B0BDE8F081574B574A94F850
:103150004B0284F85C72002914BF11461946032201
:1031600000F034FEA3680C21C02284F85512C4F884
:1031700038711A7023691B785B0884F856323DE772
:10318000D4F8742213689B8B190604D594F85E3228
:10319000022B00F0B88094F85E32032B00F08E8092
:1031A000434B12791968012393400B423FF429AF36
:1031B0004049414B0A70D4F8741209791970002201
:1031C000072384F85E2284F85532D4F89432013310
:1031D00004D0D4F894320133C4F89432EA0611D5FD
:1031E000042384F85532D4F88C32013304D0D4F857
:1031F0008C320133C4F88C32E26810210023117044
:10320000C4F84032A36880221A70E36802221A7060
:1032100032E0D4F874321A68928B120603D594F80F
:103220005E22022A63D094F85E22032A00F0DA803C
:103230001F491A790968012393400B423FF4E1AE1C
:103240001C491D4B0A70D4F8742212791A70A368B5
:1032500080220020072184F85E0284F855121A703B
:10326000E36802221A70D4F89432013304D0D4F8FF
:1032700094320133C4F89432D4F87032002B3FF406
:10328000C0AE9847BDE6D4F86832002B3FF4F2AEEA
:103290000022C4F83421D4F83801019198470199EB
:1032A000E8E600BF10A6FF1F9D360000A93600000B
:1032B0002C8000401E8000401F80004003781906CB
:1032C000FCD5C14B12791A70002384F85E32D4F811
:1032D00044322169013BC4F84032D4F840322344DF
:1032E000022293F83C310B70E3681A7089E6B74903
:1032F0001B790B70A368E8211970E368032184F837
:103300005E121A707DE6B14912790A70A268F02146
:103310001170E268032184F85E12137071E694F86C
:103320005D32002B3FF4ECAEA3680021B02284F89C
:103330005D121A70D4F838312269591CC4F838115A
:103340002344127883F8302094F85432012B00F093
:10335000C480E36802221A7094F85532012B33D0EE
:10336000D4F86432002284F85522002B3FF4D5AE05
:103370009847D2E694F85D32002B7FF4B6AEE8238E
:103380003B70D4F85822B0E6C0233B702369E06854
:103390001B7884F855E2D3E684F83C318AE694F849
:1033A0005432012B0CBF8023B0233B70E368022210
:1033B0001A70D4F8803201333FF45EAFD4F8803213
:1033C0000133C4F8803257E7D4F88032013304D097
:1033D000D4F880320133C4F88032D4F87032002B34
:1033E000C6D19AE6784A1B791370A3680021B022EF
:1033F00084F85E121A70D4F858322269013BC4F87E
:103400003831D4F83831591CC4F8381123441278B3
:1034100083F8302094F85432012B00F0C180E36827
:1034200002221A70D4F86432002284F85522002B4C
:103430007FF427AFE5E505F0100303F0FF02002B52
:1034400052D000230421102284F85E3284F85512F1
:103450000270A26880211170E268C4F84032022331
:103460001370D4F88C3201333FF406AFD4F88C32A9
:103470000133C4F88C32FFE6554B564D84F85C227C
:10348000002914BF29461946032294F84B0200F084
:103490009DFC23691B78D4F83821B2F5817FDBB21B
:1034A00007D8D4F83821A1180132C4F8382181F89E
:1034B0003030E06844E6EB062ED50422102384F871
:1034C00055220370A36880221A70E36802221A70E2
:1034D000D4F88C320133C9D1CEE62023013BFDD193
:1034E000A36880221A7034E715F0010528D084F80B
:1034F0005E22D4F84032002B59D1022384F8553291
:10350000D4F88432013304D0D4F884320133C4F8BF
:10351000843280233B7078E6E9072CD50223802291
:1035200084F855323A70E2681370D4F8843201336B
:103530003FF4A2AED4F884320133C4F884329BE65F
:10354000D4F840320133C4F84032D4F844229342D4
:1035500042D394F8543284F85552012B0CBF802387
:10356000B0233B70E36802221A70D4F86032002B5B
:103570007FF487AE45E594F85E32012B34D0D4F861
:103580005832012B4FF00A020CBFE823E02384F8E5
:1035900055223B702269E368127802221A7030E5E6
:1035A0002023013BFDD1A36880221A7037E7032353
:1035B00084F85532D4F888320133AAD0D4F888324E
:1035C0000133C4F88832A4E71C8000401F8000400B
:1035D0009D360000A936000094F85E32012B12D00F
:1035E000D4F8403221697AE60223E12284F85E327F
:1035F0003A70D4F874120C4A097911702169E268A2
:1036000009781370FDE40223F12284F85E323A70E7
:10361000D4F87412044A09791170226994F83D11A2
:103620001170E2681370ECE41B8000400021014837
:10363000FFF7B4BC4488FF1F01210148FFF7AEBC6F
:10364000E08AFF1FC3681B7803F020035BB190F88A
:103650005C320133DBB2012B80F85C3217D990F871
:103660004B0200F02FBC70B503F0FF05044680F854
:10367000555290F84B0200F025FCD4F868325BB14B
:10368000C4F83451D4F83801BDE87040184790F8B8
:103690004932012BE3D1704770BD00BF00210148C2
:1036A000FFF7D0BF4488FF1F01210148FFF7CABFC1
:1036B000E08AFF1F2DE9F843134BDFF85C90DFF839
:1036C0005C80124E124D1E6000244FF47A774A46F9
:1036D00041461C711C739F6018465C731D6103F0AA
:1036E000A3F80C4B4FF0010E05F527751C711C73E8
:1036F00083F80DE04A46414618461D619F601E60F2
:10370000BDE8F84303F090B8FCA5FF1FF0B000003F
:103710004488FF1FE8A5FF1FFC87FF1F292A000020
:10372000F0B572B699B902688AB103790F2B0ED839
:10373000274C218841FA03F5ED070AD503F1007300
:1037400003F59063B2EB431F03D162B6F0BD204C8A
:103750002188002341FA03F212F0010207D001335D
:10376000102BF7D162B6002203710260F0BD012573
:103770009D402943218062B6164E174D174FDFF842
:1037800064E0D9B20171346844F0020434602C68FA
:1037900044F002042C60A6F580268224A5F580253D
:1037A00003F100733C6003F59063223E243D0C4C12
:1037B0008EF800105B0131702970217003601A606F
:1037C0005A609A60DA601A615A619A61DA61F0BDF2
:1037D00012A6FF1F408004403C800440008000404F
:1037E0001F8000401A80004003790F2B11D8094A2E
:1037F00010B4137072B6084904790A880123A340F3
:1038000022EA03030B8062B61022002310BC02716F
:10381000036070471A80004012A6FF1F08B50846D3
:1038200000F03AFE012008BD08B5084600F034FE5D
:10383000012008BD38B508460D4603F0E1FF0446F7
:103840000146284600F080FE204638BD10B50846E7
:103850001446114600F078FE204610BD00F052BF1D
:1038600008B5084600F0F8FD003018BF012008BD7B
:1038700008B5084600F0CEFD003018BF012008BD95
:103880000846114600F05EBD084600F095BD00BF39
:10389000084600F03BBD00BF00F0D6BC10B54B0899
:1038A00003F13760144600F5D830B0FBF1F000F0BA
:1038B00029FC2046BDE8104000F09ABC00F00ABF89
:1038C00000F0D4BE00F0C2BE00F0A2BE00F0ACBE5C
:1038D0000368064A1B68934205D110B5C8B200F0D0
:1038E000DBFD012010BDC9B2184700BF2938000018
:1038F0000368064A1B68934205D110B5C8B200F0B0
:10390000CBFD012010BDC9B2184700BF2938000007
:103910000368064A1B68934205D110B5C8B200F08F
:10392000BBFD012010BDC9B2184700BF29380000F7
:103930000368064A1B68934205D110B5C8B200F06F
:10394000ABFD012010BDC9B2184700BF29380000E7
:10395000704700BF00B5064A036812885B6883B0F1
:1039600001A9ADF804200222984703B05DF804FBDA
:1039700080B20000F0B507468BB0002A33D0012A90
:1039800008BF0A2251B3212400E0F4B2B1FBF2F5E2
:1039900002FB1511C8B2092900F1300198BFC8B265
:1039A0000AA988BF3730214488BFC0B201F8240C6F
:1039B000661E2946002DE8D133B1013CE4B20AABC2
:1039C00023442D2203F8242C3B6801AA11195B68BB
:1039D0003846C4F1220298470BB0F0BD30228DF872
:1039E00025202124E8E70368C9B21B6898470BB07B
:1039F000F0BD00BF0029BABF49422D2300230A228F
:103A0000FFF7B8BF10B50446006802F04FFF20462C
:103A100010BD00BF38B543688B4201D3012038BDCB
:103A20000D4604460131006803F0CCFA0028F6D0B8
:103A3000A36884E82100002BF0D10370EEE700BFFB
:103A4000F8B50446154632B9036803B11A7000236D
:103A5000A3602046F8BD0E461146FFF7DBFF074680
:103A600048B9206810B102F021FF2760002363608D
:103A7000A3602046F8BDA5603146206803F04EFEE5
:103A8000E7E700BF38B50023044603604360836066
:103A9000037341B108460D4603F0B2FE29460246C3
:103AA0002046FFF7CDFF204638BD00BF08B5FEF722
:103AB000C7FBFEF70BFC01F041FFFAE7844641EA41
:103AC000000313F003036DD1403A41D351F8043B96
:103AD00040F8043B51F8043B40F8043B51F8043BE8
:103AE00040F8043B51F8043B40F8043B51F8043BD8
:103AF00040F8043B51F8043B40F8043B51F8043BC8
:103B000040F8043B51F8043B40F8043B51F8043BB7
:103B100040F8043B51F8043B40F8043B51F8043BA7
:103B200040F8043B51F8043B40F8043B51F8043B97
:103B300040F8043B51F8043B40F8043B51F8043B87
:103B400040F8043B51F8043B40F8043B403ABDD2F6
:103B5000303211D351F8043B40F8043B51F8043B98
:103B600040F8043B51F8043B40F8043B51F8043B57
:103B700040F8043B103AEDD20C3205D351F8043B27
:103B800040F8043B043AF9D2043208D0D2071CBFF3
:103B900011F8013B00F8013B01D30B88038060461C
:103BA000704700BF082A13D38B078DD010F0030392
:103BB0008AD0C3F10403D21ADB071CBF11F8013B02
:103BC00000F8013B80D331F8023B20F8023B7BE751
:103BD000043AD9D3013A11F8013B00F8013BF9D27C
:103BE0000B7803704B7843708B7883706046704716
:103BF00008B5104C08E0236859050DD423681A0550
:103C00000FD42368DB0411D423685803F3D500F0E4
:103C1000FFFE23685905F1D502F05AF823681A050A
:103C2000EFD500F095FD2368DB04EDD502F0E6F852
:103C3000EAE700BF3480044008B5FFF7D9FF00BFB2
:103C4000014B10221A80704700200540704700BFCA
:103C5000094908B50B6830B16A461844A2F580528C
:103C6000904202D20860184608BD02F0E9FD0C231C
:103C700003604FF0FF3008BD8C8DFF1FEFF3138002
:103C800070B9EFF310836BB9EFF305825AB94FF4B3
:103C90008070EFF311832BB1984228BF184670470C
:103CA0004FF0FF3070470F2A01D81846F1E7014B5B
:103CB000D05CEEE7F0E300E002F0F0BD02F0F6BD0C
:103CC000F0B44D1E2E46002400E00134B0FBF2F3A8
:103CD00002FB1300092800F130078ABF3730F8B221
:103CE000C0B206F8010F1846002BEED10A19537026
:103CF0004CB1107815F8016F28700133E01A834237
:103D000002F80169F5DB0846F0BC7047704700BF58
:103D100010B40F4B53F8302092F880422CB101239D
:103D200069B182F8803010BC704703EBC0035B6858
:103D30001A6841B922F002021A6010BC704782F87A
:103D4000003110BC704742F003021A6010BC70478B
:103D500084B200001C4A02EBC00301295B6811D049
:103D600004291BD052F83000002280F8802229B1AB
:103D7000022920D0032922D01A6070474FF48072A4
:103D80001A60704752F830004FF4A27280F8801227
:103D90001A601A6822F020021A60704752F8301038
:103DA0004FF4A272012081F880021A601A6842F072
:103DB00020021A60704740F203121A6070474FF4F5
:103DC00081721A60704700BF84B20000212848D871
:103DD000F8B5042A44D8DFE802F0484B4E0345000A
:103DE0004FF410262B4B03EBC0030D465C68216893
:103DF00011F4E06148D0284B284A2949C3F89C2196
:103E000004F140422748C3F8A411A2F59221264F9D
:103E1000C3F8A0017C292548C3F8A871C3F8AC01F8
:103E20002CD9A2F594237C2B2AD9A2F596237C2B9E
:103E300028D9A2F598237C2B29D9A2F59A227C2A8D
:103E400027D81B4872B6236823F4702343F080728E
:103E5000C4F384011643236040F82150266062B603
:103E6000F8BD70474FF43026BCE74FF40026B9E7A1
:103E70004FF44026B6E74FF42026B3E70D48E1E7BC
:103E80000D48DFE70D48DDE7FFF764FFB3E70C48B7
:103E9000D8E7F8BD84B200000082FF1FD187FF1F62
:103EA0007987FF1FA587FF1F4D87FF1F2187FF1FF2
:103EB000688EFF1F908DFF1FC88DFF1F188EFF1F7C
:103EC000488EFF1F1A4B03EBC00010B4426802F18A
:103ED0004043A3F592217C2923D9A3F594217C2981
:103EE0000DD9A3F596217C291FD9A3F598217C290A
:103EF00019D9A3F59A237C2B11D80E4C00E00E4C57
:103F000072B613680D4823F08773C2F3840123F45B
:103F1000803343F08073136044F8210062B610BC14
:103F20007047074CECE7074CEAE7074CE8E700BFAF
:103F300084B20000688EFF1FC88DFF1F0D3D00007A
:103F4000908DFF1F488EFF1F188EFF1F30B4054B4A
:103F5000054D064C002210211A602A60206019606D
:103F600030BC704714D0034004D0034000D003405D
:103F7000212801D8FFF7CCBE704700BF212801D807
:103F8000FFF7E8BE704700BF2DE9F843054672B65B
:103F9000204F214B214A1B683C68126862B65201CF
:103FA00002D5322B88BF013495B3C3F5BB331C4E09
:103FB000DFF86490DFF86480FF334FF47A72A6FB79
:103FC000031302FB04F404EB931472B6D9F8001047
:103FD0003A68D8F800E062B6C1F5BB33FF33A6FB00
:103FE00003031EF0806FC4EB93134FF47A7002D07A
:103FF000322988BF013200FB0233B3F57A7F04D344
:10400000013D05D004F57A74DFE701F097FCDCE7A9
:10401000BDE8F88314A6FF1F18E000E004ED00E0FF
:10402000ABAAAAAAF8B52D4B2D49DFF8D0E0DFF8EE
:10403000D0C02C4E2C4D2D4C2D4A2E4F4FF400004D
:1040400018604FF0807018604FF0007018604FF0EB
:10405000806018604FF0006018600020086028231E
:104060004BF6FF71CCF80010CEF8003033601360CF
:104070002B6023603B60B3629362092245F8242CD5
:10408000C4F8D80F05F57F65C7F8D41F07F5FF27DB
:1040900007F5FA67C6F8F83F2B6006F5FF26C4F867
:1040A000D42F05F5FD2504F5FF24386006F2F476DB
:1040B0001148316005F5FF6504F5FD642B60236050
:1040C000026001F085FD1920FFF75EFF01F008FA9C
:1040D00040F21310BDE8F840FFF756BF08E100E0DA
:1040E0000480034014800340248003402C8003405C
:1040F0001C8003403480034000800B400C80034050
:10410000088003402B4A2C491368F0B543F4006340
:1041100013600A78294F2A4E2A4D2B4C2B49002335
:10412000092A3B7033702B7023700B703DD01A2A14
:1041300021D0274B1B780A2B25D01F2B30D01F28CE
:1041400027D8002002460125224B234C1A70234910
:104150005D7004224FF0020E88273C26402598729D
:104160009A704FF4004083F813E05A751F74DE70A4
:1041700025700860F0BD1A4B40F213321A60144BE0
:104180001B780A2BD9D1174B4FF451721F281A6094
:10419000D7D9C0F34432C0F3471500F01F00D3E76E
:1041A000114B4FF451721A60C9E7104B40F21332B1
:1041B0001A60BEE734800440708EFF1F88A6FF1F80
:1041C0001DA6FF1F90A6FF1F89A6FF1F1CA6FF1F8D
:1041D000718EFF1F00B006402FE400E004E100E014
:1041E00004D0044010B0044000D004400CB004409F
:1041F000144B14499B7803F0EC0200F003031343C3
:10420000420700F00F0248BF43F01003042A8B70EE
:1042100013D00C4B0B4A5B79C10603F0EF0348BF88
:1042200043F0100353719379820603F0EF03054ABC
:1042300048BF43F01003937170478B7943F04003FC
:104240008B71E6E700B00640234B1B681B0542D587
:1042500010B5224C237823B101F070FB2378002B9A
:10426000FAD11F481F4A204B4FF40044002104603C
:10427000D1701B78092B1FD01A2B03D11B4B40F296
:1042800003121A601A4B1B7803F07F030A2B1DD010
:104290001F2B03D1174B40F203121A60164A114B21
:1042A0001648174912681C79DB79002303700B70DC
:1042B0000AB10123137010BD124B40F203121A60B1
:1042C0000B4B1B7803F07F030A2BE1D10E4B40F21E
:1042D00003121A60E2E77047348004401CA6FF1FF7
:1042E00084E100E000B00640708EFF1F04D004405F
:1042F000718EFF1F00D0044018A6FF1F88A6FF1F65
:104300001DA6FF1F0CB0044010B004400A4A38B587
:104310000546137803F0FF04002BFAD1012128464B
:10432000FFF72CFE21462846FFF722FE034A044BE6
:1043300052F835201A6038BD1CA6FF1F84B2000059
:104340008CA6FF1F09B140F08000174A13789842ED
:1043500016D010B4154C246824050FD503F07F0344
:104360000A2B1CD01F2B11D0002900F07F0114BF95
:10437000602344230A290DD01F2902D0107010BCDD
:1043800070470B4943F440730B60F7E7084B002478
:104390001C60E9E7074943F440730B60EEE7054B07
:1043A00000241C60E0E700BF718EFF1F34800440D2
:1043B00000D0044010B00440124B1A7882420CD056
:1043C00011490968090507D5092A16D01A2A0AD001
:1043D00009280DD01A2801D0187070470B4A40F2F6
:1043E00013311160F8E7094A002109281160F1D161
:1043F000074A40F213311160EEE7054A00211160CF
:10440000E6E700BF708EFF1F3480044004D00440F4
:104410000CB004400D4B1B6813F4006305D0212839
:1044200005D90B4B00201860704718467047094BA0
:1044300010B5074C53F8303023600121FFF79EFD83
:10444000236800221A70012010BD00BF3480044090
:1044500018A6FF1F84B200000C4B1B6813F4006306
:1044600006D0172806D00A4A537B03F0FE03537385
:1044700000207047074B064A40F202311960537B17
:1044800043F0010353730120704700BF34800440A0
:1044900000B0064008B004402DE9F84F234B1B68DC
:1044A0001A053BD5224B1B680BB101221A70DFF8AD
:1044B0009090204D99F80040DFF888801E4E01341E
:1044C000272C8ABF4FF0000A5FFA84FA5446074649
:1044D000AB462B789C4216D1FFF7D0FB40281FDC5F
:1044E00033791B06F5D59BF800300133272B86BFA7
:1044F00000221346DAB218F80330DBB2F3712A70E7
:104500002B789C42E8D00D490B4BFFB20120BC2216
:1045100008F80470087089F800A0DA70BDE8F88F18
:10452000FF28D6DD01F00AFAD3E700BF348004404B
:104530008CA6FF1F89A6FF1F00B006401CA6FF1F08
:1045400090A6FF1F20A6FF1F2DE9F84F294B1B68DF
:104550001A0548D5284B1B6805460BB101221A7075
:1045600005EB010A554540D2DFF89C80234CDFF86B
:104570009C90234F0AE015F8012B09F80B20214AE3
:104580000123AA45137088F800602ED098F80030F7
:10459000227803F1010BBBF1270F86BF0026B3463B
:1045A0005FFA8BF69345E6D1BC22FA7005E03A79C2
:1045B00013060BD422789345DDD1FFF75FFB40282B
:1045C000F5DDFF28F6DD01F0B9F9F3E722780132D5
:1045D000272A86BF00210A46D1B219F80220D2B29A
:1045E000FA712170E6E7BDE8F88F054BBC22DA705E
:1045F000BDE8F88F348004408CA6FF1F89A6FF1FFA
:1046000000B006401CA6FF1F90A6FF1F20A6FF1F9C
:1046100010B5044C237823B101F090F92378002BD6
:10462000FAD110BD1CA6FF1F064A074B1B78107855
:10463000DBB2C0B283422CBF273000F1FF30C01A7A
:10464000704700BF89A6FF1F90A6FF1F054A064BB3
:1046500010781B78C0B2DBB2984238BF4030C01A25
:10466000704700BF88A6FF1F1DA6FF1F30B4154B63
:10467000154C1A782378D2B2DBB29A421ED001339D
:104680003F2B0ED91149124B087819680023C0B28C
:10469000237021B1D31A1A2B01DC00230B7030BC1C
:1046A00070470A480A49C05C0968DDB2C0B225708B
:1046B0000029F4D09A4238BF4032EBE74FF0FF3088
:1046C000EDE700BF88A6FF1F1DA6FF1F48A6FF1F1E
:1046D00018A6FF1F084A094B12781B78DBB29A42D2
:1046E00007D00133402B28BF0023054AD05CC0B25D
:1046F00070474FF0FF30704788A6FF1F1DA6FF1FB1
:1047000048A6FF1F0D4B1B681B0516D530B40C4B7C
:104710000C4CDA780C480D4902F0CB024025DA70D7
:104720005D74DA7842F03402DA7023780268DBB222
:104730000B700AB10023137030BC70473480044002
:1047400000B006401DA6FF1F18A6FF1F88A6FF1F6A
:10475000F0B4384B1A7912F0300F2CD072B6997D24
:1047600001F0FF0200293DD062B6334F334938785B
:104770000D78334E1C46C0B2EDB2431C402BE1799C
:1047800028BF0023AB4202F1FF32C9B21CBFF15473
:10479000184612F0FF02F0D12A4B1B68C2B23A70E1
:1047A0004BB1A84236BFC5F14005401B4019272830
:1047B000C4BF01221A701F49CA78D2B2150616D496
:1047C00052060DD51B4B1B795B0609D51E4B1F49A5
:1047D0001B6800220A7003B11A70164B3C22DA7073
:1047E000F0BC70474022D9795A7462B6E3E70B797E
:1047F0001C06E5D5164B174E1C783378E4B2DBB2B5
:104800009C420ED0144D01E0A3420AD00133282B64
:1048100028BF00230879E85CC0B2C871087D07286A
:10482000F2D9DBB2034933700B79180644BF7C23FD
:10483000CB70C5E700B0064088A6FF1F1DA6FF1F6E
:1048400048A6FF1F18A6FF1F8CA6FF1F1CA6FF1F50
:1048500090A6FF1F89A6FF1F20A6FF1F431E032B44
:1048600014D872B60A4951F8230068B170B4094CE3
:10487000058834F81320466841F82360521B24F859
:10488000132062B670BC704762B670470020704754
:10489000ECA6FF1FF4A8FF1F013803280BD872B63F
:1048A000074B53F8203043B100205B680130002BE8
:1048B000FBD162B67047002070471846F9E700BF89
:1048C00040A7FF1F30B472B62B4A13781D0706D5D8
:1048D0002A4B196A002936D0996A002941D05378A9
:1048E0001C0706D5254B196C00293ED0996C002970
:1048F00039D09378190705D5204B196E002936D089
:10490000996E89B1D3781B0707D51C4BD3F880204B
:104910007AB3D3F8882011213AB162B6184B00223D
:104920001A7030BC00F07ABE0D21154C154D22785E
:1049300043F8315003EBC1030830013A586022704C
:1049400062B630BC704704220D4C0F4D217843F8FD
:10495000325003EBC20308304A1E5860227062B620
:10496000EFE70521E1E70921DFE70822ECE70C2268
:10497000EAE71022E8E700BFBCB300000080FF1F99
:1049800069A7FF1FC800400088004000431E032B9A
:104990001DD81B4A400140F0100030B4104472B6DC
:1049A000184CE25C032A1BD8DFE802F0021215174C
:1049B00003220D88E25410F0080F14BFC823882387
:1049C00043EA054308310360416062B630BC70477A
:1049D00008300222EDE70522EBE708300422E8E781
:1049E000094A52F8230038B1084A52F823004160BE
:1049F00042F8231062B6E9E742F82310034AF7E7CA
:104A00000080FF1F78A7FF1F40A7FF1F50A7FF1FB1
:104A10002DE9F04FDFF80CB3DFF80CA387B044E0CA
:104A2000AB4F4FEA930807EBC809013ED9F80420C1
:104A300003F00803F6B2A2F1080003F0FF04002B14
:104A400040F0028157F838301B0C99B222F8081C4C
:104A5000002B00F0F0809F4B22F8064C42F8044CEB
:104A600053F82620002A00F0C5829B4D55F82630C9
:104A700058609A4C45F8260034F81630194424F84A
:104A8000161000F0ABFD002800F0AD82944A954B63
:104A900019F0080F00F1080018BF1346C9F8040008
:104AA00047F8383008238BF800309BF80040E4B218
:104AB00061071AD58C4B1B78A3B18C490A7802F098
:104AC000FF0322B1013BDBB20B7003B900BE884982
:104AD0000A7802F0FF032AB1013BDBB20B70002B16
:104AE00000F0578204238BF8003004F0080303F031
:104AF000FF02002B00F0CC809AF80030DBB21E09D8
:104B00008ED19C08DFF8C89159F8342009EBC40114
:104B1000C2F38302013A49680C2A00F28880DFE878
:104B200002F07C7C86868686868647868686070097
:104B30000868704D4A68704F704E286081B240F22C
:104B40008160674B6A604FF0010E0022814249F894
:104B500034303A60C9F81020C9F8182086F800E00F
:104B60005B4C00F2E380B1F5D06F80F04683B1F585
:104B7000817F00F0FC8200F28D82802900F0778333
:104B8000822940F0FA82A98801F07F01042900F20D
:104B9000F4825B485B4C89000844227062700278A2
:104BA000930740F1588484F800E04FF0020E42E38E
:104BB000514F3A6832B3544B504E544918883478A8
:104BC0000D784028864645F0020828BF4FF0400E79
:104BD000002C84F001043470CEEB00000CBF88245C
:104BE000C82409EBC80680B285F0010544EA0E44EA
:104BF0007260188049F8384072440D70002800F047
:104C000045813A603B4B1A88B2F5A06F0FD1002165
:104C10009A7859703E4B1A7009E0364A108842F271
:104C20002102904200F037812D4A49F83420394A58
:104C30000123137036E72A4A2A4B19F0080F18BFD0
:104C4000134647F838302DE700F0E8FC324A334984
:104C500052F82630002B00F0D18158688C5D42F864
:104C6000260003F10802C9F80420032C05D8DFE868
:104C700004F02C02292602228A551A8819F0080FFE
:104C80000CBF8823C82343EA024347F8383009E7BA
:104C9000E00700F18181210600F1F281A20706D52B
:104CA0001F4A204913780220DBB213700870E30614
:104CB00002D51C4B10221A7007B0BDE8F08F0422F9
:104CC0008A55DAE705228A55D7E703228A55D4E7C1
:104CD0000080FF1FECA6FF1F98A6FF1FF4A8FF1F70
:104CE000C80040008800400074A7FF1FFDA6FF1FFA
:104CF0007CA7FF1F60A7FF1F94A6FF1FFCA6FF1F36
:104D0000C02007406CA7FF1FA8A6FF1F68A7FF1FB2
:104D1000982007409420074040A7FF1F78A7FF1F57
:104D200088200740802007409020074042F2210061
:104D3000814200F02A8100F2D880B1F5086F00F0BE
:104D40007682B1F5106F40F01882226AB349A878D4
:104D50000870120600F13A83D9F82820B0491306EA
:104D600000F10C83D9F83020AD49150600F101831C
:104D7000D9F83820AA49140600F1F682D9F8402063
:104D8000A749100600F14A83D9F84820A449120621
:104D900000F13F83D9F85020A149130600F1348374
:104DA000D9F858209E49150600F12983D9F86020CA
:104DB0009B49140600F11E83D9F868209849100613
:104DC00000F11383D9F870209549120600F1088389
:104DD000D9F878209249130600F1FD82D9F8802095
:104DE0008F49150600F13183D9F888208C491406C3
:104DF00000F12583D9F890208949100600F1198324
:104E0000D9F898208649120600F10D838548864A14
:104E1000864901908648874D874C04970023059664
:104E2000029580460F4616461D460394306828B109
:104E3000446800F0F3FB2046002CF9D100233360D6
:104E4000029B38681A46002342F8253028B144688E
:104E500000F0E4FB2046002CF9D100223A60019AD0
:104E600098F800301146002241F8042B039A019172
:104E7000023B4FF0000122F81510032B00F22B81AA
:104E8000DFE813F07001250170012501BEF1400F2C
:104E900018BF0022B5E6694A0D7848781570507041
:104EA0008D78C8789570D07010680D791571862846
:104EB0004D7989795571917100F09B816049614EFE
:104EC0000A78307882F00105002842F002020D7065
:104ED0000CBF8821C82149F8321009EBC20280F0CA
:104EE00001000021307051609EE642F22120814293
:104EF00040F0CB81544B554C5549A8781D6825602E
:104F0000CDF804E0087000200290804684460446F4
:104F10004B490D7845F0020E09EBCE030393019B3C
:104F2000002B039B5C600CBF8824C82444EA080360
:104F300085F0010449F83E3032700C70DFF8E0E093
:104F4000404BDFF8FC80002840F01E81BCF1400F90
:104F50001BD144F0020C09EBCC03029CDFF8C0E04B
:104F60005C60002A40F02681020442F088029DF82D
:104F700004304EF83C20044433700D702346402822
:104F800003D10020334A3B601080334A0123137061
:104F90004DE600F0AFFCA5E5214B2F4828491A61EA
:104FA0004FF0020E80F800E02C4F0A702C49196077
:104FB00099602C4E2C4D2D4C9A610D213970FF219A
:104FC0003170DFF8B8E029702270294D294A8EF837
:104FD00000109F27012406F8047C5D600470DA60ED
:104FE00007B0BDE8F08F244A47F838001378013342
:104FF000137057E543F826000E4D3AE58B5D032B01
:1050000000F2F08001A252F823F000BFA54A000090
:10501000A54A0000C9500000C350000074A7FF1F3C
:105020000080FF1F50A7FF1FECA6FF1F40A7FF1F18
:1050300078A7FF1F98A6FF1FF4A8FF1FFCA8FF1F5B
:1050400068A7FF1FFCA6FF1F14A6FF1F04A9FF1FD0
:105050008CA7FF1FA8A6FF1F94200740C020074071
:1050600088004000882007408020074098200740A3
:10507000ACA6FF1F00A7FF1F69A7FF1F8C200740DA
:10508000C149C24B80220D2008701A70A2077FF51B
:105090000EAE05E640F20232914240F0EE80A98861
:1050A00001F07F01042968D86A88002A65D1B648D2
:1050B000CDF804E089000844017841F00201017054
:1050C00021E701238B55EDE400238B55EAE44FF0F3
:1050D000010388F800300135042D06F1040607F1BC
:1050E000040708F101087FF4A1AEA94CA94B22786E
:1050F000A94D049F059E002129701A70130700F125
:1051000005816278A549DFF8A0820A7010074FF088
:105110000001C9F83010C9F8381000F1E080A0494A
:10512000A2780A700021C9F85010C9F85810110768
:10513000DFF8748200F10181E2789A499A4C0A7092
:1051400000211207C9F87010C9F8781000F1B0807A
:1051500033780193002183F00102C9F89010C9F857
:105160009810D0E64FF0000388F80030B3E7A98824
:1051700001F07F01042940F28D80834A0F231370D0
:105180008A4A0123137052E540287FF6E2AE44F0CC
:1051900002040EEBC401029E4E60BAB19DF80410E9
:1051A000834A19703346403888F8005040334EF82F
:1051B0003420E7E69DF8043033700204029B0D7042
:1051C00042F0C80203444EF83C20D8E69DF8041093
:1051D0001970029B774A88F80050403840334EF8E7
:1051E0003420CFE619F0080F0CBF022303238B55A0
:1051F00058E4714A0F21117060E6704A5468002C1F
:10520000BBD06888B5F804E003E00C325468002C89
:10521000B3D013888342F8D153887345F5D1000A7F
:1052200003280CBF94F800E0B2F808E003E0644AF9
:10523000644C12782270E888704580F03F816249A2
:105240000D784028844645F0020E28BF4FF0400CF0
:1052500004EB0C0309EBCE02029301235460CCEB68
:1052600000004FEA0C4800220193C8245EE6554C2A
:105270004FF0020E22706270DDE7B1F5A06F7FF48F
:105280007CAF0123002201933DE642F2213291429C
:10529000F7D072E76A88002A7FF46FAF3A48CDF8FA
:1052A00004E089000844017821F0020101702AE637
:1052B00000F094F9002800F0EF8008303D4AC4F86F
:1052C0008400C4F8802000F089F9002800F0DE8016
:1052D0000830374AC9F88C00C9F8882038E700F050
:1052E0007DF9002800F0C0800830324AC8F8440038
:1052F000C8F8402000F072F9002800F0AF800830B4
:105300002B4AC9F84C00C9F8482008E700F066F9B4
:10531000002800F0CD800830264AC9F82400C9F8DA
:10532000202000F05BF9002800F0BC800830204A03
:10533000C9F82C00C9F82820E3E600F04FF900284E
:1053400000F09E8008301B4AC8F86400C8F860204E
:1053500000F044F9002800F08D800830144AC9F8A4
:105360006C00C9F86820E7E6C86B083800F056F909
:1053700004E5486B083800F051F9F9E4C86A0838C8
:1053800000F04CF9EEE400BFC02007408020074049
:10539000BCB30000C420074069A7FF1FC820074016
:1053A000CC200740D02007400080FF1F94200740FA
:1053B000C800400088004000FDA6FF1FC0B30000E9
:1053C00074A7FF1F6CA7FF1F68A7FF1F606A08383C
:1053D00000F024F9C0E4C86F083800F01FF9FDE4BC
:1053E000486F083800F01AF9F2E4C86E083800F087
:1053F00015F9E7E4486E083800F010F9DCE4C86DF0
:10540000083800F00BF9D1E4486D083800F006F9CF
:10541000C6E4C86C083800F001F9BBE4486C0838F1
:1054200000F0FCF8B0E4D1F89C00083800F0F6F881
:10543000ECE4D1F89400083800F0F0F8E0E4D1F89A
:105440008C00083800F0EAF8D4E4D1F88400083879
:1054500000F0E4F8C8E44FF0020EECE62A78C9F850
:10546000480001322A705AE62A78C8F84000013212
:105470002A703FE72A78C9F8680001322A705BE693
:105480002A78C8F8600001322A7061E72A78C9F8E2
:10549000880001322A705BE62A78C4F88000013265
:1054A0002A7010E72A78C9F8280001322A7028E605
:1054B0002A78C9F8200001322A7032E7BEF1400F85
:1054C000F44628BF4FF0400C04EB0C030293012379
:1054D000CCEB0E004FEA0C480022019318E500BF08
:1054E000F8B500F0F7FC294B29482A4C2A4F2B4DE0
:1054F000DFF8BCC0DFF8BCE0294E00221A605A6019
:105500009A60DA601A615A619A61DA611A625A62C3
:105510009A62DA621A635A639A63DA631A645A64A3
:105520009A64DA641A655A659A65DA651A665A6683
:105530009A66DA661A675A679A67DA67C3F880204C
:105540000168C3F8842041F480210160C3F307217E
:105550002170C3F30740134938701B0E2B70FF23D3
:105560008CF80030104D8EF8003010480B7001237D
:10557000337084F8642070264FF40074102207F80A
:105580002C3C2E70046081F8F820F8BD0080FF1FCD
:10559000348004409C200740B0200740B4200740DE
:1055A000942007401020074049E400E008E100E0B3
:1055B000802007408820074000F0A0B800F078B8AD
:1055C00000F06CB900F046B90846114600F0B2B8D8
:1055D000084600F033B900BF704700BF72B60D48EF
:1055E0000268B2FA82F30B2B10DC4FF00041D94075
:1055F00022EA0102026062B6074803EBC303DB0044
:10560000C2180021C15010465160704762B6002098
:10561000704700BF848EFF1FBC83FF1F0D4B0E4AD7
:10562000C31AA2FB03231B090B2B0CD80B4A1278BD
:1056300052B972B60A484FF00041026821FA03F3EA
:105640001A43026062B67047064A1278002AF0D008
:10565000FFF738B9BC83FF1F398EE33869A7FF1FF6
:10566000848EFF1F74A7FF1F38B50F4D286878B1CF
:1056700043880288C118013393420C7A02D24380D6
:10568000204638BDFFF7CAFF002320462B6038BDF7
:10569000064B1B782BB10320FFF7E0F828600028A9
:1056A000E6D14FF0FF3038BD88A7FF1F74A7FF1F5A
:1056B00010B5094C206818B143881844007A10BD11
:1056C000064B1B782BB10320FFF7C8F82060002899
:1056D000F2D14FF0FF3010BD88A7FF1F74A7FF1F46
:1056E000044B054A1B6890881BB11A885B88D31A43
:1056F0001844704788A7FF1FF4A8FF1F0B4B1B78A7
:105700009BB110B50A4C206848B1FFF787FF002312
:1057100003202360FFF7A2F830B1FFF77FFF0320DB
:10572000FFF79CF80028F8D110BD704774A7FF1F41
:1057300088A7FF1F2DE9F04FDFF8F89083B0012212
:1057400089F80020019169B3DFF8EC80364F019EA3
:105750008346D8F80000B0B3344D4488C4F140010A
:10576000B14228BF314604EB010E00221FFA8EFE23
:105770002A70761AA0F802E000F1080251B1013C4B
:10578000224459441BF8014B02F8014F8B45F9D1D3
:10579000B0F802E0BEF13F0F0BD8254A0521117089
:1057A000002ED6D10198002389F8003003B0BDE85F
:1057B000F08F4022028001460420FFF7E7F8002224
:1057C000C8F80020E9E73A782AB3184D4AF2F924DC
:1057D0004FF0010A07E0013C16D02A78A2B900F088
:1057E000ADF83A78BAB10420FFF756F80728F2D896
:1057F00089F800A0FFF7F2FEC8F800000028ACD13D
:105800000C4B013C1870E8D101234FF0FF302B7096
:1058100003B0BDE8F08F00234FF0FF3089F800306F
:1058200003B0BDE8F08F00BF74A7FF1F84A7FF1F60
:105830007CA7FF1F7DA7FF1F80A7FF1F00B583B0B8
:1058400002AB012103F8010D1846FFF773FF03B007
:105850005DF804FB38B50E4D0E4C2868012323700B
:1058600028B1408800232370C0F1400038BD0A4BA6
:105870001B7813B90020207038BD0420FFF70CF806
:105880000728F7D8FFF7AAFE28600028E9D1F1E73A
:1058900080A7FF1F7DA7FF1F74A7FF1FF8B5114B3F
:1058A0001B788BB1104E114D346801272F7064B1F5
:1058B0000F4A638800271770214623800420FFF7D2
:1058C00065F8376000232B70F8BDFFF787FE084BA3
:1058D00028B1014604201C70FFF758F8F2E71F704A
:1058E000F0E700BF74A7FF1F80A7FF1F7DA7FF1F62
:1058F0007CA7FF1F38B50E4B1B7873B90D4C216880
:1059000061B103F0FF054B880B800420FFF73EF8E0
:10591000256038BD084B01221A7038BDFFF75EFEC6
:105920000028F7D00146BDE838400420FFF72EB824
:105930007DA7FF1F80A7FF1F7CA7FF1F38B5224C44
:10594000237803B138BD01232370FFF7C9FE70BB74
:1059500000F0AEF940BBFEF779FE10BB00F03EFA56
:10596000E0B900232370EFF30583002BEAD1EFF3B6
:10597000108172B6154B1868E0B1154C2278CAB97F
:1059800045691D6001232370C5B1AA6101B962B6E2
:1059900000254577836898472570D3E700F016F90E
:1059A000DFE7FDF7D5FFD9E700F00EF9D3E7FFF702
:1059B00013FECDE70029C5D162B638BD054B1D6089
:1059C0000029E5D1E3E700BF8DA7FF1FA0A7FF1FB8
:1059D000A4A7FF1F9CA7FF1F10B4EFF3108272B69D
:1059E000437F33B9017F012907D003290FD0012359
:1059F000437702B962B610BC7047124C2168A1B15E
:105A0000114943610B68836108605861EFE70F4CEF
:105A1000216881B10E4943610B6883610860586158
:105A20000C4B4FF080511960E1E7074B41618161F8
:105A300020601860DBE7064B4161816120601860DF
:105A4000EEE700BFA0A7FF1F9CA7FF1F90A7FF1FA7
:105A500094A7FF1F04ED00E010B4047F4160022C06
:105A6000C26002D010BCFFF7B7BF836810BC1847F4
:105A700070B5EFF3108272B60C4C206880B10C4EFA
:105A800000254369236073B19D6102B962B6457711
:105A900083689847EFF3108272B620680028F0D12F
:105AA00002B962B670BD3360EFE700BF90A7FF1F79
:105AB00094A7FF1FFFF7DCBF184A30B41468002C0E
:105AC00027D0036821688B420ED2CB1A0021846054
:105AD000C1602360E06010600223037530BC704732
