:100000000C948B150C94B5150C94B5150C94B51572
:100010000C94B5150C94B5150C94B5150C94B51538
:100020000C94B5150C94B5150C94B5150C94B51528
:100030000C94B5150C9422160C94B5150C94B515AA
:100040000C94B5150C94B5150C9410330C94B5158F
:100050000C9479310C94AF310C94B5150C94B51502
:100060000C94B5150C94B5150C9408220C94B51588
:100070000C94B5150C94B5150C94B5150C94B515D8
:100080000C94B5150C94B5150C94B5152E3431346B
:100090002434283448344834353439343F344334F4
:1000A0000000000000000000000000000000000050
:1000B0000000000000FC3F00FE0700000000000000
:1000C0000000000000FC3F00FE0F000000000000E8
:1000D0000000000000E00700F80100000000000040
:1000E0000000000000C00700F00000000000000059
:1000F0000000000000C00300E0000000000000005D
:100100000000000000C003006000000000000000CC
:100110000000000000C003006000000000000000BC
:100120000000000000C003006000000000000000AC
:100130000000000000C0030060000000000000009C
:100140000000000000C0030060000000000000008C
:100150000000000000C0030060000000000000007C
:100160000000000000C0030060000000000000006C
:100170000000000000C0030060000000000000005C
:100180000000000000C0030060000000000000004C
:100190000000000000C0030060000000000000003C
:1001A0000000000000C0030060000000000000002C
:1001B0000000000000C0030060000000000000001C
:1001C0000000000000C0030060000000000000000C
:1001D0000000000000C00300E0000000000000007C
:1001E0000000000000C0F3FFFF1F0000000000003F
:1001F0000000000000C083FFFF7F0000000000003F
:100200000000000000C0033F60FE0100000000008D
:100210000000000000C0033E60F00300000000008A
:100220000000000000C0033E60E00F00000000007E
:100230000000000000C0033E60C00F00000000008E
:100240000000000000C0033E60801F0000000000AE
:100250000000000000C0073E60003F0000000000FA
:100260000000000000C0073E60003F0000000000EA
:100270000000000000C0073E70007E00000000008B
:100280000000000000C0073E70007E00000000007B
:10029000000000000080073E3000FC00000000006D
:1002A000000000000080073E3800FC000000000055
:1002B0000000000000800F3E3800FC00000000003D
:1002C0000000000000000F3E1C00FC0000000000C9
:1002D0000000000000001F3E1C00F80100000000AC
:1002E0000000000000003E3E0F00F801000000008A
:1002F000000000000000FCBE0700F8010000000044
:10030000000000000000F8FF0300F80100000000FA
:10031000000000000000F0FF0000F80100000000F5
:10032000000000000000003F0000F8010000000095
:10033000000000000000003E0000F8010000000086
:10034000000000000000003E0000F8010000000076
:10035000000000000000003E0000F8010000000066
:10036000000000000000003E0000F8010000000056
:10037000000000000000003E0000F8000000000047
:10038000000000000000003E0000FC000000000033
:10039000000000000000003E0000FC000000000023
:1003A000000000000000003E0000FC000000000013
:1003B000000000000000003E00007C000000000083
:1003C000000000000000003E00007C000000000073
:1003D000000000000000003E00003E0000000000A1
:1003E000000000000000003E00003E000000000091
:1003F000000000000000003E00001E0000000000A1
:10040000000000000000003E00001F00000000008F
:10041000000000000000003E00800F00000000000F
:10042000000000000000003E008007000000000007
:10043000000000000000003E00C0030000000000BB
:10044000000000000000003E00E00100000000008D
:10045000000000000000007E00F800000000000026
:1004600000000000000000FF003E0000000000004F
:10047000000000000000E0FFFF0F0000000000008F
:10048000000000000000F0FFFF010000000000007D
:10049000000000000000000000000000000000005C
:1004A000000000000000000000000000000000004C
:1004B000000000000000000000000000000000003C
:1004C000000000000000000000000000000000002C
:1004D0000000000000000000C0000000000000005C
:1004E0000000000000000000A0000000000000006C
:1004F00000000000000000004001000000000000BB
:100500000000000000000000800200000000000069
:1005100000000000000000000003000000000000D8
:1005200000000000000000000007000000000000C4
:100530000000000000000000000E8003000000002A
:100540000000000000000000000C8003000000001C
:100550000000000000000000001C800300000000FC
:10056000000000000000000000180007000000006C
:10057000000000000000000000380007000000003C
:100580000000000000000000002000070000000044
:1005900000000000000000000070000700000000E4
:1005A00000000000000000000020000E000000001D
:1005B000000000000000000000000000000000003B
:1005C00000000C0000002010000000001C000000D3
:1005D00000001000000020100000000018000000C3
:1005E000000023020081A01000C6C407180000000C
:1005F0000000018EC74263111EC6C40C1800000023
:10060000000039C24424221112C6C50C3800000073
:10061000000039C2472422111EC6C7073800000057
:1006200000002342402422110246C700300000008F
:10063000000036C2404423310646C60030000000A8
:1006400000001C824784E1601C46C40030000000AA
:10065000000000000000000000000000300000006A
:10066000000000000000000000000000300000005A
:100670000000000000000000000E003870000000C4
:100680000000000000000000000E003870000000B4
:100690000000000000200000000E00387000000084
:1006A0000000000000000000000C00387000000096
:1006B000000000808F379E8F070C06387000000006
:1006C00000000080402083C8060C0E387000000037
:1006D0000000008040208148040C0E3870000000AB
:1006E00000000080C7239F4F000C0E3870000000F0
:1006F000000000800026904F000C0E38703800007B
:100700000000008000269848000C0E387038000069
:1007100000000080CF238F48000C0E387038000096
:100720000000000000000000000C0E3870380000CF
:100730000000000000000000000C0E3870380000BF
:100740000000000000000000000C06380038000027
:100750000000000000000000000C06380038000017
:100760000000000000000000000E06380038000005
:100770000000000000000000000E071C0018000030
:100780000000000000000000000E071C0018000020
:100790000000000000000000000E071C0018000010
:1007A000000000000000000000060700001C000020
:1007B000000000000000000000060700001C000010
:1007C000000000000000000000070300001C000003
:1007D000000000000000000000870300001C000073
:1007E000000000000000000000830300001C000067
:1007F000000000000000000080830300001C0000D7
:10080000000000000000000080C3010000000000A4
:10081000000000000000000000C001000000000017
:10082000000000000000000000C001000000000007
:10083000000000000000000000E0000000000000D8
:10084000000000000000000000E0000000000000C8
:10085000000000000000000000E0000000000000B8
:100860000000000000000000007000000000000018
:100870000000000000000000004000000000000038
:100880000000000000000000000000000000000068
:100890000000000000000000000000000000000058
:1008A0000000000000000000000000000000000048
:1008B0000000000000000000000000000000000038
:1008C000000000000000000000FE3F0000000000EB
:1008D0000000000000000000E000C0010000000077
:1008E00000000000000000001800010E00000000E1
:1008F000000000000000000086FE11300000000033
:10090000000000000000008081FB59C000000000D2
:100910000000000000000060F840F48301000000C7
:100920000000000000000030CC00000D02000000BC
:1009300000000000000000081900001E0C0000006C
:10094000000000000000008403FE3F40180000008B
:100950000000000000000062C101C0E031000000A2
:1009600000000000000000E130C000432300000050
:1009700000000000000080200C4E390C46000000F2
:10098000000000000000C018262A25118E0000007B
:1009900000000000000040147132A7231001000085
:1009A000000000000000208C9012E0C2080100004E
:1009B0000000000000003046100160823402000098
:1009C00000000000000010242FFC0F3A0106000078
:1009D0000000000000001830390330260204000037
:1009E0000000000000000810C280C02004040000C5
:1009F00000000000000008086680001104080000E4
:100A000000000000000004E833C000F20908000004
:100A1000000000000000642418C0000489110000D8
:100A2000000000000000E44408400188D1110000EB
:100A3000000000000000E28204A0014890110000C4
:100A400000000000000002F204A002D01710000015
:100A50000030E6FF0603020A02D002102400000064
:100A6000003006068601021AC253F221242000003B
:100A700000300606C600026122540B23232000002A
:100A8000003006066600024141F52BA1202000003F
:100A9000003006063600107941F12B202720000097
:100AA000003006063E007109C1756B202823000046
:100AB000003006067E002109C1E4B3212C2300008A
:100AC00000300606E6003061C1A5F1A12323000035
:100AD00000300606C6017241C12571A12124000023
:100AE0000030060686015232422769212221000089
:100AF000003006060603620A42188610A421000090
:100B000000300606060622FA820080909713000045
:100B100000000000000062828401405010130000B9
:100B2000000000000000A2C40403308890110000FF
:100B3000000000000000446408FC0F04C91100001C
:100B4000000000000000C4241320023689080000C1
:100B500000000000000004C8242002D3090800009F
:100B6000000000000000081842E08311E4080000C3
:100B70000000000000000812930160204204000001
:100B80000000000000001023390E382E020400007F
:100B9000000000000000104326F0073201020000B0
:100BA00000000000000020CE9003608208020000D8
:100BB000000000000000209CD132A3421001000080
:100BC000000000000000402C632A25238400000060
:100BD0000000000000008050042A2D9887000000CB
:100BE00000000000000000A118C619064200000025
:100BF00000000000000000436180808121000000AF
:100C00000000000000000086860770B81000000099
:100C1000000000000000000C1DF80F6C0800000030
:100C200000000000000000181400001F0400000075
:100C300000000000000000201816FC030300000064
:100C400000000000000000C0001D958000000000B2
:100C50000000000000000000030E2D6000000000F6
:100C600000000000000000000E000018000000005E
:100C7000000000000000000030000007000000003D
:100C80000000000000000000C007F00000000000AD
:100C90000000000000000000000000000000000054
:100CA0000000000000000000000000000000000044
:100CB0000000000000000000000000000000000034
:100CC0000000000000000000000000000000000024
:100CD0000000000000000000000000000000000014
:100CE0000000000000000000000000000000000004
:100CF00000000000000000000000000000000000F4
:100D000000000000000000000000000000000000E3
:100D100000000000000000000000000000000000D3
:100D200000000000000000000000000000000000C3
:100D300000000000000000000000000000000000B3
:100D400000000000000000000000000000000000A3
:100D50000000000000000000000000000000000093
:100D60000000000000000000000000000000000083
:100D70000000000000000000000000000000000073
:100D80000000000000000000000000000000000063
:100D90000000000000000000000000000000000053
:100DA00000E0FFFFFF7F00000000000000000000E7
:100DB00000E0FFFFFF7F00000000000000000000D7
:100DC00000E0FFFFFF7F00000000000000000000C7
:100DD00000E0FFFFFF7F00000000000000000000B7
:100DE00000E0FFFFFF7F00000000000000000000A7
:100DF00000E0FFFFFF7F0000000000000000000097
:100E000000E0FFBFFF7F00000000000000000000C6
:100E100000E0FF9FFF7F800FF0F9009E0FF00000C1
:100E200000E0FF8FFD7F800FF0F9009F0FF00000C2
:100E300000E0FF85FC7F801FF0F1818F0FF0000044
:100E400000E0FF44F87F803FF0E183870FF000006F
:100E500000E0FF22EC7F807FF0E1C3870FF000000D
:100E600000E07F22F27F807FF0C1C7830FF0000097
:100E700000E07F92F17F80FFF081E7830FF00000B8
:100E800000E07FD2F07F80FFF181FF810FF0000052
:100E900000E07F52F87F80EFF301FF800FF0000049
:100EA00000E0FF34FC7F80EFF301FE800FF00000D4
:100EB00000E0FF3BFF7F80CFF7017E800FF0000056
:100EC00000E0FF87FF7F808FFF013C800FF0000074
:100ED00000E0FF87FF7F800FFF013C000FF0000064
:100EE00000E0FFFFFF7F800FFF013C000FF00000DC
:100EF00000E0FFCFFF7F800FFE013C001FF80000E5
:100F000000E0FFCFFF7F800FFC013C003F7C000032
:100F100000E0FFCFFF7F800FF8013C00FE7F000064
:100F200000E0FFCFFF7F800FF8013C00FC3F000096
:100F300000E0FFCFFF7F800FF0013C00F81F0000B2
:100F400000E0FFCFFF7F000000000000E003000092
:100F500000E0FFCFFF7F0000000000000000000065
:100F600000E0FFEFFF7F0000000000000000000035
:100F700000E0FFEFFF7F0000000000000000000025
:100F800000E0FFFFFF7F0000000000000000000005
:100F900000E0FFFFFF7F00000000000000000000F5
:100FA00000E0FFFFFF7F00000000000000000000E5
:100FB00000E0FFFFFF7F00000000000000000000D5
:100FC0000000000000000000000000000000000021
:100FD0000000000000000000000000000000000011
:100FE0000000000000000000000000000000000001
:100FF00000000000000000000000000000000000F1
:1010000000000000000000000000000000000000E0
:1010100000000000000000000000000000000000D0
:1010200000000000000000000000000000000000C0
:1010300000000000000000000000000000000000B0
:1010400000000000000000000000000000000000A0
:101050000000000000000000000000000000000090
:101060000000000000000000000000000000000080
:101070000000000000000000000000000000000070
:101080000000000000000000000000000000000060
:101090000000000000000000000000000000000050
:1010A0000000000000000000000000000000000040
:1010B0000000000000000000000000000000000030
:1010C0000000000000000000000000000000000020
:1010D0000000000000000000000000000000000010
:1010E0000000000000E00F00000000000000000011
:1010F0000000000000F0FF070000000000000000FA
:10110000000000000030C27E00000000000000006F
:1011100000000000003042E001000000000000007C
:10112000000000000030420807000000000000003E
:1011300000000000003042081A000000000000001B
:101140000000000000F87F047100000000000000B3
:101150000000000000FEFF87C1000000000000004A
:1011600000000000000FE09FC00100000000000030
:1011700000000000000700FC200600000000000046
:1011800000000000000E00E0130C00000000000052
:1011900000000000001C00800F180000000000008C
:1011A00000000000001800001E1C000000000000ED
:1011B00000000000003801003C3600000000000084
:1011C0000000000000B8020078630000000000008A
:1011D0000000000000B00400E0C1000000000000BA
:1011E0000000000000300400C0810000000000008A
:1011F000000000000030040080C301000000000077
:101200000000000000300300802301000000000007
:101210000000000000300000000F0300000000008C
:101220000000000000700000000E0200000000003E
:101230000000000000700000000E0600000000002A
:101240000000000000700003001C0400000000000B
:101250000000000000708007001C04000000000077
:10126000000000000060C007001807000000000038
:10127000000000000060E00600F80D000000000023
:10128000000000000060700E003008000000000048
:10129000000000000060300C00300800000000007A
:1012A000000000000060380E003008000000000060
:1012B0000000000000701806007018000000000018
:1012C0000000000000701C06007018000000000004
:1012D0000000000000700C07006018000000000013
:1012E0000000000000F08F0300E01F00000000007D
:1012F0000000000000F0CF010060100000000000BE
:10130000000000000000E00100601000000000008C
:1013100000000000000060000060100000000000FD
:1013200000000000000070000060100000000000DD
:101330000000000000003800006010000000000005
:10134000000000000000180000E011000000000094
:101350000000000000001C0000601F0000000000F2
:101360000000000000000C000060180000000000F9
:10137000000000000000FEFFFF7F000000000000F2
:10138000000000000000FCFFFF3F00000000000024
:10139000000000000000000000000000000000004D
:1013A000000000000000FEFFFF7F000000000000C2
:1013B00000000000000002000060000000000000CB
:1013C00000000000000002000060000000000000BB
:1013D000000000000000E203E063000000000000E5
:1013E0000000000000003EFE3F7E00000000000004
:1013F0000000000000001EF81F3C0000000000007C
:10140000000000000000C819C8090000000000002A
:10141000000000000000481B4C0900000000000014
:10142000000000000000E819CC09000000000000E6
:10143000000000000000180808080000000000007C
:10144000000000000000100C180C0000000000005C
:10145000000000000000E007F007000000000000AE
:101460000000000000008001C0010000000000003A
:10147000000000000000000000000000000000006C
:10148000000000000000000000000000000000005C
:10149000000000000000000000000000000000004C
:1014A000FFE0FFD1AFFF32FFD0FFFEFFE0FFD1AE84
:1014B000FFD0FFFEFFE0FFD11000FFFEFFD0FFE0F6
:1014C000FFC1FFD1AED580A83FD300408D142000CE
:1014D000A1C8DA1281CFD9F1DB402EA4A6AFFFD08C
:1014E000FFFE00101000FE0A06A7089500FFFE0E82
:1014F000FE0BFE1010201000FEAAAA0001800000C2
:101500000180004A51EA505A51C99E0001800000F2
:101510000180000001800055551010201000FEAA27
:10152000AA00018000000180003993C252325F8A14
:101530005271938000000180000001800055551019
:1015400010201000FEAAAA00018000000180003BCC
:10155000A5C1243119892471258000000180000073
:1015600001800055551010201000FEAAAA0001802D
:1015700000000180007BA5C1247919C12479258050
:10158000000001800000018000555510102010005F
:10159000FEAAAA000180000001800079BFC2487A3B
:1015A00049C248798980000001800000018000550F
:1015B000551010201000FEAAAA0001800000018032
:1015C000007A4DC2527B53C2D67A4F800000018010
:1015D000000001800055551010201000FEAAAA003E
:1015E0000180000001800031A5CA287A31CA28494B
:1015F000A5800000018000000180005555101020DA
:101600001000FEAAAA000180000001800073D1CA68
:101610001073D1CA1073DF800000018000000180C8
:101620000055551010201000FEAAAA0001800000ED
:101630000180001E3991401E3191081E718000000A
:101640000180000001800055551010201000FEAAF6
:10165000AA000180000001800022F9A2203E21A200
:1016600020222180000001800000018000555510DB
:1016700010201000FEAAAA000180000001800020B6
:10168000F9A08020F9A0803E818000000180000048
:1016900001800055551010201000FEAAAA000180FC
:1016A000000001800022F9A220222194200821803C
:1016B000000001800000018000555510102010002E
:1016C000FEAAAA00018000000180003EF9A0803E31
:1016D000F9A0802081800000018000000180005579
:1016E000551010201000FEAAAA0001800000018001
:1016F000001EF1A08820F1A0901E898000000180CA
:10170000000001800055551010201000FEAAAA000C
:10171000018000000180001E71A0881C8982883C25
:1017200071800000018000000180005555101020DC
:101730001000FEAAAA00018000000180001EF9A08E
:10174000201C2182203CF9800000018000000180E3
:101750000055551010201000FEAAAA0001800000BC
:10176000018000391DA510251DA51039DD80000060
:101770000180000001800055551010201000FEAAC5
:10178000AA00018000000180007189CA184A09CAB4
:1017900008719D80000001800000018000555510F7
:1017A00010201000FEAAAA00018000000180007134
:1017B00099CA044A09CA10719D8000000180000086
:1017C00001800055551010201000FEAAAA000180CB
:1017D00000000180007199CA044A19CA04719980F5
:1017E00000000180000001800055551010201000FD
:1017F000FEAAAA00018000000180007185CA0C4A7F
:1018000015CA1C7185800000018000000180005510
:10181000551010201000FEAAAA00018000000180CF
:10182000004993EA546A59DBD44A5380000001808E
:10183000000001800055551010201000FEAAAA00DB
:10184000018000000180003453C29A31178912715F
:101850001380000001800000018000555510102009
:101860001000FEAAAA00018000000180007BB9C11F
:10187000247939C124793980000001800000018079
:101880000055551010201000FEAAAA00018000008B
:101890000180003325C4B447ADC4A434A580000042
:1018A0000180000001800055551010201000FEAA94
:1018B000AA00018000000180003E89A0D83EA9A0B6
:1018C000883E89800000018000000180005555108D
:1018D00010201000FEAAAA00018000000180003A3A
:1018E0005DC252325D8A52719D800000018000000D
:1018F00001800055551010201000FEAAAA0001809A
:10190000000001800079CFC2107991C0507B8F8098
:1019100000000180000001800055551010201000CB
:10192000FEAAAA00018000000180001E7190801EA6
:1019300061901010E18000000180000001800055DE
:10194000551010201000FEAAAA000180000001809E
:10195000000E719080166192100EE18000000180EF
:10196000000001800055551010201000FEAAAA00AA
:10197000018000000180001C7192801C6194101293
:10198000E18000000180000001800055551010200A
:101990001000FEAAAA0001800000018000127192CE
:1019A00080126192100CE180000001800000018033
:1019B00000555500000008000E010A0A08040080C6
:1019C0008080808080800080800504040802088870
:1019D000888888060A0A080100242424FC4848FC58
:1019E000909090070A0A080100107C9290701C12D7
:1019F000927C10070A0A0801006294946810102C67
:101A000052528C070A0A0801003844442830528A8E
:101A1000848C7201040408040880808080030C0C0C
:101A20000803FF2040408080808080804040200369
:101A30000C0C0802FF804040202020202020404045
:101A400080070707080101109254385492100707C5
:101A500007080101101010FE101010020404080302
:101A6000FEC0404080040101080204F002020208A6
:101A70000300C0C0060A0A08010004040810102070
:101A800020408080060A0A0801003048848484844B
:101A900084844830050A0A0802002060A020202023
:101AA000202020F8060A0A080100788484041820FF
:101AB000408080FC060A0A08010078848404380407
:101AC00004848478060A0A080100081828488888CF
:101AD000FC080808060A0A080100FC808080F80457
:101AE00004048478060A0A08010038408080F884DB
:101AF00084848478060A0A080100FC0404080808A3
:101B000010101010060A0A08010078848484788472
:101B100084848478060A0A080100788484847C041A
:101B200004040870020707080301C0C0000000C0D9
:101B3000C00209090803FFC0C0000000C040408087
:101B400005090908020008102040804020100806FE
:101B50000505080102FC000000FC05090908010058
:101B6000804020100810204080060A0A08010078F2
:101B7000848404081010001010060A0A08010038B6
:101B80004494ACA4A4A49C403C060A0A080100307A
:101B900048488484FC84848484060A0A080100F886
:101BA000848484F884848484F8060A0A080100780E
:101BB000848480808080848478060A0A080100F08A
:101BC0008884848484848488F0060A0A080100FCDE
:101BD000808080F880808080FC060A0A080100FC72
:101BE000808080F88080808080060A0A0801007862
:101BF000848480809C84848C74060A0A0801008492
:101C0000848484FC8484848484050A0A080200F89D
:101C10002020202020202020F8070A0A0801003E6A
:101C2000080808080808888870060A0A080100845D
:101C30008890A0C0C0A0908884060A0A080100808D
:101C40008080808080808080FC060A0A08010084F1
:101C500084CCCCB4B484848484060A0A0801008449
:101C6000C4C4A4A494948C8C84060A0A0801007845
:101C7000848484848484848478060A0A080100F8B1
:101C8000848484F88080808080070B0B0801FF78B3
:101C9000848484848484B4CC7806060A0A0801000B
:101CA000F8848484F89088888484060A0A080100ED
:101CB00078848480601804848478070A0A08010004
:101CC000FE101010101010101010060A0A08010063
:101CD00084848484848484848478070A0A080100C4
:101CE00082828244444428281010060A0A0801000F
:101CF00084848484B4B4CCCC8484060A0A080100A9
:101D000084844848303048488484070A0A0801001F
:101D100082824444281010101010060A0A0801009C
:101D2000FC0404081020408080FC030C0C0804FF15
:101D3000E080808080808080808080E0060A0A08C1
:101D4000010080804020201010080404030C0C08BF
:101D500001FFE020202020202020202020E006037A
:101D6000030801093048840701010801FFFE03034D
:101D70000308020A8040200608080801007884044D
:101D80007C84848C74060B0B080100808080B8C4AE
:101D900084848484C4B8060808080100788480809C
:101DA00080808478060B0B080100040404748C8482
:101DB0008484848C74060808080100788484FC807C
:101DC000808478050B0B08010018202020F82020C3
:101DD00020202020060B0B0801FE047488888870E0
:101DE0004078848478060B0B080100808080B8C49A
:101DF000848484848484050B0B0802002020006006
:101E0000202020202020F8050D0D0801FE080800E4
:101E100018080808080808089060060B0B0801005D
:101E20008080808890A0C0A0908884050B0B080259
:101E30000060202020202020202020F8070808080B
:101E40000100EC9292929292929206080808010088
:101E5000B8C48484848484840608080801007884D3
:101E6000848484848478060A0A0801FEB8C48484C1
:101E70008484C4B88080060A0A0801FE748C8484B5
:101E800084848C740404060808080100B8C48480A3
:101E9000808080800608080801007884806018042B
:101EA0008478050A0A080100202020F8202020203C
:101EB00020180608080801008484848484848C74B3
:101EC0000608080801008484844848483030070820
:101ED00008080100829292929292926C0608080879
:101EE00001008484483030488484060A0A0801FED0
:101EF00084848484844C340404780608080801002F
:101F0000FC040810204080FC030C0C0803FF6080D8
:101F100080404080804040808060010E0E0804FEBA
:101F20008080808080808080808080808080030CA2
:101F30000C0802FFC020204040202040402020C04C
:101F400007030308010862928C1010201000FEAAFB
:101F5000AA000180000001800073D1CA104BD1CAD1
:101F60001073DF80000001800000018000555510D3
:101F700010201000FEAAAA0001800000018000715C
:101F80009DCA5273D3C252425D800000018000009E
:101F900001800055551010201000FEAAAA000180F3
:101FA0000000018000499DCA527A5DCA5049918063
:101FB0000000018000000180005555101020100025
:101FC000FEAAAA00018000000180007393CA527328
:101FD0009FCA12721380000001800000018000552A
:101FE000551010201000FEAAAA00018000000180F8
:101FF000004B93EA525B9FCA524B938000000180D2
:10200000000001800055551010201000FEAAAA0003
:102010000180000001800074B9A6A425A5A4A474C1
:10202000B98000000180000001800055551010208B
:102030001000FEAAAA00018000000180004BD1EA36
:10204000105BD1CA104BDF800000018000000180CE
:102050000055551010201000FEAAAA0001800000B3
:1020600001800039CDC212319F88527393800000E5
:102070000180000001800055551010201000FEAABC
:10208000AA000180000001800079CDC212799FC0B2
:10209000527B9380000001800000018000555510A4
:1020A00010201000FEAAAA00018000000180004B51
:1020B0009DC9207919C904493980000001800000B8
:1020C00001800055551010201000FEAAAA000180C2
:1020D000000001800025DDA4843C85A4842499802F
:1020E00000000180000001800055551010201000F4
:1020F000FEAAAA000180000001800045CDC49044E2
:1021000089A884109980000001800000018000559A
:10211000551010201000FEAAAA00018000000180C6
:1021200000721DCA127213C21243DD8000000180CA
:10213000000001800055551010201000FEAAAA00D2
:10214000018000000180007213CA127213C2124390
:10215000CD80000001800000018000555510102046
:102160001000FEAAAA00018000000180000E218953
:10217000200E218A200921800000018000000180BA
:102180000055551010201000FEAAAA000180000082
:1021900001800039DDC202318D8850739F800000BC
:1021A0000180000001800055551010201000FEAA8B
:1021B000AA000180000001800039DDC202318D8853
:1021C00042739D8000000180000001800055551081
:1021D00010201000FEAAAA000180000001800071FA
:1021E000CFCA104A0DCA0271DD80000001800000D4
:1021F00001800055551010201000FEAAAA00018091
:1022000000000180007245CA4C7245C244418F8073
:1022100000000180000001800055551010201000C2
:10222000FEAAAA0001800000018000725DCA42720D
:102230004DC250419F800000018000000180005588
:10224000551010201000FEAAAA0001800000018095
:10225000003B9DC120311989047139800000018043
:10226000000001800055551010201000FEAAAA00A1
:102270000180000001800039D3C212421FC212390E
:10228000D38000000180000001800055551010200F
:102290001000FEAAAA00018000000180002289B679
:1022A000882AA9A2D822898000000180000001802C
:1022B0000055551010201000FEAAAA000180000051
:1022C0000180003B8DC252339F8A1272138000003E
:1022D0000180000001800055551010201000FEAA5A
:1022E000AA00018000000180007B8DC2527B9FC24A
:1022F000127A138000000180000001800055551003
:1023000010201000FEAAAA00018000000180003900
:102310008FC250324D8A42719D80000001800000C2
:1023200001800055551010201000FEAAAA0001805F
:102330000000018000339BC42225A394A2639B80EC
:102340000000018000000180005555101020100091
:10235000FEAAAA000180000001800039DDC2083217
:10236000098A0871DD8000000180000001800055AD
:10237000551010201000FEAAAA0001800000018064
:102380000039DDC2084189C0483B9D8000000180C2
:10239000000001800055551010201000FEAAAA0070
:1023A000018000000180000EF990200C2182201C89
:1023B0002180000001800000018000555510102090
:1023C0001000FEAAAA000180000001800031CFCADF
:1023D000104991C850338F800000018000000180B7
:1023E0000055551010201000FEAAAA000180000020
:1023F0000180001C8992D81CA99088108980000057
:102400000180000001800055551010201000FEAA28
:10241000AA0001800000018000338FCA507B91CA5E
:10242000104A0F8000000180000001800055550017
:10243000000008000E010A0A080400808000808065
:102440008080808080070A0A08010010107C92902A
:1024500090927C1010070A0A0801001C202020F826
:102460002020207CC20608080801018448784848DA
:10247000784884070A0A08010082442810FE10FEEA
:10248000101010010A0A080400808080800000807B
:10249000808080060A0A0801007884807884847825
:1024A00004847804020208020C9090080A0A0800CA
:1024B000003C4299A5A1A1A599423C050707080245
:1024C00005700878887800F80609090801002424B6
:1024D00048489048482424060404080100FC0404E9
:1024E000041010201000FEAAAA000180003A63C266
:1024F0005433C98A48724980000001800003C180BA
:1025000000000180005555080A0A0800003C42B945
:10251000A5A5B9A9A5423C06010108010BFC0304CD
:102520000408020A40A0A040070909080101101090
:1025300010FE10101000FE0507070802057088083D
:10254000708080F805070708020570880870088801
:102550007003030308030A204080080A0A0800FEEB
:1025600042424242424266594080060C0C0801FF3A
:102570007CF4F4F4F47414141414141C020202080D
:102580000304C0C00302020802FE20C003070708BC
:1025900002052060A0202020200507070802057002
:1025A0008888887000F8060909080100909048485A
:1025B0002448489090060A0A08010044C448505034
:1025C000242C549C84060A0A08010044C448505034
:1025D000283444889C060A0A080100C4244830D0E4
:1025E000242C549C84060A0A0801001010001010C4
:1025F0006084848478060E0E0801006018000030A4
:1026000048488484FC84848484060E0E08010018E3
:102610006000003048488484FC84848484060E0E64
:10262000080100304800003048488484FC848484D9
:1026300084060E0E08010064980000304848848427
:10264000FC84848484060E0E080100484800003093
:1026500048488484FC84848484060E0E080100307B
:102660004830003048488484FC84848484070A0A03
:102670000801003E509090FE909090909E060C0CA9
:102680000801FE78848480808080848478106006CD
:102690000E0E08010060180000FC808080F8808029
:1026A0008080FC060E0E08010018600000FC80808F
:1026B00080F880808080FC060E0E08010030480003
:1026C00000FC808080F880808080FC060E0E08016F
:1026D0000048480000FC808080F880808080FC05F5
:1026E0000E0E08020060180000F820202020202094
:1026F0002020F8050E0E08020030C00000F820204F
:10270000202020202020F8050E0E080200609000F6
:1027100000F82020202020202020F8050E0E08029E
:102720000090900000F82020202020202020F80792
:102730000A0A08000078444242F2424242447806C3
:102740000E0E0801006498000084C4C4A4A49494EC
:102750008C8C84060E0E08010060180000788484BA
:1027600084848484848478060E0E08010018600036
:102770000078848484848484848478060E0E08011E
:1027800000304800007884848484848484847806BB
:102790000E0E080100649800007884848484848488
:1027A000848478060E0E080100484800007884846E
:1027B0008484848484847806050508010284483072
:1027C0004884060C0C0801FF0474888C9494A4A41B
:1027D000C444B880060E0E0801006018000084840E
:1027E0008484848484848478060E0E080100186032
:1027F000000084848484848484848478060E0E0893
:102800000100304800008484848484848484847833
:10281000060E0E08010048480000848484848484E5
:1028200084848478070E0E080100186000008282FC
:102830004444281010101010060B0B080100808073
:10284000F088848488F0808080060A0A080100707D
:10285000888890B0888484A498060C0C08010060D5
:102860001800007884047C84848C74060C0C0801A5
:1028700000186000007884047C84848C74060C0C3E
:10288000080100304800007884047C84848C74063D
:102890000C0C080100649800007884047C84848C0B
:1028A00074060C0C080100484800007884047C84FD
:1028B000848C74060D0D08010030483000007884C7
:1028C000047C84848C740708080801007C92127EC2
:1028D0009090927C060A0A0801FE788480808080AD
:1028E00084781060060C0C080100601800007884E1
:1028F00084FC80808478060C0C08010018600000BD
:10290000788484FC80808478060C0C0801003048B0
:102910000000788484FC80808478060C0C08010018
:1029200048480000788484FC80808478050C0C087A
:102930000200C030000060202020202020F8050C7C
:102940000C08020030C0000060202020202020F869
:10295000050C0C0802006090000060202020202060
:1029600020F8050C0C080200909000006020202048
:10297000202020F8060C0C08010064182844047C70
:10298000848484848478060C0C0801006498000018
:10299000B8C4848484848484060C0C080100601804
:1029A00000007884848484848478060C0C080100F8
:1029B000186000007884848484848478060C0C0871
:1029C0000100304800007884848484848478060C74
:1029D0000C080100649800007884848484848478DE
:1029E000060C0C0801004848000078848484848424
:1029F0008478060707080101300000FC000030065B
:102A00000A0A0801FF04788C9494A4A4C478800670
:102A10000C0C080100601800008484848484848C79
:102A200074060C0C080100186000008484848484FF
:102A3000848C74060C0C08010030480000848484E7
:102A40008484848C74060C0C0801004848000084BF
:102A500084848484848C74060E0E0801FE18600041
:102A60000084848484844C34040478050C0C0802AB
:102A7000FE8080F088888890A0C0808080060E0E3E
:102A80000801FE4848000084848484844C34040493
:102A9000780000000203000A0B0000000005040992
:102AA000080000000000000000000000000000001E
:102AB0000001020408102040800102040810204098
:102AC0008001020408102040800102040810204008
:102AD000800202020202020202040404040404044A
:102AE00004030303030303030301010101010101C3
:102AF00001000020002300260029000000220025FC
:102B00000028002B0000002100240027002A0000DC
:102B1000F7181F21E33111241FBECFEFD0E4DEBF31
:102B2000CDBF12E0A0E0B1E0ECE7F0E700E00BBFC2
:102B300002C007900D92A036B107D9F72DE0A0E6AC
:102B4000B2E001C01D92A238B207E1F715E1CBE86F
:102B5000D5E104C02197FE010E94DD35C838D107B8
:102B6000C9F70E9401330C943C380C940000CF93B9
:102B7000DF93EC01262F4CAD6BAD04960E948327AA
:102B80009BAD890F8BAF81E090E0DF91CF910895ED
:102B900061307105D9F01CF4672B41F00895623063
:102BA000710539F16330710559F10895892B69F583
:102BB0008091680290916902019660E170E00E9444
:102BC000C93590936902809368020FC0892BE9F49C
:102BD0008091660290916702019660E170E00E9428
:102BE000C935909367028093660281E08093060165
:102BF0000895892B51F41092650210926402F5CF6A
:102C0000892B19F481E080936C020895DC01ED9129
:102C1000FC910190F081E02D0994CF93DF93FC01AA
:102C200025ADEC012496211105C021E025AFCE0190
:102C30000E941729CE01DF91CF910C943C29049674
:102C40000C949B271F920F920FB60F9211240BB674
:102C50000F922F933F934F935F936F937F938F9335
:102C60009F93AF93BF93EF93FF9387ED9AE00E94FA
:102C7000CD1F87EE9AE00E94CD1F87EF9AE00E9459
:102C8000CD1F87E09BE00E94CD1FFF91EF91BF9188
:102C9000AF919F918F917F916F915F914F913F91F4
:102CA0002F910F900BBE0F900FBE0F901F90189595
:102CB000CF92DF92EF92FF920F931F93CF93DF9308
:102CC00000D000D000D0CDB7DEB76C017B018A0107
:102CD00062EE74E187E59BE00E9416282EE331E066
:102CE00046E160E083E59BE00E941F164AE0B601E2
:102CF000CE0101960E94D43229813A8146E164E1F5
:102D000083E59BE00E941F16CE0101960E943A3295
:102D100022E431E046E168E283E59BE00E941F1671
:102D20004AE0B701CE0101960E94D43229813A814E
:102D300046E16CE383E59BE00E941F16CE010196FD
:102D40000E943A3226E431E04AE260E083E59BE00B
:102D50000E941F1687E0809FB001819F700D112493
:102D6000675F7E4FCE0101960E94A83229813A8189
:102D70004AE26DE283E59BE00E941F16CE010196B8
:102D80000E943A3226960FB6F894DEBF0FBECDBF32
:102D9000DF91CF911F910F91FF90EF90DF90CF9037
:102DA000089562EE74E187E59BE00E9416282DE409
:102DB00031E046E169E183E59BE00E941F1627E5CB
:102DC00031E04AE269E183E59BE00C941F1662EE74
:102DD00074E187E59BE00E9416282EE531E04AE287
:102DE00060E083E59BE00C941F1662EE74E187E5DA
:102DF0009BE00E94162828E631E046E16AE083E580
:102E00009BE00E941F1623E731E04AE26AE083E577
:102E10009BE00C941F1662EE74E187E59BE00E9434
:102E200016282DE931E04AE260E083E59BE00C944E
:102E30001F16CF93DF9300D000D000D0CDB7DEB700
:102E400062EE74E187E59BE00E9416282AEA31E0F1
:102E500046E160E083E59BE00E941F1680916402DA
:102E60009091650227E0289FB001299F700D1124E1
:102E7000675F7E4FCE0101960E94A83229813A8178
:102E800046E16DE283E59BE00E941F16CE010196AC
:102E90000E943A3220EB31E04AE260E083E59BE0B9
:102EA0000E941F16E0916402F0916502EE0FFF1F71
:102EB000E95FFE4F608171814AE0CE0101960E9478
:102EC000D43229813A814EE360E083E59BE00E94A1
:102ED0001F16CE0101960E943A322BEB31E04EE3F1
:102EE00068E283E59BE00E941F1626960FB6F894D1
:102EF000DEBF0FBECDBFDF91CF910895CF93DF939B
:102F000000D000D000D0CDB7DEB762EE74E187E527
:102F10009BE00E9416282AEA31E046E160E083E562
:102F20009BE00E941F16809164029091650227E049
:102F3000289FB001299F700D1124675F7E4FCE013D
:102F400001960E94A83229813A8146E16DE283E52B
:102F50009BE00E941F16CE0101960E943A3222EC9D
:102F600031E04AE260E083E59BE00E941F1626966E
:102F70000FB6F894DEBF0FBECDBFDF91CF9108959D
:102F800062EE74E187E59BE00E9416282FEC31E0A9
:102F900046E160E083E59BE00E941F162BED31E0E7
:102FA0004AE260E083E59BE00C941F16EF92FF92EB
:102FB0000F938091620B883211F46FEF03C082305F
:102FC00031F463E087E59BE00E9469290DC0813000
:102FD00011F461E0F7CF803339F42FEF4FEF6FEF4B
:102FE00087E59BE00E946C290E94433183E29BE0CD
:102FF0000E94552C64E070E080E090E00E948B33EA
:1030000083E59BE00E940D1640EAE42E40E1F42E99
:1030100000E420E840E060E087E59BE00E94402378
:1030200087E59BE00E9441298111EECF6CEB72E0B5
:1030300080E090E00E948B3383E59BE00E940D16B8
:1030400030EAE32E3CE0F32E00E420E840E060E0CC
:1030500087E59BE00E94402387E59BE00E94412991
:103060008111EECF6CEB72E080E090E00E948B3338
:1030700083E59BE00E940D1620EAE22E20E0F22E6E
:1030800000E420E840E060E087E59BE00E94402308
:1030900087E59BE00E9441298111EECF6CEB72E045
:1030A00080E090E00E948B3383E59BE00E940D1648
:1030B00090EAE92E98E0F92E00E420E840E060E094
:1030C00087E59BE00E94402387E59BE00E94412921
:1030D0008111EECF64EF71E080E090E00E948B33CD
:1030E00083E59BE00E940D1680EAE82E84E0F82E2E
:1030F00000E420E840E060E087E59BE00E94402398
:1031000087E59BE00E9441298111EECF64EF71E0D9
:1031100080E090E00F91FF90EF900C948B33DC01F6
:1031200020E22D93FC01EF5FFB4F1D92AE17BF070E
:10313000E1F79C012F5C3B4F1192E217F307E1F797
:103140001082FC01EE5CFB4F2FEF20830895CF939C
:10315000DF9381E99BE00E948C2061E085E10E9481
:10316000493461E083E00E9449348FEF80931D0B66
:1031700080931E0B80931F0B8093200B8093210B59
:103180008093220B0E94D617C7EDDAE068EC75E158
:10319000CE010E94F01F60968BE0C731D807B1F7CF
:1031A000F894109280001092810010928500109285
:1031B000840080E293E0909389008093880080915E
:1031C0008100886080938100809181008560809378
:1031D000810080916F00826080936F00789468EE28
:1031E00073E080E090E0DF91CF910C948B330F93EC
:1031F0001F93CF93DF93C3E5DBE01B821A8289EE36
:1032000091E09983888342E160E371E0CE010E94FE
:10321000392381EF91E09983888342E164E083E27E
:103220009BE00E94312B01E010E02AE030E040E01A
:1032300050E062E070E087ED9AE00E94791F02E0C2
:1032400010E02AE030E040E050E060E070E087EE1F
:103250009AE00E94791F00E010E02AE030E040E0B0
:1032600050E061E070E087EF9AE00E94791F03E090
:1032700010E02AE030E040E050E064E170E087E0F8
:103280009BE00E94791FDF91CF911F910F910895CC
:10329000CF9361E070E081E99BE00E94A02060E0B4
:1032A00070E081E99BE00E94061660E070E081E931
:1032B0009BE00E94061681E99BE00E941C2141E0F0
:1032C00050E061E070E081E99BE00E94192181E912
:1032D0009BE00E94F41F892B31F081E99BE00E9462
:1032E000FC1FC82FF4CF8C2FCF910895CF9361E0AE
:1032F00070E081E99BE00E94A02063E070E081E93A
:103300009BE00E94061660E070E081E99BE00E946D
:10331000061681E99BE00E941C2141E050E061E03B
:1033200070E081E99BE00E94192181E99BE00E9405
:10333000F41F892B31F081E99BE00E94FC1FC82F0C
:10334000F4CF8C2FCF910895CF9361E070E081E9A5
:103350009BE00E94A02061E070E081E99BE00E9478
:10336000061660E070E081E99BE00E94061681E9A4
:103370009BE00E941C2141E050E061E070E081E9A7
:103380009BE00E94192181E99BE00E94F41F892B98
:1033900031F081E99BE00E94FC1FC82FF4CF8C2FF5
:1033A000CF9108950F931F93CF93DF9361E070E067
:1033B00081E99BE00E94A02061E070E081E99BE050
:1033C0000E94061661E070E081E99BE00E9406160B
:1033D00081E99BE00E941C216AE070E080E090E0BF
:1033E0000E948B3340E250E061E070E081E99BE0B5
:1033F0000E941921C3E3DBE08E0181E99BE00E947A
:10340000F41F892B09F04BC08091520B082E000C41
:10341000990B419725E0880F991F2A95E1F720E045
:1034200030E05991F901E80FF91FE05FFE4F40814C
:103430002F5F3F4F2F31310519F054131EC0F1CFCC
:1034400054131BC083E59BE00E940D168091520B24
:10345000082E000C990B0E94191787E59BE00E942B
:1034600041298111F3CF60ED77E080E090E0DF91BA
:10347000CF911F910F910C948B3383E59BE00E94B9
:103480000D168091520B082E000C990B0E947E178E
:1034900087E59BE00E9441298111F3CFE4CF81E9C8
:1034A0009BE00E94FC1FF80181938F01A6CFEF9251
:1034B000FF920F931F93CF93DF9380E780936D026A
:1034C0000EE612E0C1E0D0E061E070E081E99BE04F
:1034D0000E94A02060E070E081E99BE00E94061657
:1034E000BE0181E99BE00E94061681E99BE00E94F3
:1034F0001C216AE070E080E090E00E948B3340E2A3
:1035000050E061E070E081E99BE00E9419217801C0
:1035100081E99BE00E94F41F892B41F081E99BE047
:103520000E94FC1FF70181937F01F2CF2196005E7C
:103530001F4FC132D10541F661E070E081E99BE0A7
:103540000E94A02060E070E081E99BE00E940616E6
:1035500061E270E081E99BE00E94061681E99BE050
:103560000E941C2142E050E061E070E081E99BE0B4
:103570000E941921C0E0D0E081E99BE00E94F41F85
:10358000892B79F081E99BE0209729F40E94FC1FA8
:1035900080939E0604C00E94FC1F80939F06219684
:1035A000EBCFDF91CF911F910F91FF90EF90089596
:1035B0000F931F93CF93DF9381E680936D0261E0B9
:1035C00070E081E99BE00E94A02063E070E081E967
:1035D0009BE00E94061661E070E081E99BE00E949A
:1035E000061681E99BE00E941C216AE070E080E001
:1035F00090E00E948B3340E250E061E070E081E9AE
:103600009BE00E9419210EE616E0C0E0D0E081E9BF
:103610009BE00E94F41F892B49F081E99BE00E9406
:10362000FC1FF80181938F012196F1CF61E070E0DA
:1036300081E99BE00E94A02063E070E081E99BE0CB
:103640000E94061662E070E081E99BE00E94061687
:1036500081E99BE00E941C216AE070E080E090E03C
:103660000E948B3340E150E061E070E081E99BE033
:103670000E941921C259D94F81E99BE00E94F41F91
:10368000892B31F081E99BE00E94FC1F8993F4CFE4
:1036900081E080936A02DF91CF911F910F9108958D
:1036A0008F929F92AF92BF92CF92DF92EF92FF9252
:1036B0000F931F93CF93DF938091680290916902DB
:1036C00024E0880F991F2A95E1F7909166029F7078
:1036D000892B8093D10A80916402885F8093D20AFB
:1036E00061E070E081E99BE00E94A02061E070E071
:1036F00081E99BE00E94061660E070E081E99BE0B2
:103700000E94061663E670E081E99BE00E940616BF
:1037100081E99BE00E941C21C0E0D0E001E010E0C4
:1037200030EAC32E36E0D32E61E070E081E99BE001
:103730000E94A02061E070E081E99BE00E940616F3
:10374000B80181E99BE00E9406167601EC1AFD0A99
:10375000CF312CEFD20724F44E018CEF981A03C01E
:103760008EE1882E912C5601AC1ABD0AC7018A1928
:103770009B09EFEFEE1AFE0A881599053CF4F70154
:10378000608181E99BE00E944D20F0CF81E99BE0C0
:103790000E941C210F5F1F4F6E970432110521F606
:1037A00061E070E081E99BE00E94A02061E070E0B0
:1037B00081E99BE00E94061664E270E081E99BE0EB
:1037C0000E94061601EA1AE0CFEBDAE0F8016191F7
:1037D0008F0181E99BE00E944D20FAE00F3B1F071B
:1037E000A9F781E99BE00E941C2161E070E081E97A
:1037F0009BE00E94A02061E070E081E99BE00E94D4
:10380000061665E270E081E99BE00E940616699168
:1038100081E99BE00E944D202AE0C13DD207B9F723
:1038200081E99BE00E941C2161E070E081E99BE05E
:103830000E94A02061E070E081E99BE00E940616F2
:1038400066E270E081E99BE00E9406166091D10A71
:1038500081E99BE00E944D206091D20A81E99BE0C2
:103860000E944D2081E99BE0DF91CF911F910F9144
:10387000FF90EF90DF90CF90BF90AF909F908F9090
:103880000C941C213F924F925F926F927F928F9285
:103890009F92AF92BF92CF92DF92EF92FF920F93DF
:1038A0001F93CF93DF93CDB7DEB763970FB6F8942E
:1038B000DEBF0FBECDBF60E083E00E94853460E0D4
:1038C00085E10E94853482E18B8B83E29BE00E943C
:1038D000F12F882309F48EC083E29BE00E949A2A8C
:1038E000882309F487C061E083E00E94853461E0A9
:1038F00085E10E94853480EA96E00E948F18C12CF1
:10390000D12CE12CF12C332433942E0181E1480E8B
:10391000511C05E21BE02DE13BE043E04E0D60E66B
:1039200083E29BE00E94663081113AC08701A12C9E
:10393000B12C370182E0680E711C46018FEF881AA6
:10394000980A6016710604F19E012D5E3F4FAE018C
:103950004F5F5F4F602F83E29BE00E94C530811173
:1039600012C0DE011196F401EA0DFB1DE056F94F7D
:103970008D9181934A165B06D9F70F5F1F4F80E147
:10398000A80EB11CDECF312C84E0E80EF11C80E4DF
:10399000C80ED11C80E4E816F10409F0BACF01C0CA
:1039A000312C83E29BE00E94233083E29BE00E9463
:1039B000C13060E083E00E94853460E085E10E94D0
:1039C000853483E59BE00E940D16332019F00E9498
:1039D0000B1702C00E94E71687E59BE00E94412971
:1039E0008111F3CF6EEE72E080E090E00E948B33A5
:1039F000832D01C080E063960FB6F894DEBF0FBE42
:103A0000CDBFDF91CF911F910F91FF90EF90DF908D
:103A1000CF90BF90AF909F908F907F906F905F906E
:103A20004F903F900895CF92DF92EF92FF920F93C5
:103A30001F93CF93DF93CDB7DEB763970FB6F8949C
:103A4000DEBF0FBECDBF60E083E00E94853460E042
:103A500085E10E94853482E18B8B83E29BE00E94AA
:103A6000F12F882309F469C083E29BE00E949A2A1F
:103A7000882309F462C080EA96E00E948F1861E012
:103A800083E00E94853461E085E10E9485348DE504
:103A90008093170B8AE68093180B84E680931A0BA9
:103AA00085EF80931B0B81E980931C0B809170063E
:103AB0008093190B05E21BE027E13BE04FE360E652
:103AC00083E29BE00E946630811124C081E6E82EEB
:103AD0008AE0F82E1CE36E0181E1C80ED11C9E0124
:103AE0002D5E3F4FAE014F5F5F4F612F83E29BE042
:103AF0000E94C53081110EC0FE013196D70181911F
:103B00008D93EC15FD05D9F71F5F80E1E80EF11CE0
:103B10001F3329F783E29BE00E94233083E29BE07E
:103B20000E94C13060E083E00E94853460E085E15E
:103B30000E94853482E090E002C080E090E06396CD
:103B40000FB6F894DEBF0FBECDBFDF91CF911F91AE
:103B50000F91FF90EF90DF90CF9008953F924F929A
:103B60005F926F927F928F929F92AF92BF92CF920D
:103B7000DF92EF92FF920F931F93CF93DF93CDB716
:103B8000DEB760970FB6F894DEBF0FBECDBF60E022
:103B900083E00E94853460E085E10E94853483E201
:103BA0009BE00E94F12F882309F48CC083E29BE004
:103BB0000E949A2A882309F485C061E083E00E946C
:103BC000853461E085E10E9485348091300B0E944C
:103BD000383180E4C82ED12C94E0E92EF12C332426
:103BE00033942E0181E1480E511C05E21BE02DE1CA
:103BF0003BE043E04E0D60E683E29BE00E946630CE
:103C0000811136C08701A12CB12C370192E0690ED9
:103C1000711C46018FEF881A980A60167106E4F04D
:103C2000D401AA0DBB1DA359BD4FFE013196AF01B2
:103C30008D9181934E165F06D9F720E1602F83E2C4
:103C40009BE00E94073190E1A90EB11C811103C0D5
:103C50000F5F1F4FE2CF312C84E0E80EF11C90E49F
:103C6000C90ED11C80E4E816F10409F0BECF01C0F2
:103C7000312C83E29BE00E94233083E29BE00E9490
:103C8000C13060E083E00E94853460E085E10E94FD
:103C9000853483E59BE00E940D16332019F00E94C5
:103CA0000B1702C00E94E71687E59BE00E9441299E
:103CB0008111F3CF6EEE72E080E090E00E948B33D2
:103CC000832D01C080E060960FB6F894DEBF0FBE72
:103CD000CDBFDF91CF911F910F91FF90EF90DF90BB
:103CE000CF90BF90AF909F908F907F906F905F909C
:103CF0004F903F900895CF93DF9380916002909111
:103D00006102892B09F040C00E944819803771F484
:103D10008DE692E00E948F180E94571A81E08093EE
:103D20006B0210926302109262020AC00E9476191E
:103D3000813631F480EA96E00E948F180E94D81AEA
:103D400061E08091D50A9091D60A892B09F060E054
:103D5000862F90E09093D60A8093D50A81E090E078
:103D60002091D30A3091D40A232B11F080E090E007
:103D70009093D40A8093D30A83E00E9485346091A3
:103D8000D30A85E10E94853480916C02882309F46E
:103D90005BC083E59BE00E940D160E94C01787E57B
:103DA0009BE00E9441298111F8CF8091640290919B
:103DB00065020397C9F40E94131D892BF1F483E572
:103DC0009BE00E940D160E94C01787E59BE00E94B1
:103DD00041298111F8CFEFCF0E94C01787E59BE002
:103DE0000E9441298111F8CF0E94421C811105C017
:103DF00083E59BE00E940D16EFCF0E94501B1092AE
:103E00006C0283E59BE00E940D160E94D11687E5A7
:103E10009BE00E9441298111F8CF68EE73E080E0B9
:103E200090E00E948B33C5E1D0E00E94A419823754
:103E300049F0219739F064E670E080E090E00E945C
:103E40008B33F3CF0E94D21980916B02882301F14A
:103E500083E59BE00E940D160E94F51687E59BE026
:103E60000E9441298111F8CF0E94AE1D81110DC021
:103E700083E59BE00E940D160E94F51687E59BE006
:103E80000E9441298111F8CFEFCF10926B0218C028
:103E900083E59BE00E940D164091640250916502FB
:103EA0006091660270916702809168029091690248
:103EB0000E94581687E59BE00E9441298111ECCFB2
:103EC00080916202909163020196909363028093C5
:103ED00062028091600290916102019665E070E05B
:103EE0000E94C9359093610280936002DF91CF9167
:103EF00008958F929F92AF92BF92EF92FF920F938D
:103F00001F93CF93DF93EC01F62EE72E49015A0160
:103F100062E08F2D0E944934F882E9828A829B8276
:103F2000AC82BD821E821F821886198681E090E0D5
:103F30009B878A871D870C87DF91CF911F910F91F7
:103F4000FF90EF90BF90AF909F908F900895CF9289
:103F5000DF92EF92FF92CF93DF93EC010E945A33EE
:103F6000CE80DF80E884F984DC01CB018C199D09C7
:103F7000AE09BF0921E0CA80DB80EC80FD80C81655
:103F8000D906EA06FB0608F020E0822FDF91CF91E8
:103F9000FF90EF90DF90CF900895CF93DF93EC01E7
:103FA0000E94A71F8823C9F00E945A336E837F8323
:103FB0008887998788810E94B4342A853B85821737
:103FC000930759F09B878A87EE85FF85309729F004
:103FD0006C857D85DF91CF910994DF91CF91089514
:103FE000FC017787668708958091C10B90E020914E
:103FF000C20B821B910908959091C20B8091C10B55
:10400000981750F4E92FF0E0ED53F44F208130E0A1
:104010009F5F9093C20B02C02FEF3FEFC90108953D
:10402000E091C20B8091C10BE81730F4F0E0ED5342
:10403000F44F808190E008958FEF9FEF08950895E9
:10404000CF92DF92EF92FF920F931F93CF93DF9364
:104050007C01CB018A0120919D0B222389F0EB0189
:104060006B01C40ED51ECC15DD0569F06991D70131
:10407000ED91FC910190F081E02DC7010995F3CFFE
:10408000642F0E94DF21C801DF91CF911F910F9112
:10409000FF90EF90DF90CF900895CF93DF931F9222
:1040A000CDB7DEB7698320919D0B2223D1F02091FB
:1040B0009E0B203240F021E030E0FC01338322836C
:1040C00080E090E015C080919F0BE82FF0E0E05673
:1040D000F44F998190838F5F80939F0B80939E0B09
:1040E00005C061E0CE0101960E94DF2181E090E0F1
:1040F0000F90DF91CF910895FC011382128288EE18
:1041000093E0A0E0B0E084839583A683B78389EF32
:1041100091E09183808308951092C20B1092C10B9D
:1041200010929F0B10929E0B0C94232181E08093A0
:104130009D0B6093C00B10929F0B10929E0B0895E5
:104140000C9496200F93062F21E040919E0B60EA7D
:104150007BE08091C00B0E94892110929F0B1092EE
:104160009E0B10929D0B0F9108954F925F926F924C
:104170007F92AF92BF92CF92EF92FF920F931F93D5
:10418000CF93DF935C01F62ED42F28013901EE2066
:1041900021F10E949620CE2DC43008F0C3E0C1501A
:1041A000C0F028E0C29FC0011124A301920104C005
:1041B00056954795379527958A95D2F7CA01B90143
:1041C000D501ED91FC910190F081E02DC50109959B
:1041D000E6CF60E0C5010E94A2204D2FD13208F049
:1041E00040E22C2D63EC7BE08F2D0E944121109248
:1041F000C20B8093C10BDF91CF911F910F91FF9064
:10420000EF90CF90BF90AF907F906F905F904F9066
:104210000895CF92EF920F931F93C22EE12C00E0EE
:1042200010E098010E94B5201F910F91EF90CF9060
:10423000089521E00C94092161E00C94A22081E909
:104240009BE00C947C201092500C81E080934E0CEB
:1042500010924D0C61E081E10E94853461E080E1C3
:104260000E948534E9EBF0E080818E7F808380813D
:104270008D7F808388E48093B80085E48093BC00C0
:104280000895413208F043C09091500C9111FCCF39
:1042900091E09093500C20934E0C2FEF2093E30B62
:1042A0001092280C240F2093270C90934F0C909180
:1042B0004F0C880F892B80934F0C80914D0C8130CF
:1042C00061F410924D0C80914F0C8093BB00809153
:1042D000BC0083FDF8CF85EC01C085EE8093BC0067
:1042E0008091500C8130E1F38091280C841710F4F8
:1042F0004091280CA9E2BCE0962FFB018E2F891B70
:10430000841718F48D918193F9CF842F089580E05C
:1043100008950F93413208F04AC09091500C9111CA
:10432000FCCF32E03093500C00934E0C3FEF3093B3
:10433000E30B1092280C4093270C562FA9E2BCE007
:10434000FB013E2F351B341718F431913D93F9CF03
:1043500010924F0C30914F0C880F832B80934F0C91
:1043600080914D0C813061F410924D0C80914F0C76
:104370008093BB008091BC0083FDF8CF85EC01C029
:1043800085EE8093BC00222321F08091500C823076
:10439000D1F38091E30B8F3F79F08091E30B803272
:1043A00041F08091E30B803331F094E005C091E05F
:1043B00003C092E001C093E0892F0F91089561320C
:1043C00098F42091500C243089F46093050C282F28
:1043D000A7E0BCE0FC018E2F821B861718F48191A8
:1043E0008D93F9CF80E0089581E0089582E00895EB
:1043F00085ED8093BC008091BC0084FDFCCF1092C1
:10440000500C089585EC8093BC001092500C0895D8
:104410001F920F920FB60F9211240BB60F922F938B
:104420003F934F935F936F937F938F939F93AF933C
:10443000BF93EF93FF938091B900887F803609F492
:104440009EC078F5883209F45DC090F4803109F49B
:1044500056C038F4882309F4F5C0883009F44FC0F9
:10446000F5C0883109F44EC0803209F45FC0EEC057
:10447000803409F46AC058F4803309F457C0883393
:1044800009F0E4C08093E30B0E940222DFC0803574
:1044900009F44FC0883509F45DC0883409F0D6C0EE
:1044A000D3C0883909F4C4C0A8F4883709F467C0B8
:1044B00038F4883609F463C0803709F460C0C6C098
:1044C000883809F4B5C0803909F45FC0803809F034
:1044D000BDC05BC0803B09F483C038F4803A09F466
:1044E00066C0883A09F47CC0B1C0803C09F4A4C01D
:1044F000883C09F4A1C0883B09F487C0A7C080911B
:104500004F0C10C09091280C8091270C981770F5D3
:10451000E091280C81E08E0F8093280CF0E0E75D9D
:10452000F34F80818093BB0085EC83C08093E30BC5
:104530008BC0E091280C81E08E0F8093280C809135
:10454000BB00F0E0E75DF34F80839091280C8091F1
:10455000270C6BC0E091280C81E08E0F8093280C13
:104560008091BB00F0E0E75DF34F808380914E0CBB
:1045700081116AC081E080934D0C84EA5EC083E0C3
:104580008093500C1092E40BCFCF8091E40B8032DB
:1045900008F04EC0E091E40B81E08E0F8093E40BB5
:1045A0008091BB00F0E0EB51F44F8083BDCF0E94BF
:1045B00002228091E40B803230F4E091E40BF0E0D1
:1045C000EB51F44F10826091E40B70E0E091490CE4
:1045D000F0914A0C85EE9BE009951092E40B36C0F1
:1045E00084E08093500C1092060C1092050CE09120
:1045F0004B0CF0914C0C09958091050C811105C074
:1046000081E08093050C1092070CE091060C81E08C
:104610008E0F8093060CF0E0E95FF34F808180936A
:10462000BB009091060C8091050C981708F47CCF84
:1046300085E88093BC000AC085EC8093BC00109292
:10464000500C04C01092E30B0E94F821FF91EF91EF
:10465000BF91AF919F918F917F916F915F914F919A
:104660003F912F910F900BBE0F900FBE0F901F9098
:104670001895FC0113AE14AE15AE04960C942729C0
:104680002F923F924F925F926F927F928F929F9262
:10469000AF92BF92CF92DF92EF92FF920F931F9350
:1046A000CF93DF934C01162FC42FD22F502E0E9490
:1046B000B923882309F44AC087E08D0FC82EC69419
:1046C000C694C694D12C5C0E87E0482E410E8D2FE7
:1046D000869586958695682E712C3D2E98EF899F3C
:1046E000300C1124E8E08E9F100D1124D40DC51557
:1046F00069F15701242C8D2F8219883070F0F50153
:10470000049122E04C2F622DC4010E945829FFEF32
:10471000AF1ABF0A88E0280EEECFF701E60DF71DAD
:10472000311004C0EC0CFD1CCF5FE1CFB490A32C82
:10473000212EB0FE05C04C2F622DC4010E945029CD
:104740002394AA94B694A110F4CFECCFDF91CF912B
:104750001F910F91FF90EF90DF90CF90BF90AF909F
:104760009F908F907F906F905F904F903F902F9091
:1047700008950F93FC010150040F84A996A9941782
:1047800018F0081728F402C0081750F0041740F476
:104790002150260F83A995A9961720F4281720F4F5
:1047A00080E007C0281720F481E0261710F0F8CF2A
:1047B00081E00F910895DB011496ED91FC9115971E
:1047C00020E030E061E00994DB011496ED91FC916A
:1047D000159720E030E063E00994DB011496ED9139
:1047E000FC91159720E030E040E064E00994DB01A3
:1047F0001496ED91FC91159720E030E041E064E0E3
:104800000994DB011496ED91FC91159720E030E0BE
:1048100062E00994DB011496ED91FC91159720E07C
:1048200030E065E00994DB011496ED91FC91159759
:1048300066E00994CF92DF92EF92FF920F931F935D
:10484000CF93DF938C016B017A0180E0F701C49173
:1048500081110AC0CF3FE9F14C2FB601C8010E9477
:104860000A2481112FC03AC0CF3F11F44FEFF5CF8A
:10487000CE3FB1F1C03F30F5C03E38F04C2F4F7005
:10488000B601C8010E9401241DC0C03D38F04C2F64
:104890004F70B601C8010E94E42314C0C03CA0F0D0
:1048A000B601C8010E94ED23C295C07FCE5FD0E063
:1048B000CE010E949125B601C8010E94F723CE01C6
:1048C0000E94912580E006C0C7FDFCCF8C2F90E0B0
:1048D000F7CF81E0FFEFEF1AFF0AB8CF80E001C009
:1048E00081E0DF91CF911F910F91FF90EF90DF90CA
:1048F000CF900895CF93DF93FC0123A5222381F06D
:10490000EC0188E70E943225811102C080E009C0D5
:104910008EA1811180E40E9469258823B9F31BA62A
:1049200081E0DF91CF9108950F931F93CF93C42F10
:1049300089016330C1F050F4613081F0623009F0D8
:1049400048C0FC0146A321E023A743C0663011F113
:10495000673079F1653009F03CC00EC0FC0186A5D6
:104960000E94FC2436C0FC0116A221E023A74111BD
:1049700030C00E948A252DC00E947A24811104C073
:104980000E948A2580E026C08C2F0E946925811113
:1049900020C0F6CF0E947A24882391F3CC23C9F05B
:1049A000F80181918F010E946925882349F3C15044
:1049B000F5CF0E947A24882319F3CC2351F0F80113
:1049C00084910E946925882329F00F5F1F4FC150F1
:1049D000F4CF81E0CF911F910F9108959091530CE6
:1049E000911104C08093530C6093510C0895109260
:1049F000530C1092510C08958093520C1092B900F0
:104A000084FF02C08CE001C088E48093B8000C945D
:104A1000F7241F93CF93DF9300D0CDB7DEB720EDFF
:104A200037E03A8329839091BC00982399F4298137
:104A30003A81232B51F48091520C182F127081FD72
:104A400009C081E00E94EE2406C029813A812150EC
:104A50003109E7CF11E0812F0F900F90DF91CF91B7
:104A60001F910895CF93C82F84EA8093BC0061E022
:104A700080E80E940925882359F08091B900887F39
:104A8000883041F0803131F061E082E00E94EE2414
:104A9000C0E01CC0C093BB0084E88093BC0062E00F
:104AA00080E80E940925882399F38091520CC82F31
:104AB000C27081FD0AC08091B900887F883129F0D9
:104AC00062E082E00E94EE2401C0C1E08C2FCF9111
:104AD0000895CF938093BB0084E88093BC0063E08B
:104AE00080E80E940925C82F882389F08091520C04
:104AF000C82FC27081FD0AC08091B900887F8832BA
:104B000029F063E082E00E94EE2401C0C1E08C2F16
:104B1000CF91089584E98093BC0064E080E10C9417
:104B200009252EE93FE0009729F0F9013197F1F7C7
:104B30000197F9CF0895AF92BF92CF92DF92FF9283
:104B40000F931F93CF93DF938C01EB01F42E690138
:104B500080E1481709F454C0841700F1EAE04E17C9
:104B600021F1FFE04F1357C041E0C8010E94E42348
:104B700040E0BE01C8010E94012441E8BE01C80115
:104B80000E940A24F6014081BE01C8010E940A2445
:104B900040E0BE01C8010E94E4233BC081E1481708
:104BA00091F1E5E14E1761F036C042E0C8010E9484
:104BB000DB234CEB54E1BE01C8010E941A242BC038
:104BC000AA80BB8044EB54E1C8010E941A24F5017D
:104BD0004481406BBE01C8010E940A2441E0BE012D
:104BE000C8010E940124AE01B801C5010E94E62956
:104BF000882301F140E0BE01C8010E94E4230BC0FC
:104C00004BEA54E102C040EA54E1BE01C8010E94EF
:104C10001A2481E00FC096014F2DBE01C801DF911B
:104C2000CF911F910F91FF90DF90CF90BF90AF90E9
:104C30000C94522ADF91CF911F910F91FF90DF903A
:104C4000CF90BF90AF900895FC01E60FF11D8491C5
:104C500090E0982F88273196E4918E0F911D08954A
:104C6000FC01849108950E943026882321F082302F
:104C700011F083E0089586E0089580E0089566E0ED
:104C80000C94242668E00C9424260A96FC01849156
:104C900008950B96FC0184910895BF92CF92DF9204
:104CA000EF92FF920F931F93CF93DF938C01E62E29
:104CB000DC011496CD91DC911597CE010E9430262F
:104CC000F82EF801848195810E943326C82EF1E0E8
:104CD000FF1203C02FE0B22E02C0BB24BA94D80149
:104CE00014968D919C9115970E944526F82EF801F7
:104CF000848195810E944926D82ED80114968D91E1
:104D00009C9115970E944226B0E6BE1538F4009794
:104D100029F0C80FD91F91E6F92E10C0F80184813F
:104D200095810E943F26F0E4FE1538F4009729F0A3
:104D3000C80FD91F81E4F82E01C06196DE1490F4EB
:104D4000D80150961C92509753961C9253975496A4
:104D50001C92549751961C92519752961C9280E047
:104D600090E067C0DF1460F38C2D90E0FE01249189
:104D70002F3F11F4219658C0FE104DC0D801149653
:104D80008D919C9115970E9430269E012F5F3F4F79
:104D9000FE01882311F08230E1F48491D80153960A
:104DA0008C935397F901249154962C935497FE01B8
:104DB0003396E4915096EC935097FE013496E4912B
:104DC0005196EC935197FE013596E4915296EC93EF
:104DD00020C08491982F9F709250D80152969C9336
:104DE000529782958F7051968C935197F901249127
:104DF000822F8F7054968C93549722952F705396D0
:104E00002C935397FE013296E491E295EF70509601
:104E1000EC93CE010EC0FE013296E491EB219C0191
:104E20002E0F311DC20FD31FFD1409F489CFF39447
:104E30009DCFDF91CF911F910F91FF90EF90DF9069
:104E4000CF90BF9008956F927F928F929F92AF9272
:104E5000BF92CF92DF92EF92FF920F931F93CF9367
:104E6000DF93EC01C62E742E622F0E944D267C012A
:104E7000892BC9F18C819D810E943326B82E1B8914
:104E80000C898989C80E8A89781AD72CD01A212FC3
:104E90004D2D6C2DCE010E94B923882311F1EB0C0E
:104EA000F11C195F169516951695812E912C7D147F
:104EB000C1F06C2C57018A2D8E19811770F4F50101
:104EC000049120E04D2D662DCE010E945829FFEF60
:104ED000AF1ABF0A88E0680EEECFE80CF91CD39435
:104EE000E6CF888901C080E0DF91CF911F910F91BB
:104EF000FF90EF90DF90CF90BF90AF909F908F90FA
:104F00007F906F900895FF920F931F93CF93DF933D
:104F1000EC01062F142FF22EED89FE890995482FFA
:104F2000410F2F2D602FCE01DF91CF911F910F9157
:104F3000FF900C942327CF92DF92EF92FF920F9372
:104F40001F93CF93DF937C01D62E042FC22E132FF5
:104F5000DC015596ED91FC9156970995080FCC2DE3
:104F6000D12F10E02991222341F0402F6D2DC70150
:104F70000E942327D80E180FF5CF812FDF91CF91F4
:104F80001F910F91FF90EF90DF90CF900895DC017B
:104F900014962D913C9115972115310509F43FC0C8
:104FA00057968C915797F901811108C03596E49175
:104FB0005896EC935897F9013C9611C0813041F412
:104FC0003F96E4915896EC935897F901709607C074
:104FD0003D96E4915896EC935897F9013E96E491EA
:104FE0005996EC93599758968C915897082E000C27
:104FF000990B59962C915997821B910927FD9395EE
:105000005A962C915A97203441F0829FC001112466
:1050100026E0969587952A95E1F75B968C930895FF
:105020002DE336E2FC01368B258B0895CF93DF9379
:10503000FC01248135812617370749F0EC0175837F
:1050400064830E94C7278DE396E29E8B8D8BDF9150
:10505000CF9108951F93CF93DF93EC011D821C82A3
:105060001F821E82198681E0888782E28A871F86D6
:105070001E86FE01B396CE01C1962FEF2193E8174D
:10508000F907E1F711E018A3CE010E9410281F8B49
:10509000188E198E80E48A8F1B8E89E99AE29AAB6A
:1050A00089ABDF91CF911F910895DB01ED91FC91C8
:1050B00009940F931F93CF93DF93EC018B01E9A920
:1050C000FAA982E0099520E030E04AE0B801CE017B
:1050D0000E945528182FE9A9FAA983E00995E9A9A2
:1050E000FAA980E00995812FDF91CF911F910F914F
:1050F00008950F931F93CF93DF93EC018B01E9A9E0
:10510000FAA982E00995E9A9FAA981E0099520E0C8
:1051100030E044E1B801CE010E9455289E012D5C8B
:105120003F4F47E1B801CE010E945528E9A9FAA9ED
:1051300080E0DF91CF911F910F910994EF92FF9240
:105140001F93CF93DF93EC017B01E9A9FAA982E0D9
:105150000995E9A9FAA981E0099520E030E045E147
:10516000B701CE010E945528182F882341F09E01D7
:105170002D5C3F4F47E1B701CE010E945528E9A9B8
:10518000FAA980E00995812FDF91CF911F91FF90BF
:10519000EF900895FC01448F258F9C01245E3F4FC2
:1051A00042E30C945528CF93DF931F92CDB7DEB71F
:1051B0009E012F5F3F4F46E40E94552889810F9042
:1051C000DF91CF910895CF93DF931F92CDB7DEB7D4
:1051D0009E012F5F3F4F47E40E94552889810F9021
:1051E000DF91CF91089520E030E048E40C945528F9
:1051F000CF93DF93EC016A817B810E94D32888835F
:105200006A817B81CE010E94E32889836A817B8148
:10521000CE010E94F3288B879E012D5C3F4F6A814F
:105220007B8147E1CE01DF91CF910C945528CF933C
:10523000DF93EC016A817B810E945928882321F049
:10524000CE010E94F82881E0DF91CF910895EF927E
:10525000FF921F93CF93DF93EC017B01142F0E94E9
:105260002A28FB82EA821EA7CE01DF91CF911F91EF
:10527000FF90EF900C941729FC01628173810C94CC
:105280007928CF93DF93EC01EE85FF85309709F005
:1052900009956A817B81CE01DF91CF910C949E2884
:1052A000362F242FFC0162817381432F0C94CA286E
:1052B0000F93FC0182819381648F458F278F068F26
:1052C0009F01245E3F4F4BE3BC01CF010F910C9433
:1052D0005528FC0160A30895469546952695269588
:1052E000269530E2439FF0011124E22BDC019096D9
:1052F000EC939097687F469546954695462B9196F8
:105300004C930895FC011282808181508383148222
:105310000895FC0130819281930F9283218192172D
:1053200060F494819F5F94838381830F821710F0D0
:105330008FEF820F838381E0089580E00895DC0180
:105340001696ED91FC91179715968C919F01280F59
:10535000311DC9011192E817F907E1F7089531E00D
:10536000FC012381261708F430E021E0FC01828152
:10537000481708F420E091E0461708F090E0892FE4
:10538000832B2823832F8923822B0895DC01FB01A3
:10539000108212968C911297818315968C91159795
:1053A0008150828313968C9183830895FB01418100
:1053B0002381213029F0233031F468EF640F04C0D9
:1053C000642F485F01C0642F0C94AF29FC01CB010E
:1053D000BA012681378145810C941324DC0116968D
:1053E000ED91FC91179712968C91481B477081E0C4
:1053F00090E001C0880F4A95EAF7E60FF11D308171
:10540000222311F0832B02C080958323808308958B
:10541000FB014181DC0112962C911297421768F032
:1054200013962C911397241740F0608115962C91B8
:10543000621718F424810C94EE290895CF92DF921C
:10544000FF920F931F93CF93DF936C01EB01FA80D0
:105450008B81813051F030F0823049F0833051F44B
:105460001FEF09C010E001E007C011E004C010E028
:105470000FEF02C010E000E0F7FE04C0BE01C6015D
:105480000E94082A8881800F88838981810F8983FF
:10549000FF0C91F7DF91CF911F910F91FF90DF905B
:1054A000CF9008950F931F93CF93DF938901FB0152
:1054B000C281D3814233F9F068F4453109F14731B3
:1054C00041F1443181F5CE010E949F29CE010E9415
:1054D000822929C0463411F1473411F14B3319F5B3
:1054E000B901CE010E94D6298823E9F0B801CE0186
:1054F0000E941E2A18C0B901CE010E94082A13C0BA
:10550000CE010E948929882379F0CE010E949F292B
:105510000AC0B901CE010E94C62905C08D8101C013
:105520008981F801808381E0DF91CF911F910F91F4
:1055300008950895BC016E5F7F4FDC01ED91FC91F1
:105540000190F081E02D40E0099591E0811190E01B
:10555000892F08952091D60C222399F04FB7F89403
:105560002091D60C213059F42DB32093D40C3DB3A7
:105570002091D50C209523232DBB4FBF02C0409313
:10558000D40C8CBD9DBD08958EBD00000DB407FEEA
:10559000FDCF8EB508958091D60C882361F09FB71A
:1055A000F8942091D60C8091D40C213019F48DBB45
:1055B0009FBF08958FBF0895AF92BF92CF92DF92A1
:1055C000EF92FF920F931F93CF93DF936C01A42E62
:1055D00079016068B62E83E590E00E94AA2A60E017
:1055E000F60186850E948534AA948B2D0E94C42AD8
:1055F0000023A1F0CFEFD0E001C0CC0F0A95EAF76D
:105600008B2D0E94C42A2C2F2095F7019081922384
:105610008C23892BF701808311E001C010E0812FDA
:1056200090E0E701C80FD91F1A1530F48B2D0E94A6
:10563000C42A88831F5FF3CF80E00E94C42A888336
:1056400061E0F60186850E948534DF91CF911F913C
:105650000F91FF90EF90DF90CF90BF90AF900C94A0
:10566000CB2AFC018AE492E0918380836687478796
:1056700008950F931F93CF93DF93EC01062F142F00
:1056800083E590E00E94AA2A60E08E850E9485341E
:10569000802F0E94C42A812F0E94C42A61E08E8537
:1056A0000E948534DF91CF911F910F910C94CB2AEA
:1056B000DF92EF92FF920F931F93CF93DF938C01B2
:1056C000C62FF42ED22EE32E83E590E00E94AA2A64
:1056D00060E0F80186850E9485348C2F0E94C42AE0
:1056E000CD2DDE2DCE018F0D911D7C01EC16FD061A
:1056F00021F089910E94C42AF9CF61E0F8018685E2
:105700000E948534DF91CF911F910F91FF90EF9010
:10571000DF900C94CB2A1F93CF93DF93EC01162FCD
:1057200083E590E00E94AA2A60E08E850E9485347D
:10573000812F80680E94C42A80E00E94C42A182F0A
:1057400061E08E850E9485340E94CB2A812FDF91F3
:10575000CF911F9108950F9341110E94DC2A0F9160
:1057600008950F931F93CF93DF938C01D62FC42FEF
:105770000E948B2B482F4C2B6D2FC801DF91CF91AE
:105780001F910F910C94392B0F931F93CF93DF939D
:105790008C01D62FC42F0E948B2BC0954C2F4823F1
:1057A0006D2FC801DF91CF911F910F910C94392B70
:1057B000CF92DF92EF92FF920F931F93CF93DF93DD
:1057C000EC016B01142F790140E062E00E94392B5B
:1057D00044E06AE0CE010E94392B40E864E1CE014A
:1057E0000E94392B9601412F62E1CE010E94582B75
:1057F00043E062E0CE010E94392B08E813E16AE041
:10580000CE010E948B2B82FF13C040E062E0CE01EC
:105810000E94392B64E4CE010E948B2BF701808318
:1058200062E4CE010E948B2BF701818380E004C0EB
:105830000150110921F783E0DF91CF911F910F9162
:10584000FF90EF90DF90CF9008950F931F93CF9329
:105850008C014FE062E00E94392BC3E062E370E00C
:1058600080E090E00E948B3362E0C8010E948B2BA5
:1058700084FF02C0C15091F7CF911F910F910895FD
:10588000CF93DF93EC0168E20E948B2B982F9370EB
:10589000933041F0482F436068E2CE01DF91CF9111
:1058A0000C94392BDF91CF910895CF93DF93EC01C6
:1058B00061E08E850E94493461E08E850E948534C6
:1058C0008F858F3F09F451C060E00E9449348F8575
:1058D0000E94B434892B09F048C061E08F850E9492
:1058E000493460E08F850E94853482E090E00E9418
:1058F000C73361E08F850E94853462E370E080E009
:1059000090E00E948B3340E064E2CE010E94392B8C
:1059100040E066E2CE010E94392B46E268E4CE0107
:105920000E94392B40E864E5CE010E94392B49EAF8
:1059300066E5CE010E94392B43E068E5CE010E9466
:10594000392B48EE6AE5CE010E94392B40E46AE229
:10595000CE010E94392B4DE362E2CE010E94392B29
:10596000CE01DF91CF910C94402CCE010E94252CCA
:10597000CACF3F924F925F926F927F928F929F9287
:10598000AF92BF92CF92DF92EF92FF920F931F934D
:10599000CF93DF9300D0CDB7DEB73C01162F942E06
:1059A0002901A114B10419F0F501408101C040E0C2
:1059B000342EF0E18F9E300C112440E062E0C301F0
:1059C0000E94392B4FE768E0C3010E94392B40E861
:1059D00064E1C3010E94392B9201402F62E1C301AF
:1059E0000E94582B432D6AE1C3010E94392B412F9D
:1059F00062E0C3010E94392B1C3029F440E86AE1BF
:105A0000C3010E94B12B00ED17E068E0C3010E94C2
:105A10008B2B982F992139F480FD03C00150110977
:105A2000A1F783E065C06CE0C3010E948B2B182FA7
:105A3000837109F05AC0E114F104F9F0C114D104E2
:105A4000E1F064E1C3010E948B2BF601908198176D
:105A500008F445C08083082D9701482F62E1C301F7
:105A60000E94AB2B68E1C3010E948B2B8770A114AD
:105A7000B10421F0F501808301C080E013FD31C045
:105A8000E114F10481F1C114D10469F19E899923D3
:105A900051F1F6014081413021F4843041F58FEF1E
:105AA00027C0423020F1811122C042509E012F5F59
:105AB0003F4FB701C3010E94D82B811119C0F601D5
:105AC0008081E80EF11CF70132979081898198134B
:105AD0000EC0319690818A81981309C004C084E079
