:1000000000800020BD010000E52100009D210000CE
:100010009D2100009D2100009D2100009D210000E8
:100020009D2100009D2100009D210000E521000090
:10003000E52100009D2100006140000065410000B5
:10004000E5210000E5210000E5210000E521000098
:10005000E5210000E5210000E5210000E521000088
:10006000E5210000E5210000E5210000E521000078
:10007000E5210000E5210000E5210000E521000068
:10008000E5210000E5210000E5210000E521000058
:10009000E5210000E5210000E5210000E521000048
:1000A000E51C0000F11C0000E5210000E521000036
:1000B000E5210000E5210000E5210000E521000028
:1000C000E5210000E5210000E5210000E521000018
:1000D000E5210000E5210000E5210000E521000008
:1000E000E5210000E5210000E5210000E5210000F8
:1000F000E52100007D420000E5210000FD2C00000C
:10010000E5210000A9430000E5210000E5210000F1
:10011000E5210000E5210000E5210000E5210000C7
:10012000E5210000E5210000E5210000E5210000B7
:10013000E5210000E5210000E5210000E5210000A7
:10014000E5210000E5210000E5210000E521000097
:10015000E5210000E5210000E5210000E521000087
:10016000E5210000BD2F0000E5210000E521000091
:10017000E5210000E5210000E5210000E521000067
:10018000E5210000E5210000E5210000E521000057
:10019000E5210000E5210000E5210000E521000047
:1001A000E5210000E5210000E5210000E521000037
:1001B000E5210000E5210000E5210000564B4CF24E
:1001C000205210B51A804DF628121A8000BF00BFC9
:1001D00002F00CF8514B4FF010621A60504A9A60CE
:1001E000504ADA60504A136813F4807304D14F49BF
:1001F0000B604FF4A85313604D4B1A78110703D5C9
:100200001A7842F008021A704A4B4B492A221A7097
:100210004A4A4B4B8B4204D252F8040F43F8040B6A
:10022000F8E7484B484900228B4202D243F8042B9E
:10023000FAE74649464A002352F8230041F82300D2
:1002400001336F2BF8D1434B434A802103F8011B44
:100250009342FBD1414B3D4A1A60414B8A221A70AE
:10026000A3F5805324225A70A0221A709A7992071B
:10027000FCD59A79D406FCD43A4A937903F00C035E
:10028000082B384BF9D103221A7140225A719A79FE
:100290009006FCD5334A9179324B4906FBD5324A58
:1002A000324911600221516020221A709A7902F0BD
:1002B0000C020C2AFAD12E4B2E4A1A602E4B2F4AD2
:1002C0001A6000225A60072243F8042C2C4AC3F813
:1002D0000C2D62B602F07CF9144B1B68DA0705D5C9
:1002E000284802F009F9284B284A1A60284B1B7845
:1002F0005B0609D5244C254B22689A4204D121483B
:1003000002F0FAF80023236004F076FD01F074FF98
:1003100001F0A2FEFEE700BF0E2005403080044041
:10032000823F04000100002B10D0034014D0034092
:1003300002D0074000E007409898FF1F0C9700008C
:100340002087FF1F9898FF1FCCA8FF1F0082FF1F68
:100350000000000000E400E05FE400E008ED00E0E1
:100360000050064000400640448004400000030165
:1003700004800440C010050014E000E0FF76010096
:10038000000020204903AA5D1CE00340A5C3945A45
:1003900000F00740FFFFFFFFFFFFFFFFFFFFFFFF32
:1003A000FFFFFFFFFFFFFFFFFFFFFFFFFFFFFFFF5D
:1003B000FFFFFFFFFFFFFFFFFFFFFFFFFFFFFFFF4D
:1003C000FFFFFFFFFFFFFFFFFFFFFFFFFFFFFFFF3D
:1003D000FFFFFFFFFFFFFFFFFFFFFFFFFFFFFFFF2D
:1003E000FFFFFFFFFFFFFFFFFFFFFFFFFFFFFFFF1D
:1003F000FFFFFFFFFFFFFFFFFFFFFFFFFFFFFFFF0D
:10040000FFFFFFFFFFFFFFFFFFFFFFFFDEF9FFFF23
:1004100010B5054C237833B9044B13B10448AFF33E
:1004200000800123237010BD9898FF1F000000007A
:1004300008970000084B10B51BB108490848AFF3F6
:1004400000800848036803B910BD074B002BFBD0A0
:10045000BDE81040184700BF000000009C98FF1F37
:10046000089700009898FF1F0000000090B583B027
:1004700000AF786039607B681B6804331C6838689B
:1004800005F07EFA03461A4639687868A0470346A5
:1004900018460C37BD4690BD80B582B000AF78607D
:1004A000396039687868FFF7E1FF03461846083776
:1004B000BD4680BD90B583B000AF786039603968C3
:1004C0007868FFF7E9FF0446786801F09FFD03466E
:1004D000234418460C37BD4690BD00BF80B582B09E
:1004E00000AF786039603B685B0803F1376303F560
:1004F000D8333A68B3FBF2F3184602F0D9F800BFDC
:100500000837BD4680BD00BF80B483B000AF7860BF
:10051000396000BF0C37BD4680BC704780B582B0E3
:1005200000AF786003F0B2FB034618460837BD46BB
:1005300080BD00BF80B582B000AF786003F06AFB79
:10054000034618460837BD4680BD00BF80B483B05F
:1005500000AF78600B46FB70FB789B000133034AC9
:10056000D35C18460C37BD4680BC70471C91000018
:1005700080B483B000AF78600B46FB70FB789B00C3
:100580000233034AD35C18460C37BD4680BC704723
:100590001C910000F0B589B006AF7860084611469E
:1005A0001A460346FB700B46BB7013467B707B6894
:1005B0001C697B685D7B7B7819467868FFF7C6FF0E
:1005C00003461E467B7819467868FFF7D1FF03463D
:1005D0001846B978FA7897F8283005937B6A04931F
:1005E00097F82030039302900196002300930B4666
:1005F0002946204600F086FF00BF0C37BD46F0BDFF
:1006000080B582B000AF786039607B681B681B687A
:100610003A68D2B2114678689847034618460837B8
:10062000BD4680BD80B584B000AFF860B9607A6027
:10063000FB681B6804331B687A68B968F8689847D8
:10064000034618461037BD4680BD00BF80B584B054
:1006500000AFF860B9607A60FB681B697A68B968B6
:10066000184600F0D5FF034618461037BD4680BD3A
:1006700080B483B000AF786039607B681B693A68EA
:10068000C3F8682200BF0C37BD4680BC704700BF6E
:1006900080B483B000AF786039607B681B693A68CA
:1006A000C3F86C2200BF0C37BD4680BC704700BF4A
:1006B00084B080B582B000AF07F1100E8EE80F0055
:1006C00020233B7400237B607B68B3F5806F09DADD
:1006D00007F111027B68134400221A707B68013312
:1006E0007B60F1E700233B603B682F2B09DC07F2BE
:1006F00011423B681344FF221A703B6801333B6090
:10070000F2E7002387F84134FF2387F8423400BF23
:100710000837BD46BDE8804004B0704784B0B0B52E
:1007200096B000AF07F1680484E80F00654B07F14D
:100730001C041D460FCD0FC40FCD0FC42B682370B2
:10074000614A07F114031068516803C300233B6139
:100750000023FB600023BB6000233B6401237B601C
:1007600002233B7000237B657B6D072B0FDC7B6DC9
:1007700003F5207307F16802134459783A467B6DFC
:1007800013440A461A707B6D01337B65ECE797F8DA
:10079000D83303F00103002B09D100233B657B68AC
:1007A0003A6D9A421ADC3B6D01333B65F7E7002353
:1007B000FB647B68FA6C9A4210DBFB6C03F2CF237C
:1007C00007F168021344597807F11402FB6C1344D3
:1007D0000A461A70FB6C013BFB64EAE73B69FA6866
:1007E0001A6097F8A933012B39D107F10C031A4687
:1007F0003649374801F022FCFB681A463349344831
:1008000001F01CFC07F110031A463049304801F092
:1008100015FC3B691A462D492D4801F00FFC07F1E4
:1008200014031A4629492A4801F008FC07F1080375
:100830001A462849264801F001FC7B681A462649D9
:10084000234801F0FBFB3B1D1A462049204801F0DC
:10085000F5FB3B461A461D491D4801F0EFFBBB68FE
:10086000002B12DD0023BB64BB6C1E2B1DDC07F1CB
:100870001C02BB6C13441978184ABB6C13440A461B
:100880001A70BB6C0133BB64EEE700237B647B6CA6
:100890001E2B0ADC124BD9B2104A7B6C13440A4659
:1008A0001A707B6C01337B64F1E70C4B1122DA7711
:1008B0000C4B01221A7000BF5837BD46BDE8B0404E
:1008C00004B07047AC900000D090000098900000F9
:1008D000348EFF1F9C900000A490000040A1FF1FD9
:1008E000A890000061A1FF1F84B080B5ADF5856DB3
:1008F0004FF485676F4407F1080E8EE80F000B492F
:100900000B48FFF7D7FD684607F1180340F2234272
:10091000194601F0A9FB07F108030FCBFFF7FEFE14
:1009200000BFBD46BDE8804004B07047D8900000CD
:10093000348EFF1F80B483B000AF00237B607B68E0
:1009400040F23942934208DC064A7B681344002295
:100950001A707B6801337B60F1E700BF0C37BD463E
:1009600080BC70476CA1FF1F90B587B000AF67488F
:10097000FFF7D4FD0346002B14BF01230023DBB295
:10098000002B00F0BE800123FB75614B00221A6032
:1009900000237B605E4B1B6840F2324293423DDC99
:1009A0005A48FFF7BBFD0346002BCCBF01230023B1
:1009B000DBB2002B0ED0564B1C685448FFF7BAFD33
:1009C0000346DAB2534B1A55514B1B680133504A58
:1009D0001360DFE7012001F0ADFD4E4B1B78702B5B
:1009E000D8D04C4B1B78632BD4D04A4B1B78612B4F
:1009F000D0D04648FFF792FD0346002BCCBF012321
:100A00000023DBB2002B03D04048FFF793FDF0E753
:100A10000023FB753E4B42F210721A60FB7D002BE7
:100A20006DD03C4B1A783C4B1A703B4B1B78702BAB
:100A300017D100233B613B69B3F5806F0DDA3B6949
:100A40000133344AD15C344A3B69134401330A46CA
:100A50001A703B6901333B61EDE7304B01221A709C
:100A60004DE02D4B1B78632B20D10023FB60FB68EE
:100A7000B3F5806F0DDAFB680133264AD15C264A54
:100A8000FB68134401330A461A70FB680133FB60AC
:100A9000EDE7204B93F832241F4B83F831241D4B94
:100AA00093F833241C4B83F8322428E01A4B1B782C
:100AB000612B1AD14FF48063BB60BB68B3F5866FBE
:100AC0000FDABB68A3F58063BA6801321149895C0B
:100AD000114A13440A4683F80124BB680133BB6002
:100AE000EBE70F4B01221A7009E00848FFF722FDDF
:100AF0000346DB43DB0FDBB2002B00D0F5E7FFF74B
:100B000019FF00BF1C37BD4690BD00BF348EFF1FCC
:100B1000D498FF1F6CA1FF1F0C9DFF1F60A1FF1F3A
:100B200068A1FF1F80B586B004AF2E492E48FFF79D
:100B3000EBFC4FF461412D48FFF7D0FC2C4B002219
:100B40001A702C4B00221A7072B62B4B4CF22052AA
:100B50001A80294B4DF628121A8001237B607B688E
:100B60005B013B603B68002B03D03B68013BFDD140
:100B70003B60224B6D221A80214B4FF45D421A805C
:100B8000204B4FF480621A801F4A1F4B1B889BB278
:100B900043F0D3039BB2138062B6012302931B4B35
:100BA0000193012300930123012201211848FFF73B
:100BB000F1FC18491648FFF75BFD17491448FFF789
:100BC00067FD164B00221A70154B00221A7015494A
:100BD0000548FFF76FFC642001F0ACFC00BF08374C
:100BE000BD4680BD80841E00348EFF1F3C8DFF1FDC
:100BF00060A1FF1F68A1FF1F0E20054004200540D3
:100C0000062005401620054000200540A086010072
:100C1000BCA5FF1F850C0000250E000018E400E0B5
:100C200019E400E0F090000080B500AF00F002F899
:100C300000BF80BD80B500AF0F48FFF76FFC0346D3
:100C4000002B14BF01230023DBB2002B01D0FFF7E0
:100C50008BFE4FF4FA7001F06DFC08490648FFF76F
:100C600029FC72B6064B4AF202621A80044B4BF220
:100C700080421A8062B6DFE7348EFF1FFC900000CE
:100C80000C20054090B5ADF24C4D4FF485676F4494
:100C900078605D495D48FFF70DFC7A685C495D4806
:100CA000FFF7D4FC5A4B1B783B61594B5B78FB60D8
:100CB0003B69002B06D1584A3B691360574AFB68D1
:100CC00013609DE03B69012B7DD1534A3B69136062
:100CD000524AFB681360514B1B68002B04D14C4BEC
:100CE0009A784F4B1A708BE04C4B1B68002B20DD21
:100CF0004A4B1B68232B1CDC0223FB61FA697B68CF
:100D00009A427CD2454B1B685A1E13461B019B1A04
:100D10005B001A46FB691344023B3D49FA690A44E9
:100D200011783F4A13440A465A70FB690133FB614C
:100D3000E4E73A4B1B68242B14D10223BB61BA6948
:100D40007B689A425CD2BB69023B3149BA690A446A
:100D50001178334A13440A4683F80124BB690133EE
:100D6000BB61ECE72D4B1B68252B14D102237B6163
:100D70007A697B689A4243D27B691C3324497A6939
:100D80000A441178264A13440A4683F801247B69F1
:100D900001337B61ECE71E4B9A78214B83F83124B9
:100DA0001B4BDA781E4B83F832241D4C684604F145
:100DB000100340F22342194601F056F994E80F005F
:100DC000FFF792FD1CE03B69022B06D1124A3B69FA
:100DD0001360124AFB68136012E03B69032B06D1D3
:100DE0000D4A3B6913600D4AFB68136008E00B4B2A
:100DF00000221A60084B4FF0FF321A6000E000BF7B
:100E000000BF2437BD4690BD04910000348EFF1F03
:100E1000B498FF1FBCA5FF1F0088FF1F64A1FF1F20
:100E2000D898FF1F90B5ADF23C4D4FF485676F44E5
:100E30007D497E48FFF73EFB7D4B1B68002B56D15A
:100E40007C4B1B78002B4DD07B4B1B68002B04D1B7
:100E500070217A48FFF7D4FBE1E0774B1B68002B49
:100E600021DD754B1B68202B1DDC0023FB60FB681C
:100E70001F2B11DC704B1B68013B5A01FB681344AC
:100E80006F4A134459786F4AFB6813440A461A7034
:100E9000FB680133FB60EAE720226A496748FFF7F5
:100EA000C1FB00BFBBE0664B93F831341946634881
:100EB00000F000F9624B93F8323419465F4800F0B5
:100EC000F9F85C4B00221A705D4C684604F110037F
:100ED00040F22342194601F0C7F894E80F00FFF7EB
:100EE000E7FB9CE078215548FFF78AFB97E0504BE1
:100EF0001B68012B33D1544B1B78DBB2002B29D05C
:100F00004D4B1B68002B04D172214C48FFF778FB36
:100F100085E0494B1B68012B40F081800023BB60BA
:100F2000BB681F2B0DDC494ABB6813441B78D9B240
:100F3000444ABB6813440A461A70BB680133BB605D
:100F4000EEE720223F493D48FFF76CFB3E4B002275
:100F50001A7064E078213948FFF752FB5FE0344BA8
:100F60001B68032B5BD13A4B1B78002B53D0324BC1
:100F70001B68002B04D161213048FFF741FB4EE094
:100F80002D4B1B68012B19D100237B607B681F2B25
:100F90000EDC2B4A7B68134403F201431978294A7B
:100FA0007B6813440A461A707B6801337B60EDE767
:100FB000202224492148FFF735FB30E01E4B1B68F7
:100FC000022B2CD120233B603B682F2B0DDC3B6890
:100FD000203B1B493A680A4402F201421178194A3F
:100FE000D1543B6801333B60EEE7102215491348AA
:100FF000FFF718FB164B00221A70114C684604F1DB
:10100000100340F22342194601F02EF894E80F0035
:10101000FFF74EFB03E078210848FFF7F1FA00BF25
:101020001437BD4690BD00BF10910000348EFF1FE5
:101030000088FF1F60A1FF1F64A1FF1FBCA5FF1F49
:101040000C9DFF1FB498FF1F61A1FF1F40A1FF1F50
:1010500068A1FF1F002070470369D3F83801D3F857
:101060003431C01A704700BF0369D3F83411D3F884
:101070003821914208D2D3F83421511C1A44C3F8C4
:10108000341192F8300070474FF0FF30704700BFC6
:101090000369D3F83411D3F8382191423DBFD3F816
:1010A00034219B1893F830004FF0FF30704700BF99
:1010B000704700BF0369D3F84422B2F5817F03D99A
:1010C0000123037100207047D3F8442210B49C1808
:1010D0000132C3F8442284F83C11012010BC70474F
:1010E00038B503690A4A026093F84822022A044686
:1010F00001D0204638BDD3F87452002DF9D02846CF
:1011000000F0CEFE2846082101F0AEF8204638BD9A
:101110003891000038B503690546D3F84402B0F5AC
:10112000817F1AD81446D3F84422D3F84402C2F57A
:101130008172013203F59E73A242184402D2012348
:1011400014462B71224600F08FFF2A69D2F84432F0
:101150002344C2F84432204638BD01232B710020BD
:1011600038BD00BF2DE9F0471E46044617469DF8DE
:1011700020909DF824309DF828A00D4659B30129F0
:101180000FD090F84A329A424FF0000800D14DB388
:10119000012D0ED094F84B329E4212D00020BDE8B3
:1011A000F0871D2F4FD01A2F77D094F84A324FF086
:1011B00000081E2E1AD01F2E6DD094F84B329E427E
:1011C000ECD1BAF1000FE9D00025B8F1000FE5D05D
:1011D000002DE3D031E0102A35D0132A33D090F817
:1011E0004A328846A6F11103012BE6D8022594F86D
:1011F0004B329E4257D0BAF1000F09D094F84C32CE
:1012000094F84B02002B14BF0221002101F08CF94D
:101210002B02B9F1000F13D143F06403264A02EB0D
:10122000C60201215268136084F84B6284F84C9224
:1012300084F89912B8F1000FB0D00120BDE8F08712
:1012400043F00303EAE74FF0020894F84A2297427A
:1012500026D04BB194F84C3294F84A02002B14BFBC
:101260000221002101F060F94FEA0822B9F1000FD4
:101270000ED142F06402104B03EBC70359680123FF
:101280000A6084F84A7284F84C9284F898327EE7B7
:1012900042F00302EFE70625A9E74FF00608D4E77E
:1012A000002BE1D073E7BAF1000FB1D0B8F1000F15
:1012B0003FF474AF8CE700BFCC920000F8B5C36870
:1012C0001B789B0610D483680D4680211970C36873
:1012D0001221197090F84932012B044606D08AB9C0
:1012E00080F848220120F8BD0020F8BD1A4675B9E3
:1012F000474B4FF080711960022A0FD0012084F80B
:101300004802F8BD531E012BF1D90120F8BD012D73
:10131000F2D13F4B4FF000711960EDE7D4F87462E1
:10132000002E6AD03379102B30D0002D3CD132689A
:101330003849938B384F9BB243F00803938332793B
:10134000531102F110009B0041F8207003F160433B
:1013500003F56143012102F01F0201FA02F2316834
:101360001A608B8B9BB243F002038B83337903F1BA
:10137000804303F5043396221D701A700022022365
:1013800084F85E2284F848320120F8BD304600F02F
:1013900087FD3046082100F067FF00230120C4F8D4
:1013A000743284F84802F8BD012DE7D1326819493A
:1013B000938B1A4F9BB243F00803938332795311F6
:1013C00002F110009B0041F8207003F1604303F527
:1013D000614302F01F02954032681D60938B9BB2FF
:1013E00043F002039383337903F1804303F504331D
:1013F0000021972219701A70C0E7082000F032FF10
:10140000314607463E4600F0E7FCC4F8747289E7AF
:1014100000E100E00082FF1FE51C0000F11C00005D
:10142000F0B5284EDFF8ACE0A6FB0143A6FB024274
:101430009E0937027546960914240023B7FBF6F679
:1014400004E00133372B1BD055F8044F220296429B
:10145000F7DA83BB14241C4A4568B1FBF4F49142CB
:101460002B70C0F8504207D8184B8269A3FB01319A
:10147000C1F307511170F0BD836904221A70F0BDE9
:10148000002422464FF470274FF470654FF0360C5D
:10149000B21AF71B002A87EAE776A6EBE776B8BF11
:1014A0005242964202DD0A4AD35CD4E7084B2C46EE
:1014B00013F80C30CFE703F1FF3C5EF82C502F02FD
:1014C000E6E700BFD34D6210FF6BDC02819F5E1622
:1014D0003092000054910000F0B49DF814409DF843
:1014E00010609DF818503CB135B1C7683F78BF0611
:1014F00002D50020F0BC7047069505940496F0BC18
:10150000FFF730BE2DE9F04184B0044694469DF8C3
:1015100028609DF82C209DF830009DF834E09DF85F
:101520003C700D4600294BD1DFF8E080D8F8001060
:1015300041F04001C8F80010002184F849C284F845
:101540005512BCF1000F2AD163692021197012B91C
:1015500094F84A22D2B210B994F84B02C0B294F86F
:10156000981294F8996202960346CDF800E0019132
:1015700020462946FFF7B0FF0E9A23492046FFF781
:101580004FFF3A4629462046FFF798FE94F8493225
:1015900063B3A368C0221A7004B0BDE8F08161692A
:1015A000CEB14FF0280C81F800C09E42216823D9AB
:1015B0005B00DBB20B707600E369F6B21E70C6E723
:1015C0000129B9D1DFF84480D8F8001041F080013A
:1015D000C8F80010B0E74FF0200C81F800C0216877
:1015E0005B00DBB20B70E3691E70B0E7A36880227A
:1015F0001A7004B0BDE8F0817600F6B20E705E009D
:10160000E369F6B21E70A2E7006CDC02348004408D
:1016100070B5D0F83841D0F834319C4218D9D0F8A0
:101620003831D0F83451D0F834615D1B954228BF71
:101630001546044600F130032A460846991900F081
:1016400013FDD4F834312B44C4F83431284670BD2E
:10165000002070BD2DE9F041C04E337804460133BF
:10166000DBB2C068A768337005783B78DBB203F063
:10167000200282B0EDB23AB313F0100F94F85E324C
:101680007AD0022B00F0D88094F85E32032B00F061
:10169000D38094F85532082B00F0298294F8553203
:1016A000092B00F0648294F85532012B00F0D381AD
:1016B00080233B70E36802221A703378013BDBB26F
:1016C000337002B0BDE8F08102F0FF08EA0624D4CE
:1016D00005F0400202F0FF0E1ABB03F0100303F006
:1016E000FF02002B00F0838015F0010540F0A88177
:1016F000D4F84022D4F844329A4207D2D4F8403287
:101700005A1C2344C4F8402293F83C5123691D70AD
:10171000A368D0221A70E0686EE010230370680698
:10172000C8D594F855320C2B00F0098105F004055A
:1017300005F0FF07002D64D0A3680021D0220B2004
:1017400084F85502C4F844121A702269D4F86C1255
:1017500013785B0884F8563209B188472269D4F8B7
:101760004432002B00F0748194F83C8182F80080B0
:101770000123C4F840329DE7022B00F0A68094F8C4
:101780005E32032B00F0A180D4F83831D4F858220F
:101790000233934200F04F8194F85532012B00F050
:1017A0004581D4F838310133934280F0198194F89F
:1017B0005532012B00F00F81D4F838312269591CC1
:1017C000C4F838112344127883F83020E3680222E9
:1017D0001A7094F85532DBB2012B7FF46EAF94F897
:1017E0005D22002A7FF469AF84F85D3265E794F8E2
:1017F00055320C2B00F09C810223037002B0BDE82F
:10180000F081574B574A94F84B0284F85C720029D8
:1018100014BF11461946032200F0AEFDA3680C2147
:10182000C02284F85512C4F838711A7023691B78E5
:101830005B0884F856323DE7D4F8742213689B8B1A
:10184000190604D594F85E32022B00F0B88094F8A3
:101850005E32032B00F08E80434B1279196801230E
:1018600093400B423FF429AF4049414B0A70D4F8F2
:101870007412097919700022072384F85E2284F813
:101880005532D4F89432013304D0D4F89432013371
:10189000C4F89432EA0611D5042384F85532D4F8FA
:1018A0008C32013304D0D4F88C320133C4F88C323A
:1018B000E268102100231170C4F84032A36880222E
:1018C0001A70E36802221A7032E0D4F874321A688F
:1018D000928B120603D594F85E22022A63D094F804
:1018E0005E22032A00F0DA801F491A790968012371
:1018F00093400B423FF4E1AE1C491D4B0A70D4F8F3
:10190000742212791A70A36880220020072184F8BB
:101910005E0284F855121A70E36802221A70D4F835
:101920009432013304D0D4F894320133C4F89432A1
:10193000D4F87032002B3FF4C0AE9847BDE6D4F81F
:101940006832002B3FF4F2AE0022C4F83421D4F800
:101950003801019198470199E8E600BFD0A5FF1F23
:10196000551D0000611D00002C8000401E800040BD
:101970001F80004003781906FCD5C14B12791A70FC
:10198000002384F85E32D4F844322169013BC4F864
:101990004032D4F840322344022293F83C310B7099
:1019A000E3681A7089E6B7491B790B70A368E821D0
:1019B0001970E368032184F85E121A707DE6B1495C
:1019C00012790A70A268F0211170E268032184F88C
:1019D0005E12137071E694F85D32002B3FF4ECAEAA
:1019E000A3680021B02284F85D121A70D4F838314F
:1019F0002269591CC4F838112344127883F8302026
:101A000094F85432012B00F0C480E36802221A706B
:101A100094F85532012B33D0D4F86432002284F884
:101A20005522002B3FF4D5AE9847D2E694F85D32AC
:101A3000002B7FF4B6AEE8233B70D4F85822B0E612
:101A4000C0233B702369E0681B7884F855E2D3E635
:101A500084F83C318AE694F85432012B0CBF802381
:101A6000B0233B70E36802221A70D4F8803201334D
:101A70003FF45EAFD4F880320133C4F8803257E7C8
:101A8000D4F88032013304D0D4F880320133C4F862
:101A90008032D4F87032002BC6D19AE6784A1B798E
:101AA0001370A3680021B02284F85E121A70D4F873
:101AB00058322269013BC4F83831D4F83831591C06
:101AC000C4F838112344127883F8302094F8543243
:101AD000012B00F0C180E36802221A70D4F864324E
:101AE000002284F85522002B7FF427AFE5E505F0AE
:101AF000100303F0FF02002B52D000230421102218
:101B000084F85E3284F855120270A2688021117048
:101B1000E268C4F8403202231370D4F88C320133E7
:101B20003FF406AFD4F88C320133C4F88C32FFE6B0
:101B3000554B564D84F85C22002914BF294619469E
:101B4000032294F84B0200F017FC23691B78D4F8A9
:101B50003821B2F5817FDBB207D8D4F83821A1183B
:101B60000132C4F8382181F83030E06844E6EB06F1
:101B70002ED50422102384F855220370A3688022F6
:101B80001A70E36802221A70D4F88C320133C9D17A
:101B9000CEE62023013BFDD1A36880221A7034E7F2
:101BA00015F0010528D084F85E22D4F84032002BCD
:101BB00059D1022384F85532D4F88432013304D049
:101BC000D4F884320133C4F8843280233B7078E641
:101BD000E9072CD50223802284F855323A70E26856
:101BE0001370D4F8843201333FF4A2AED4F88432B7
:101BF0000133C4F884329BE6D4F840320133C4F890
:101C00004032D4F84422934242D394F8543284F8B8
:101C10005552012B0CBF8023B0233B70E368022296
:101C20001A70D4F86032002B7FF487AE45E594F843
:101C30005E32012B34D0D4F85832012B4FF00A0217
:101C40000CBFE823E02384F855223B702269E36847
:101C5000127802221A7030E52023013BFDD1A368DF
:101C600080221A7037E7032384F85532D4F888327B
:101C70000133AAD0D4F888320133C4F88832A4E7FB
:101C80001C8000401F800040551D0000611D0000A9
:101C900094F85E32012B12D0D4F8403221697AE6F2
:101CA0000223E12284F85E323A70D4F874120C4AAE
:101CB000097911702169E26809781370FDE4022343
:101CC000F12284F85E323A70D4F87412044A097929
:101CD0001170226994F83D111170E2681370ECE400
:101CE0001B80004000210148FFF7B4BC0488FF1F9F
:101CF00001210148FFF7AEBCA08AFF1FC3681B7813
:101D000003F020035BB190F85C320133DBB2012BAE
:101D100080F85C3217D990F84B0200F0A9BB70B57F
:101D200003F0FF05044680F8555290F84B0200F08E
:101D30009FFBD4F868325BB1C4F83451D4F8380151
:101D4000BDE87040184790F84932012BE3D1704745
:101D500070BD00BF00210148FFF7D0BF0488FF1FFE
:101D600001210148FFF7CABFA08AFF1F2DE9F843F0
:101D7000134BDFF85C90DFF85C80124E124D1E6052
:101D800000244FF47A774A4641461C711C739F60C9
:101D900018465C731D6103F01DF80C4B4FF0010EEB
:101DA00005F527751C711C7383F80DE04A46414602
:101DB00018461D619F601E60BDE8F84303F00AB835
:101DC000BCA5FF1F389100000488FF1FA8A5FF1FB6
:101DD000FC87FF1FE1100000F0B572B699B90268E8
:101DE0008AB103790F2B0ED8274C218841FA03F5CD
:101DF000ED070AD503F1007303F59063B2EB431FBF
:101E000003D162B6F0BD204C2188002341FA03F2D1
:101E100012F0010207D00133102BF7D162B6002275
:101E200003710260F0BD01259D402943218062B607
:101E3000164E174D174FDFF864E0D9B201713468C0
:101E400044F0020434602C6844F002042C60A6F5CF
:101E500080268224A5F5802503F100733C6003F5FC
:101E60009063223E243D0C4C8EF800105B013170D3
:101E70002970217003601A605A609A60DA601A61F2
:101E80005A619A61DA61F0BDD2A5FF1F408004401B
:101E90003C800440008000401F8000401A800040C9
:101EA00003790F2B11D8094A10B4137072B6084980
:101EB00004790A880123A34022EA03030B8062B657
:101EC0001022002310BC0271036070471A8000408A
:101ED000D2A5FF1F08B5084600F0B4FD012008BDDB
:101EE00008B5084600F0AEFD012008BD38B508462B
:101EF0000D4603F045FD04460146284600F0FAFD74
:101F0000204638BD10B508461446114600F0F2FDD3
:101F1000204610BD00F0CCBE08B5084600F072FDAA
:101F2000003018BF012008BD08B5084600F048FD84
:101F3000003018BF012008BD0846114600F0D8BC8B
:101F4000084600F00FBD00BF084600F0B5BC00BF5A
:101F500000F050BC10B54B0803F13760144600F593
:101F6000D830B0FBF1F000F0A3FB2046BDE81040F4
:101F700000F014BC00F084BE00F04EBE00F03CBE89
:101F800000F01CBE00F026BE0368064A1B689342A0
:101F900005D110B5C8B200F055FD012010BDC9B281
:101FA000184700BFE11E00000368064A1B68934201
:101FB00005D110B5C8B200F045FD012010BDC9B271
:101FC000184700BFE11E00000368064A1B689342E1
:101FD00005D110B5C8B200F035FD012010BDC9B261
:101FE000184700BFE11E00000368064A1B689342C1
:101FF00005D110B5C8B200F025FD012010BDC9B251
:10200000184700BFE11E0000704700BF00B5064A38
:10201000036812885B6883B001A9ADF8042002222E
:10202000984703B05DF804FBC892000010B5036840
:1020300014465B689847204610BD00BF0EB400B53B
:1020400082B003AA52F8041B019203F02DFD02B0E6
:102050005DF804EB03B0704708B5FEF763FDFEF7CB
:10206000E3FD01F041FFFAE7844641EA000313F083
:1020700003036DD1403A41D351F8043B40F8043B8F
:1020800051F8043B40F8043B51F8043B40F8043B52
:1020900051F8043B40F8043B51F8043B40F8043B42
:1020A00051F8043B40F8043B51F8043B40F8043B32
:1020B00051F8043B40F8043B51F8043B40F8043B22
:1020C00051F8043B40F8043B51F8043B40F8043B12
:1020D00051F8043B40F8043B51F8043B40F8043B02
:1020E00051F8043B40F8043B51F8043B40F8043BF2
:1020F00051F8043B40F8043B403ABDD2303211D392
:1021000051F8043B40F8043B51F8043B40F8043BD1
:1021100051F8043B40F8043B51F8043B40F8043BC1
:10212000103AEDD20C3205D351F8043B40F8043B91
:10213000043AF9D2043208D0D2071CBF11F8013B8F
:1021400000F8013B01D30B8803806046704700BF55
:10215000082A13D38B078DD010F003038AD0C3F164
:102160000403D21ADB071CBF11F8013B00F8013B46
:1021700080D331F8023B20F8023B7BE7043AD9D305
:10218000013A11F8013B00F8013BF9D20B780370DA
:102190004B7843708B7883706046704708B5104C5D
:1021A00008E0236859050DD423681A050FD4236865
:1021B000DB0411D423685803F3D500F0FFFE236835
:1021C0005905F1D502F05AF823681A05EFD500F049
:1021D00095FD2368DB04EDD502F0E6F8EAE700BFE1
:1021E0003480044008B5FFF7D9FF00BF014B10222F
:1021F0001A80704700200540704700BF094908B5A4
:102200000B6830B16A461844A2F58052904202D25F
:102210000860184608BD02F0E9FD0C2303604FF08A
:10222000FF3008BD4C8DFF1FEFF3138070B9EFF343
:1022300010836BB9EFF305825AB94FF48070EFF356
:1022400011832BB1984228BF184670474FF0FF30DA
:1022500070470F2A01D81846F1E7014BD05CEEE732
:10226000F0E300E002F0F0BD02F0F6BDF0B44D1E68
:102270002E46002400E00134B0FBF2F302FB130011
:10228000092800F130078ABF3730F8B2C0B206F82B
:10229000010F1846002BEED10A1953704CB110787B
:1022A00015F8016F28700133E01A834202F80169C2
:1022B000F5DB0846F0BC7047704700BF10B40F4B09
:1022C00053F8302092F880422CB1012369B182F892
:1022D000803010BC704703EBC0035B681A6841B9DB
:1022E00022F002021A6010BC704782F8003110BC64
:1022F000704742F003021A6010BC7047CC92000095
:102300001C4A02EBC00301295B6811D004291BD0D1
:1023100052F83000002280F8802229B1022920D012
:10232000032922D01A6070474FF480721A607047F8
:1023300052F830004FF4A27280F880121A601A68C6
:1023400022F020021A60704752F830104FF4A27247
:10235000012081F880021A601A6842F020021A6097
:10236000704740F203121A6070474FF481721A608E
:10237000704700BFCC920000212848D8F8B5042A45
:1023800044D8DFE802F0484B4E0345004FF41026D6
:102390002B4B03EBC0030D465C68216811F4E06130
:1023A00048D0284B284A2949C3F89C2104F14042CF
:1023B0002748C3F8A411A2F59221264FC3F8A00123
:1023C0007C292548C3F8A871C3F8AC012CD9A2F523
:1023D00094237C2B2AD9A2F596237C2B28D9A2F50D
:1023E00098237C2B29D9A2F59A227C2A27D81B482E
:1023F00072B6236823F4702343F08072C4F384011F
:102400001643236040F82150266062B6F8BD70473D
:102410004FF43026BCE74FF40026B9E74FF44026CE
:10242000B6E74FF42026B3E70D48E1E70D48DFE7B4
:102430000D48DDE7FFF764FFB3E70C48D8E7F8BDC8
:10244000CC9200000082FF1FD187FF1F7987FF1FFA
:10245000A587FF1F4D87FF1F2187FF1F288EFF1FA6
:10246000508DFF1F888DFF1FD88DFF1F088EFF1F07
:102470001A4B03EBC00010B4426802F14043A3F5CD
:1024800092217C2923D9A3F594217C290DD9A3F588
:1024900096217C291FD9A3F598217C2919D9A3F568
:1024A0009A237C2B11D80E4C00E00E4C72B61368A8
:1024B0000D4823F08773C2F3840123F4803343F083
:1024C0008073136044F8210062B610BC7047074C5B
:1024D000ECE7074CEAE7074CE8E700BFCC920000C6
:1024E000288EFF1F888DFF1FB9220000508DFF1F0F
:1024F000088EFF1FD88DFF1F30B4054B054D064CCD
:10250000002210211A602A602060196030BC7047D8
:1025100014D0034004D0034000D00340212801D848
:10252000FFF7CCBE704700BF212801D8FFF7E8BEF7
:10253000704700BF2DE9F843054672B6204F214B86
:10254000214A1B683C68126862B6520102D5322BE0
:1025500088BF013495B3C3F5BB331C4EDFF86490DC
:10256000DFF86480FF334FF47A72A6FB031302FB9B
:1025700004F404EB931472B6D9F800103A68D8F852
:1025800000E062B6C1F5BB33FF33A6FB03031EF0C8
:10259000806FC4EB93134FF47A7002D0322988BF56
:1025A000013200FB0233B3F57A7F04D3013D05D03D
:1025B00004F57A74DFE701F097FCDCE7BDE8F88307
:1025C000D4A5FF1F18E000E004ED00E0ABAAAAAA22
:1025D000F8B52D4B2D49DFF8D0E0DFF8D0C02C4EF8
:1025E0002C4D2D4C2D4A2E4F4FF4000018604FF00B
:1025F000807018604FF0007018604FF080601860B5
:102600004FF0006018600020086028234BF6FF712F
:10261000CCF80010CEF80030336013602B602360DC
:102620003B60B3629362092245F8242CC4F8D80FAA
:1026300005F57F65C7F8D41F07F5FF2707F5FA678B
:10264000C6F8F83F2B6006F5FF26C4F8D42F05F531
:10265000FD2504F5FF24386006F2F4761148316058
:1026600005F5FF6504F5FD642B602360026001F051
:1026700085FD1920FFF75EFF01F008FA40F2131004
:10268000BDE8F840FFF756BF08E100E004800340D2
:1026900014800340248003402C8003401C800340AE
:1026A0003480034000800B400C80034008800340CE
:1026B0002B4A2C491368F0B543F4006313600A7881
:1026C000294F2A4E2A4D2B4C2B490023092A3B70B7
:1026D00033702B7023700B703DD01A2A21D0274BFA
:1026E0001B780A2B25D01F2B30D01F2827D800207D
:1026F00002460125224B234C1A7023495D700422A7
:102700004FF0020E88273C26402598729A704FF4AD
:10271000004083F813E05A751F74DE70257008605E
:10272000F0BD1A4B40F213321A60144B1B780A2B7F
:10273000D9D1174B4FF451721F281A60D7D9C0F363
:102740004432C0F3471500F01F00D3E7114B4FF49C
:1027500051721A60C9E7104B40F213321A60BEE79B
:1027600034800440308EFF1F48A6FF1FDDA5FF1FE9
:1027700050A6FF1F49A6FF1FDCA5FF1F318EFF1FBC
:1027800000B006402FE400E004E100E004D0044083
:1027900010B0044000D004400CB00440144B144965
:1027A0009B7803F0EC0200F003031343420700F0B0
:1027B0000F0248BF43F01003042A8B7013D00C4B58
:1027C0000B4A5B79C10603F0EF0348BF43F01003E7
:1027D00053719379820603F0EF03054A48BF43F033
:1027E0001003937170478B7943F040038B71E6E7D8
:1027F00000B00640234B1B681B0542D510B5224C88
:10280000237823B101F070FB2378002BFAD11F4805
:102810001F4A204B4FF4004400210460D1701B7804
:10282000092B1FD01A2B03D11B4B40F203121A6045
:102830001A4B1B7803F07F030A2B1DD01F2B03D1EB
:10284000174B40F203121A60164A114B16481749EB
:1028500012681C79DB79002303700B700AB1012325
:10286000137010BD124B40F203121A600B4B1B7811
:1028700003F07F030A2BE1D10E4B40F203121A60E2
:10288000E2E7704734800440DCA5FF1F84E100E0EC
:1028900000B00640308EFF1F04D00440318EFF1F71
:1028A00000D00440D8A5FF1F48A6FF1FDDA5FF1FCD
:1028B0000CB0044010B004400A4A38B505461378FD
:1028C00003F0FF04002BFAD101212846FFF72CFE6C
:1028D00021462846FFF722FE034A044B52F83520D2
:1028E0001A6038BDDCA5FF1FCC9200004CA6FF1F6C
:1028F00009B140F08000174A1378984216D010B4FE
:10290000154C246824050FD503F07F030A2B1CD037
:102910001F2B11D0002900F07F0114BF6023442336
:102920000A290DD01F2902D0107010BC70470B4926
:1029300043F440730B60F7E7084B00241C60E9E7A1
:10294000074943F440730B60EEE7054B00241C601D
:10295000E0E700BF318EFF1F3480044000D0044008
:1029600010B00440124B1A7882420CD01149096809
:10297000090507D5092A16D01A2A0AD009280DD028
:102980001A2801D0187070470B4A40F213311160B9
:10299000F8E7094A002109281160F1D1074A40F2FD
:1029A00013311160EEE7054A00211160E6E700BF30
:1029B000308EFF1F3480044004D004400CB004402B
:1029C0000D4B1B6813F4006305D0212805D90B4B70
:1029D00000201860704718467047094B10B5074C27
:1029E00053F8303023600121FFF79EFD2368002259
:1029F0001A70012010BD00BF34800440D8A5FF1F0D
:102A0000CC9200000C4B1B6813F4006306D017280F
:102A100006D00A4A537B03F0FE035373002070472D
:102A2000074B064A40F202311960537B43F0010321
:102A300053730120704700BF3480044000B006404B
:102A400008B004402DE9F84F234B1B681A053BD50D
:102A5000224B1B680BB101221A70DFF89090204DB9
:102A600099F80040DFF888801E4E0134272C8ABF79
:102A70004FF0000A5FFA84FA54460746AB462B78BB
:102A80009C4216D1FFF7D0FB40281FDC33791B0690
:102A9000F5D59BF800300133272B86BF0022134663
:102AA000DAB218F80330DBB2F3712A702B789C424B
:102AB000E8D00D490B4BFFB20120BC2208F804708E
:102AC000087089F800A0DA70BDE8F88FFF28D6DD1D
:102AD00001F00AFAD3E700BF348004404CA6FF1F80
:102AE00049A6FF1F00B00640DCA5FF1F50A6FF1F30
:102AF000E0A5FF1F2DE9F84F294B1B681A0548D5A3
:102B0000284B1B6805460BB101221A7005EB010A20
:102B1000554540D2DFF89C80234CDFF89C90234F32
:102B20000AE015F8012B09F80B20214A0123AA45D8
:102B3000137088F800602ED098F80030227803F1E6
:102B4000010BBBF1270F86BF0026B3465FFA8BF659
:102B50009345E6D1BC22FA7005E03A7913060BD40E
:102B600022789345DDD1FFF75FFB4028F5DDFF2894
:102B7000F6DD01F0B9F9F3E722780132272A86BFA2
:102B800000210A46D1B219F80220D2B2FA7121709E
:102B9000E6E7BDE8F88F054BBC22DA70BDE8F88F98
:102BA000348004404CA6FF1F49A6FF1F00B006401A
:102BB000DCA5FF1F50A6FF1FE0A5FF1F10B5044CAA
:102BC000237823B101F090F92378002BFAD110BDBE
:102BD000DCA5FF1F064A074B1B781078DBB2C0B29A
:102BE00083422CBF273000F1FF30C01A704700BF6E
:102BF00049A6FF1F50A6FF1F054A064B10781B78F9
:102C0000C0B2DBB2984238BF4030C01A704700BF34
:102C100048A6FF1FDDA5FF1F30B4154B154C1A78D1
:102C20002378D2B2DBB29A421ED001333F2B0ED9A9
:102C30001149124B087819680023C0B2237021B1E2
:102C4000D31A1A2B01DC00230B7030BC70470A48E2
:102C50000A49C05C0968DDB2C0B225700029F4D011
:102C60009A4238BF4032EBE74FF0FF30EDE700BF4C
:102C700048A6FF1FDDA5FF1F08A6FF1FD8A5FF1F41
:102C8000084A094B12781B78DBB29A4207D001330D
:102C9000402B28BF0023054AD05CC0B270474FF0DC
:102CA000FF30704748A6FF1FDDA5FF1F08A6FF1FC6
:102CB0000D4B1B681B0516D530B40C4B0C4CDA7849
:102CC0000C480D4902F0CB024025DA705D74DA78C9
:102CD00042F03402DA7023780268DBB20B700AB17A
:102CE0000023137030BC70473480044000B00640AD
:102CF000DDA5FF1FD8A5FF1F48A6FF1FF0B4384B66
:102D00001A7912F0300F2CD072B6997D01F0FF02C3
:102D100000293DD062B6334F334938780D78334EB1
:102D20001C46C0B2EDB2431C402BE17928BF002302
:102D3000AB4202F1FF32C9B21CBFF154184612F087
:102D4000FF02F0D12A4B1B68C2B23A704BB1A842C5
:102D500036BFC5F14005401B40192728C4BF0122DA
:102D60001A701F49CA78D2B2150616D452060DD56C
:102D70001B4B1B795B0609D51E4B1F491B680022A4
:102D80000A7003B11A70164B3C22DA70F0BC70471F
:102D90004022D9795A7462B6E3E70B791C06E5D56F
:102DA000164B174E1C783378E4B2DBB29C420ED03F
:102DB000144D01E0A3420AD00133282B28BF002381
:102DC0000879E85CC0B2C871087D0728F2D9DBB287
:102DD000034933700B79180644BF7C23CB70C5E7D9
:102DE00000B0064048A6FF1FDDA5FF1F08A6FF1F75
:102DF000D8A5FF1F4CA6FF1FDCA5FF1F50A6FF1F75
:102E000049A6FF1FE0A5FF1F431E032B14D872B66F
:102E10000A4951F8230068B170B4094C058834F8A8
:102E20001320466841F82360521B24F8132062B631
:102E300070BC704762B6704700207047ACA6FF1F99
:102E4000B4A8FF1F013803280BD872B6074B53F8FC
:102E5000203043B100205B680130002BFBD162B60B
:102E60007047002070471846F9E700BF00A7FF1F12
:102E700030B472B62B4A13781D0706D52A4B196A4F
:102E8000002936D0996A002941D053781C0706D50D
:102E9000254B196C00293ED0996C002939D09378C4
:102EA000190705D5204B196E002936D0996E89B1C6
:102EB000D3781B0707D51C4BD3F880207AB3D3F8FF
:102EC000882011213AB162B6184B00221A7030BC2A
:102ED00000F07ABE0D21154C154D227843F8315083
:102EE00003EBC1030830013A5860227062B630BC6F
:102EF000704704220D4C0F4D217843F8325003EBFC
:102F0000C20308304A1E5860227062B6EFE70521FE
:102F1000E1E70921DFE70822ECE70C22EAE71022CB
:102F2000E8E700BF049400000080FF1F29A7FF1FEF
:102F3000C800400088004000431E032B1DD81B4AD8
:102F4000400140F0100030B4104472B6184CE25CFE
:102F5000032A1BD8DFE802F00212151703220D889E
:102F6000E25410F0080F14BFC823882343EA054336
:102F700008310360416062B630BC704708300222FD
:102F8000EDE70522EBE708300422E8E7094A52F8AA
:102F9000230038B1084A52F82300416042F8231058
:102FA00062B6E9E742F82310034AF7E70080FF1F03
:102FB00038A7FF1F00A7FF1F10A7FF1F2DE9F04F25
:102FC000DFF80CB3DFF80CA387B044E0AB4F4FEA57
:102FD000930807EBC809013ED9F8042003F0080361
:102FE000F6B2A2F1080003F0FF04002B40F00281CA
:102FF00057F838301B0C99B222F8081C002B00F04F
:10300000F0809F4B22F8064C42F8044C53F82620DF
:10301000002A00F0C5829B4D55F8263058609A4C26
:1030200045F8260034F81630194424F8161000F03C
:10303000ABFD002800F0AD82944A954B19F0080FC3
:1030400000F1080018BF1346C9F8040047F83830EB
:1030500008238BF800309BF80040E4B261071AD5D2
:103060008C4B1B78A3B18C490A7802F0FF0322B184
:10307000013BDBB20B7003B900BE88490A7802F04D
:10308000FF032AB1013BDBB20B70002B00F057822B
:1030900004238BF8003004F0080303F0FF02002B38
:1030A00000F0CC809AF80030DBB21E098ED19C086B
:1030B000DFF8C89159F8342009EBC401C2F3830248
:1030C000013A49680C2A00F28880DFE802F07C7C33
:1030D0008686868686864786868607000868704DBF
:1030E0004A68704F704E286081B240F28160674B31
:1030F0006A604FF0010E0022814249F834303A6094
:10310000C9F81020C9F8182086F800E05B4C00F2DE
:10311000E380B1F5D06F80F04683B1F5817F00F098
:10312000FC8200F28D82802900F07783822940F0B2
:10313000FA82A98801F07F01042900F2F4825B4839
:103140005B4C89000844227062700278930740F15A
:10315000588484F800E04FF0020E42E3514F3A6881
:1031600032B3544B504E5449188834780D78402867
:10317000864645F0020828BF4FF0400E002C84F030
:1031800001043470CEEB00000CBF8824C82409EB86
:10319000C80680B285F0010544EA0E4472601880CA
:1031A00049F8384072440D70002800F045813A60BB
:1031B0003B4B1A88B2F5A06F0FD100219A78597055
:1031C0003E4B1A7009E0364A108842F221029042C2
:1031D00000F037812D4A49F83420394A0123137011
:1031E00036E72A4A2A4B19F0080F18BF134647F84A
:1031F00038302DE700F0E8FC324A334952F82630E7
:10320000002B00F0D18158688C5D42F8260003F154
:103210000802C9F80420032C05D8DFE804F02C02CA
:10322000292602228A551A8819F0080F0CBF882314
:10323000C82343EA024347F8383009E7E00700F1C2
:103240008181210600F1F281A20706D51F4A20499B
:1032500013780220DBB213700870E30602D51C4B12
:1032600010221A7007B0BDE8F08F04228A55DAE701
:1032700005228A55D7E703228A55D4E70080FF1F2D
:10328000ACA6FF1F58A6FF1FB4A8FF1FC800400030
:103290008800400034A7FF1FBDA6FF1F3CA7FF1FEB
:1032A00020A7FF1F54A6FF1FBCA6FF1FC02007407A
:1032B0002CA7FF1F68A6FF1F28A7FF1F9820074005
:1032C0009420074000A7FF1F38A7FF1F8820074052
:1032D000802007409020074042F22100814200F008
:1032E0002A8100F2D880B1F5086F00F07682B1F53E
:1032F000106F40F01882226AB349A878087012064D
:1033000000F13A83D9F82820B049130600F10C8364
:10331000D9F83020AD49150600F10183D9F83820DD
:10332000AA49140600F1F682D9F84020A7491006F0
:1033300000F14A83D9F84820A449120600F13F83DE
:10334000D9F85020A149130600F13483D9F8582048
:103350009E49150600F12983D9F860209B4914067F
:1033600000F11E83D9F868209849100600F11383F4
:10337000D9F870209549120600F10883D9F8782011
:103380009249130600F1FD82D9F880208F49150675
:1033900000F13183D9F888208C49140600F1258387
:1033A000D9F890208949100600F11983D9F898209E
:1033B0008649120600F10D838548864A86490190A8
:1033C0008648874D874C04970023059602958046D2
:1033D0000F4616461D460394306828B1446800F035
:1033E000F3FB2046002CF9D100233360029B3868A0
:1033F0001A46002342F8253028B1446800F0E4FB67
:103400002046002CF9D100223A60019A98F8003049
:103410001146002241F8042B039A0191023B4FF020
:10342000000122F81510032B00F22B81DFE813F0C6
:103430007001250170012501BEF1400F18BF002267
:10344000B5E6694A0D784878157050708D78C8785F
:103450009570D07010680D79157186284D7989792D
:103460005571917100F09B816049614E0A78307806
:1034700082F00105002842F002020D700CBF882185
:10348000C82149F8321009EBC20280F00100002186
:10349000307051609EE642F22120814240F0CB81A3
:1034A000544B554C5549A8781D682560CDF804E06B
:1034B0000870002002908046844604464B490D78EF
:1034C00045F0020E09EBCE030393019B002B039BF7
:1034D0005C600CBF8824C82444EA080385F001041A
:1034E00049F83E3032700C70DFF8E0E0404BDFF816
:1034F000FC80002840F01E81BCF1400F1BD144F03D
:10350000020C09EBCC03029CDFF8C0E05C60002AEF
:1035100040F02681020442F088029DF804304EF803
:103520003C20044433700D702346402803D1002012
:10353000334A3B601080334A012313704DE600F09C
:10354000AFFCA5E5214B2F4828491A614FF0020E28
:1035500080F800E02C4F0A702C49196099602C4EBD
:103560002C4D2D4C9A610D213970FF213170DFF8FF
:10357000B8E029702270294D294A8EF800109F2743
:10358000012406F8047C5D600470DA6007B0BDE8D1
:10359000F08F244A47F8380013780133137057E549
:1035A00043F826000E4D3AE58B5D032B00F2F080C8
:1035B00001A252F823F000BF51300000513000004A
:1035C000753600006F36000034A7FF1F0080FF1F14
:1035D00010A7FF1FACA6FF1F00A7FF1F38A7FF1FE4
:1035E00058A6FF1FB4A8FF1FBCA8FF1F28A7FF1FD6
:1035F000BCA6FF1FD4A5FF1FC4A8FF1F4CA7FF1F19
:1036000068A6FF1F94200740C020074088004000A4
:103610008820074080200740982007406CA6FF1FA5
:10362000C0A6FF1F29A7FF1F8C200740C149C24B1E
:1036300080220D2008701A70A2077FF50EAE05E6F5
:1036400040F20232914240F0EE80A98801F07F0101
:10365000042968D86A88002A65D1B648CDF804E004
:1036600089000844017841F00201017021E701233B
:103670008B55EDE400238B55EAE44FF0010388F805
:1036800000300135042D06F1040607F1040708F1A6
:1036900001087FF4A1AEA94CA94B2278A94D049F43
:1036A000059E002129701A70130700F105816278C8
:1036B000A549DFF8A0820A7010074FF00001C9F891
:1036C0003010C9F8381000F1E080A049A2780A70E3
:1036D0000021C9F85010C9F858101107DFF874829A
:1036E00000F10181E2789A499A4C0A700021120790
:1036F000C9F87010C9F8781000F1B08033780193E0
:10370000002183F00102C9F89010C9F89810D0E6A2
:103710004FF0000388F80030B3E7A98801F07F017B
:10372000042940F28D80834A0F2313708A4A0123B3
:10373000137052E540287FF6E2AE44F002040EEB2F
:10374000C401029E4E60BAB19DF80410834A1970FC
:103750003346403888F8005040334EF83420E7E6CE
:103760009DF8043033700204029B0D7042F0C802D1
:1037700003444EF83C20D8E69DF804101970029BD3
:10378000774A88F80050403840334EF83420CFE66E
:1037900019F0080F0CBF022303238B5558E4714A1C
:1037A0000F21117060E6704A5468002CBBD0688805
:1037B000B5F804E003E00C325468002CB3D0138851
:1037C0008342F8D153887345F5D1000A03280CBF12
:1037D00094F800E0B2F808E003E0644A644C127820
:1037E0002270E888704580F03F8162490D7840285A
:1037F000844645F0020E28BF4FF0400C04EB0C034A
:1038000009EBCE02029301235460CCEB00004FEA97
:103810000C4800220193C8245EE6554C4FF0020E7E
:1038200022706270DDE7B1F5A06F7FF47CAF0123F9
:10383000002201933DE642F221329142F7D072E735
:103840006A88002A7FF46FAF3A48CDF804E0890017
:103850000844017821F0020101702AE600F094F991
:10386000002800F0EF8008303D4AC4F88400C4F816
:10387000802000F089F9002800F0DE800830374A07
:10388000C9F88C00C9F8882038E700F07DF90028D5
:1038900000F0C0800830324AC8F84400C8F8402020
:1038A00000F072F9002800F0AF8008302B4AC9F808
:1038B0004C00C9F8482008E700F066F9002800F03D
:1038C000CD800830264AC9F82400C9F8202000F02D
:1038D0005BF9002800F0BC800830204AC9F82C00B1
:1038E000C9F82820E3E600F04FF9002800F09E8098
:1038F00008301B4AC8F86400C8F8602000F044F99A
:10390000002800F08D800830144AC9F86C00C9F80E
:103910006820E7E6C86B083800F056F904E5486B04
:10392000083800F051F9F9E4C86A083800F04CF999
:10393000EEE400BFC0200740802007400494000050
:10394000C420074029A7FF1FC8200740CC200740FC
:10395000D02007400080FF1F94200740C80040008F
:1039600088004000BDA6FF1F0894000034A7FF1F79
:103970002CA7FF1F28A7FF1F606A083800F024F952
:10398000C0E4C86F083800F01FF9FDE4486F08383C
:1039900000F01AF9F2E4C86E083800F015F9E7E40F
:1039A000486E083800F010F9DCE4C86D083800F003
:1039B0000BF9D1E4486D083800F006F9C6E4C86C8C
:1039C000083800F001F9BBE4486C083800F0FCF856
:1039D000B0E4D1F89C00083800F0F6F8ECE4D1F837
:1039E0009400083800F0F0F8E0E4D1F88C000838D2
:1039F00000F0EAF8D4E4D1F88400083800F0E4F8E4
:103A0000C8E44FF0020EECE62A78C9F8480001320B
:103A10002A705AE62A78C8F8400001322A703FE737
:103A20002A78C9F8680001322A705BE62A78C8F85B
:103A3000600001322A7061E72A78C9F888000132F3
:103A40002A705BE62A78C4F8800001322A7010E7F9
:103A50002A78C9F8280001322A7028E62A78C9F89D
:103A6000200001322A7032E7BEF1400FF44628BF31
:103A70004FF0400C04EB0C0302930123CCEB0E003F
:103A80004FEA0C480022019318E500BFF8B500F09A
:103A9000F7FC294B29482A4C2A4F2B4DDFF8BCC094
:103AA000DFF8BCE0294E00221A605A609A60DA60A2
:103AB0001A615A619A61DA611A625A629A62DA622A
:103AC0001A635A639A63DA631A645A649A64DA640A
:103AD0001A655A659A65DA651A665A669A66DA66EA
:103AE0001A675A679A67DA67C3F880200168C3F8D3
:103AF000842041F480210160C3F307212170C3F3C6
:103B00000740134938701B0E2B70FF238CF80030D0
:103B1000104D8EF8003010480B700123337084F87C
:103B2000642070264FF40074102207F82C3C2E708D
:103B3000046081F8F820F8BD0080FF1F3480044045
:103B40009C200740B0200740B42007409420074045
:103B50001020074049E400E008E100E08020074031
:103B60008820074000F0A0B800F078B800F06CB9E9
:103B700000F046B90846114600F0B2B8084600F019
:103B800033B900BF704700BF72B60D480268B2FA81
:103B900082F30B2B10DC4FF00041D94022EA0102E6
:103BA000026062B6074803EBC303DB00C2180021C2
:103BB000C15010465160704762B60020704700BF88
:103BC000448EFF1FBC83FF1F0D4B0E4AC31AA2FB7E
:103BD00003231B090B2B0CD80B4A127852B972B66F
:103BE0000A484FF00041026821FA03F31A430260C9
:103BF00062B67047064A1278002AF0D0FFF738B94B
:103C0000BC83FF1F398EE33829A7FF1F448EFF1F97
:103C100034A7FF1F38B50F4D286878B14388028854
:103C2000C118013393420C7A02D24380204638BD3A
:103C3000FFF7CAFF002320462B6038BD064B1B78D8
:103C40002BB10320FFF7E0F828600028E6D14FF001
:103C5000FF3038BD48A7FF1F34A7FF1F10B5094C20
:103C6000206818B143881844007A10BD064B1B78B1
:103C70002BB10320FFF7C8F820600028F2D14FF0E5
:103C8000FF3010BD48A7FF1F34A7FF1F044B054A94
:103C90001B6890881BB11A885B88D31A1844704738
:103CA00048A7FF1FB4A8FF1F0B4B1B789BB110B593
:103CB0000A4C206848B1FFF787FF002303202360E8
:103CC000FFF7A2F830B1FFF77FFF0320FFF79CF862
:103CD0000028F8D110BD704734A7FF1F48A7FF1F69
:103CE0002DE9F04FDFF8F89083B0012289F8002029
:103CF000019169B3DFF8EC80364F019E8346D8F816
:103D00000000B0B3344D4488C4F14001B14228BF33
:103D1000314604EB010E00221FFA8EFE2A70761A3D
:103D2000A0F802E000F1080251B1013C22445944DC
:103D30001BF8014B02F8014F8B45F9D1B0F802E0B6
:103D4000BEF13F0F0BD8254A05211170002ED6D1A8
:103D50000198002389F8003003B0BDE8F08F4022BD
:103D6000028001460420FFF7E7F80022C8F800208F
:103D7000E9E73A782AB3184D4AF2F9244FF0010ADC
:103D800007E0013C16D02A78A2B900F0ADF83A78E5
:103D9000BAB10420FFF756F80728F2D889F800A036
:103DA000FFF7F2FEC8F800000028ACD10C4B013C34
:103DB0001870E8D101234FF0FF302B7003B0BDE83D
:103DC000F08F00234FF0FF3089F8003003B0BDE8DA
:103DD000F08F00BF34A7FF1F44A7FF1F3CA7FF1FA2
:103DE0003DA7FF1F40A7FF1F00B583B002AB012115
:103DF00003F8010D1846FFF773FF03B05DF804FBED
:103E000038B50E4D0E4C28680123237028B1408828
:103E100000232370C0F1400038BD0A4B1B7813B952
:103E20000020207038BD0420FFF70CF80728F7D8D1
:103E3000FFF7AAFE28600028E9D1F1E740A7FF1F9D
:103E40003DA7FF1F34A7FF1FF8B5114B1B788BB19F
:103E5000104E114D346801272F7064B10F4A6388EA
:103E600000271770214623800420FFF765F837608C
:103E700000232B70F8BDFFF787FE084B28B10146E1
:103E800004201C70FFF758F8F2E71F70F0E700BF3E
:103E900034A7FF1F40A7FF1F3DA7FF1F3CA7FF1F21
:103EA00038B50E4B1B7873B90D4C216861B103F026
:103EB000FF054B880B800420FFF73EF8256038BDD6
:103EC000084B01221A7038BDFFF75EFE0028F7D0BC
:103ED0000146BDE838400420FFF72EB83DA7FF1F7C
:103EE00040A7FF1F3CA7FF1F38B5224C237803B122
:103EF00038BD01232370FFF7C9FE70BB00F0AEF997
:103F000040BBFEF779FE10BB00F03EFAE0B900239B
:103F10002370EFF30583002BEAD1EFF3108172B623
:103F2000154B1868E0B1154C2278CAB945691D6077
:103F300001232370C5B1AA6101B962B60025457796
:103F4000836898472570D3E700F016F9DFE7FEF79E
:103F50005BF8D9E700F00EF9D3E7FFF713FECDE7E2
:103F60000029C5D162B638BD054B1D600029E5D1D9
:103F7000E3E700BF4DA7FF1F60A7FF1F64A7FF1F58
:103F80005CA7FF1F10B4EFF3108272B6437F33B902
:103F9000017F012907D003290FD00123437702B9FC
:103FA00062B610BC7047124C2168A1B1114943613F
:103FB0000B68836108605861EFE70F4C216881B19D
:103FC0000E4943610B688361086058610C4B4FF0E8
:103FD00080511960E1E7074B416181612060186001
:103FE000DBE7064B4161816120601860EEE700BFAE
:103FF00060A7FF1F5CA7FF1F50A7FF1F54A7FF1F4D
:1040000004ED00E010B4047F4160022CC26002D0D5
:1040100010BCFFF7B7BF836810BC184770B5EFF34B
:10402000108272B60C4C206880B10C4E002543699A
:10403000236073B19D6102B962B645778368984782
:10404000EFF3108272B620680028F0D102B962B690
:1040500070BD3360EFE700BF50A7FF1F54A7FF1FDD
:10406000FFF7DCBF184A30B41468002C27D003686F
:1040700021688B420ED2CB1A00218460C16023607C
:10408000E06010600223037530BC704711688B42FA
:10409000144608D3A2685B1A0360002AF6D1826036
:1040A000C460A060EEE7D268C2608460E060C5686A
:1040B000CB1A0222A8602360027530BC704784606E
:1040C000C4601060DEE700BF58A7FF1FF8B5224E9E
:1040D00034682CB32368002B3AD1204F1D4604E0EE
:1040E0003468ECB12368002B32D1A36803B1DD60E2
:1040F00020693360036825751B68BB4221D1037FAB
:104100004560022BC46020D0FFF73CFF6368002BA2
:10411000E6D023602046FFF7A5FF3468002CE1D1EC
:10412000EFF3108372B60E4A00211068116003B9D4
:1041300062B628B18468FFF795FF20460028F9D1C0
:10414000F8BD224600219847E0E783689847DDE7FD
:10415000013B2360E4E700BF58A7FF1F05400000B4
:1041600068A7FF1F024A136801331360FFF7AEBF51
:10417000D4A5FF1F704700BF704700BF30B4294867
:10418000294A2A4B2A4D6024E121047011701B78C2
:10419000284C082B30D00A2B2748284937D00C2B25
:1041A0000CBF35223D2212232A60236002600B607F
:1041B000234B24491B78244ABBB101230B601360B5
:1041C000224B23491B78234A012B26D9042B0FD9D4
:1041D000082B1ED9102B94BF862387230B601360F6
:1041E0001D4B01221A7030BC70470B601360E7E76B
:1041F00084230B601360F3E700F58E200F4908302D
:10420000012213232A60236002600B60D0E7392269
:10421000F7E785230B601360E2E780230B601360F0
:10422000DEE700BF0040074001400740488EFF1F07
:1042300008B003400CB0034008B00B400CB00B407A
:104240006DA7FF1F20B0034020B00B40498EFF1F19
:1042500024B0034024B00B406CA7FF1F054A064B57
:1042600010781B78C0B2DBB2984238BF4030C01A19
:10427000704700BF74A7FF1F75A7FF1FF0B4384B2E
:104280001A7912F0300F2CD072B6997D01F0FF022E
:1042900000293DD062B6334F334938780D78334E1C
:1042A0001C46C0B2EDB2431C402BE17928BF00236D
:1042B000AB4202F1FF32C9B21CBFF154184612F0F2
:1042C000FF02F0D12A4B1B68C2B23A704BB1A84230
:1042D00036BFC5F14005401B40192728C4BF012245
:1042E0001A701F49CA78D2B2150616D452060DD5D7
:1042F0001B4B1B795B0609D51E4B1F491B6800220F
:104300000A7003B11A70164B3C22DA70F0BC704789
:104310004022D9795A7462B6E3E70B791C06E5D5D9
:10432000164B174E1C783378E4B2DBB29C420ED0A9
:10433000144D01E0A3420AD00133402B28BF0023D3
:104340000879E85CC0B2C871087D0728F2D9DBB2F1
:10435000034933700B79180644BF7C23CB70C5E743
:1043600000A0064074A7FF1F75A7FF1FB8A7FF1F77
:1043700070A7FF1FFCA7FF1FF8A7FF1F00A8FF1FC4
:10438000F9A7FF1F78A7FF1F054A064B10781B7877
:10439000C0B2DBB2984238BF4030C01A704700BF8D
:1043A00008A8FF1F09A8FF1F30B42B4B1A799406E9
:1043B0001FD52A48DA790378294901333F2B097838
:1043C000C8BF00238B42D2B203D0264CD9B2E254EC
:1043D0000170254A116861B1244A1278D2B2934221
:1043E00036BFC2F140029B1A9B18272BC4BF012382
:1043F0000B70194AD378DBB2180611D45A060DD5C2
:10440000154B1B795B0609D5194B1A491B6800220D
:104410000A7003B11A70104B2C22DA7030BC70474E
:1044200011790906EAD5144910480C780178C9B207
:104430008C420DD04A1C272A84BF00210A460F4D0A
:10444000054C98BFD1B2AA5CD2B2E2710170D5E737
:104450006C21D170D2E700BF00C0064008A8FF1F42
:1044600009A8FF1F34A8FF1F04A8FF1F75A8FF1F7E
:1044700078A8FF1F74A8FF1F7CA8FF1F0CA8FF1FB0
:1044800070B584B072B6194B194D1A487022412686
:104490000F2480211A702E701A4604701970137838
:1044A0001B06FCD5144B186862B6144B144C98428A
:1044B00098BF00EB800001A998BF40000A22FDF7D9
:1044C000D5FE01A92046002311F8012B01333AB192
:1044D0000A2B20F8022FF7D11623237004B070BDE9
:1044E0005B00DBB2237004B070BD00BF000002406F
:1044F0000700024006000240080002407F96980034
:10450000D88EFF1F81F0004102E000BF83F000431E
:1045100030B54FEA41044FEA430594EA050F08BF5E
:1045200090EA020F1FBF54EA000C55EA020C7FEA22
:10453000645C7FEA655C00F0E2804FEA5454D4EB9F
:104540005555B8BF6D420CDD2C4480EA020281EA69
:10455000030382EA000083EA010180EA020281EAA1
:104560000303362D88BF30BD11F0004F4FEA0131F3
:104570004FF4801C4CEA113102D0404261EB410102
:1045800013F0004F4FEA03334CEA133302D0524288
:1045900063EB430394EA050F00F0A780A4F1010444
:1045A000D5F1200E0DDB02FA0EFC22FA05F280187E
:1045B00041F1000103FA0EF2801843FA05F3594164
:1045C0000EE0A5F120050EF1200E012A03FA0EFCE3
:1045D00028BF4CF0020C43FA05F3C01851EBE3710D
:1045E00001F0004507D54FF0000EDCF1000C7EEB2A
:1045F00000006EEB0101B1F5801F1BD3B1F5001F68
:104600000CD349085FEA30004FEA3C0C04F1010486
:104610004FEA445212F5800F80F09A80BCF1004FAF
:1046200008BF5FEA500C50F1000041EB045141EA31
:10463000050130BD5FEA4C0C404141EB010111F432
:10464000801FA4F10104E9D191F0000F04BF0146DD
:104650000020B1FA81F308BF2033A3F10B03B3F1BB
:1046600020020CDA0C3208DD02F1140CC2F10C024B
:1046700001FA0CF021FA02F10CE002F11402D8BFA9
:10468000C2F1200C01FA02F120FA0CFCDCBF41EA75
:104690000C019040E41AA2BF01EB0451294330BD44
:1046A0006FEA04041F3C1CDA0C340EDC04F1140421
:1046B000C4F1200220FA04F001FA02F340EA0300F8
:1046C00021FA04F345EA030130BDC4F10C04C4F13E
:1046D000200220FA02F001FA04F340EA030029461E
:1046E00030BD21FA04F0294630BD94F0000F83F468
:1046F000801306BF81F480110134013D4EE77FEA4B
:10470000645C18BF7FEA655C29D094EA050F08BF96
:1047100090EA020F05D054EA000C04BF1946104677
:1047200030BD91EA030F1EBF0021002030BD5FEABB
:10473000545C05D14000494128BF41F0004130BDE3
:1047400014F580043CBF01F5801130BD01F0004537
:1047500045F0FE4141F470014FF0000030BD7FEAAA
:10476000645C1ABF194610467FEA655C1CBF0B46A5
:10477000024650EA013406BF52EA033591EA030FBC
:1047800041F4002130BD00BF90F0000F04BF0021B4
:10479000704730B54FF4806404F132044FF00005E7
:1047A0004FF0000150E700BF90F0000F04BF002160
:1047B000704730B54FF4806404F1320410F00045C6
:1047C00048BF40424FF000013EE700BF42004FEAC1
:1047D000E2014FEA31014FEA02701FBF12F07F433E
:1047E00093F07F4F81F06051704792F0000F14BF3B
:1047F00093F07F4F704730B54FF4607401F000457F
:1048000021F0004120E700BF50EA010208BF7047D5
:1048100030B54FF000050AE050EA010208BF7047CA
:1048200030B511F0004502D5404261EB41014FF433
:10483000806404F132045FEA915C3FF4DCAE4FF037
:1048400003025FEADC0C18BF03325FEADC0C18BF1E
:10485000033202EBDC02C2F1200300FA03FC20FA6F
:1048600002F001FA03FE40EA0E0021FA02F11444BC
:10487000C1E600BF70B54FF0FF0C4CF4E06C1CEAD1
:1048800011541DBF1CEA135594EA0C0F95EA0C0F46
:1048900000F0DEF82C4481EA030621EA4C5123EAB9
:1048A0004C5350EA013518BF52EA033541F48011E8
:1048B00043F4801338D0A0FB02CE4FF00005E1FB9B
:1048C00002E506F00042E0FB03E54FF00006E1FBE5
:1048D00003569CF0000F18BF4EF0010EA4F1FF0428
:1048E000B6F5007F64F5407404D25FEA4E0E6D4168
:1048F00046EB060642EAC62141EA55514FEAC52079
:1049000040EA5E504FEACE2EB4F1FD0C88BFBCF5F4
:10491000E06F1ED8BEF1004F08BF5FEA500E50F1A5
:10492000000041EB045170BD06F0004646EA01016B
:1049300040EA020081EA0301B4EB5C04C2BFD4EB9D
:104940000C0541EA045170BD41F480114FF0000E96
:10495000013C00F3AB8014F1360FDEBF002001F004
:10496000004170BDC4F10004203C35DA0C341BDC7E
:1049700004F11404C4F1200500FA05F320FA04F050
:1049800001FA05F240EA020001F0004221F0004184
:1049900010EBD37021FA04F642EB06015EEA430EF7
:1049A00008BF20EAD37070BDC4F10C04C4F1200527
:1049B00000FA04F320FA05F001FA04F240EA0200DA
:1049C00001F0004110EBD37041F100015EEA430EAB
:1049D00008BF20EAD37070BDC4F1200500FA05F2CB
:1049E0004EEA020E20FA04F301FA05F243EA02034A
:1049F00021FA04F001F0004121FA04F220EA020059
:104A000000EBD3705EEA430E08BF20EAD37070BD9E
:104A100094F0000F0FD101F00046400041EB01017E
:104A200011F4801F08BF013CF7D041EA060195F060
:104A3000000F18BF704703F00046520043EB03031A
:104A400013F4801F08BF013DF7D043EA0603704707
:104A500094EA0C0F0CEA135518BF95EA0C0F0CD012
:104A600050EA410618BF52EA4306D1D181EA030158
:104A700001F000414FF0000070BD50EA410606BF52
:104A80001046194652EA430619D094EA0C0F02D197
:104A900050EA013613D195EA0C0F05D152EA0336DC
:104AA0001CBF104619460AD181EA030101F00041FA
:104AB00041F0FE4141F470014FF0000070BD41F043
:104AC000FE4141F4780170BD70B54FF0FF0C4CF41D
:104AD000E06C1CEA11541DBF1CEA135594EA0C0F3C
:104AE00095EA0C0F00F0A7F8A4EB050481EA030E89
:104AF00052EA03354FEA013100F088804FEA033370
:104B00004FF0805545EA131343EA12634FEA02223D
:104B100045EA111545EA10654FEA00260EF00041FE
:104B20009D4208BF964244F1FD0404F5407402D250
:104B30005B084FEA3202B61A65EB03055B084FEAE1
:104B400032024FF480104FF4002CB6EB020E75EBDE
:104B5000030E22BFB61A754640EA0C005B084FEA06
:104B60003202B6EB020E75EB030E22BFB61A754683
:104B700040EA5C005B084FEA3202B6EB020E75EBCE
:104B8000030E22BFB61A754640EA9C005B084FEA46
:104B90003202B6EB020E75EB030E22BFB61A754653
:104BA00040EADC0055EA060E18D04FEA051545EA42
:104BB00016754FEA06164FEAC30343EA52734FEAEB
:104BC000C2025FEA1C1CC0D111F4801F0BD141EA64
:104BD00000014FF000004FF0004CB6E711F4801FC9
:104BE00004BF01430020B4F1FD0C88BFBCF5E06FA9
:104BF0003FF6AFAEB5EB030C04BFB6EB020C5FEAB9
:104C0000500C50F1000041EB045170BD0EF0004E0D
:104C10004EEA113114EB5C04C2BFD4EB0C0541EA3F
:104C2000045170BD41F480114FF0000E013C90E63C
:104C300045EA060E8DE60CEA135594EA0C0F08BF00
:104C400095EA0C0F3FF43BAF94EA0C0F0AD150EAFF
:104C500001347FF434AF95EA0C0F7FF425AF104692
:104C600019462CE795EA0C0F06D152EA03353FF4BA
:104C7000FDAE1046194622E750EA410618BF52EA37
:104C800043067FF4C5AE50EA41047FF40DAF52EA0B
:104C900043057FF4EBAE12E74FF0FF3C06E000BFA8
:104CA0004FF0010C02E000BF4FF0010C4DF804CDB5
:104CB0004FEA410C7FEA6C5C4FEA430C18BF7FEA75
:104CC0006C5C1BD001B050EA410C0CBF52EA430CA3
:104CD00091EA030F02BF90EA020F0020704710F123
:104CE000000F91EA030F58BF994208BF90422CBFB2
:104CF000D8176FEAE37040F0010070474FEA410CAB
:104D00007FEA6C5C02D150EA013C07D14FEA430CC8
:104D10007FEA6C5CD6D152EA033CD3D05DF8040B39
:104D2000704700BF8446104662468C46194663466B
:104D300000E000BF01B5FFF7B7FF002848BF10F142
:104D4000000F01BD4DF808EDFFF7F4FF0CBF012087
:104D500000205DF808FB00BF4DF808EDFFF7EAFF03
:104D600034BF012000205DF808FB00BF4DF808EDBE
:104D7000FFF7E0FF94BF012000205DF808FB00BFB3
:104D80004DF808EDFFF7CEFF94BF012000205DF83D
:104D900008FB00BF4DF808EDFFF7C4FF34BF01204A
:104DA00000205DF808FB00BF4FEA410C7FEA6C5C15
:104DB00002D150EA013C0AD14FEA430C7FEA6C5C15
:104DC00002D152EA033C02D14FF0000070474FF08D
:104DD000010070470B460146184600F001B800BFBD
:104DE00013460A460146022000F08EBE014B1868A9
:104DF000704700BF1893FF1F70B50F4E0F4D761B05
:104E0000B61018BF002405D0013455F8043B98476C
:104E1000A642F9D10A4E0B4D761B04F067FCB61082
:104E200018BF002406D0013455F8043B9847A64229
:104E3000F9D170BD70BD00BFF8960000F896000073
:104E400004970000F8960000024B0146186800F035
:104E50000BB800BF1893FF1F024B0146186800F003
:104E600017BF00BF1893FF1F2DE9F04F01F10B058D
:104E7000162D83B0064640F29F8035F0070500F1FD
:104E8000BF80A94200F2BC8000F06EFBB5F5FC7F4C
:104E9000C0F09C826B0A00F0BA80042B00F2838180
:104EA000A80900F1390E4FEA4E033830C44F07EB22
:104EB0008303A3F108015C68A14207D1ACE0002A9A
:104EC00080F2AC80E468A14200F0A680636823F021
:104ED00003035A1B0F2AF2DDB9493C6901F1080EA0
:104EE000744500F0B381636823F003035A1B0F2A53
:104EF00000F39981002AC1F814E0C1F810E080F2B3
:104F00009E80B3F5007F80F06781DB0803F1010C20
:104F100001229B1002FA03F34A6851F83C80C4F85E
:104F2000088001EBCC091A43A9F10803E3604A6049
:104F300041F83C40C8F80C40831001249C40944246
:104F400000F28A80144206D120F00300640014426B
:104F500000F10400FAD007EBC009CC468046DCF82B
:104F60000C108C4507D173E1002A80F28181C96859
:104F70008C4500F06D814B6823F003035A1B0F2A08
:104F8000F2DD0C46D1F80CC054F8088F4B1945F0EF
:104F900001054D6042F00101C8F80CC03046CCF864
:104FA00008807B613B61C3F80CE0C3F808E05960FE
:104FB0009A5000F0DBFA1FE0102921D800F0D4FA53
:104FC0001025062302207E4F07EB8303A3F108027E
:104FD0005C68944200F045816368E168A56823F04D
:104FE0000303234430465A68E96042F001028D60B1
:104FF0005A6000F0BBFA0834204603B0BDE8F08FD9
:1050000000240C232046336003B0BDE8F08F8023DA
:105010004FF0400E3F2049E770465DE72344E168CA
:105020005A68A56842F00102E96030468D605A6016
:1050300000F09CFA0834204603B0BDE8F08F23440A
:1050400030465A6842F001025A6000F08FFA083484
:10505000204603B0BDE8F08FBC68636823F0030806
:10506000A84504D3C5EB08030F2B00F38C80554BE8
:10507000DFF860911A68D9F8003001332A4404EB54
:10508000080A00F0608102F580520F3222F47F623C
:1050900022F00F0211463046019200F059FCB0F1A7
:1050A000FF3F8346019A00F05881824500F2FC8060
:1050B000454B1968DA451144196000F05381D9F85D
:1050C0000000DFF810E101301BBFCAEB0B0A5144AE
:1050D000CEF800B019601BF0070100F01781C1F194
:1050E0000800C1F58051834408315A44C2F30B02D1
:1050F000C2EB010949463046019300F029FC431CEC
:10510000019B00F03F81CBEB00024A4442F00102D8
:105110001968C7F808B04944BC42CBF804201960AC
:10512000DFF8A49016D0B8F10F0F40F2FD8062684E
:10513000A8F10C0323F00703E01802F001024FF07E
:10514000050E1A430F2B6260C0F804E0C0F808E0B7
:1051500000F21C811D4BBC681A68914288BF19601F
:105160001B4B1A689142626888BF196022F00302E3
:105170009542A2EB050301D80F2B04DC304600F06A
:10518000F5F9002438E7621943F0010345F0010501
:1051900065603046BA60536000F0E8F90834204694
:1051A00003B0BDE8F08F142B71D9542B00F2A4800A
:1051B000280B00F16F0E4FEA4E036E3076E600BF0B
:1051C0008894FF1F88A8FF1F8CA8FF1F84A8FF1FBB
:1051D00080A8FF1F9498FF1F5A0A042A5ED9142A38
:1051E00000F2B38002F15C0149005B3207EB810CF5
:1051F00057F82110DFF8DC81ACF1080C8C4500F089
:1052000088804A6822F00302934202D289688C4562
:10521000F7D1D1F80CC07A68C4F80CC0A160CCF802
:105220000840CC6088E6631942F0010745F00105AB
:10523000656030464B610B61C3F80CE0C3F808E0D1
:105240005F609A50083400F091F9D5E64A6873E639
:1052500008F1010818F0030F0CF1080C7FF47FAE81
:1052600030E0DC68A34208BF02303FF435AEB3E65D
:105270000B440C465A68C96854F8085F42F00102B2
:105280005A603046E9608D6000F070F9B4E603F1D1
:105290005C0E03F15B004FEA4E0307E69A0902F148
:1052A000390149003832A1E7BC424A4B3FF400AF14
:1052B0009C68626822F003025AE759F80839994558
:1052C00040F0828010F0030F00F1FF30F5D17B68D1
:1052D00023EA04037B6064009C423FF6BDAE002CD1
:1052E0003FF4BAAE1C4240467FF435AE64001C4227
:1052F00000F10400FAD02EE6B3F5AA7F18D8E80B27
:1053000000F1780E4FEA4E037730CFE54FF480512D
:10531000EBE60121D8F80430921001FA02F21A43A8
:10532000C8F80420614677E70123CBF8043025E76D
:1053300040F25452934220D8A80C00F17D0E4FEA5F
:105340004E037C30B2E51032A4E6542A26D81A0B5C
:1053500002F16F0149006E3248E7BC68626822F0D2
:10536000030205E7CAF30B0000287FF4A8AE42440D
:10537000BB6842F001025A60ECE6FE234FF07F0E5C
:105380007E2093E501224FF00009C1E604F10801F7
:10539000304600F07DFCD9F80010DBE6B2F5AA7FBC
:1053A00005D8DA0B02F17801490077321EE740F2A6
:1053B00054518A4205D89A0C02F17D0149007C3291
:1053C00014E7FE217E2211E77B6884E7E808431C8E
:1053D0005B00F8E58894FF1F82B049B15AB16BB108
:1053E00013780B601278101C18BF012002B07047B0
:1053F00001A9002AF3D1104602B070476FF00100F6
:10540000F4E700BF8842F0B50DD98B1898420AD254
:105410008118002A51D09A1A13F8014D01F8014D54
:105420009342F9D1F0BD0F2A48D941EA00039B0706
:1054300046D100F1100401F11003154653F8106C29
:1054400044F8106C53F80C6C44F80C6C53F8086C6E
:1054500044F8086C103D53F8046C44F8046C0F2DAC
:1054600003F1100304F11004E8D8A2F1100323F0B3
:105470000F0302F00F0E1033BEF1030F1944034463
:1054800021D91E1F0D467446043C55F8047B46F88E
:10549000047F032CF8D8AEF1040424F00304043490
:1054A0002344214402F0030262B1013B0A4411F893
:1054B000014B03F8014F8A42F9D1F0BD0346F3E7EF
:1054C0000346F2E7F0BD7246EEE700BF70B4840712
:1054D00046D0541E002A41D0CDB2034602E0621EDF
:1054E000E4B3144603F8015B9A07F8D1032C2ED9D4
:1054F000CDB245EA05250F2C45EA054519D903F13A
:1055000010022646103E0F2E42F8105C42F80C5C4A
:1055100042F8085C42F8045C02F11002F2D8A4F1EF
:10552000100222F00F0204F00F041032032C134477
:105530000DD91E462246043A032A46F8045BFAD8DF
:10554000221F22F003020432134404F003042CB19E
:10555000C9B21C4403F8011BA342FBD170BC7047C5
:1055600014460346C2E700BF704700BF704700BF44
:105570002DE9F04F174683B0002900F0C1800E4698
:10558000814607F10B05FFF7EFFF56F804EC162DE7
:105590002EF00304A6F1080840D810221546AF42A9
:1055A00041D8944275DAC94B996808EB04008842E7
:1055B000416800F0D98021F0010303445B68DB07F8
:1055C0007DD51EF0010F35D039464846FFF74CFC1B
:1055D0000746E0B156F8043C23F001034344A0F130
:1055E00008029A4200F04481221F242A00F23181ED
:1055F000132A00F20481034632461168196051688B
:10560000596092689A603146484600F041FB48462E
:10561000FFF7ACFF384603B0BDE8F08F25F0070573
:10562000002D2A46BBDA0C230020C9F8003003B055
:10563000BDE8F08F56F8083CC3EB080ADAF80430EE
:1056400023F0030C04EB0C039342BDDB5746DAF85E
:105650000C1057F8080F221F242AC160886000F23E
:105660001781132A40F212813168CAF80810716854
:10567000CAF80C101B2A00F22B8108360AF110021E
:105680003168116071685160B16891603E461C4696
:10569000D046631B0F2B1DD8D8F8043003F001034C
:1056A00023434444C8F80430636843F00103636053
:1056B0004846FFF75BFF304603B0BDE8F08F21F0AE
:1056C00003012144914221DBC36882680C46D36008
:1056D0009A60DEE7D8F8042008EB050102F0010229
:1056E000154343F001020B44C8F804504A605A685D
:1056F00042F0010208315A60484600F0C9FAD7E783
:10570000114603B0BDE8F04FFFF7AEBB1EF0010F2E
:105710007FF45AAF56F8083CC3EB080ADAF80430B5
:1057200023F0030C01EB0C0E96458BDBC3688268FB
:105730005746D3609A6057F8081FDAF80C30CB60F0
:10574000221F242A996000F29980132A62D93368B3
:10575000CAF808307368CAF80C301B2A00F2A0801F
:1057600008360AF1100356E021F0030BA34405F1BB
:105770001000834559DA1EF0010F7FF425AF56F86B
:10578000081CC1EB080ADAF8041021F0030CE3440A
:1057900058453FF757AF5746DAF80C1057F8080F3F
:1057A000221F242AC160886000F2B480132A40F2CC
:1057B000A5803168CAF808107168CAF80C101B2A55
:1057C00000F2AF8008360AF110023168116071688A
:1057D0005160B16891600AEB0501C5EB0B0242F024
:1057E000010299604A60DAF8043003F001031D43B6
:1057F0004846CAF80450FFF7B9FE38465CE73368FC
:105800000360736843601B2A27D800F1080306F180
:105810000802F2E63B4632681A6072685A60B26863
:105820009A603E467446D04633E708EB0501C5EB67
:105830000B0B4BF0010299604A6056F8043C03F0F0
:1058400001031D43484646F8045CFFF78FFE3046CF
:1058500032E73146FFF7D6FDD5E6B3688360F368DB
:10586000C360242A28D000F1100306F11002C4E618
:1058700050F8043C23F003031C440AE73146384641
:105880007446D046FFF7BEFD3E4602E73A46F7E6CD
:10589000314638461C46D046FFF7B4FD3E46F8E692
:1058A000B368CAF81030F368CAF81430242A1BD041
:1058B00010360AF11803AEE7336903617369436177
:1058C00006F1180200F1180397E600BF8894FF1F45
:1058D000B168CAF81010F168CAF81410242A0FD061
:1058E00010360AF11802CBE63369CAF8183073692A
:1058F000CAF81C3018360AF120038CE73A4664E7F0
:105900003269CAF818207269CAF81C2018360AF1E0
:105910002002B5E6314638460193FFF773FD019B3F
:1059200059E7B168CAF81010F168CAF81410242AAF
:1059300003D010360AF1180247E73269CAF8182076
:105940007269CAF81C2018360AF120023DE700BF30
:1059500038B5074C0023054608462360FCF74EFC8B
:10596000431C00D038BD2368002BFBD02B6038BD12
:10597000C8A8FF1FFFFFFFFFFFFFFFFFFFFFFFFFA5
:1059800090F800F06DE9024520F007016FF0000C7F
:1059900010F0070491F820F040F049804FF0000427
:1059A0006FF00700D1E9002391F840F000F1080002
:1059B00082FA4CF2A4FA8CF283FA4CF3A2FA8CF33A
:1059C0004BBBD1E9022382FA4CF200F10800A4FAA1
:1059D0008CF283FA4CF3A2FA8CF3E3B9D1E90423F5
:1059E00082FA4CF200F10800A4FA8CF283FA4CF32C
:1059F000A2FA8CF37BB9D1E9062301F1200182FAE6
:105A00004CF200F10800A4FA8CF283FA4CF3A2FAEB
:105A10008CF3002BC6D0002A04BF04301A4612BAF9
:105A2000B2FA82F2FDE8024500EBD2007047D1E9FC
:105A3000002304F00305C4F100004FEAC50514F08B
:105A4000040F91F840F00CFA05F562EA05021CBF5C
:105A500063EA050362464FF00004A9E7F0B5ADF52F
:105A6000057D04AD00930F4613464FF4007403AA5E
:105A700029460394064600F061FD88B104460246BB
:105A80003946039B304600F029F8AC42039004D01D
:105A90003046214600F0FCF803980DF5057DF0BD79
:105AA0004FF0FF30F9E700BF10B4044C13460A462C
:105AB0000146206810BCFFF7D1BF00BF1893FF1F3D
:105AC00021B1FF2A04D80A700120704708467047A8
:105AD0008A2303604FF0FF30704700BF70B50D465A
