:100000000C948B150C94B5150C94B5150C94B51572
:100010000C94B5150C94B5150C94B5150C94B51538
:100020000C94B5150C94B5150C94B5150C94B51528
:100030000C94B5150C9422160C94B5150C94B515AA
:100040000C94B5150C94B5150C944E320C94B51552
:100050000C94B7300C94ED300C94B5150C94B51588
:100060000C94B5150C94B5150C9446210C94B5154B
:100070000C94B5150C94B5150C94B5150C94B515D8
:100080000C94B5150C94B5150C94B5156C336F33F1
:100090006233663386338633733377337D3381330C
:1000A0000000000000000000000000000000000050
:1000B0000000000000FC3F00FE0700000000000000
:1000C0000000000000FC3F00FE0F000000000000E8
:1000D0000000000000E00700F80100000000000040
:1000E0000000000000C00700F00000000000000059
:1000F0000000000000C00300E0000000000000005D
:100100000000000000C003006000000000000000CC
:100110000000000000C003006000000000000000BC
:100120000000000000C003006000000000000000AC
:100130000000000000C0030060000000000000009C
:100140000000000000C0030060000000000000008C
:100150000000000000C0030060000000000000007C
:100160000000000000C0030060000000000000006C
:100170000000000000C0030060000000000000005C
:100180000000000000C0030060000000000000004C
:100190000000000000C0030060000000000000003C
:1001A0000000000000C0030060000000000000002C
:1001B0000000000000C0030060000000000000001C
:1001C0000000000000C0030060000000000000000C
:1001D0000000000000C00300E0000000000000007C
:1001E0000000000000C0F3FFFF1F0000000000003F
:1001F0000000000000C083FFFF7F0000000000003F
:100200000000000000C0033F60FE0100000000008D
:100210000000000000C0033E60F00300000000008A
:100220000000000000C0033E60E00F00000000007E
:100230000000000000C0033E60C00F00000000008E
:100240000000000000C0033E60801F0000000000AE
:100250000000000000C0073E60003F0000000000FA
:100260000000000000C0073E60003F0000000000EA
:100270000000000000C0073E70007E00000000008B
:100280000000000000C0073E70007E00000000007B
:10029000000000000080073E3000FC00000000006D
:1002A000000000000080073E3800FC000000000055
:1002B0000000000000800F3E3800FC00000000003D
:1002C0000000000000000F3E1C00FC0000000000C9
:1002D0000000000000001F3E1C00F80100000000AC
:1002E0000000000000003E3E0F00F801000000008A
:1002F000000000000000FCBE0700F8010000000044
:10030000000000000000F8FF0300F80100000000FA
:10031000000000000000F0FF0000F80100000000F5
:10032000000000000000003F0000F8010000000095
:10033000000000000000003E0000F8010000000086
:10034000000000000000003E0000F8010000000076
:10035000000000000000003E0000F8010000000066
:10036000000000000000003E0000F8010000000056
:10037000000000000000003E0000F8000000000047
:10038000000000000000003E0000FC000000000033
:10039000000000000000003E0000FC000000000023
:1003A000000000000000003E0000FC000000000013
:1003B000000000000000003E00007C000000000083
:1003C000000000000000003E00007C000000000073
:1003D000000000000000003E00003E0000000000A1
:1003E000000000000000003E00003E000000000091
:1003F000000000000000003E00001E0000000000A1
:10040000000000000000003E00001F00000000008F
:10041000000000000000003E00800F00000000000F
:10042000000000000000003E008007000000000007
:10043000000000000000003E00C0030000000000BB
:10044000000000000000003E00E00100000000008D
:10045000000000000000007E00F800000000000026
:1004600000000000000000FF003E0000000000004F
:10047000000000000000E0FFFF0F0000000000008F
:10048000000000000000F0FFFF010000000000007D
:10049000000000000000000000000000000000005C
:1004A000000000000000000000000000000000004C
:1004B000000000000000000000000000000000003C
:1004C000000000000000000000000000000000002C
:1004D0000000000000000000C0000000000000005C
:1004E0000000000000000000A0000000000000006C
:1004F00000000000000000004001000000000000BB
:100500000000000000000000800200000000000069
:1005100000000000000000000003000000000000D8
:1005200000000000000000000007000000000000C4
:100530000000000000000000000E8003000000002A
:100540000000000000000000000C8003000000001C
:100550000000000000000000001C800300000000FC
:10056000000000000000000000180007000000006C
:10057000000000000000000000380007000000003C
:100580000000000000000000002000070000000044
:1005900000000000000000000070000700000000E4
:1005A00000000000000000000020000E000000001D
:1005B000000000000000000000000000000000003B
:1005C00000000C0000002010000000001C000000D3
:1005D00000001000000020100000000018000000C3
:1005E000000023020081A01000C6C407180000000C
:1005F0000000018EC74263111EC6C40C1800000023
:10060000000039C24424221112C6C50C3800000073
:10061000000039C2472422111EC6C7073800000057
:1006200000002342402422110246C700300000008F
:10063000000036C2404423310646C60030000000A8
:1006400000001C824784E1601C46C40030000000AA
:10065000000000000000000000000000300000006A
:10066000000000000000000000000000300000005A
:100670000000000000000000000E003870000000C4
:100680000000000000000000000E003870000000B4
:100690000000000000200000000E00387000000084
:1006A0000000000000000000000C00387000000096
:1006B000000000808F379E8F070C06387000000006
:1006C00000000080402083C8060C0E387000000037
:1006D0000000008040208148040C0E3870000000AB
:1006E00000000080C7239F4F000C0E3870000000F0
:1006F000000000800026904F000C0E38703800007B
:100700000000008000269848000C0E387038000069
:1007100000000080CF238F48000C0E387038000096
:100720000000000000000000000C0E3870380000CF
:100730000000000000000000000C0E3870380000BF
:100740000000000000000000000C06380038000027
:100750000000000000000000000C06380038000017
:100760000000000000000000000E06380038000005
:100770000000000000000000000E071C0018000030
:100780000000000000000000000E071C0018000020
:100790000000000000000000000E071C0018000010
:1007A000000000000000000000060700001C000020
:1007B000000000000000000000060700001C000010
:1007C000000000000000000000070300001C000003
:1007D000000000000000000000870300001C000073
:1007E000000000000000000000830300001C000067
:1007F000000000000000000080830300001C0000D7
:10080000000000000000000080C3010000000000A4
:10081000000000000000000000C001000000000017
:10082000000000000000000000C001000000000007
:10083000000000000000000000E0000000000000D8
:10084000000000000000000000E0000000000000C8
:10085000000000000000000000E0000000000000B8
:100860000000000000000000007000000000000018
:100870000000000000000000004000000000000038
:100880000000000000000000000000000000000068
:100890000000000000000000000000000000000058
:1008A0000000000000000000000000000000000048
:1008B0000000000000000000000000000000000038
:1008C000000000000000000000FE3F0000000000EB
:1008D0000000000000000000E000C0010000000077
:1008E00000000000000000001800010E00000000E1
:1008F000000000000000000086FE11300000000033
:10090000000000000000008081FB59C000000000D2
:100910000000000000000060F840F48301000000C7
:100920000000000000000030CC00000D02000000BC
:1009300000000000000000081900001E0C0000006C
:10094000000000000000008403FE3F40180000008B
:100950000000000000000062C101C0E031000000A2
:1009600000000000000000E130C000432300000050
:1009700000000000000080200C4E390C46000000F2
:10098000000000000000C018262A25118E0000007B
:1009900000000000000040147132A7231001000085
:1009A000000000000000208C9012E0C2080100004E
:1009B0000000000000003046100160823402000098
:1009C00000000000000010242FFC0F3A0106000078
:1009D0000000000000001830390330260204000037
:1009E0000000000000000810C280C02004040000C5
:1009F00000000000000008086680001104080000E4
:100A000000000000000004E833C000F20908000004
:100A1000000000000000642418C0000489110000D8
:100A2000000000000000E44408400188D1110000EB
:100A3000000000000000E28204A0014890110000C4
:100A400000000000000002F204A002D01710000015
:100A50000030E6FF0603020A02D002102400000064
:100A6000003006068601021AC253F221242000003B
:100A700000300606C600026122540B23232000002A
:100A8000003006066600024141F52BA1202000003F
:100A9000003006063600107941F12B202720000097
:100AA000003006063E007109C1756B202823000046
:100AB000003006067E002109C1E4B3212C2300008A
:100AC00000300606E6003061C1A5F1A12323000035
:100AD00000300606C6017241C12571A12124000023
:100AE0000030060686015232422769212221000089
:100AF000003006060603620A42188610A421000090
:100B000000300606060622FA820080909713000045
:100B100000000000000062828401405010130000B9
:100B2000000000000000A2C40403308890110000FF
:100B3000000000000000446408FC0F04C91100001C
:100B4000000000000000C4241320023689080000C1
:100B500000000000000004C8242002D3090800009F
:100B6000000000000000081842E08311E4080000C3
:100B70000000000000000812930160204204000001
:100B80000000000000001023390E382E020400007F
:100B9000000000000000104326F0073201020000B0
:100BA00000000000000020CE9003608208020000D8
:100BB000000000000000209CD132A3421001000080
:100BC000000000000000402C632A25238400000060
:100BD0000000000000008050042A2D9887000000CB
:100BE00000000000000000A118C619064200000025
:100BF00000000000000000436180808121000000AF
:100C00000000000000000086860770B81000000099
:100C1000000000000000000C1DF80F6C0800000030
:100C200000000000000000181400001F0400000075
:100C300000000000000000201816FC030300000064
:100C400000000000000000C0001D958000000000B2
:100C50000000000000000000030E2D6000000000F6
:100C600000000000000000000E000018000000005E
:100C7000000000000000000030000007000000003D
:100C80000000000000000000C007F00000000000AD
:100C90000000000000000000000000000000000054
:100CA0000000000000000000000000000000000044
:100CB0000000000000000000000000000000000034
:100CC0000000000000000000000000000000000024
:100CD0000000000000000000000000000000000014
:100CE0000000000000000000000000000000000004
:100CF00000000000000000000000000000000000F4
:100D000000000000000000000000000000000000E3
:100D100000000000000000000000000000000000D3
:100D200000000000000000000000000000000000C3
:100D300000000000000000000000000000000000B3
:100D400000000000000000000000000000000000A3
:100D50000000000000000000000000000000000093
:100D60000000000000000000000000000000000083
:100D70000000000000000000000000000000000073
:100D80000000000000000000000000000000000063
:100D90000000000000000000000000000000000053
:100DA00000E0FFFFFF7F00000000000000000000E7
:100DB00000E0FFFFFF7F00000000000000000000D7
:100DC00000E0FFFFFF7F00000000000000000000C7
:100DD00000E0FFFFFF7F00000000000000000000B7
:100DE00000E0FFFFFF7F00000000000000000000A7
:100DF00000E0FFFFFF7F0000000000000000000097
:100E000000E0FFBFFF7F00000000000000000000C6
:100E100000E0FF9FFF7F800FF0F9009E0FF00000C1
:100E200000E0FF8FFD7F800FF0F9009F0FF00000C2
:100E300000E0FF85FC7F801FF0F1818F0FF0000044
:100E400000E0FF44F87F803FF0E183870FF000006F
:100E500000E0FF22EC7F807FF0E1C3870FF000000D
:100E600000E07F22F27F807FF0C1C7830FF0000097
:100E700000E07F92F17F80FFF081E7830FF00000B8
:100E800000E07FD2F07F80FFF181FF810FF0000052
:100E900000E07F52F87F80EFF301FF800FF0000049
:100EA00000E0FF34FC7F80EFF301FE800FF00000D4
:100EB00000E0FF3BFF7F80CFF7017E800FF0000056
:100EC00000E0FF87FF7F808FFF013C800FF0000074
:100ED00000E0FF87FF7F800FFF013C000FF0000064
:100EE00000E0FFFFFF7F800FFF013C000FF00000DC
:100EF00000E0FFCFFF7F800FFE013C001FF80000E5
:100F000000E0FFCFFF7F800FFC013C003F7C000032
:100F100000E0FFCFFF7F800FF8013C00FE7F000064
:100F200000E0FFCFFF7F800FF8013C00FC3F000096
:100F300000E0FFCFFF7F800FF0013C00F81F0000B2
:100F400000E0FFCFFF7F000000000000E003000092
:100F500000E0FFCFFF7F0000000000000000000065
:100F600000E0FFEFFF7F0000000000000000000035
:100F700000E0FFEFFF7F0000000000000000000025
:100F800000E0FFFFFF7F0000000000000000000005
:100F900000E0FFFFFF7F00000000000000000000F5
:100FA00000E0FFFFFF7F00000000000000000000E5
:100FB00000E0FFFFFF7F00000000000000000000D5
:100FC0000000000000000000000000000000000021
:100FD0000000000000000000000000000000000011
:100FE0000000000000000000000000000000000001
:100FF00000000000000000000000000000000000F1
:1010000000000000000000000000000000000000E0
:1010100000000000000000000000000000000000D0
:1010200000000000000000000000000000000000C0
:1010300000000000000000000000000000000000B0
:1010400000000000000000000000000000000000A0
:101050000000000000000000000000000000000090
:101060000000000000000000000000000000000080
:101070000000000000000000000000000000000070
:101080000000000000000000000000000000000060
:101090000000000000000000000000000000000050
:1010A0000000000000000000000000000000000040
:1010B0000000000000000000000000000000000030
:1010C0000000000000000000000000000000000020
:1010D0000000000000000000000000000000000010
:1010E0000000000000E00F00000000000000000011
:1010F0000000000000F0FF070000000000000000FA
:10110000000000000030C27E00000000000000006F
:1011100000000000003042E001000000000000007C
:10112000000000000030420807000000000000003E
:1011300000000000003042081A000000000000001B
:101140000000000000F87F047100000000000000B3
:101150000000000000FEFF87C1000000000000004A
:1011600000000000000FE09FC00100000000000030
:1011700000000000000700FC200600000000000046
:1011800000000000000E00E0130C00000000000052
:1011900000000000001C00800F180000000000008C
:1011A00000000000001800001E1C000000000000ED
:1011B00000000000003801003C3600000000000084
:1011C0000000000000B8020078630000000000008A
:1011D0000000000000B00400E0C1000000000000BA
:1011E0000000000000300400C0810000000000008A
:1011F000000000000030040080C301000000000077
:101200000000000000300300802301000000000007
:101210000000000000300000000F0300000000008C
:101220000000000000700000000E0200000000003E
:101230000000000000700000000E0600000000002A
:101240000000000000700003001C0400000000000B
:101250000000000000708007001C04000000000077
:10126000000000000060C007001807000000000038
:10127000000000000060E00600F80D000000000023
:10128000000000000060700E003008000000000048
:10129000000000000060300C00300800000000007A
:1012A000000000000060380E003008000000000060
:1012B0000000000000701806007018000000000018
:1012C0000000000000701C06007018000000000004
:1012D0000000000000700C07006018000000000013
:1012E0000000000000F08F0300E01F00000000007D
:1012F0000000000000F0CF010060100000000000BE
:10130000000000000000E00100601000000000008C
:1013100000000000000060000060100000000000FD
:1013200000000000000070000060100000000000DD
:101330000000000000003800006010000000000005
:10134000000000000000180000E011000000000094
:101350000000000000001C0000601F0000000000F2
:101360000000000000000C000060180000000000F9
:10137000000000000000FEFFFF7F000000000000F2
:10138000000000000000FCFFFF3F00000000000024
:10139000000000000000000000000000000000004D
:1013A000000000000000FEFFFF7F000000000000C2
:1013B00000000000000002000060000000000000CB
:1013C00000000000000002000060000000000000BB
:1013D000000000000000E203E063000000000000E5
:1013E0000000000000003EFE3F7E00000000000004
:1013F0000000000000001EF81F3C0000000000007C
:10140000000000000000C819C8090000000000002A
:10141000000000000000481B4C0900000000000014
:10142000000000000000E819CC09000000000000E6
:10143000000000000000180808080000000000007C
:10144000000000000000100C180C0000000000005C
:10145000000000000000E007F007000000000000AE
:101460000000000000008001C0010000000000003A
:10147000000000000000000000000000000000006C
:10148000000000000000000000000000000000005C
:10149000000000000000000000000000000000004C
:1014A000FFE0FFD1AFFF32FFD0FFFEFFE0FFD1AE84
:1014B000FFD0FFFEFFE0FFD11000FFFEFFD0FFE0F6
:1014C000FFC1FFD1AED580A83FD300408D142000CE
:1014D000A1C8DA1281CFD9F1DB402EA4A6AFFFD08C
:1014E000FFFE00101000FE0A06A7089500FFFE0E82
:1014F000FE0BFE1010201000FEAAAA0001800000C2
:101500000180004A51EA505A51C99E0001800000F2
:101510000180000001800055551010201000FEAA27
:10152000AA00018000000180003993C252325F8A14
:101530005271938000000180000001800055551019
:1015400010201000FEAAAA00018000000180003BCC
:10155000A5C1243119892471258000000180000073
:1015600001800055551010201000FEAAAA0001802D
:1015700000000180007BA5C1247919C12479258050
:10158000000001800000018000555510102010005F
:10159000FEAAAA000180000001800079BFC2487A3B
:1015A00049C248798980000001800000018000550F
:1015B000551010201000FEAAAA0001800000018032
:1015C000007A4DC2527B53C2D67A4F800000018010
:1015D000000001800055551010201000FEAAAA003E
:1015E0000180000001800031A5CA287A31CA28494B
:1015F000A5800000018000000180005555101020DA
:101600001000FEAAAA000180000001800073D1CA68
:101610001073D1CA1073DF800000018000000180C8
:101620000055551010201000FEAAAA0001800000ED
:101630000180001E3991401E3191081E718000000A
:101640000180000001800055551010201000FEAAF6
:10165000AA000180000001800022F9A2203E21A200
:1016600020222180000001800000018000555510DB
:1016700010201000FEAAAA000180000001800020B6
:10168000F9A08020F9A0803E818000000180000048
:1016900001800055551010201000FEAAAA000180FC
:1016A000000001800022F9A220222194200821803C
:1016B000000001800000018000555510102010002E
:1016C000FEAAAA00018000000180003EF9A0803E31
:1016D000F9A0802081800000018000000180005579
:1016E000551010201000FEAAAA0001800000018001
:1016F000001EF1A08820F1A0901E898000000180CA
:10170000000001800055551010201000FEAAAA000C
:10171000018000000180001E71A0881C8982883C25
:1017200071800000018000000180005555101020DC
:101730001000FEAAAA00018000000180001EF9A08E
:10174000201C2182203CF9800000018000000180E3
:101750000055551010201000FEAAAA0001800000BC
:10176000018000391DA510251DA51039DD80000060
:101770000180000001800055551010201000FEAAC5
:10178000AA00018000000180007189CA184A09CAB4
:1017900008719D80000001800000018000555510F7
:1017A00010201000FEAAAA00018000000180007134
:1017B00099CA044A09CA10719D8000000180000086
:1017C00001800055551010201000FEAAAA000180CB
:1017D00000000180007199CA044A19CA04719980F5
:1017E00000000180000001800055551010201000FD
:1017F000FEAAAA00018000000180007185CA0C4A7F
:1018000015CA1C7185800000018000000180005510
:10181000551010201000FEAAAA00018000000180CF
:10182000004993EA546A59DBD44A5380000001808E
:10183000000001800055551010201000FEAAAA00DB
:10184000018000000180003453C29A31178912715F
:101850001380000001800000018000555510102009
:101860001000FEAAAA00018000000180007BB9C11F
:10187000247939C124793980000001800000018079
:101880000055551010201000FEAAAA00018000008B
:101890000180003325C4B447ADC4A434A580000042
:1018A0000180000001800055551010201000FEAA94
:1018B000AA00018000000180003E89A0D83EA9A0B6
:1018C000883E89800000018000000180005555108D
:1018D00010201000FEAAAA00018000000180003A3A
:1018E0005DC252325D8A52719D800000018000000D
:1018F00001800055551010201000FEAAAA0001809A
:10190000000001800079CFC2107991C0507B8F8098
:1019100000000180000001800055551010201000CB
:10192000FEAAAA00018000000180001E7190801EA6
:1019300061901010E18000000180000001800055DE
:10194000551010201000FEAAAA000180000001809E
:10195000000E719080166192100EE18000000180EF
:10196000000001800055551010201000FEAAAA00AA
:10197000018000000180001C7192801C6194101293
:10198000E18000000180000001800055551010200A
:101990001000FEAAAA0001800000018000127192CE
:1019A00080126192100CE180000001800000018033
:1019B00000555500000008000E010A0A08040080C6
:1019C0008080808080800080800504040802088870
:1019D000888888060A0A080100242424FC4848FC58
:1019E000909090070A0A080100107C9290701C12D7
:1019F000927C10070A0A0801006294946810102C67
:101A000052528C070A0A0801003844442830528A8E
:101A1000848C7201040408040880808080030C0C0C
:101A20000803FF2040408080808080804040200369
:101A30000C0C0802FF804040202020202020404045
:101A400080070707080101109254385492100707C5
:101A500007080101101010FE101010020404080302
:101A6000FEC0404080040101080204F002020208A6
:101A70000300C0C0060A0A08010004040810102070
:101A800020408080060A0A0801003048848484844B
:101A900084844830050A0A0802002060A020202023
:101AA000202020F8060A0A080100788484041820FF
:101AB000408080FC060A0A08010078848404380407
:101AC00004848478060A0A080100081828488888CF
:101AD000FC080808060A0A080100FC808080F80457
:101AE00004048478060A0A08010038408080F884DB
:101AF00084848478060A0A080100FC0404080808A3
:101B000010101010060A0A08010078848484788472
:101B100084848478060A0A080100788484847C041A
:101B200004040870020707080301C0C0000000C0D9
:101B3000C00209090803FFC0C0000000C040408087
:101B400005090908020008102040804020100806FE
:101B50000505080102FC000000FC05090908010058
:101B6000804020100810204080060A0A08010078F2
:101B7000848404081010001010060A0A08010038B6
:101B80004494ACA4A4A49C403C060A0A080100307A
:101B900048488484FC84848484060A0A080100F886
:101BA000848484F884848484F8060A0A080100780E
:101BB000848480808080848478060A0A080100F08A
:101BC0008884848484848488F0060A0A080100FCDE
:101BD000808080F880808080FC060A0A080100FC72
:101BE000808080F88080808080060A0A0801007862
:101BF000848480809C84848C74060A0A0801008492
:101C0000848484FC8484848484050A0A080200F89D
:101C10002020202020202020F8070A0A0801003E6A
:101C2000080808080808888870060A0A080100845D
:101C30008890A0C0C0A0908884060A0A080100808D
:101C40008080808080808080FC060A0A08010084F1
:101C500084CCCCB4B484848484060A0A0801008449
:101C6000C4C4A4A494948C8C84060A0A0801007845
:101C7000848484848484848478060A0A080100F8B1
:101C8000848484F88080808080070B0B0801FF78B3
:101C9000848484848484B4CC7806060A0A0801000B
:101CA000F8848484F89088888484060A0A080100ED
:101CB00078848480601804848478070A0A08010004
:101CC000FE101010101010101010060A0A08010063
:101CD00084848484848484848478070A0A080100C4
:101CE00082828244444428281010060A0A0801000F
:101CF00084848484B4B4CCCC8484060A0A080100A9
:101D000084844848303048488484070A0A0801001F
:101D100082824444281010101010060A0A0801009C
:101D2000FC0404081020408080FC030C0C0804FF15
:101D3000E080808080808080808080E0060A0A08C1
:101D4000010080804020201010080404030C0C08BF
:101D500001FFE020202020202020202020E006037A
:101D6000030801093048840701010801FFFE03034D
:101D70000308020A8040200608080801007884044D
:101D80007C84848C74060B0B080100808080B8C4AE
:101D900084848484C4B8060808080100788480809C
:101DA00080808478060B0B080100040404748C8482
:101DB0008484848C74060808080100788484FC807C
:101DC000808478050B0B08010018202020F82020C3
:101DD00020202020060B0B0801FE047488888870E0
:101DE0004078848478060B0B080100808080B8C49A
:101DF000848484848484050B0B0802002020006006
:101E0000202020202020F8050D0D0801FE080800E4
:101E100018080808080808089060060B0B0801005D
:101E20008080808890A0C0A0908884050B0B080259
:101E30000060202020202020202020F8070808080B
:101E40000100EC9292929292929206080808010088
:101E5000B8C48484848484840608080801007884D3
:101E6000848484848478060A0A0801FEB8C48484C1
:101E70008484C4B88080060A0A0801FE748C8484B5
:101E800084848C740404060808080100B8C48480A3
:101E9000808080800608080801007884806018042B
:101EA0008478050A0A080100202020F8202020203C
:101EB00020180608080801008484848484848C74B3
:101EC0000608080801008484844848483030070820
:101ED00008080100829292929292926C0608080879
:101EE00001008484483030488484060A0A0801FED0
:101EF00084848484844C340404780608080801002F
:101F0000FC040810204080FC030C0C0803FF6080D8
:101F100080404080804040808060010E0E0804FEBA
:101F20008080808080808080808080808080030CA2
:101F30000C0802FFC020204040202040402020C04C
:101F400007030308010862928C1010201000FEAAFB
:101F5000AA000180000001800073D1CA104BD1CAD1
:101F60001073DF80000001800000018000555510D3
:101F700010201000FEAAAA0001800000018000715C
:101F80009DCA5273D3C252425D800000018000009E
:101F900001800055551010201000FEAAAA000180F3
:101FA0000000018000499DCA527A5DCA5049918063
:101FB0000000018000000180005555101020100025
:101FC000FEAAAA00018000000180007393CA527328
:101FD0009FCA12721380000001800000018000552A
:101FE000551010201000FEAAAA00018000000180F8
:101FF000004B93EA525B9FCA524B938000000180D2
:10200000000001800055551010201000FEAAAA0003
:102010000180000001800074B9A6A425A5A4A474C1
:10202000B98000000180000001800055551010208B
:102030001000FEAAAA00018000000180004BD1EA36
:10204000105BD1CA104BDF800000018000000180CE
:102050000055551010201000FEAAAA0001800000B3
:1020600001800039CDC212319F88527393800000E5
:102070000180000001800055551010201000FEAABC
:10208000AA000180000001800079CDC212799FC0B2
:10209000527B9380000001800000018000555510A4
:1020A00010201000FEAAAA00018000000180004B51
:1020B0009DC9207919C904493980000001800000B8
:1020C00001800055551010201000FEAAAA000180C2
:1020D000000001800025DDA4843C85A4842499802F
:1020E00000000180000001800055551010201000F4
:1020F000FEAAAA000180000001800045CDC49044E2
:1021000089A884109980000001800000018000559A
:10211000551010201000FEAAAA00018000000180C6
:1021200000721DCA127213C21243DD8000000180CA
:10213000000001800055551010201000FEAAAA00D2
:10214000018000000180007213CA127213C2124390
:10215000CD80000001800000018000555510102046
:102160001000FEAAAA00018000000180000E218953
:10217000200E218A200921800000018000000180BA
:102180000055551010201000FEAAAA000180000082
:1021900001800039DDC202318D8850739F800000BC
:1021A0000180000001800055551010201000FEAA8B
:1021B000AA000180000001800039DDC202318D8853
:1021C00042739D8000000180000001800055551081
:1021D00010201000FEAAAA000180000001800071FA
:1021E000CFCA104A0DCA0271DD80000001800000D4
:1021F00001800055551010201000FEAAAA00018091
:1022000000000180007245CA4C7245C244418F8073
:1022100000000180000001800055551010201000C2
:10222000FEAAAA0001800000018000725DCA42720D
:102230004DC250419F800000018000000180005588
:10224000551010201000FEAAAA0001800000018095
:10225000003B9DC120311989047139800000018043
:10226000000001800055551010201000FEAAAA00A1
:102270000180000001800039D3C212421FC212390E
:10228000D38000000180000001800055551010200F
:102290001000FEAAAA00018000000180002289B679
:1022A000882AA9A2D822898000000180000001802C
:1022B0000055551010201000FEAAAA000180000051
:1022C0000180003B8DC252339F8A1272138000003E
:1022D0000180000001800055551010201000FEAA5A
:1022E000AA00018000000180007B8DC2527B9FC24A
:1022F000127A138000000180000001800055551003
:1023000010201000FEAAAA00018000000180003900
:102310008FC250324D8A42719D80000001800000C2
:1023200001800055551010201000FEAAAA0001805F
:102330000000018000339BC42225A394A2639B80EC
:102340000000018000000180005555101020100091
:10235000FEAAAA000180000001800039DDC2083217
:10236000098A0871DD8000000180000001800055AD
:10237000551010201000FEAAAA0001800000018064
:102380000039DDC2084189C0483B9D8000000180C2
:10239000000001800055551010201000FEAAAA0070
:1023A000018000000180000EF990200C2182201C89
:1023B0002180000001800000018000555510102090
:1023C0001000FEAAAA000180000001800031CFCADF
:1023D000104991C850338F800000018000000180B7
:1023E0000055551010201000FEAAAA000180000020
:1023F0000180001C8992D81CA99088108980000057
:102400000180000001800055551010201000FEAA28
:10241000AA0001800000018000338FCA507B91CA5E
:10242000104A0F8000000180000001800055550017
:10243000000008000E010A0A080400808000808065
:102440008080808080070A0A08010010107C92902A
:1024500090927C1010070A0A0801001C202020F826
:102460002020207CC20608080801018448784848DA
:10247000784884070A0A08010082442810FE10FEEA
:10248000101010010A0A080400808080800000807B
:10249000808080060A0A0801007884807884847825
:1024A00004847804020208020C9090080A0A0800CA
:1024B000003C4299A5A1A1A599423C050707080245
:1024C00005700878887800F80609090801002424B6
:1024D00048489048482424060404080100FC0404E9
:1024E000041010201000FEAAAA000180003A63C266
:1024F0005433C98A48724980000001800003C180BA
:1025000000000180005555080A0A0800003C42B945
:10251000A5A5B9A9A5423C06010108010BFC0304CD
:102520000408020A40A0A040070909080101101090
:1025300010FE10101000FE0507070802057088083D
:10254000708080F805070708020570880870088801
:102550007003030308030A204080080A0A0800FEEB
:1025600042424242424266594080060C0C0801FF3A
:102570007CF4F4F4F47414141414141C020202080D
:102580000304C0C00302020802FE20C003070708BC
:1025900002052060A0202020200507070802057002
:1025A0008888887000F8060909080100909048485A
:1025B0002448489090060A0A08010044C448505034
:1025C000242C549C84060A0A08010044C448505034
:1025D000283444889C060A0A080100C4244830D0E4
:1025E000242C549C84060A0A0801001010001010C4
:1025F0006084848478060E0E0801006018000030A4
:1026000048488484FC84848484060E0E08010018E3
:102610006000003048488484FC84848484060E0E64
:10262000080100304800003048488484FC848484D9
:1026300084060E0E08010064980000304848848427
:10264000FC84848484060E0E080100484800003093
:1026500048488484FC84848484060E0E080100307B
:102660004830003048488484FC84848484070A0A03
:102670000801003E509090FE909090909E060C0CA9
:102680000801FE78848480808080848478106006CD
:102690000E0E08010060180000FC808080F8808029
:1026A0008080FC060E0E08010018600000FC80808F
:1026B00080F880808080FC060E0E08010030480003
:1026C00000FC808080F880808080FC060E0E08016F
:1026D0000048480000FC808080F880808080FC05F5
:1026E0000E0E08020060180000F820202020202094
:1026F0002020F8050E0E08020030C00000F820204F
:10270000202020202020F8050E0E080200609000F6
:1027100000F82020202020202020F8050E0E08029E
:102720000090900000F82020202020202020F80792
:102730000A0A08000078444242F2424242447806C3
:102740000E0E0801006498000084C4C4A4A49494EC
:102750008C8C84060E0E08010060180000788484BA
:1027600084848484848478060E0E08010018600036
:102770000078848484848484848478060E0E08011E
:1027800000304800007884848484848484847806BB
:102790000E0E080100649800007884848484848488
:1027A000848478060E0E080100484800007884846E
:1027B0008484848484847806050508010284483072
:1027C0004884060C0C0801FF0474888C9494A4A41B
:1027D000C444B880060E0E0801006018000084840E
:1027E0008484848484848478060E0E080100186032
:1027F000000084848484848484848478060E0E0893
:102800000100304800008484848484848484847833
:10281000060E0E08010048480000848484848484E5
:1028200084848478070E0E080100186000008282FC
:102830004444281010101010060B0B080100808073
:10284000F088848488F0808080060A0A080100707D
:10285000888890B0888484A498060C0C08010060D5
:102860001800007884047C84848C74060C0C0801A5
:1028700000186000007884047C84848C74060C0C3E
:10288000080100304800007884047C84848C74063D
:102890000C0C080100649800007884047C84848C0B
:1028A00074060C0C080100484800007884047C84FD
:1028B000848C74060D0D08010030483000007884C7
:1028C000047C84848C740708080801007C92127EC2
:1028D0009090927C060A0A0801FE788480808080AD
:1028E00084781060060C0C080100601800007884E1
:1028F00084FC80808478060C0C08010018600000BD
:10290000788484FC80808478060C0C0801003048B0
:102910000000788484FC80808478060C0C08010018
:1029200048480000788484FC80808478050C0C087A
:102930000200C030000060202020202020F8050C7C
:102940000C08020030C0000060202020202020F869
:10295000050C0C0802006090000060202020202060
:1029600020F8050C0C080200909000006020202048
:10297000202020F8060C0C08010064182844047C70
:10298000848484848478060C0C0801006498000018
:10299000B8C4848484848484060C0C080100601804
:1029A00000007884848484848478060C0C080100F8
:1029B000186000007884848484848478060C0C0871
:1029C0000100304800007884848484848478060C74
:1029D0000C080100649800007884848484848478DE
:1029E000060C0C0801004848000078848484848424
:1029F0008478060707080101300000FC000030065B
:102A00000A0A0801FF04788C9494A4A4C478800670
:102A10000C0C080100601800008484848484848C79
:102A200074060C0C080100186000008484848484FF
:102A3000848C74060C0C08010030480000848484E7
:102A40008484848C74060C0C0801004848000084BF
:102A500084848484848C74060E0E0801FE18600041
:102A60000084848484844C34040478050C0C0802AB
:102A7000FE8080F088888890A0C0808080060E0E3E
:102A80000801FE4848000084848484844C34040493
:102A9000780000000203000A0B0000000005040992
:102AA000080000000000000000000000000000001E
:102AB0000001020408102040800102040810204098
:102AC0008001020408102040800102040810204008
:102AD000800202020202020202040404040404044A
:102AE00004030303030303030301010101010101C3
:102AF00001000020002300260029000000220025FC
:102B00000028002B0000002100240027002A0000DC
:102B1000FD185D20213111241FBECFEFD0E4DEBFB0
:102B2000CDBF12E0A0E0B1E0E8EFFEE600E00BBFB1
:102B300002C007900D92A236B107D9F72DE0A2E6A8
:102B4000B2E001C01D92AE37B207E1F715E1CBE864
:102B5000D5E104C02197FE010E941B35C838D1077A
:102B6000C9F70E943F320C947A370C940000CF933F
:102B7000DF93EC01262F4CAD6BAD04960E94C1266D
:102B80009BAD890F8BAF81E090E0DF91CF910895ED
:102B900061307105D9F01CF4672B41F00895623063
:102BA000710539F16330710559F10895892B69F583
:102BB00080916A0290916B02019660E170E00E9440
:102BC000073590936B0280936A020FC0892BE9F45A
:102BD0008091680290916902019660E170E00E9424
:102BE0000735909369028093680281E08093060123
:102BF0000895892B51F41092670210926602F5CF66
:102C0000892B19F481E080936E020895DC01ED9127
:102C1000FC910190F081E02D0994CF93DF93FC01AA
:102C200025ADEC012496211105C021E025AFCE0190
:102C30000E945528CE01DF91CF910C947A280496FA
:102C40000C94D9261F920F920FB60F9211240BB637
:102C50000F922F933F934F935F936F937F938F9335
:102C60009F93AF93BF93EF93FF9389ED9AE00E94F8
:102C70000B1F89EE9AE00E940B1F89EF9AE00E94D9
:102C80000B1F89E09BE00E940B1FFF91EF91BF910A
:102C9000AF919F918F917F916F915F914F913F91F4
:102CA0002F910F900BBE0F900FBE0F901F90189595
:102CB000CF92DF92EF92FF920F931F93CF93DF9308
:102CC00000D000D000D0CDB7DEB76C017B018A0107
:102CD00062EE74E183E59BE00E94542720E431E03A
:102CE00046E160E08FE49BE00E941F164AE0B601D7
:102CF000CE0101960E94123229813A8146E164E1B7
:102D00008FE49BE00E941F16CE0101960E9478314D
:102D100024E431E046E168E28FE49BE00E941F1664
:102D20004AE0B701CE0101960E94123229813A8110
:102D300046E16CE38FE49BE00E941F16CE010196F2
:102D40000E94783128E431E04AE260E08FE49BE0C1
:102D50000E941F1687E0809FB001819F700D112493
:102D6000655F7E4FCE0101960E94E63129813A814E
:102D70004AE26DE28FE49BE00E941F16CE010196AD
:102D80000E94783126960FB6F894DEBF0FBECDBFF5
:102D9000DF91CF911F910F91FF90EF90DF90CF9037
:102DA000089562EE74E183E59BE00E9454272FE4CE
:102DB00031E046E169E18FE49BE00E941F1629E5BE
:102DC00031E04AE269E18FE49BE00C941F1662EE69
:102DD00074E183E59BE00E94542720E631E04AE25B
:102DE00060E08FE49BE00C941F1662EE74E183E5D3
:102DF0009BE00E9454272AE631E046E16AE08FE436
:102E00009BE00E941F1625E731E04AE26AE08FE46A
:102E10009BE00C941F1662EE74E183E59BE00E9438
:102E200054272FE931E04AE260E08FE49BE00C9404
:102E30001F160F931F93CF93DF9300D000D000D0C5
:102E4000CDB7DEB78C0162EE74E183E59BE00E94B2
:102E500054272CEA31E046E160E08FE49BE00E94D9
:102E60001F160D52110987E0809FB001819F700DE0
:102E70001124655F7E4FCE0101960E94E6312981C3
:102E80003A8146E16DE28FE49BE00E941F16CE017D
:102E900001960E94783122EB31E04AE260E08FE453
:102EA0009BE00E941F16B801660F771F660F771F01
:102EB000695F7E4FCE0101960E94E63129813A81F9
:102EC0004EE360E08FE49BE00E941F16CE01019666
:102ED0000E9478312DEB31E04EE368E28FE49BE015
:102EE0000E941F1626960FB6F894DEBF0FBECDBF08
:102EF000DF91CF911F910F9108950F931F93CF935F
:102F0000DF9300D000D000D0CDB7DEB78C0162EEE9
:102F100074E183E59BE00E9454272CEA31E046E10E
:102F200060E08FE49BE00E941F160D52110987E0BC
:102F3000809FB001819F700D1124655F7E4FCE018F
:102F400001960E94E63129813A8146E16DE28FE4E3
:102F50009BE00E941F16CE0101960E94783124EC5E
:102F600031E04AE260E08FE49BE00E941F16269663
:102F70000FB6F894DEBF0FBECDBFDF91CF911F918A
:102F80000F91089562EE74E183E59BE00E9454275F
:102F900021ED31E046E160E08FE49BE00E941F16E6
:102FA0002DED31E04AE260E08FE49BE00C941F16C7
:102FB000EF92FF920F9380915E0B883211F46FEFC6
:102FC00003C0823031F463E083E59BE00E94A728D0
:102FD0000DC0813011F461E0F7CF803339F42FEF69
:102FE0004FEF6FEF83E59BE00E94AA280E9481309B
:102FF0008FE19BE00E94932B64E070E080E090E022
:103000000E94C9328FE49BE00E940D1640EAE42E34
:1030100040E1F42E00E420E840E060E083E59BE03E
:103020000E947E2283E59BE00E947F288111EECFE3
:103030006CEB72E080E090E00E94C9328FE49BE08C
:103040000E940D1630EAE32E3CE0F32E00E420E867
:1030500040E060E083E59BE00E947E2283E59BE008
:103060000E947F288111EECF6CEB72E080E090E04F
:103070000E94C9328FE49BE00E940D1620EAE22EE6
:1030800020E0F22E00E420E840E060E083E59BE0F1
:103090000E947E2283E59BE00E947F288111EECF73
:1030A0006CEB72E080E090E00E94C9328FE49BE01C
:1030B0000E940D1690EAE92E98E0F92E00E420E82F
:1030C00040E060E083E59BE00E947E2283E59BE098
:1030D0000E947F288111EECF64EF71E080E090E0E4
:1030E0000E94C9328FE49BE00E940D1680EAE82E10
:1030F00084E0F82E00E420E840E060E083E59BE017
:103100000E947E2283E59BE00E947F288111EECF02
:1031100064EF71E080E090E00F91FF90EF900C94ED
:10312000C932DC0120E22D93FC01EF5FFB4F1D92C1
:10313000AE17BF07E1F79C012F5C3B4F1192E217DE
:10314000F307E1F71082FC01EE5CFB4F2FEF2083C9
:103150000895CF93DF938DE89BE00E94CA1F61E042
:1031600085E10E94873361E083E00E94873360E05D
:1031700083E00E94C3338FEF8093190B80931A0B67
:1031800080931B0B80931C0B80931D0B80931E0B55
:103190000E94D817C9EDDAE068EC75E1CE010E9413
:1031A0002E1F60968BE0C931D807B1F7F8941092C2
:1031B000800010928100109285001092840080E2BD
:1031C00093E09093890080938800809181008860CB
:1031D000809381008091810085608093810080913F
:1031E0006F00826080936F00789468EE73E080E0F7
:1031F00090E0DF91CF910C94C9320F931F93CF933E
:10320000DF93CFE4DBE01B821A828BEE91E099839F
:10321000888342E162E371E0CE010E94772283EF6E
:1032200091E09983888342E164E08FE19BE00E9412
:103230006F2A01E010E02AE030E040E050E062E078
:1032400070E089ED9AE00E94B71E02E010E02AE0EB
:1032500030E040E050E060E070E089EE9AE00E94EB
:10326000B71E00E010E02AE030E040E050E061E00E
:1032700070E089EF9AE00E94B71E03E010E02AE0B8
:1032800030E040E050E064E170E089E09BE00E94C3
:10329000B71EDF91CF911F910F910895CF9361E0F9
:1032A00070E08DE89BE00E94DE1F60E070E08DE83A
:1032B0009BE00E94061660E070E08DE89BE00E94B3
:1032C00006168DE89BE00E945A2041E050E061E044
:1032D00070E08DE89BE00E9457208DE89BE00E9403
:1032E000321F892B31F08DE89BE00E943A1FC82FD6
:1032F000F4CF8C2FCF910895CF9361E070E08DE8EB
:103300009BE00E94DE1F63E070E08DE89BE00E947E
:10331000061660E070E08DE89BE00E9406168DE8DE
:103320009BE00E945A2041E050E061E070E08DE8AF
:103330009BE00E9457208DE89BE00E94321F892B62
:1033400031F08DE89BE00E943A1FC82FF4CF8C2FFC
:10335000CF910895CF9361E070E08DE89BE00E94EB
:10336000DE1F61E070E08DE89BE00E94061660E0E1
:1033700070E08DE89BE00E9406168DE89BE00E94BD
:103380005A2041E050E061E070E08DE89BE00E944F
:1033900057208DE89BE00E94321F892B31F08DE889
:1033A0009BE00E943A1FC82FF4CF8C2FCF91089535
:1033B0000F931F93CF93DF9361E070E08DE89BE064
:1033C0000E94DE1F61E070E08DE89BE00E9406161F
:1033D00061E070E08DE89BE00E9406168DE89BE0BE
:1033E0000E945A206AE070E080E090E00E94C932BA
:1033F00040E250E061E070E08DE89BE00E945720E1
:10340000CFE2DBE08E018DE89BE00E94321F892B2A
:1034100009F053C080914E0B082E000C990B8D972C
:1034200025E0880F991F2A95E1F720E030E05991B7
:10343000F901E80FF91FEE5EFE4F40812F5F3F4F0D
:103440002F31310519F0541326C0F1CF541323C086
:1034500061E083E00E94C3338FE49BE00E940D167D
:1034600080914E0B082E000C990B0E94191783E5D2
:103470009BE00E947F288111F3CF60ED77E080E030
:1034800090E00E94C93260E083E0DF91CF911F910C
:103490000F910C94C3338FE49BE00E940D16809132
:1034A0004E0B082E000C990B0E947D1783E59BE0C4
:1034B0000E947F288111F3CFE0CF8DE89BE00E942E
:1034C0003A1FF80181938F019ECFEF92FF920F93E5
:1034D0001F93CF93DF9380E780936F0200E712E0A2
:1034E000C1E0D0E061E070E08DE89BE00E94DE1F6B
:1034F00060E070E08DE89BE00E940616BE018DE85A
:103500009BE00E9406168DE89BE00E945A206AE02C
:1035100070E080E090E00E94C93240E250E061E05B
:1035200070E08DE89BE00E94572078018DE89BE0D9
:103530000E94321F892B41F08DE89BE00E943A1FC8
:10354000F70181937F01F2CF2196005E1F4FC132B8
:10355000D10541F661E070E08DE89BE00E94DE1F3E
:1035600060E070E08DE89BE00E94061661E270E08A
:103570008DE89BE00E9406168DE89BE00E945A2091
:1035800042E050E061E070E08DE89BE00E9457204F
:10359000C0E0D0E08DE89BE00E94321F892B79F0DB
:1035A0008DE89BE0209729F40E943A1F8093A006A3
:1035B00004C00E943A1F8093A1062196EBCFDF91B1
:1035C000CF911F910F91FF90EF9008950F931F934C
:1035D000CF93DF9381E680936F0261E070E08DE826
:1035E0009BE00E94DE1F63E070E08DE89BE00E949C
:1035F000061661E070E08DE89BE00E9406168DE8FB
:103600009BE00E945A206AE070E080E090E00E9417
:10361000C93240E250E061E070E08DE89BE00E943A
:10362000572000E716E0C0E0D0E08DE89BE00E9464
:10363000321F892B49F08DE89BE00E943A1FF80168
:1036400081938F012196F1CF61E070E08DE89BE0DE
:103650000E94DE1F63E070E08DE89BE00E9406168A
:1036600062E070E08DE89BE00E9406168DE89BE02A
:103670000E945A206AE070E080E090E00E94C93227
:1036800040E150E061E070E08DE89BE00E9457204F
:10369000C059D94F8DE89BE00E94321F892B31F031
:1036A0008DE89BE00E943A1F8993F4CF81E08093DC
:1036B0006C02DF91CF911F910F9108958F929F928D
:1036C000AF92BF92CF92DF92EF92FF920F931F9330
:1036D000CF93DF9380916A0290916B0224E0880F70
:1036E000991F2A95E1F7909168029F70892B80932A
:1036F000D30A80916602835D8093D40A61E070E012
:103700008DE89BE00E94DE1F61E070E08DE89BE0A9
:103710000E94061660E070E08DE89BE00E940616AD
:1037200063E670E08DE89BE00E9406168DE89BE062
:103730000E945A20C0E0D0E001E010E032EAC32E3F
:1037400036E0D32E61E070E08DE89BE00E94DE1F42
:1037500061E070E08DE89BE00E940616B8018DE8FC
:103760009BE00E9406167601EC1AFD0ACF312CEF81
:10377000D20724F44E018CEF981A03C08EE1882EF4
:10378000912C5601AC1ABD0AC7018A199B09EFEFAB
:10379000EE1AFE0A881599053CF4F70160818DE860
:1037A0009BE00E948B1FF0CF8DE89BE00E945A2087
:1037B0000F5F1F4F6E970432110521F661E070E034
:1037C0008DE89BE00E94DE1F61E070E08DE89BE0E9
:1037D0000E94061664E270E08DE89BE00E940616E7
:1037E00003EA1AE0C1ECDAE0F80161918F018DE89B
:1037F0009BE00E948B1FFAE0013C1F07A9F78DE8B0
:103800009BE00E945A2061E070E08DE89BE00E94FE
:10381000DE1F61E070E08DE89BE00E94061665E225
:1038200070E08DE89BE00E94061669918DE89BE0B0
:103830000E948B1F2AE0C33DD207B9F78DE89BE0B9
:103840000E945A2061E070E08DE89BE00E94DE1F3C
:1038500061E070E08DE89BE00E94061666E270E091
:103860008DE89BE00E9406166091D30A8DE89BE0EC
:103870000E948B1F6091D40A8DE89BE00E948B1FF1
:103880008DE89BE0DF91CF911F910F91FF90EF901A
:10389000DF90CF90BF90AF909F908F900C945A2064
:1038A0003F924F925F926F927F928F929F92AF92D0
:1038B000BF92CF92DF92EF92FF920F931F93CF931D
:1038C000DF93CDB7DEB763970FB6F894DEBF0FBEB8
:1038D000CDBF60E085E10E94C33382E18B8B8FE135
:1038E0009BE00E942F2F882309F486C08FE19BE084
:1038F0000E94D829882309F47FC061E085E10E94F5
:10390000C33382EA96E00E949118C12CD12CE12C9D
:10391000F12C332433942E0181E1480E511C01E235
:103920001BE029E13BE043E04E0D60E68FE19BE0C8
:103930000E94A42F81113AC08701A12CB12C37011C
:1039400082E0680E711C46018FEF881A980A601693
:10395000710604F19E012D5E3F4FAE014F5F5F4F38
:10396000602F8FE19BE00E940330811112C0DE01C5
:103970001196F401EA0DFB1DEE55F94F8D918193DF
:103980004A165B06D9F70F5F1F4F80E1A80EB11CE6
:10399000DECF312C84E0E80EF11C80E4C80ED11C8F
:1039A00080E4E816F10409F0BACF01C0312C8FE1B0
:1039B0009BE00E94612F8FE19BE00E94FF2F60E05F
:1039C00085E10E94C3338FE49BE00E940D163320F3
:1039D00019F00E940B1702C00E94E71683E59BE0D6
:1039E0000E947F288111F3CF6EEE72E080E090E0BC
:1039F0000E94C932832D01C080E063960FB6F8940F
:103A0000DEBF0FBECDBFDF91CF911F910F91FF9011
:103A1000EF90DF90CF90BF90AF909F908F907F906E
:103A20006F905F904F903F9008953F924F925F92BA
:103A30006F927F928F929F92AF92BF92CF92DF92BE
:103A4000EF92FF920F931F93CF93DF93CDB7DEB723
:103A500060970FB6F894DEBF0FBECDBF60E085E182
:103A60000E94C3338FE19BE00E942F2F882309F42B
:103A700084C08FE19BE00E94D829882309F47DC08F
:103A800061E085E10E94C33380912C0B0E94763067
:103A900080E4C82ED12C94E0E92EF12C3324339409
:103AA0002E0181E1480E511C01E21BE029E13BE0BF
:103AB00043E04E0D60E68FE19BE00E94A42F811150
:103AC00036C08701A12CB12C370192E0690E711C20
:103AD00046018FEF881A980A60167106E4F0D40147
:103AE000AA0DBB1DA159BD4FFE013196AF018D91AD
:103AF00081934E165F06D9F720E1602F8FE19BE09E
:103B00000E94453090E1A90EB11C811103C00F5FE6
:103B10001F4FE2CF312C84E0E80EF11C90E4C90E77
:103B2000D11C80E4E816F10409F0BECF01C0312CAD
:103B30008FE19BE00E94612F8FE19BE00E94FF2FAD
:103B400060E085E10E94C3338FE49BE00E940D1684
:103B5000332019F00E940B1702C00E94E71683E57C
:103B60009BE00E947F288111F3CF6EEE72E080E02F
:103B700090E00E94C932832D01C080E060960FB6AC
:103B8000F894DEBF0FBECDBFDF91CF911F910F9193
:103B9000FF90EF90DF90CF90BF90AF909F908F906D
:103BA0007F906F905F904F903F900895CF93DF93F9
:103BB0008091620290916302892BD9F50E944E197F
:103BC000803771F48FE692E00E9491180E94651A86
:103BD00081E080936D0210926502109264020AC027
:103BE0000E947C19813631F482EA96E00E94911895
:103BF0000E94E61A81E090E02091D70A3091D80A1D
:103C0000232B11F080E090E09093D80A8093D70A9C
:103C100061E08091D50A9091D60A892B09F060E085
:103C2000862F90E09093D60A8093D50A85E10E9472
:103C3000C33380916E02882309F444C08FE49BE073
:103C40000E940D160E94C21783E59BE00E947F2808
:103C50008111F8CF0E94501C81110DC08FE49BE0B0
:103C60000E940D160E94C21783E59BE00E947F28E8
:103C70008111F8CFEFCF0E945E1B10926E028FE48D
:103C80009BE00E940D160E94D11683E59BE00E94E6
:103C90007F288111F8CF68EE73E080E090E00E9409
:103CA000C932C5E1D0E00E94AA19823749F02197B4
:103CB00039F064E670E080E090E00E94C932F3CF12
:103CC0000E94D81980916D02882301F18FE49BE056
:103CD0000E940D160E94F51683E59BE00E947F2846
:103CE0008111F8CF0E94151D81110DC08FE49BE05A
:103CF0000E940D160E94F51683E59BE00E947F2826
:103D00008111F8CFEFCF10926D0218C08FE49BE0C5
:103D10000E940D1640916602509167026091680200
:103D20007091690280916A0290916B020E9458160C
:103D300083E59BE00E947F288111ECCF8091640293
:103D40009091650201969093650280936402809140
:103D5000620290916302019665E070E00E9407356F
:103D60009093630280936202DF91CF9108958F92C6
:103D70009F92AF92BF92EF92FF920F931F93CF93B8
:103D8000DF93EC01F62EE72E49015A0162E08F2DF8
:103D90000E948733F882E9828A829B82AC82BD824C
:103DA0001E821F821886198681E090E09B878A8791
:103DB0001D870C87DF91CF911F910F91FF90EF909E
:103DC000BF90AF909F908F900895CF92DF92EF9227
:103DD000FF92CF93DF93EC010E949832CE80DF8078
:103DE000E884F984DC01CB018C199D09AE09BF0977
:103DF00021E0CA80DB80EC80FD80C816D906EA0687
:103E0000FB0608F020E0822FDF91CF91FF90EF902A
:103E1000DF90CF900895CF93DF93EC010E94E51ED1
:103E20008823C9F00E9498326E837F8388879987A0
:103E300088810E94F2332A853B858217930759F0C7
:103E40009B878A87EE85FF85309729F06C857D8575
:103E5000DF91CF910994DF91CF910895FC0177878D
:103E6000668708958091BD0B90E02091BE0B821B68
:103E7000910908959091BE0B8091BD0B981750F455
:103E8000E92FF0E0E154F44F208130E09F5F909300
:103E9000BE0B02C02FEF3FEFC9010895E091BE0BAA
:103EA0008091BD0BE81730F4F0E0E154F44F8081CD
:103EB00090E008958FEF9FEF08950895CF92DF92DD
:103EC000EF92FF920F931F93CF93DF937C01CB016F
:103ED0008A012091990B222389F0EB016B01C40E1A
:103EE000D51ECC15DD0569F06991D701ED91FC91E6
:103EF0000190F081E02DC7010995F3CF642F0E9456
:103F00001D21C801DF91CF911F910F91FF90EF907C
:103F1000DF90CF900895CF93DF931F92CDB7DEB798
:103F200069832091990B2223D1F020919A0B2032A2
:103F300040F021E030E0FC013383228380E090E018
:103F400015C080919B0BE82FF0E0E456F44F998167
:103F500090838F5F80939B0B80939A0B05C061E0E9
:103F6000CE0101960E941D2181E090E00F90DF912B
:103F7000CF910895FC011382128288EE93E0A0E0B5
:103F8000B0E084839583A683B7838BEF91E0918320
:103F9000808308951092BE0B1092BD0B10929B0B64
:103FA00010929A0B0C94612081E08093990B60939E
:103FB000BC0B10929B0B10929A0B08950C94D41F7B
:103FC0000F93062F21E040919A0B6CE97BE08091E2
:103FD000BC0B0E94C72010929B0B10929A0B109260
:103FE000990B0F9108954F925F926F927F92AF92CB
:103FF000BF92CF92EF92FF920F931F93CF93DF93D5
:104000005C01F62ED42F28013901EE2021F10E9407
:10401000D41FCE2DC43008F0C3E0C150C0F028E05A
:10402000C29FC0011124A301920104C05695479577
:10403000379527958A95D2F7CA01B901D501ED9137
:10404000FC910190F081E02DC5010995E6CF60E07B
:10405000C5010E94E01F4D2FD13208F040E22C2D07
:104060006FEB7BE08F2D0E947F201092BE0B809320
:10407000BD0BDF91CF911F910F91FF90EF90CF90EB
:10408000BF90AF907F906F905F904F900895CF92C8
:10409000EF920F931F93C22EE12C00E010E09801E5
:1040A0000E94F31F1F910F91EF90CF90089521E090
:1040B0000C94472061E00C94E01F8DE89BE00C9489
:1040C000BA1F10924C0C81E080934A0C1092490C5C
:1040D00061E081E10E94C33361E080E10E94C3336B
:1040E000E9EBF0E080818E7F808380818D7F80830B
:1040F00088E48093B80085E48093BC000895413241
:1041000008F043C090914C0C9111FCCF91E090933A
:104110004C0C20934A0C2FEF2093DF0B1092240CB1
:10412000240F2093230C90934B0C90914B0C880FF1
:10413000892B80934B0C8091490C813061F4109253
:10414000490C80914B0C8093BB008091BC0083FD97
:10415000F8CF85EC01C085EE8093BC0080914C0CBB
:104160008130E1F38091240C841710F44091240CE9
:10417000A5E2BCE0962FFB018E2F891B841718F453
:104180008D918193F9CF842F089580E008950F9346
:10419000413208F04AC090914C0C9111FCCF32E0B2
:1041A00030934C0C00934A0C3FEF3093DF0B10928E
:1041B000240C4093230C562FA5E2BCE0FB013E2FBC
:1041C000351B341718F431913D93F9CF10924B0CF5
:1041D00030914B0C880F832B80934B0C8091490CB2
:1041E000813061F41092490C80914B0C8093BB009C
:1041F0008091BC0083FDF8CF85EC01C085EE8093F3
:10420000BC00222321F080914C0C8230D1F38091AC
:10421000DF0B8F3F79F08091DF0B803241F080918E
:10422000DF0B803331F094E005C091E003C092E0F1
:1042300001C093E0892F0F910895613298F4209185
:104240004C0C243089F46093010C282FA3E0BCE0CF
:10425000FC018E2F821B861718F481918D93F9CF64
:1042600080E0089581E0089582E0089585ED8093CF
:10427000BC008091BC0084FDFCCF10924C0C0895D2
:1042800085EC8093BC0010924C0C08951F920F9205
:104290000FB60F9211240BB60F922F933F934F93AB
:1042A0005F936F937F938F939F93AF93BF93EF939E
:1042B000FF938091B900887F803609F49EC078F51D
:1042C000883209F45DC090F4803109F456C038F4A6
:1042D000882309F4F5C0883009F44FC0F5C088314F
:1042E00009F44EC0803209F45FC0EEC0803409F496
:1042F0006AC058F4803309F457C0883309F0E4C029
:104300008093DF0B0E944021DFC0803509F44FC04D
:10431000883509F45DC0883409F0D6C0D3C0883927
:1043200009F4C4C0A8F4883709F467C038F48836A3
:1043300009F463C0803709F460C0C6C0883809F446
:10434000B5C0803909F45FC0803809F0BDC05BC0DA
:10435000803B09F483C038F4803A09F466C0883A97
:1043600009F47CC0B1C0803C09F4A4C0883C09F4C5
:10437000A1C0883B09F487C0A7C080914B0C10C036
:104380009091240C8091230C981770F5E091240CE7
:1043900081E08E0F8093240CF0E0EB5DF34F808181
:1043A0008093BB0085EC83C08093DF0B8BC0E091D2
:1043B000240C81E08E0F8093240C8091BB00F0E0F0
:1043C000EB5DF34F80839091240C8091230C6BC0A4
:1043D000E091240C81E08E0F8093240C8091BB002F
:1043E000F0E0EB5DF34F808380914A0C81116AC04D
:1043F00081E08093490C84EA5EC083E080934C0C9A
:104400001092E00BCFCF8091E00B803208F04EC0CD
:10441000E091E00B81E08E0F8093E00B8091BB0078
:10442000F0E0EF51F44F8083BDCF0E944021809196
:10443000E00B803230F4E091E00BF0E0EF51F44F0C
:1044400010826091E00B70E0E091450CF091460C19
:1044500081EE9BE009951092E00B36C084E08093DA
:104460004C0C1092020C1092010CE091470CF09150
:10447000480C09958091010C811105C081E0809361
:10448000010C1092030CE091020C81E08E0F8093DE
:10449000020CF0E0ED5FF34F80818093BB009091C0
:1044A000020C8091010C981708F47CCF85E880936A
:1044B000BC000AC085EC8093BC0010924C0C04C078
:1044C0001092DF0B0E943621FF91EF91BF91AF91C7
:1044D0009F918F917F916F915F914F913F912F911C
:1044E0000F900BBE0F900FBE0F901F901895FC0100
:1044F00013AE14AE15AE04960C9465282F923F921D
:104500004F925F926F927F928F929F92AF92BF92E3
:10451000CF92DF92EF92FF920F931F93CF93DF938F
:104520004C01162FC42FD22F502E0E94F722882321
:1045300009F44AC087E08D0FC82EC694C694C6946D
:10454000D12C5C0E87E0482E410E8D2F86958695E6
:104550008695682E712C3D2E98EF899F300C112482
:10456000E8E08E9F100D1124D40DC51569F1570197
:10457000242C8D2F8219883070F0F501049122E0EF
:104580004C2F622DC4010E949628FFEFAF1ABF0A7C
:1045900088E0280EEECFF701E60DF71D311004C0BC
:1045A000EC0CFD1CCF5FE1CFB490A32C212EB0FE0C
:1045B00005C04C2F622DC4010E948E282394AA941A
:1045C000B694A110F4CFECCFDF91CF911F910F9152
:1045D000FF90EF90DF90CF90BF90AF909F908F9023
:1045E0007F906F905F904F903F902F9008950F9322
:1045F000FC010150040F84A996A9941718F008171C
:1046000028F402C0081750F0041740F42150260F78
:1046100083A995A9961720F4281720F480E007C0F5
:10462000281720F481E0261710F0F8CF81E00F91D1
:104630000895DB011496ED91FC91159720E030E090
:1046400061E00994DB011496ED91FC91159720E04F
:1046500030E063E00994DB011496ED91FC9115972D
:1046600020E030E040E064E00994DB011496ED9135
:10467000FC91159720E030E041E064E00994DB0113
:104680001496ED91FC91159720E030E062E00994DA
:10469000DB011496ED91FC91159720E030E065E088
:1046A0000994DB011496ED91FC91159766E009944D
:1046B000CF92DF92EF92FF920F931F93CF93DF93EE
:1046C0008C016B017A0180E0F701C49181110AC06D
:1046D000CF3FE9F14C2FB601C8010E944823811158
:1046E0002FC03AC0CF3F11F44FEFF5CFCE3FB1F11D
:1046F000C03F30F5C03E38F04C2F4F70B601C801B6
:104700000E943F231DC0C03D38F04C2F4F70B601B2
:10471000C8010E94222314C0C03CA0F0B601C80109
:104720000E942B23C295C07FCE5FD0E0CE010E94B5
:10473000CF24B601C8010E943523CE010E94CF24A8
:1047400080E006C0C7FDFCCF8C2F90E0F7CF81E062
:10475000FFEFEF1AFF0AB8CF80E001C081E0DF91E0
:10476000CF911F910F91FF90EF90DF90CF90089520
:10477000CF93DF93FC0123A5222381F0EC0188E78E
:104780000E947024811102C080E009C08EA18111B5
:1047900080E40E94A7248823B9F31BA681E0DF915F
:1047A000CF9108950F931F93CF93C42F8901633046
:1047B000C1F050F4613081F0623009F048C0FC0172
:1047C00046A321E023A743C0663011F1673079F199
:1047D000653009F03CC00EC0FC0186A50E943A2459
:1047E00036C0FC0116A221E023A7411130C00E946F
:1047F000C8242DC00E94B823811104C00E94C8247F
:1048000080E026C08C2F0E94A724811120C0F6CF03
:104810000E94B823882391F3CC23C9F0F801819139
:104820008F010E94A724882349F3C150F5CF0E942D
:10483000B823882319F3CC2351F0F80184910E9406
:10484000A724882329F00F5F1F4FC150F4CF81E0C8
:10485000CF911F910F91089590914F0C911104C029
:1048600080934F0C60934D0C089510924F0C109252
:104870004D0C089580934E0C1092B90084FF02C035
:104880008CE001C088E48093B8000C9435241F9319
:10489000CF93DF9300D0CDB7DEB720ED37E03A837A
:1048A00029839091BC00982399F429813A81232B84
:1048B00051F480914E0C182F127081FD09C081E0D7
:1048C0000E942C2406C029813A8121503109E7CF6A
:1048D00011E0812F0F900F90DF91CF911F910895DC
:1048E000CF93C82F84EA8093BC0061E080E80E94E7
:1048F0004724882359F08091B900887F883041F09F
:10490000803131F061E082E00E942C24C0E01CC0C4
:10491000C093BB0084E88093BC0062E080E80E9402
:104920004724882399F380914E0CC82FC27081FDD3
:104930000AC08091B900887F883129F062E082E066
:104940000E942C2401C0C1E08C2FCF910895CF93F9
:104950008093BB0084E88093BC0063E080E80E9401
:104960004724C82F882389F080914E0CC82FC2702D
:1049700081FD0AC08091B900887F883229F063E008
:1049800082E00E942C2401C0C1E08C2FCF910895B9
:1049900084E98093BC0064E080E10C9447242EE914
:1049A0003FE0009729F0F9013197F1F70197F9CF2E
:1049B0000895AF92BF92CF92DF92FF920F931F9311
:1049C000CF93DF938C01EB01F42E690180E148174E
:1049D00009F454C0841700F1EAE04E1721F1FFE01A
:1049E0004F1357C041E0C8010E94222340E0BE019E
:1049F000C8010E943F2341E8BE01C8010E9448232C
:104A0000F6014081BE01C8010E94482340E0BE017A
:104A1000C8010E9422233BC081E1481791F1E5E1E2
:104A20004E1761F036C042E0C8010E9419234CEBDA
:104A300054E1BE01C8010E9458232BC0AA80BB804C
:104A400044EB54E1C8010E945823F5014481406BB6
:104A5000BE01C8010E94482341E0BE01C8010E9476
:104A60003F23AE01B801C5010E942429882301F12A
:104A700040E0BE01C8010E9422230BC04BEA54E172
:104A800002C040EA54E1BE01C8010E94582381E0FF
:104A90000FC096014F2DBE01C801DF91CF911F912C
:104AA0000F91FF90DF90CF90BF90AF900C94902922
:104AB000DF91CF911F910F91FF90DF90CF90BF902A
:104AC000AF900895FC01E60FF11D849190E0982FBE
:104AD00088273196E4918E0F911D0895FC018491F1
:104AE00008950E946E25882321F0823011F083E022
:104AF000089586E0089580E0089566E00C946225AC
:104B000068E00C9462250A96FC01849108950B9646
:104B1000FC0184910895BF92CF92DF92EF92FF92B1
:104B20000F931F93CF93DF938C01E62EDC01149635
:104B3000CD91DC911597CE010E946E25F82EF801DB
:104B4000848195810E947125C82EF1E0FF1203C077
:104B50002FE0B22E02C0BB24BA94D80114968D91D6
:104B60009C9115970E948325F82EF80184819581E8
:104B70000E948725D82ED80114968D919C91159767
:104B80000E948025B0E6BE1538F4009729F0C80FC2
:104B9000D91F91E6F92E10C0F801848195810E94F9
:104BA0007D25F0E4FE1538F4009729F0C80FD91FD1
:104BB00081E4F82E01C06196DE1490F4D80150967D
:104BC0001C92509753961C92539754961C9254974C
:104BD00051961C92519752961C9280E090E067C0CB
:104BE000DF1460F38C2D90E0FE0124912F3F11F42F
:104BF000219658C0FE104DC0D80114968D919C91FD
:104C000015970E946E259E012F5F3F4FFE0188235E
:104C100011F08230E1F48491D80153968C9353972C
:104C2000F901249154962C935497FE013396E49104
:104C30005096EC935097FE013496E4915196EC9384
:104C40005197FE013596E4915296EC9320C08491E1
:104C5000982F9F709250D80152969C9352978295AC
:104C60008F7051968C935197F9012491822F8F70F8
:104C700054968C93549722952F7053962C93539758
:104C8000FE013296E491E295EF705096EC93CE01DE
:104C90000EC0FE013296E491EB219C012E0F311DD6
:104CA000C20FD31FFD1409F489CFF3949DCFDF9178
:104CB000CF911F910F91FF90EF90DF90CF90BF9019
:104CC00008956F927F928F929F92AF92BF92CF92F0
:104CD000DF92EF92FF920F931F93CF93DF93EC013C
:104CE000C62E742E622F0E948B257C01892BC9F160
:104CF0008C819D810E947125B82E1B890C89898920
:104D0000C80E8A89781AD72CD01A212F4D2D6C2DD8
:104D1000CE010E94F722882311F1EB0CF11C195FE0
:104D2000169516951695812E912C7D14C1F06C2C3C
:104D300057018A2D8E19811770F4F501049120E036
:104D40004D2D662DCE010E949628FFEFAF1ABF0AA7
:104D500088E0680EEECFE80CF91CD394E6CF888982
:104D600001C080E0DF91CF911F910F91FF90EF90F4
:104D7000DF90CF90BF90AF909F908F907F906F907B
:104D80000895FF920F931F93CF93DF93EC01062FAB
:104D9000142FF22EED89FE890995482F410F2F2DF2
:104DA000602FCE01DF91CF911F910F91FF900C9456
:104DB0006126CF92DF92EF92FF920F931F93CF93D2
:104DC000DF937C01D62E042FC22E132FDC015596C3
:104DD000ED91FC9156970995080FCC2DD12F10E03D
:104DE0002991222341F0402F6D2DC7010E94612699
:104DF000D80E180FF5CF812FDF91CF911F910F9112
:104E0000FF90EF90DF90CF900895DC0114962D91E4
:104E10003C9115972115310509F43FC057968C91A7
:104E20005797F901811108C03596E4915896EC9393
:104E30005897F9013C9611C0813041F43F96E491B6
:104E40005896EC935897F901709607C03D96E491F7
:104E50005896EC935897F9013E96E4915996EC9345
:104E6000599758968C915897082E000C990B599683
:104E70002C915997821B910927FD93955A962C9155
:104E80005A97203441F0829FC001112426E0969564
:104E900087952A95E1F75B968C9308952BE735E289
:104EA000FC01368B258B0895CF93DF93FC01248181
:104EB00035812617370749F0EC01758364830E941A
:104EC00005278BE795E29E8B8D8BDF91CF9108951F
:104ED0001F93CF93DF93EC011D821C821F821E82E1
:104EE000198681E0888782E28A871F861E86FE01F6
:104EF000B396CE01C1962FEF2193E817F907E1F79A
:104F000011E018A3CE010E944E271F8B188E198E18
:104F100080E48A8F1B8E87ED99E29AAB89ABDF9193
:104F2000CF911F910895DB01ED91FC9109940F93AE
:104F30001F93CF93DF93EC018B01E9A9FAA982E0DB
:104F4000099520E030E04AE0B801CE010E949327A5
:104F5000182FE9A9FAA983E00995E9A9FAA980E03F
:104F60000995812FDF91CF911F910F9108950F9394
:104F70001F93CF93DF93EC018B01E9A9FAA982E09B
:104F80000995E9A9FAA981E0099520E030E044E11A
:104F9000B801CE010E9493279E012D5C3F4F47E14F
:104FA000B801CE010E949327E9A9FAA980E0DF9118
:104FB000CF911F910F910994EF92FF921F93CF937E
:104FC000DF93EC017B01E9A9FAA982E00995E9A93F
:104FD000FAA981E0099520E030E045E1B701CE0172
:104FE0000E949327182F882341F09E012D5C3F4F8C
:104FF00047E1B701CE010E949327E9A9FAA980E011
:105000000995812FDF91CF911F91FF90EF90089527
:10501000FC01448F258F9C01245E3F4F42E30C949A
:105020009327CF93DF931F92CDB7DEB79E012F5FFB
:105030003F4F46E40E94932789810F90DF91CF91E3
:105040000895CF93DF931F92CDB7DEB79E012F5FF8
:105050003F4F47E40E94932789810F90DF91CF91C2
:10506000089520E030E048E40C949327CF93DF9339
:10507000EC016A817B810E94112888836A817B818F
:10508000CE010E94212889836A817B81CE010E9402
:1050900031288B879E012D5C3F4F6A817B8147E1E0
:1050A000CE01DF91CF910C949327CF93DF93EC0146
:1050B0006A817B810E949727882321F0CE010E947C
:1050C000362881E0DF91CF910895EF92FF921F93F0
:1050D000CF93DF93EC017B01142F0E946827FB82A2
:1050E000EA821EA7CE01DF91CF911F91FF90EF9032
:1050F0000C945528FC01628173810C94B727CF93DF
:10510000DF93EC01EE85FF85309709F009956A8100
:105110007B81CE01DF91CF910C94DC27362F242F99
:10512000FC0162817381432F0C9408280F93FC01CA
:1051300082819381648F458F278F068F9F01245E24
:105140003F4F4BE3BC01CF010F910C949327FC011F
:1051500060A308954695469526952695269530E2B6
:10516000439FF0011124E22BDC019096EC93909781
:10517000687F469546954695462B91964C930895A3
:10518000FC01128280818150838314820895FC0186
:1051900030819281930F92832181921760F49481E0
:1051A0009F5F94838381830F821710F08FEF820FAC
:1051B000838381E0089580E00895DC011696ED91E7
:1051C000FC91179715968C919F01280F311DC901ED
:1051D0001192E817F907E1F7089531E0FC01238106
:1051E000261708F430E021E0FC018281481708F41A
:1051F00020E091E0461708F090E0892F832B2823C8
:10520000832F8923822B0895DC01FB0110821296E3
:105210008C911297818315968C911597815082837A
:1052200013968C9183830895FB0141812381213062
:1052300029F0233031F468EF640F04C0642F485F15
:1052400001C0642F0C94ED28FC01CB01BA0126812A
:10525000378145810C945123DC011696ED91FC9128
:10526000179712968C91481B477081E090E001C01F
:10527000880F4A95EAF7E60FF11D3081222311F0DD
:10528000832B02C08095832380830895FB01418195
:10529000DC0112962C911297421768F013962C910C
:1052A0001397241740F0608115962C91621718F41B
:1052B00024810C942C290895CF92DF92FF920F93B2
:1052C0001F93CF93DF936C01EB01FA808B818130C8
:1052D00051F030F0823049F0833051F41FEF09C0B3
:1052E00010E001E007C011E004C010E00FEF02C0C1
:1052F00010E000E0F7FE04C0BE01C6010E9446298E
:105300008881800F88838981810F8983FF0C91F7C1
:10531000DF91CF911F910F91FF90DF90CF90089573
:105320000F931F93CF93DF938901FB01C281D38138
:105330004233F9F068F4453109F1473141F1443124
:1053400081F5CE010E94DD28CE010E94C02829C02F
:10535000463411F1473411F14B3319F5B901CE013F
:105360000E9414298823E9F0B801CE010E945C292B
:1053700018C0B901CE010E94462913C0CE010E9477
:10538000C728882379F0CE010E94DD280AC0B90120
:10539000CE010E94042905C08D8101C08981F801D8
:1053A000808381E0DF91CF911F910F91089508953F
:1053B000BC016E5F7F4FDC01ED91FC910190F081AB
:1053C000E02D40E0099591E0811190E0892F08954A
:1053D0002091D20C222399F04FB7F8942091D20C4F
:1053E000213059F42DB32093D00C3DB32091D10C32
:1053F000209523232DBB4FBF02C04093D00C8CBD02
:105400009DBD08958EBD00000DB407FEFDCF8EB585
:1054100008958091D20C882361F09FB7F894209171
:10542000D20C8091D00C213019F48DBB9FBF089510
:105430008FBF0895AF92BF92CF92DF92EF92FF920B
:105440000F931F93CF93DF936C01A42E79016068B3
:10545000B62E83E590E00E94E82960E0F60186859B
:105460000E94C333AA948B2D0E94022A0023A1F02C
:10547000CFEFD0E001C0CC0F0A95EAF78B2D0E9448
:10548000022A2C2F2095F701908192238C23892BBF
:10549000F701808311E001C010E0812F90E0E70167
:1054A000C80FD91F1A1530F48B2D0E94022A888349
:1054B0001F5FF3CF80E00E94022A888361E0F6013B
:1054C00086850E94C333DF91CF911F910F91FF908A
:1054D000EF90DF90CF90BF90AF900C94092AFC0121
:1054E0008CE492E0918380836687478708950F93C9
:1054F0001F93CF93DF93EC01062F142F83E590E0E9
:105500000E94E82960E08E850E94C333802F0E94AC
:10551000022A812F0E94022A61E08E850E94C333F5
:10552000DF91CF911F910F910C94092ADF92EF9296
:10553000FF920F931F93CF93DF938C01C62FF42E0E
:10554000D22EE32E83E590E00E94E82960E0F80186
:1055500086850E94C3338C2F0E94022ACD2DDE2D1A
:10556000CE018F0D911D7C01EC16FD0621F0899175
:105570000E94022AF9CF61E0F80186850E94C333B8
:10558000DF91CF911F910F91FF90EF90DF900C94DE
:10559000092A1F93CF93DF93EC01162F83E590E048
:1055A0000E94E82960E08E850E94C333812F8068C5
:1055B0000E94022A80E00E94022A182F61E08E8554
:1055C0000E94C3330E94092A812FDF91CF911F913E
:1055D00008950F9341110E941A2A0F9108950F9375
:1055E0001F93CF93DF938C01D62FC42F0E94C92A1B
:1055F000482F4C2B6D2FC801DF91CF911F910F9138
:105600000C94772A0F931F93CF93DF938C01D62F9F
:10561000C42F0E94C92AC0954C2F48236D2FC80162
:10562000DF91CF911F910F910C94772ACF92DF9247
:10563000EF92FF920F931F93CF93DF93EC016B01D7
:10564000142F790140E062E00E94772A44E06AE08A
:10565000CE010E94772A40E864E1CE010E94772AB9
:105660009601412F62E1CE010E94962A43E062E05A
:10567000CE010E94772A08E813E16AE0CE010E9479
:10568000C92A82FF13C040E062E0CE010E94772A5F
:1056900064E4CE010E94C92AF701808362E4CE014E
:1056A0000E94C92AF701818380E004C001501109DA
:1056B00021F783E0DF91CF911F910F91FF90EF9041
:1056C000DF90CF9008950F931F93CF938C014FE0FD
:1056D00062E00E94772AC3E062E370E080E090E03D
:1056E0000E94C93262E0C8010E94C92A84FF02C038
:1056F000C15091F7CF911F910F910895CF93DF93F0
:10570000EC0168E20E94C92A982F9370933041F00F
:10571000482F436068E2CE01DF91CF910C94772A45
:10572000DF91CF910895CF93DF93EC0161E08E85F7
:105730000E94873361E08E850E94C3338F858F3F3F
:1057400009F451C060E00E9487338F850E94F233D4
:10575000892B09F048C061E08F850E94873360E0A3
:105760008F850E94C33382E090E00E94053361E0A0
:105770008F850E94C33362E370E080E090E00E9476
:10578000C93240E064E2CE010E94772A40E066E23E
:10579000CE010E94772A46E268E4CE010E94772A71
:1057A00040E864E5CE010E94772A49EA66E5CE0129
:1057B0000E94772A43E068E5CE010E94772A48EEEE
:1057C0006AE5CE010E94772A40E46AE2CE010E9497
:1057D000772A4DE362E2CE010E94772ACE01DF9163
:1057E000CF910C947E2BCE010E94632BCACF3F92A7
:1057F0004F925F926F927F928F929F92AF92BF92E1
:10580000CF92DF92EF92FF920F931F93CF93DF938C
:1058100000D0CDB7DEB73C01162F942E2901A1147C
:10582000B10419F0F501408101C040E0342EF0E1EF
:105830008F9E300C112440E062E0C3010E94772A61
:105840004FE768E0C3010E94772A40E864E1C301A2
:105850000E94772A9201402F62E1C3010E94962A9A
:10586000432D6AE1C3010E94772A412F62E0C30100
:105870000E94772A1C3029F440E86AE1C3010E94A3
:10588000EF2A00ED17E068E0C3010E94C92A982FB3
:10589000992139F480FD03C001501109A1F783E07B
:1058A00065C06CE0C3010E94C92A182F837109F0FA
:1058B0005AC0E114F104F9F0C114D104E1F064E13B
:1058C000C3010E94C92AF6019081981708F445C0C7
:1058D0008083082D9701482F62E1C3010E94E92AC5
:1058E00068E1C3010E94C92A8770A114B10421F0A4
:1058F000F501808301C080E013FD31C0E114F104A3
:1059000081F1C114D10469F19E89992351F1F60105
:105910004081413021F4843041F58FEF27C042307F
:1059200020F1811122C042509E012F5F3F4FB701ED
:10593000C3010E94162B811119C0F6018081E80E67
:10594000F11CF70132979081898198130EC031962E
:1059500090818A81981309C004C084E007C082E066
:1059600005C080E003C081E001C087E00F900F9088
:10597000DF91CF911F910F91FF90EF90DF90CF902B
:10598000BF90AF909F908F907F906F905F904F905F
:105990003F9008958F92AF92BF92CF92DF92EF9295
:1059A000FF920F931F93AF928C2C570168017901DE
:1059B000042F9B0140E36CE00E94F72B0F901F9196
:1059C0000F91FF90EF90DF90CF90BF90AF908F90AE
:1059D00008952F923F924F925F926F927F928F9293
:1059E0009F92AF92BF92CF92DF92EF92FF920F936E
:1059F0001F93CF93DF93CDB7DEB72C970FB6F894F4
:105A0000DEBF0FBECDBF413508F005C1342E3B01CE
:105A10004C0140E86CE10E94022B2224239432E0E6
:105A2000231691F083E02816E1F091E02912F7C0E7
:105A300083E989833320D1F081E0F30190819530AF
:105A400008F480E0B12C17C0F5E9F983332081F028
:105A500081E0F3019081983008F480E043E0B42EB7
:105A60000AC087E9898336E0B32E04C0B12C02C096
:105A700023E0B22E80E0D32CF8E0BF9ED018112492
:105A8000D7FCD12C882321F098E89B8333E001C018
:105A900032E021E09D2D977009F420E09D2D959531
:105AA00095959595290F31F4882309F491C038E034
:105AB000D30E8EC0811102C094E001C093E029177B
:105AC00008F4922FEB2DF0E03196E60DF71D232F11
:105AD0004191A1E0B0E0AC0FBD1FA20FB11D4C93EE
