:100000000C948B150C94B5150C94B5150C94B51572
:100010000C94B5150C94B5150C94B5150C94B51538
:100020000C94B5150C94B5150C94B5150C94B51528
:100030000C94B5150C942B160C94B5150C94B515A1
:100040000C94B5150C94B5150C9412330C94B5158D
:100050000C947B310C94B1310C94B5150C94B515FE
:100060000C94B5150C94B5150C940A220C94B51586
:100070000C94B5150C94B5150C94B5150C94B515D8
:100080000C94B5150C94B5150C94B5153034333467
:1000900026342A344A344A3437343B3441344534E4
:1000A0000000000000000000000000000000000050
:1000B0000000000000FC3F00FE0700000000000000
:1000C0000000000000FC3F00FE0F000000000000E8
:1000D0000000000000E00700F80100000000000040
:1000E0000000000000C00700F00000000000000059
:1000F0000000000000C00300E0000000000000005D
:100100000000000000C003006000000000000000CC
:100110000000000000C003006000000000000000BC
:100120000000000000C003006000000000000000AC
:100130000000000000C0030060000000000000009C
:100140000000000000C0030060000000000000008C
:100150000000000000C0030060000000000000007C
:100160000000000000C0030060000000000000006C
:100170000000000000C0030060000000000000005C
:100180000000000000C0030060000000000000004C
:100190000000000000C0030060000000000000003C
:1001A0000000000000C0030060000000000000002C
:1001B0000000000000C0030060000000000000001C
:1001C0000000000000C0030060000000000000000C
:1001D0000000000000C00300E0000000000000007C
:1001E0000000000000C0F3FFFF1F0000000000003F
:1001F0000000000000C083FFFF7F0000000000003F
:100200000000000000C0033F60FE0100000000008D
:100210000000000000C0033E60F00300000000008A
:100220000000000000C0033E60E00F00000000007E
:100230000000000000C0033E60C00F00000000008E
:100240000000000000C0033E60801F0000000000AE
:100250000000000000C0073E60003F0000000000FA
:100260000000000000C0073E60003F0000000000EA
:100270000000000000C0073E70007E00000000008B
:100280000000000000C0073E70007E00000000007B
:10029000000000000080073E3000FC00000000006D
:1002A000000000000080073E3800FC000000000055
:1002B0000000000000800F3E3800FC00000000003D
:1002C0000000000000000F3E1C00FC0000000000C9
:1002D0000000000000001F3E1C00F80100000000AC
:1002E0000000000000003E3E0F00F801000000008A
:1002F000000000000000FCBE0700F8010000000044
:10030000000000000000F8FF0300F80100000000FA
:10031000000000000000F0FF0000F80100000000F5
:10032000000000000000003F0000F8010000000095
:10033000000000000000003E0000F8010000000086
:10034000000000000000003E0000F8010000000076
:10035000000000000000003E0000F8010000000066
:10036000000000000000003E0000F8010000000056
:10037000000000000000003E0000F8000000000047
:10038000000000000000003E0000FC000000000033
:10039000000000000000003E0000FC000000000023
:1003A000000000000000003E0000FC000000000013
:1003B000000000000000003E00007C000000000083
:1003C000000000000000003E00007C000000000073
:1003D000000000000000003E00003E0000000000A1
:1003E000000000000000003E00003E000000000091
:1003F000000000000000003E00001E0000000000A1
:10040000000000000000003E00001F00000000008F
:10041000000000000000003E00800F00000000000F
:10042000000000000000003E008007000000000007
:10043000000000000000003E00C0030000000000BB
:10044000000000000000003E00E00100000000008D
:10045000000000000000007E00F800000000000026
:1004600000000000000000FF003E0000000000004F
:10047000000000000000E0FFFF0F0000000000008F
:10048000000000000000F0FFFF010000000000007D
:10049000000000000000000000000000000000005C
:1004A000000000000000000000000000000000004C
:1004B000000000000000000000000000000000003C
:1004C000000000000000000000000000000000002C
:1004D0000000000000000000C0000000000000005C
:1004E0000000000000000000A0000000000000006C
:1004F00000000000000000004001000000000000BB
:100500000000000000000000800200000000000069
:1005100000000000000000000003000000000000D8
:1005200000000000000000000007000000000000C4
:100530000000000000000000000E8003000000002A
:100540000000000000000000000C8003000000001C
:100550000000000000000000001C800300000000FC
:10056000000000000000000000180007000000006C
:10057000000000000000000000380007000000003C
:100580000000000000000000002000070000000044
:1005900000000000000000000070000700000000E4
:1005A00000000000000000000020000E000000001D
:1005B000000000000000000000000000000000003B
:1005C00000000C0000002010000000001C000000D3
:1005D00000001000000020100000000018000000C3
:1005E000000023020081A01000C6C407180000000C
:1005F0000000018EC74263111EC6C40C1800000023
:10060000000039C24424221112C6C50C3800000073
:10061000000039C2472422111EC6C7073800000057
:1006200000002342402422110246C700300000008F
:10063000000036C2404423310646C60030000000A8
:1006400000001C824784E1601C46C40030000000AA
:10065000000000000000000000000000300000006A
:10066000000000000000000000000000300000005A
:100670000000000000000000000E003870000000C4
:100680000000000000000000000E003870000000B4
:100690000000000000200000000E00387000000084
:1006A0000000000000000000000C00387000000096
:1006B000000000808F379E8F070C06387000000006
:1006C00000000080402083C8060C0E387000000037
:1006D0000000008040208148040C0E3870000000AB
:1006E00000000080C7239F4F000C0E3870000000F0
:1006F000000000800026904F000C0E38703800007B
:100700000000008000269848000C0E387038000069
:1007100000000080CF238F48000C0E387038000096
:100720000000000000000000000C0E3870380000CF
:100730000000000000000000000C0E3870380000BF
:100740000000000000000000000C06380038000027
:100750000000000000000000000C06380038000017
:100760000000000000000000000E06380038000005
:100770000000000000000000000E071C0018000030
:100780000000000000000000000E071C0018000020
:100790000000000000000000000E071C0018000010
:1007A000000000000000000000060700001C000020
:1007B000000000000000000000060700001C000010
:1007C000000000000000000000070300001C000003
:1007D000000000000000000000870300001C000073
:1007E000000000000000000000830300001C000067
:1007F000000000000000000080830300001C0000D7
:10080000000000000000000080C3010000000000A4
:10081000000000000000000000C001000000000017
:10082000000000000000000000C001000000000007
:10083000000000000000000000E0000000000000D8
:10084000000000000000000000E0000000000000C8
:10085000000000000000000000E0000000000000B8
:100860000000000000000000007000000000000018
:100870000000000000000000004000000000000038
:100880000000000000000000000000000000000068
:100890000000000000000000000000000000000058
:1008A0000000000000000000000000000000000048
:1008B0000000000000000000000000000000000038
:1008C000000000000000000000FE3F0000000000EB
:1008D0000000000000000000E000C0010000000077
:1008E00000000000000000001800010E00000000E1
:1008F000000000000000000086FE11300000000033
:10090000000000000000008081FB59C000000000D2
:100910000000000000000060F840F48301000000C7
:100920000000000000000030CC00000D02000000BC
:1009300000000000000000081900001E0C0000006C
:10094000000000000000008403FE3F40180000008B
:100950000000000000000062C101C0E031000000A2
:1009600000000000000000E130C000432300000050
:1009700000000000000080200C4E390C46000000F2
:10098000000000000000C018262A25118E0000007B
:1009900000000000000040147132A7231001000085
:1009A000000000000000208C9012E0C2080100004E
:1009B0000000000000003046100160823402000098
:1009C00000000000000010242FFC0F3A0106000078
:1009D0000000000000001830390330260204000037
:1009E0000000000000000810C280C02004040000C5
:1009F00000000000000008086680001104080000E4
:100A000000000000000004E833C000F20908000004
:100A1000000000000000642418C0000489110000D8
:100A2000000000000000E44408400188D1110000EB
:100A3000000000000000E28204A0014890110000C4
:100A400000000000000002F204A002D01710000015
:100A50000030E6FF0603020A02D002102400000064
:100A6000003006068601021AC253F221242000003B
:100A700000300606C600026122540B23232000002A
:100A8000003006066600024141F52BA1202000003F
:100A9000003006063600107941F12B202720000097
:100AA000003006063E007109C1756B202823000046
:100AB000003006067E002109C1E4B3212C2300008A
:100AC00000300606E6003061C1A5F1A12323000035
:100AD00000300606C6017241C12571A12124000023
:100AE0000030060686015232422769212221000089
:100AF000003006060603620A42188610A421000090
:100B000000300606060622FA820080909713000045
:100B100000000000000062828401405010130000B9
:100B2000000000000000A2C40403308890110000FF
:100B3000000000000000446408FC0F04C91100001C
:100B4000000000000000C4241320023689080000C1
:100B500000000000000004C8242002D3090800009F
:100B6000000000000000081842E08311E4080000C3
:100B70000000000000000812930160204204000001
:100B80000000000000001023390E382E020400007F
:100B9000000000000000104326F0073201020000B0
:100BA00000000000000020CE9003608208020000D8
:100BB000000000000000209CD132A3421001000080
:100BC000000000000000402C632A25238400000060
:100BD0000000000000008050042A2D9887000000CB
:100BE00000000000000000A118C619064200000025
:100BF00000000000000000436180808121000000AF
:100C00000000000000000086860770B81000000099
:100C1000000000000000000C1DF80F6C0800000030
:100C200000000000000000181400001F0400000075
:100C300000000000000000201816FC030300000064
:100C400000000000000000C0001D958000000000B2
:100C50000000000000000000030E2D6000000000F6
:100C600000000000000000000E000018000000005E
:100C7000000000000000000030000007000000003D
:100C80000000000000000000C007F00000000000AD
:100C90000000000000000000000000000000000054
:100CA0000000000000000000000000000000000044
:100CB0000000000000000000000000000000000034
:100CC0000000000000000000000000000000000024
:100CD0000000000000000000000000000000000014
:100CE0000000000000000000000000000000000004
:100CF00000000000000000000000000000000000F4
:100D000000000000000000000000000000000000E3
:100D100000000000000000000000000000000000D3
:100D200000000000000000000000000000000000C3
:100D300000000000000000000000000000000000B3
:100D400000000000000000000000000000000000A3
:100D50000000000000000000000000000000000093
:100D60000000000000000000000000000000000083
:100D70000000000000000000000000000000000073
:100D80000000000000000000000000000000000063
:100D90000000000000000000000000000000000053
:100DA00000E0FFFFFF7F00000000000000000000E7
:100DB00000E0FFFFFF7F00000000000000000000D7
:100DC00000E0FFFFFF7F00000000000000000000C7
:100DD00000E0FFFFFF7F00000000000000000000B7
:100DE00000E0FFFFFF7F00000000000000000000A7
:100DF00000E0FFFFFF7F0000000000000000000097
:100E000000E0FFBFFF7F00000000000000000000C6
:100E100000E0FF9FFF7F800FF0F9009E0FF00000C1
:100E200000E0FF8FFD7F800FF0F9009F0FF00000C2
:100E300000E0FF85FC7F801FF0F1818F0FF0000044
:100E400000E0FF44F87F803FF0E183870FF000006F
:100E500000E0FF22EC7F807FF0E1C3870FF000000D
:100E600000E07F22F27F807FF0C1C7830FF0000097
:100E700000E07F92F17F80FFF081E7830FF00000B8
:100E800000E07FD2F07F80FFF181FF810FF0000052
:100E900000E07F52F87F80EFF301FF800FF0000049
:100EA00000E0FF34FC7F80EFF301FE800FF00000D4
:100EB00000E0FF3BFF7F80CFF7017E800FF0000056
:100EC00000E0FF87FF7F808FFF013C800FF0000074
:100ED00000E0FF87FF7F800FFF013C000FF0000064
:100EE00000E0FFFFFF7F800FFF013C000FF00000DC
:100EF00000E0FFCFFF7F800FFE013C001FF80000E5
:100F000000E0FFCFFF7F800FFC013C003F7C000032
:100F100000E0FFCFFF7F800FF8013C00FE7F000064
:100F200000E0FFCFFF7F800FF8013C00FC3F000096
:100F300000E0FFCFFF7F800FF0013C00F81F0000B2
:100F400000E0FFCFFF7F000000000000E003000092
:100F500000E0FFCFFF7F0000000000000000000065
:100F600000E0FFEFFF7F0000000000000000000035
:100F700000E0FFEFFF7F0000000000000000000025
:100F800000E0FFFFFF7F0000000000000000000005
:100F900000E0FFFFFF7F00000000000000000000F5
:100FA00000E0FFFFFF7F00000000000000000000E5
:100FB00000E0FFFFFF7F00000000000000000000D5
:100FC0000000000000000000000000000000000021
:100FD0000000000000000000000000000000000011
:100FE0000000000000000000000000000000000001
:100FF00000000000000000000000000000000000F1
:1010000000000000000000000000000000000000E0
:1010100000000000000000000000000000000000D0
:1010200000000000000000000000000000000000C0
:1010300000000000000000000000000000000000B0
:1010400000000000000000000000000000000000A0
:101050000000000000000000000000000000000090
:101060000000000000000000000000000000000080
:101070000000000000000000000000000000000070
:101080000000000000000000000000000000000060
:101090000000000000000000000000000000000050
:1010A0000000000000000000000000000000000040
:1010B0000000000000000000000000000000000030
:1010C0000000000000000000000000000000000020
:1010D0000000000000000000000000000000000010
:1010E0000000000000E00F00000000000000000011
:1010F0000000000000F0FF070000000000000000FA
:10110000000000000030C27E00000000000000006F
:1011100000000000003042E001000000000000007C
:10112000000000000030420807000000000000003E
:1011300000000000003042081A000000000000001B
:101140000000000000F87F047100000000000000B3
:101150000000000000FEFF87C1000000000000004A
:1011600000000000000FE09FC00100000000000030
:1011700000000000000700FC200600000000000046
:1011800000000000000E00E0130C00000000000052
:1011900000000000001C00800F180000000000008C
:1011A00000000000001800001E1C000000000000ED
:1011B00000000000003801003C3600000000000084
:1011C0000000000000B8020078630000000000008A
:1011D0000000000000B00400E0C1000000000000BA
:1011E0000000000000300400C0810000000000008A
:1011F000000000000030040080C301000000000077
:101200000000000000300300802301000000000007
:101210000000000000300000000F0300000000008C
:101220000000000000700000000E0200000000003E
:101230000000000000700000000E0600000000002A
:101240000000000000700003001C0400000000000B
:101250000000000000708007001C04000000000077
:10126000000000000060C007001807000000000038
:10127000000000000060E00600F80D000000000023
:10128000000000000060700E003008000000000048
:10129000000000000060300C00300800000000007A
:1012A000000000000060380E003008000000000060
:1012B0000000000000701806007018000000000018
:1012C0000000000000701C06007018000000000004
:1012D0000000000000700C07006018000000000013
:1012E0000000000000F08F0300E01F00000000007D
:1012F0000000000000F0CF010060100000000000BE
:10130000000000000000E00100601000000000008C
:1013100000000000000060000060100000000000FD
:1013200000000000000070000060100000000000DD
:101330000000000000003800006010000000000005
:10134000000000000000180000E011000000000094
:101350000000000000001C0000601F0000000000F2
:101360000000000000000C000060180000000000F9
:10137000000000000000FEFFFF7F000000000000F2
:10138000000000000000FCFFFF3F00000000000024
:10139000000000000000000000000000000000004D
:1013A000000000000000FEFFFF7F000000000000C2
:1013B00000000000000002000060000000000000CB
:1013C00000000000000002000060000000000000BB
:1013D000000000000000E203E063000000000000E5
:1013E0000000000000003EFE3F7E00000000000004
:1013F0000000000000001EF81F3C0000000000007C
:10140000000000000000C819C8090000000000002A
:10141000000000000000481B4C0900000000000014
:10142000000000000000E819CC09000000000000E6
:10143000000000000000180808080000000000007C
:10144000000000000000100C180C0000000000005C
:10145000000000000000E007F007000000000000AE
:101460000000000000008001C0010000000000003A
:10147000000000000000000000000000000000006C
:10148000000000000000000000000000000000005C
:10149000000000000000000000000000000000004C
:1014A000FFE0FFD1AFFF32FFD0FFFEFFE0FFD1AE84
:1014B000FFD0FFFEFFE0FFD11000FFFEFFD0FFE0F6
:1014C000FFC1FFD1AED580A83FD300408D142000CE
:1014D000A1C8DA1281CFD9F1DB402EA4A6AFFFD08C
:1014E000FFFE00101000FE0A06A7089500FFFE0E82
:1014F000FE0BFE1010201000FEAAAA0001800000C2
:101500000180004A51EA505A51C99E0001800000F2
:101510000180000001800055551010201000FEAA27
:10152000AA00018000000180003993C252325F8A14
:101530005271938000000180000001800055551019
:1015400010201000FEAAAA00018000000180003BCC
:10155000A5C1243119892471258000000180000073
:1015600001800055551010201000FEAAAA0001802D
:1015700000000180007BA5C1247919C12479258050
:10158000000001800000018000555510102010005F
:10159000FEAAAA000180000001800079BFC2487A3B
:1015A00049C248798980000001800000018000550F
:1015B000551010201000FEAAAA0001800000018032
:1015C000007A4DC2527B53C2D67A4F800000018010
:1015D000000001800055551010201000FEAAAA003E
:1015E0000180000001800031A5CA287A31CA28494B
:1015F000A5800000018000000180005555101020DA
:101600001000FEAAAA000180000001800073D1CA68
:101610001073D1CA1073DF800000018000000180C8
:101620000055551010201000FEAAAA0001800000ED
:101630000180001E3991401E3191081E718000000A
:101640000180000001800055551010201000FEAAF6
:10165000AA000180000001800022F9A2203E21A200
:1016600020222180000001800000018000555510DB
:1016700010201000FEAAAA000180000001800020B6
:10168000F9A08020F9A0803E818000000180000048
:1016900001800055551010201000FEAAAA000180FC
:1016A000000001800022F9A220222194200821803C
:1016B000000001800000018000555510102010002E
:1016C000FEAAAA00018000000180003EF9A0803E31
:1016D000F9A0802081800000018000000180005579
:1016E000551010201000FEAAAA0001800000018001
:1016F000001EF1A08820F1A0901E898000000180CA
:10170000000001800055551010201000FEAAAA000C
:10171000018000000180001E71A0881C8982883C25
:1017200071800000018000000180005555101020DC
:101730001000FEAAAA00018000000180001EF9A08E
:10174000201C2182203CF9800000018000000180E3
:101750000055551010201000FEAAAA0001800000BC
:10176000018000391DA510251DA51039DD80000060
:101770000180000001800055551010201000FEAAC5
:10178000AA00018000000180007189CA184A09CAB4
:1017900008719D80000001800000018000555510F7
:1017A00010201000FEAAAA00018000000180007134
:1017B00099CA044A09CA10719D8000000180000086
:1017C00001800055551010201000FEAAAA000180CB
:1017D00000000180007199CA044A19CA04719980F5
:1017E00000000180000001800055551010201000FD
:1017F000FEAAAA00018000000180007185CA0C4A7F
:1018000015CA1C7185800000018000000180005510
:10181000551010201000FEAAAA00018000000180CF
:10182000004993EA546A59DBD44A5380000001808E
:10183000000001800055551010201000FEAAAA00DB
:10184000018000000180003453C29A31178912715F
:101850001380000001800000018000555510102009
:101860001000FEAAAA00018000000180007BB9C11F
:10187000247939C124793980000001800000018079
:101880000055551010201000FEAAAA00018000008B
:101890000180003325C4B447ADC4A434A580000042
:1018A0000180000001800055551010201000FEAA94
:1018B000AA00018000000180003E89A0D83EA9A0B6
:1018C000883E89800000018000000180005555108D
:1018D00010201000FEAAAA00018000000180003A3A
:1018E0005DC252325D8A52719D800000018000000D
:1018F00001800055551010201000FEAAAA0001809A
:10190000000001800079CFC2107991C0507B8F8098
:1019100000000180000001800055551010201000CB
:10192000FEAAAA00018000000180001E7190801EA6
:1019300061901010E18000000180000001800055DE
:10194000551010201000FEAAAA000180000001809E
:10195000000E719080166192100EE18000000180EF
:10196000000001800055551010201000FEAAAA00AA
:10197000018000000180001C7192801C6194101293
:10198000E18000000180000001800055551010200A
:101990001000FEAAAA0001800000018000127192CE
:1019A00080126192100CE180000001800000018033
:1019B00000555500000008000E010A0A08040080C6
:1019C0008080808080800080800504040802088870
:1019D000888888060A0A080100242424FC4848FC58
:1019E000909090070A0A080100107C9290701C12D7
:1019F000927C10070A0A0801006294946810102C67
:101A000052528C070A0A0801003844442830528A8E
:101A1000848C7201040408040880808080030C0C0C
:101A20000803FF2040408080808080804040200369
:101A30000C0C0802FF804040202020202020404045
:101A400080070707080101109254385492100707C5
:101A500007080101101010FE101010020404080302
:101A6000FEC0404080040101080204F002020208A6
:101A70000300C0C0060A0A08010004040810102070
:101A800020408080060A0A0801003048848484844B
:101A900084844830050A0A0802002060A020202023
:101AA000202020F8060A0A080100788484041820FF
:101AB000408080FC060A0A08010078848404380407
:101AC00004848478060A0A080100081828488888CF
:101AD000FC080808060A0A080100FC808080F80457
:101AE00004048478060A0A08010038408080F884DB
:101AF00084848478060A0A080100FC0404080808A3
:101B000010101010060A0A08010078848484788472
:101B100084848478060A0A080100788484847C041A
:101B200004040870020707080301C0C0000000C0D9
:101B3000C00209090803FFC0C0000000C040408087
:101B400005090908020008102040804020100806FE
:101B50000505080102FC000000FC05090908010058
:101B6000804020100810204080060A0A08010078F2
:101B7000848404081010001010060A0A08010038B6
:101B80004494ACA4A4A49C403C060A0A080100307A
:101B900048488484FC84848484060A0A080100F886
:101BA000848484F884848484F8060A0A080100780E
:101BB000848480808080848478060A0A080100F08A
:101BC0008884848484848488F0060A0A080100FCDE
:101BD000808080F880808080FC060A0A080100FC72
:101BE000808080F88080808080060A0A0801007862
:101BF000848480809C84848C74060A0A0801008492
:101C0000848484FC8484848484050A0A080200F89D
:101C10002020202020202020F8070A0A0801003E6A
:101C2000080808080808888870060A0A080100845D
:101C30008890A0C0C0A0908884060A0A080100808D
:101C40008080808080808080FC060A0A08010084F1
:101C500084CCCCB4B484848484060A0A0801008449
:101C6000C4C4A4A494948C8C84060A0A0801007845
:101C7000848484848484848478060A0A080100F8B1
:101C8000848484F88080808080070B0B0801FF78B3
:101C9000848484848484B4CC7806060A0A0801000B
:101CA000F8848484F89088888484060A0A080100ED
:101CB00078848480601804848478070A0A08010004
:101CC000FE101010101010101010060A0A08010063
:101CD00084848484848484848478070A0A080100C4
:101CE00082828244444428281010060A0A0801000F
:101CF00084848484B4B4CCCC8484060A0A080100A9
:101D000084844848303048488484070A0A0801001F
:101D100082824444281010101010060A0A0801009C
:101D2000FC0404081020408080FC030C0C0804FF15
:101D3000E080808080808080808080E0060A0A08C1
:101D4000010080804020201010080404030C0C08BF
:101D500001FFE020202020202020202020E006037A
:101D6000030801093048840701010801FFFE03034D
:101D70000308020A8040200608080801007884044D
:101D80007C84848C74060B0B080100808080B8C4AE
:101D900084848484C4B8060808080100788480809C
:101DA00080808478060B0B080100040404748C8482
:101DB0008484848C74060808080100788484FC807C
:101DC000808478050B0B08010018202020F82020C3
:101DD00020202020060B0B0801FE047488888870E0
:101DE0004078848478060B0B080100808080B8C49A
:101DF000848484848484050B0B0802002020006006
:101E0000202020202020F8050D0D0801FE080800E4
:101E100018080808080808089060060B0B0801005D
:101E20008080808890A0C0A0908884050B0B080259
:101E30000060202020202020202020F8070808080B
:101E40000100EC9292929292929206080808010088
:101E5000B8C48484848484840608080801007884D3
:101E6000848484848478060A0A0801FEB8C48484C1
:101E70008484C4B88080060A0A0801FE748C8484B5
:101E800084848C740404060808080100B8C48480A3
:101E9000808080800608080801007884806018042B
:101EA0008478050A0A080100202020F8202020203C
:101EB00020180608080801008484848484848C74B3
:101EC0000608080801008484844848483030070820
:101ED00008080100829292929292926C0608080879
:101EE00001008484483030488484060A0A0801FED0
:101EF00084848484844C340404780608080801002F
:101F0000FC040810204080FC030C0C0803FF6080D8
:101F100080404080804040808060010E0E0804FEBA
:101F20008080808080808080808080808080030CA2
:101F30000C0802FFC020204040202040402020C04C
:101F400007030308010862928C1010201000FEAAFB
:101F5000AA000180000001800073D1CA104BD1CAD1
:101F60001073DF80000001800000018000555510D3
:101F700010201000FEAAAA0001800000018000715C
:101F80009DCA5273D3C252425D800000018000009E
:101F900001800055551010201000FEAAAA000180F3
:101FA0000000018000499DCA527A5DCA5049918063
:101FB0000000018000000180005555101020100025
:101FC000FEAAAA00018000000180007393CA527328
:101FD0009FCA12721380000001800000018000552A
:101FE000551010201000FEAAAA00018000000180F8
:101FF000004B93EA525B9FCA524B938000000180D2
:10200000000001800055551010201000FEAAAA0003
:102010000180000001800074B9A6A425A5A4A474C1
:10202000B98000000180000001800055551010208B
:102030001000FEAAAA00018000000180004BD1EA36
:10204000105BD1CA104BDF800000018000000180CE
:102050000055551010201000FEAAAA0001800000B3
:1020600001800039CDC212319F88527393800000E5
:102070000180000001800055551010201000FEAABC
:10208000AA000180000001800079CDC212799FC0B2
:10209000527B9380000001800000018000555510A4
:1020A00010201000FEAAAA00018000000180004B51
:1020B0009DC9207919C904493980000001800000B8
:1020C00001800055551010201000FEAAAA000180C2
:1020D000000001800025DDA4843C85A4842499802F
:1020E00000000180000001800055551010201000F4
:1020F000FEAAAA000180000001800045CDC49044E2
:1021000089A884109980000001800000018000559A
:10211000551010201000FEAAAA00018000000180C6
:1021200000721DCA127213C21243DD8000000180CA
:10213000000001800055551010201000FEAAAA00D2
:10214000018000000180007213CA127213C2124390
:10215000CD80000001800000018000555510102046
:102160001000FEAAAA00018000000180000E218953
:10217000200E218A200921800000018000000180BA
:102180000055551010201000FEAAAA000180000082
:1021900001800039DDC202318D8850739F800000BC
:1021A0000180000001800055551010201000FEAA8B
:1021B000AA000180000001800039DDC202318D8853
:1021C00042739D8000000180000001800055551081
:1021D00010201000FEAAAA000180000001800071FA
:1021E000CFCA104A0DCA0271DD80000001800000D4
:1021F00001800055551010201000FEAAAA00018091
:1022000000000180007245CA4C7245C244418F8073
:1022100000000180000001800055551010201000C2
:10222000FEAAAA0001800000018000725DCA42720D
:102230004DC250419F800000018000000180005588
:10224000551010201000FEAAAA0001800000018095
:10225000003B9DC120311989047139800000018043
:10226000000001800055551010201000FEAAAA00A1
:102270000180000001800039D3C212421FC212390E
:10228000D38000000180000001800055551010200F
:102290001000FEAAAA00018000000180002289B679
:1022A000882AA9A2D822898000000180000001802C
:1022B0000055551010201000FEAAAA000180000051
:1022C0000180003B8DC252339F8A1272138000003E
:1022D0000180000001800055551010201000FEAA5A
:1022E000AA00018000000180007B8DC2527B9FC24A
:1022F000127A138000000180000001800055551003
:1023000010201000FEAAAA00018000000180003900
:102310008FC250324D8A42719D80000001800000C2
:1023200001800055551010201000FEAAAA0001805F
:102330000000018000339BC42225A394A2639B80EC
:102340000000018000000180005555101020100091
:10235000FEAAAA000180000001800039DDC2083217
:10236000098A0871DD8000000180000001800055AD
:10237000551010201000FEAAAA0001800000018064
:102380000039DDC2084189C0483B9D8000000180C2
:10239000000001800055551010201000FEAAAA0070
:1023A000018000000180000EF990200C2182201C89
:1023B0002180000001800000018000555510102090
:1023C0001000FEAAAA000180000001800031CFCADF
:1023D000104991C850338F800000018000000180B7
:1023E0000055551010201000FEAAAA000180000020
:1023F0000180001C8992D81CA99088108980000057
:102400000180000001800055551010201000FEAA28
:10241000AA0001800000018000338FCA507B91CA5E
:10242000104A0F8000000180000001800055550017
:10243000000008000E010A0A080400808000808065
:102440008080808080070A0A08010010107C92902A
:1024500090927C1010070A0A0801001C202020F826
:102460002020207CC20608080801018448784848DA
:10247000784884070A0A08010082442810FE10FEEA
:10248000101010010A0A080400808080800000807B
:10249000808080060A0A0801007884807884847825
:1024A00004847804020208020C9090080A0A0800CA
:1024B000003C4299A5A1A1A599423C050707080245
:1024C00005700878887800F80609090801002424B6
:1024D00048489048482424060404080100FC0404E9
:1024E000041010201000FEAAAA000180003A63C266
:1024F0005433C98A48724980000001800003C180BA
:1025000000000180005555080A0A0800003C42B945
:10251000A5A5B9A9A5423C06010108010BFC0304CD
:102520000408020A40A0A040070909080101101090
:1025300010FE10101000FE0507070802057088083D
:10254000708080F805070708020570880870088801
:102550007003030308030A204080080A0A0800FEEB
:1025600042424242424266594080060C0C0801FF3A
:102570007CF4F4F4F47414141414141C020202080D
:102580000304C0C00302020802FE20C003070708BC
:1025900002052060A0202020200507070802057002
:1025A0008888887000F8060909080100909048485A
:1025B0002448489090060A0A08010044C448505034
:1025C000242C549C84060A0A08010044C448505034
:1025D000283444889C060A0A080100C4244830D0E4
:1025E000242C549C84060A0A0801001010001010C4
:1025F0006084848478060E0E0801006018000030A4
:1026000048488484FC84848484060E0E08010018E3
:102610006000003048488484FC84848484060E0E64
:10262000080100304800003048488484FC848484D9
:1026300084060E0E08010064980000304848848427
:10264000FC84848484060E0E080100484800003093
:1026500048488484FC84848484060E0E080100307B
:102660004830003048488484FC84848484070A0A03
:102670000801003E509090FE909090909E060C0CA9
:102680000801FE78848480808080848478106006CD
:102690000E0E08010060180000FC808080F8808029
:1026A0008080FC060E0E08010018600000FC80808F
:1026B00080F880808080FC060E0E08010030480003
:1026C00000FC808080F880808080FC060E0E08016F
:1026D0000048480000FC808080F880808080FC05F5
:1026E0000E0E08020060180000F820202020202094
:1026F0002020F8050E0E08020030C00000F820204F
:10270000202020202020F8050E0E080200609000F6
:1027100000F82020202020202020F8050E0E08029E
:102720000090900000F82020202020202020F80792
:102730000A0A08000078444242F2424242447806C3
:102740000E0E0801006498000084C4C4A4A49494EC
:102750008C8C84060E0E08010060180000788484BA
:1027600084848484848478060E0E08010018600036
:102770000078848484848484848478060E0E08011E
:1027800000304800007884848484848484847806BB
:102790000E0E080100649800007884848484848488
:1027A000848478060E0E080100484800007884846E
:1027B0008484848484847806050508010284483072
:1027C0004884060C0C0801FF0474888C9494A4A41B
:1027D000C444B880060E0E0801006018000084840E
:1027E0008484848484848478060E0E080100186032
:1027F000000084848484848484848478060E0E0893
:102800000100304800008484848484848484847833
:10281000060E0E08010048480000848484848484E5
:1028200084848478070E0E080100186000008282FC
:102830004444281010101010060B0B080100808073
:10284000F088848488F0808080060A0A080100707D
:10285000888890B0888484A498060C0C08010060D5
:102860001800007884047C84848C74060C0C0801A5
:1028700000186000007884047C84848C74060C0C3E
:10288000080100304800007884047C84848C74063D
:102890000C0C080100649800007884047C84848C0B
:1028A00074060C0C080100484800007884047C84FD
:1028B000848C74060D0D08010030483000007884C7
:1028C000047C84848C740708080801007C92127EC2
:1028D0009090927C060A0A0801FE788480808080AD
:1028E00084781060060C0C080100601800007884E1
:1028F00084FC80808478060C0C08010018600000BD
:10290000788484FC80808478060C0C0801003048B0
:102910000000788484FC80808478060C0C08010018
:1029200048480000788484FC80808478050C0C087A
:102930000200C030000060202020202020F8050C7C
:102940000C08020030C0000060202020202020F869
:10295000050C0C0802006090000060202020202060
:1029600020F8050C0C080200909000006020202048
:10297000202020F8060C0C08010064182844047C70
:10298000848484848478060C0C0801006498000018
:10299000B8C4848484848484060C0C080100601804
:1029A00000007884848484848478060C0C080100F8
:1029B000186000007884848484848478060C0C0871
:1029C0000100304800007884848484848478060C74
:1029D0000C080100649800007884848484848478DE
:1029E000060C0C0801004848000078848484848424
:1029F0008478060707080101300000FC000030065B
:102A00000A0A0801FF04788C9494A4A4C478800670
:102A10000C0C080100601800008484848484848C79
:102A200074060C0C080100186000008484848484FF
:102A3000848C74060C0C08010030480000848484E7
:102A40008484848C74060C0C0801004848000084BF
:102A500084848484848C74060E0E0801FE18600041
:102A60000084848484844C34040478050C0C0802AB
:102A7000FE8080F088888890A0C0808080060E0E3E
:102A80000801FE4848000084848484844C34040493
:102A9000780000000203000A0B0000000005040992
:102AA000080000000000000000000000000000001E
:102AB0000001020408102040800102040810204098
:102AC0008001020408102040800102040810204008
:102AD000800202020202020202040404040404044A
:102AE00004030303030303030301010101010101C3
:102AF00001000020002300260029000000220025FC
:102B00000028002B0000002100240027002A0000DC
:102B100000192121E53111241FBECFEFD0E4DEBF23
:102B2000CDBF13E0A0E0B1E0E0E8F0E700E00BBFCC
:102B300002C007900D92A834B107D9F72EE0A8E49F
:102B4000B3E001C01D92AA36B207E1F715E1CBE868
:102B5000D5E104C02197FE010E94DF35C838D107B6
:102B6000C9F70E9403330C943E380C940000CF93B5
:102B7000DF93EC01262F4CAD6BAD04960E948527A8
:102B80009BAD890F8BAF81E090E0DF91CF910895ED
:102B900061307105D9F01CF4672B41F00895623063
:102BA000710539F163307105A1F10895892BB1F5F3
:102BB0008091500390915103019660E170E00E9472
:102BC000CB3590935103809350030FC0892B31F57F
:102BD00080914E0390914F03019660E170E00E9456
:102BE000CB3590934F0380934E0381E08093060191
:102BF0000895892B99F480914C0390914D0301968F
:102C000064E070E00E94CB3590934D0380934C03B9
:102C1000ECCF892B19F481E0809354030895DC01F3
:102C2000ED91FC910190F081E02D0994CF93DF9319
:102C3000FC0125ADEC012496211105C021E025AF52
:102C4000CE010E941929CE01DF91CF910C943E292B
:102C500004960C949D271F920F920FB60F92112489
:102C60000BB60F922F933F934F935F936F937F9386
:102C70008F939F93AF93BF93EF93FF938FEB9BE063
:102C80000E94CF1F8FEC9BE00E94CF1F8FED9BE037
:102C90000E94CF1F8FEE9BE00E94CF1FFF91EF910C
:102CA000BF91AF919F918F917F916F915F914F9164
:102CB0003F912F910F900BBE0F900FBE0F901F9062
:102CC0001895CF92DF92EF92FF920F931F93CF93BD
:102CD000DF9300D000D000D0CDB7DEB76C017B0110
:102CE0008A0162EE74E18FE39CE00E94182825E2DD
:102CF00032E046E160E08BE39CE00E9428164AE067
:102D0000B601CE0101960E94D63229813A8146E170
:102D100064E18BE39CE00E942816CE0101960E949C
:102D20003C3229E232E046E168E28BE39CE00E941B
:102D300028164AE0B701CE0101960E94D6322981B9
:102D40003A8146E16CE38BE39CE00E942816CE01B9
:102D500001960E943C322DE232E04AE260E08BE3D1
:102D60009CE00E94281687E0809FB001819F700D33
:102D70001124695D7E4FCE0101960E94AA322981FD
:102D80003A814AE26DE28BE39CE00E942816CE0174
:102D900001960E943C3226960FB6F894DEBF0FBE15
:102DA000CDBFDF91CF911F910F91FF90EF90DF90FA
:102DB000CF90089562EE74E18FE39CE00E941828A2
:102DC00024E332E046E169E18BE39CE00E942816AF
:102DD0002EE332E04AE269E18BE39CE00C94281692
:102DE00062EE74E18FE39CE00E94182825E432E053
:102DF0004AE260E08BE39CE00C94281662EE74E1FA
:102E00008FE39CE00E9418282FE432E046E16AE05C
:102E10008BE39CE00E9428162AE532E04AE26AE051
:102E20008BE39CE00C94281662EE74E18FE39CE047
:102E30000E94182824E832E04AE260E08BE39CE03C
:102E40000C942816CF93DF9300D000D000D0CDB7DC
:102E5000DEB762EE74E18FE39CE00E94182821E95E
:102E600032E046E160E08BE39CE00E94281680910E
:102E70004C0390914D0327E0289FB001299F700DCE
:102E80001124695D7E4FCE0101960E94AA322981EC
:102E90003A8146E16DE28BE39CE00E942816CE0168
:102EA00001960E943C3227E932E04AE260E08BE37F
:102EB0009CE00E942816E0914C03F0914D03EE0F28
:102EC000FF1FE95FFE4F608171814AE0CE010196EC
:102ED0000E94D63229813A814EE360E08BE39CE088
:102EE0000E942816CE0101960E943C3222EA32E06E
:102EF0004EE368E28BE39CE00E94281626960FB60C
:102F0000F894DEBF0FBECDBFDF91CF910895CF9370
:102F1000DF9300D000D000D0CDB7DEB762EE74E111
:102F20008FE39CE00E94182821E932E046E160E04E
:102F30008BE39CE00E94281680914C0390914D03F6
:102F400027E0289FB001299F700D1124695D7E4FF5
:102F5000CE0101960E94AA3229813A8146E16DE2B2
:102F60008BE39CE00E942816CE0101960E943C3221
:102F700029EA32E04AE260E08BE39CE00E942816F6
:102F800026960FB6F894DEBF0FBECDBFDF91CF916E
:102F9000089562EE74E18FE39CE00E94182826EB0E
:102FA00032E046E160E08BE39CE00E94281622ECD0
:102FB00032E04AE260E08BE39CE00C942816EF924A
:102FC000FF920F9380914A0C883211F46FEF03C087
:102FD000823031F463E08FE39CE00E946B290DC0E6
:102FE000813011F461E0F7CF803339F42FEF4FEFE8
:102FF0006FEF8FE39CE00E946E290E9445318BE0C9
:103000009CE00E94572C64E070E080E090E00E9419
:103010008D338BE39CE00E94161640EAE42E40E1DB
:10302000F42E00E420E840E060E08FE39CE00E94A2
:1030300042238FE39CE00E9443298111EECF6CEB89
:1030400072E080E090E00E948D338BE39CE00E9470
:10305000161630EAE32E3CE0F32E00E420E840E0D0
:1030600060E08FE39CE00E9442238FE39CE00E949B
:1030700043298111EECF6CEB72E080E090E00E947A
:103080008D338BE39CE00E94161620EAE22E20E0AE
:10309000F22E00E420E840E060E08FE39CE00E9434
:1030A00042238FE39CE00E9443298111EECF6CEB19
:1030B00072E080E090E00E948D338BE39CE00E9400
:1030C000161690EAE92E98E0F92E00E420E840E098
:1030D00060E08FE39CE00E9442238FE39CE00E942B
:1030E00043298111EECF64EF71E080E090E00E940F
:1030F0008D338BE39CE00E94161680EAE82E84E074
:10310000F82E00E420E840E060E08FE39CE00E94BD
:1031100042238FE39CE00E9443298111EECF64EFAC
:1031200071E080E090E00F91FF90EF900C948D3370
:10313000DC0120E22D93FC01EF5FFB4F1D92AE17E7
:10314000BF07E1F79C012F5C3B4F1192E217F30799
:10315000E1F71082FC01EE5CFB4F2FEF2083089516
:10316000CF93DF9389E79CE00E948E2061E085E1A8
:103170000E944B3461E083E00E944B348FEF8093D8
:10318000050C8093060C8093070C8093080C8093A9
:10319000090C80930A0C0E94DF17CFEBDBE068EC90
:1031A00075E1CE010E94F21F60968BE0CF3FD807F9
:1031B000B1F7F8941092800010928100109285006F
:1031C0001092840080E293E09093890080938800BD
:1031D000809181008860809381008091810085606A
:1031E0008093810080916F00826080936F0078945B
:1031F00068EE73E080E090E0DF91CF910C948D3326
:103200000F931F93CF93DF93CBE3DCE01B821A82F3
:1032100080ED92E09983888342E167E172E0CE011C
:103220000E943B2388ED92E09983888342E164E029
:103230008BE09CE00E94332B01E010E02AE030E0BC
:1032400040E050E062E070E08FEB9BE00E947B1F6B
:1032500002E010E02AE030E040E050E060E070E0A2
:103260008FEC9BE00E947B1F00E010E02AE030E042
:1032700040E050E061E070E08FED9BE00E947B1F3A
:1032800003E010E02AE030E040E050E064E170E06C
:103290008FEE9BE00E947B1FDF91CF911F910F91DA
:1032A0000895CF9361E070E089E79CE00E94A2203E
:1032B00060E070E089E79CE00E940F1660E070E03B
:1032C00089E79CE00E940F1689E79CE00E941E217E
:1032D00041E050E061E070E089E79CE00E941B2142
:1032E00089E79CE00E94F61F892B31F089E79CE07A
:1032F0000E94FE1FC82FF4CF8C2FCF910895CF933B
:1033000061E070E089E79CE00E94A22063E070E049
:1033100089E79CE00E940F1660E070E089E79CE07E
:103320000E940F1689E79CE00E941E2141E050E0B8
:1033300061E070E089E79CE00E941B2189E79CE046
:103340000E94F61F892B31F089E79CE00E94FE1F46
:10335000C82FF4CF8C2FCF910895CF9361E070E008
:1033600089E79CE00E94A22061E070E089E79CE090
:103370000E940F1660E070E089E79CE00E940F1643
:1033800089E79CE00E941E2141E050E061E070E08E
:1033900089E79CE00E941B2189E79CE00E94F61FC0
:1033A000892B31F089E79CE00E94FE1FC82FF4CFE3
:1033B0008C2FCF9108950F931F93CF93DF9361E0EC
:1033C00070E089E79CE00E94A22061E070E089E75C
:1033D0009CE00E940F1661E070E089E79CE00E948B
:1033E0000F1689E79CE00E941E216AE070E080E0F1
:1033F00090E00E948D3340E250E061E070E089E7A8
:103400009CE00E941B21CBE1DCE08E0189E79CE07F
:103410000E94F61F892B09F045C020913A0C80E2EA
:1034200028029001112480E090E05991FC01E20F04
:10343000F31FE956FE4F408101968F31910519F037
:1034400054131EC0F2CF54131BC08BE39CE00E94A8
:10345000161680913A0C082E000C990B0E94221728
:103460008FE39CE00E9443298111F3CF60ED77E068
:1034700080E090E0DF91CF911F910F910C948D33FC
:103480008BE39CE00E94161680913A0C082E000CEB
:10349000990B0E9487178FE39CE00E9443298111BA
:1034A000F3CFE4CF89E79CE00E94FE1FF8018193EF
:1034B0008F01ACCFEF92FF920F931F93CF93DF93C7
:1034C00080E78093550306E513E0C1E0D0E061E0BA
:1034D00070E089E79CE00E94A22060E070E089E74C
:1034E0009CE00E940F16BE0189E79CE00E940F1627
:1034F00089E79CE00E941E216AE070E080E090E095
:103500000E948D3340E250E061E070E089E79CE08A
:103510000E941B21780189E79CE00E94F61F892BFD
:1035200041F089E79CE00E94FE1FF70181937F0133
:10353000F2CF2196005E1F4FC132D10541F661E006
:1035400070E089E79CE00E94A22060E070E089E7DB
:103550009CE00E940F1661E270E089E79CE00E9407
:103560000F1689E79CE00E941E2142E050E061E0D6
:1035700070E089E79CE00E941B21C0E0D0E089E771
:103580009CE00E94F61F892B79F089E79CE0209748
:1035900029F40E94FE1F8093860704C00E94FE1F2C
:1035A000809387072196EBCFDF91CF911F910F91E9
:1035B000FF90EF9008950F931F93CF93DF9381E6D1
:1035C0008093550361E070E089E79CE00E94A220AF
:1035D00063E070E089E79CE00E940F1661E070E014
:1035E00089E79CE00E940F1689E79CE00E941E215B
:1035F0006AE070E080E090E00E948D3340E250E0AD
:1036000061E070E089E79CE00E941B2106E517E07D
:10361000C0E0D0E089E79CE00E94F61F892B49F0CA
:1036200089E79CE00E94FE1FF80181938F0121969B
:10363000F1CF61E070E089E79CE00E94A22063E0A6
:1036400070E089E79CE00E940F1662E070E089E775
:103650009CE00E940F1689E79CE00E941E216AE010
:1036600070E080E090E00E948D3340E150E061E046
:1036700070E089E79CE00E941B21CA5AD84F89E775
:103680009CE00E94F61F892B31F089E79CE00E94A4
:10369000FE1F8993F4CF81E080935203DF91CF9195
:1036A0001F910F9108958F929F92AF92BF92CF92E8
:1036B000DF92EF92FF920F931F93CF93DF9380914E
:1036C00050039091510324E0880F991F2A95E1F748
:1036D00090914E039F70892B8093B90B80914C037E
:1036E0008093BA0B61E070E089E79CE00E94A22021
:1036F00061E070E089E79CE00E940F1660E070E0F6
:1037000089E79CE00E940F1663E670E089E79CE081
:103710000E940F1689E79CE00E941E21C0E0D0E0C5
:1037200001E010E038E8C32E37E0D32E61E070E00E
:1037300089E79CE00E94A22061E070E089E79CE0BC
:103740000E940F16B80189E79CE00E940F167601CF
:10375000EC1AFD0ACF312CEFD20724F44E018CEF86
:10376000981A03C08EE1882E912C5601AC1ABD0A1E
:10377000C7018A199B09EFEFEE1AFE0A8815990511
:103780003CF4F701608189E79CE00E944F20F0CF74
:1037900089E79CE00E941E210F5F1F4F6E97043245
:1037A000110521F661E070E089E79CE00E94A2200B
:1037B00061E070E089E79CE00E940F1664E270E02F
:1037C00089E79CE00E940F1609E81BE0C7EADBE0EE
:1037D000F80161918F0189E79CE00E944F20FBE096
:1037E000073A1F07A9F789E79CE00E941E2161E0C4
:1037F00070E089E79CE00E94A22061E070E089E728
:103800009CE00E940F1665E270E089E79CE00E9450
:103810000F16699189E79CE00E944F202BE0C93B7D
:10382000D207B9F789E79CE00E941E2161E070E0B1
:1038300089E79CE00E94A22061E070E089E79CE0BB
:103840000E940F1666E270E089E79CE00E940F1666
:103850006091B90B89E79CE00E944F206091BA0B00
:1038600089E79CE00E944F2089E79CE0DF91CF919F
:103870001F910F91FF90EF90DF90CF90BF90AF908E
:103880009F908F900C941E213F924F925F926F9267
:103890007F928F929F92AF92BF92CF92DF92EF92E0
:1038A000FF920F931F93CF93DF93CDB7DEB763974C
:1038B0000FB6F894DEBF0FBECDBF60E083E00E947C
:1038C000873460E085E10E94873482E18B8B8BE056
:1038D0009CE00E94F32F882309F48EC08BE09CE0CB
:1038E0000E949C2A882309F487C061E083E00E943B
:1038F000873461E085E10E94873488E897E00E9480
:103900009818C12CD12CE12CF12C332433942E01A6
:1039100081E1480E511C0DE01CE025E03CE043E055
:103920004E0D60E68BE09CE00E94683081113AC049
:103930008701A12CB12C370182E0680E711C460171
:103940008FEF881A980A6016710604F19E012D5EA9
:103950003F4FAE014F5F5F4F602F8BE09CE00E94B6
:10396000C730811112C0DE011196F401EA0DFB1D72
:10397000E857F84F8D9181934A165B06D9F70F5F90
:103980001F4F80E1A80EB11CDECF312C84E0E80E81
:10399000F11C80E4C80ED11C80E4E816F10409F0A3
:1039A000BACF01C0312C8BE09CE00E9425308BE027
:1039B0009CE00E94C33060E083E00E94873460E0B6
:1039C00085E10E9487348BE39CE00E941616332029
:1039D00019F00E94141702C00E94F0168FE39CE0B9
:1039E0000E9443298111F3CF6EEE72E080E090E0F7
:1039F0000E948D33832D01C080E063960FB6F8944A
:103A0000DEBF0FBECDBFDF91CF911F910F91FF9011
:103A1000EF90DF90CF90BF90AF909F908F907F906E
:103A20006F905F904F903F900895CF92DF92EF920A
:103A3000FF920F931F93CF93DF93CDB7DEB76397BA
:103A40000FB6F894DEBF0FBECDBF60E083E00E94EA
:103A5000873460E085E10E94873482E18B8B8BE0C4
:103A60009CE00E94F32F882309F469C08BE09CE05E
:103A70000E949C2A882309F462C088E897E00E948B
:103A8000981861E083E00E94873461E085E10E943C
:103A900087348DE58093FF0B8AE68093000C84E6E3
:103AA0008093020C85EF8093030C81E98093040CD2
:103AB000809158078093010C0DE01CE02FEF3BE054
:103AC0004FE360E68BE09CE00E946830811124C0E7
:103AD00089E4E82E8BE0F82E1CE36E0181E1C80E2C
:103AE000D11C9E012D5E3F4FAE014F5F5F4F612F96
:103AF0008BE09CE00E94C73081110EC0FE01319620
:103B0000D70181918D93EC15FD05D9F71F5F80E1F9
:103B1000E80EF11C1F3329F78BE09CE00E94253052
:103B20008BE09CE00E94C33060E083E00E94873419
:103B300060E085E10E94873482E090E002C080E08E
:103B400090E063960FB6F894DEBF0FBECDBFDF9155
:103B5000CF911F910F91FF90EF90DF90CF9008953C
:103B60003F924F925F926F927F928F929F92AF920D
:103B7000BF92CF92DF92EF92FF920F931F93CF935A
:103B8000DF93CDB7DEB760970FB6F894DEBF0FBEF8
:103B9000CDBF60E083E00E94873460E085E10E9451
:103BA00087348BE09CE00E94F32F882309F48CC0BB
:103BB0008BE09CE00E949C2A882309F485C061E088
:103BC00083E00E94873461E085E10E948734809120
:103BD000180C0E943A3180E4C82ED12C94E0E92ED2
:103BE000F12C332433942E0181E1480E511C0DE059
:103BF0001CE025E03CE043E04E0D60E68BE09CE0FD
:103C00000E946830811136C08701A12CB12C370188
:103C100092E0690E711C46018FEF881A980A6016AF
:103C20007106E4F0D401AA0DBB1DAB5ABC4FFE01D6
:103C30003196AF018D9181934E165F06D9F720E141
:103C4000602F8BE09CE00E94093190E1A90EB11C2D
:103C5000811103C00F5F1F4FE2CF312C84E0E80ECB
:103C6000F11C90E4C90ED11C80E4E816F10409F0BF
:103C7000BECF01C0312C8BE09CE00E9425308BE050
:103C80009CE00E94C33060E083E00E94873460E0E3
:103C900085E10E9487348BE39CE00E941616332056
:103CA00019F00E94141702C00E94F0168FE39CE0E6
:103CB0000E9443298111F3CF6EEE72E080E090E024
:103CC0000E948D33832D01C080E060960FB6F8947A
:103CD000DEBF0FBECDBFDF91CF911F910F91FF903F
:103CE000EF90DF90CF90BF90AF909F908F907F909C
:103CF0006F905F904F903F900895CF93DF938091A6
:103D0000480390914903892B09F040C00E94511942
:103D1000803771F485E593E00E9498180E945A1A42
:103D200081E08093530310924B0310924A030AC020
:103D30000E947F19813631F488E897E00E94981834
:103D40000E94DB1A61E08091BD0B9091BE0B892B24
:103D500009F060E0862F90E09093BE0B8093BD0B3E
:103D600081E090E02091BB0B3091BC0B232B11F034
:103D700080E090E09093BC0B8093BB0B83E00E94AB
:103D800087346091BB0B85E10E9487348091540396
:103D9000882309F45BC08BE39CE00E9416160E9406
:103DA000C9178FE39CE00E9443298111F8CF8091CD
:103DB0004C0390914D030F97C9F40E94151D892B58
:103DC000F1F48BE39CE00E9416160E94C9178FE362
:103DD0009CE00E9443298111F8CFEFCF0E94C917C0
:103DE0008FE39CE00E9443298111F8CF0E94441C7C
:103DF000811105C08BE39CE00E941616EFCF0E9454
:103E0000531B109254038BE39CE00E9416160E94F1
:103E1000DA168FE39CE00E9443298111F8CF68EE07
:103E200073E080E090E00E948D33C5E1D0E00E9415
:103E3000AD19823749F0219739F064E670E080E0EF
:103E400090E00E948D33F3CF0E94DB1980915303E1
:103E5000882301F18BE39CE00E9416160E94FE1657
:103E60008FE39CE00E9443298111F8CF0E94B01D8E
:103E700081110DC08BE39CE00E9416160E94FE1675
:103E80008FE39CE00E9443298111F8CFEFCF10927D
:103E9000530318C08BE39CE00E94161640914C031C
:103EA00050914D0360914E0370914F0380915003E8
:103EB000909151030E9461168FE39CE00E94432978
:103EC0008111ECCF80914A0390914B03019690931E
:103ED0004B0380934A0380914803909149030196D4
:103EE00065E070E00E94CB359093490380934803CE
:103EF000DF91CF9108958F929F92AF92BF92EF92F0
:103F0000FF920F931F93CF93DF93EC01F62EE72ED2
:103F100049015A0162E08F2D0E944B34F882E982F8
:103F20008A829B82AC82BD821E821F82188619867D
:103F300081E090E09B878A871D870C87DF91CF9176
:103F40001F910F91FF90EF90BF90AF909F908F9037
:103F50000895CF92DF92EF92FF92CF93DF93EC011F
:103F60000E945C33CE80DF80E884F984DC01CB01E1
:103F70008C199D09AE09BF0921E0CA80DB80EC8065
:103F8000FD80C816D906EA06FB0608F020E0822F5D
:103F9000DF91CF91FF90EF90DF90CF900895CF9376
:103FA000DF93EC010E94A91F8823C9F00E945C33B3
:103FB0006E837F838887998788810E94B6342A859B
:103FC0003B858217930759F09B878A87EE85FF858B
:103FD000309729F06C857D85DF91CF910994DF9131
:103FE000CF910895FC017787668708958091A90C89
:103FF00090E02091AA0C821B910908959091AA0C3F
:104000008091A90C981750F4E92FF0E0E555F34F93
:10401000208130E09F5F9093AA0C02C02FEF3FEF0A
:10402000C9010895E091AA0C8091A90CE81730F419
:10403000F0E0E555F34F808190E008958FEF9FEF1A
:1040400008950895CF92DF92EF92FF920F931F93FE
:10405000CF93DF937C01CB018A012091850C222331
:1040600089F0EB016B01C40ED51ECC15DD0569F09E
:104070006991D701ED91FC910190F081E02DC7018C
:104080000995F3CF642F0E94E121C801DF91CF9100
:104090001F910F91FF90EF90DF90CF900895CF93F5
:1040A000DF931F92CDB7DEB769832091850C222361
:1040B000D1F02091860C203240F021E030E0FC016C
:1040C0003383228380E090E015C08091870CE82F35
:1040D000F0E0E857F34F998190838F5F8093870CCE
:1040E0008093860C05C061E0CE0101960E94E1211B
:1040F00081E090E00F90DF91CF910895FC01138251
:10410000128288EE93E0A0E0B0E084839583A683DA
:10411000B78380EE92E09183808308951092AA0C79
:104120001092A90C1092870C1092860C0C942521E9
:1041300081E08093850C6093A80C1092870C1092FC
:10414000860C08950C9498200F93062F21E040913F
:10415000860C68E87CE08091A80C0E948B2110926C
:10416000870C1092860C1092850C0F9108954F9237
:104170005F926F927F92AF92BF92CF92EF92FF9237
:104180000F931F93CF93DF935C01F62ED42F28015A
:104190003901EE2021F10E949820CE2DC43008F084
:1041A000C3E0C150C0F028E0C29FC0011124A301A8
:1041B000920104C056954795379527958A95D2F771
:1041C000CA01B901D501ED91FC910190F081E02D7A
:1041D000C5010995E6CF60E0C5010E94A4204D2FDE
:1041E000D13208F040E22C2D6BEA7CE08F2D0E944A
:1041F00043211092AA0C8093A90CDF91CF911F91BB
:104200000F91FF90EF90CF90BF90AF907F906F9005
:104210005F904F900895CF92EF920F931F93C22E0D
:10422000E12C00E010E098010E94B7201F910F914F
:10423000EF90CF90089521E00C940B2161E00C9455
:10424000A42089E79CE00C947E201092380D81E038
:104250008093360D1092350D61E081E10E94873424
:1042600061E080E10E948734E9EBF0E080818E7F9D
:10427000808380818D7F808388E48093B80085E48B
:104280008093BC000895413208F043C09091380DEE
:104290009111FCCF91E09093380D2093360D2FEFC4
:1042A0002093CB0C1092100D240F20930F0D9093A0
:1042B000370D9091370D880F892B8093370D8091A2
:1042C000350D813061F41092350D8091370D80935A
:1042D000BB008091BC0083FDF8CF85EC01C085EE6A
:1042E0008093BC008091380D8130E1F38091100DF6
:1042F000841710F44091100DA1E1BDE0962FFB0151
:104300008E2F891B841718F48D918193F9CF842FF8
:10431000089580E008950F93413208F04AC09091CB
:10432000380D9111FCCF32E03093380D0093360DEB
:104330003FEF3093CB0C1092100D40930F0D562F82
:10434000A1E1BDE0FB013E2F351B341718F431917C
:104350003D93F9CF1092370D3091370D880F832B95
:104360008093370D8091350D813061F41092350DB9
:104370008091370D8093BB008091BC0083FDF8CF06
:1043800085EC01C085EE8093BC00222321F0809152
:10439000380D8230D1F38091CB0C8F3F79F0809132
:1043A000CB0C803241F08091CB0C803331F094E023
:1043B00005C091E003C092E001C093E0892F0F9106
:1043C0000895613298F42091380D243089F4609377
:1043D000ED0C282FAFEEBCE0FC018E2F821B861760
:1043E00018F481918D93F9CF80E0089581E00895CC
:1043F00082E0089585ED8093BC008091BC0084FD2F
:10440000FCCF1092380D089585EC8093BC0010927B
:10441000380D08951F920F920FB60F9211240BB60C
:104420000F922F933F934F935F936F937F938F934D
:104430009F93AF93BF93EF93FF938091B900887FD1
:10444000803609F49EC078F5883209F45DC090F496
:10445000803109F456C038F4882309F4F5C0883057
:1044600009F44FC0F5C0883109F44EC0803209F418
:104470005FC0EEC0803409F46AC058F4803309F498
:1044800057C0883309F0E4C08093CB0C0E9404220B
:10449000DFC0803509F44FC0883509F45DC0883429
:1044A00009F0D6C0D3C0883909F4C4C0A8F488374D
:1044B00009F467C038F4883609F463C0803709F41A
:1044C00060C0C6C0883809F4B5C0803909F45FC03F
:1044D000803809F0BDC05BC0803B09F483C038F46C
:1044E000803A09F466C0883A09F47CC0B1C0803CC7
:1044F00009F4A4C0883C09F4A1C0883B09F487C032
:10450000A7C08091370D10C09091100D80910F0DB4
:10451000981770F5E091100D81E08E0F8093100DCB
:10452000F0E0EF5EF24F80818093BB0085EC83C0AA
:104530008093CB0C8BC0E091100D81E08E0F8093A7
:10454000100D8091BB00F0E0EF5EF24F8083909100
:10455000100D80910F0D6BC0E091100D81E08E0F5A
:104560008093100D8091BB00F0E0EF5EF24F8083EE
:104570008091360D81116AC081E08093350D84EA07
:104580005EC083E08093380D1092CC0CCFCF809129
:10459000CC0C803208F04EC0E091CC0C81E08E0F44
:1045A0008093CC0C8091BB00F0E0E353F34F808309
:1045B000BDCF0E9404228091CC0C803230F4E09177
:1045C000CC0CF0E0E353F34F10826091CC0C70E020
:1045D000E091310DF091320D8DEC9CE00995109237
:1045E000CC0C36C084E08093380D1092EE0C109203
:1045F000ED0CE091330DF091340D09958091ED0CA7
:10460000811105C081E08093ED0C1092EF0CE091D8
:10461000EE0C81E08E0F8093EE0CF0E0E151F34F51
:1046200080818093BB009091EE0C8091ED0C9817E7
:1046300008F47CCF85E88093BC000AC085EC8093A9
:10464000BC001092380D04C01092CB0C0E94FA21CD
:10465000FF91EF91BF91AF919F918F917F916F915A
:104660005F914F913F912F910F900BBE0F900FBE16
:104670000F901F901895FC0113AE14AE15AE049662
:104680000C9429292F923F924F925F926F927F92C2
:104690008F929F92AF92BF92CF92DF92EF92FF9252
:1046A0000F931F93CF93DF934C01162FC42FD22F5C
:1046B000502E0E94BB23882309F44AC087E08D0F47
:1046C000C82EC694C694C694D12C5C0E87E0482EA2
:1046D000410E8D2F869586958695682E712C3D2EE0
:1046E00098EF899F300C1124E8E08E9F100D112463
:1046F000D40DC51569F15701242C8D2F82198830EE
:1047000070F0F501049122E04C2F622DC4010E944B
:104710005A29FFEFAF1ABF0A88E0280EEECFF70143
:10472000E60DF71D311004C0EC0CFD1CCF5FE1CF8E
:10473000B490A32C212EB0FE05C04C2F622DC401D5
:104740000E9452292394AA94B694A110F4CFECCFDE
:10475000DF91CF911F910F91FF90EF90DF90CF905D
:10476000BF90AF909F908F907F906F905F904F9091
:104770003F902F9008950F93FC010150040F84A9DE
:1047800096A9941718F0081728F402C0081750F0DB
:10479000041740F42150260F83A995A9961720F4F9
:1047A000281720F480E007C0281720F481E026179E
:1047B00010F0F8CF81E00F910895DB011496ED9190
:1047C000FC91159720E030E061E00994DB0114963C
:1047D000ED91FC91159720E030E063E00994DB0156
:1047E0001496ED91FC91159720E030E040E064E0F4
:1047F0000994DB011496ED91FC91159720E030E0CF
:1048000041E064E00994DB011496ED91FC91159769
:1048100020E030E062E00994DB011496ED91FC9118
:10482000159720E030E065E00994DB011496ED91E6
:10483000FC91159766E00994CF92DF92EF92FF9278
:104840000F931F93CF93DF938C016B017A0180E06C
:10485000F701C49181110AC0CF3FE9F14C2FB60195
:10486000C8010E940C2481112FC03AC0CF3F11F41F
:104870004FEFF5CFCE3FB1F1C03F30F5C03E38F03D
:104880004C2F4F70B601C8010E9403241DC0C03DCB
:1048900038F04C2F4F70B601C8010E94E62314C0B7
:1048A000C03CA0F0B601C8010E94EF23C295C07FB2
:1048B000CE5FD0E0CE010E949325B601C8010E94D0
:1048C000F923CE010E94932580E006C0C7FDFCCFEE
:1048D0008C2F90E0F7CF81E0FFEFEF1AFF0AB8CFFF
:1048E00080E001C081E0DF91CF911F910F91FF9097
:1048F000EF90DF90CF900895CF93DF93FC0123A535
:10490000222381F0EC0188E70E943425811102C046
:1049100080E009C08EA1811180E40E946B2588236C
:10492000B9F31BA681E0DF91CF9108950F931F93F8
:10493000CF93C42F89016330C1F050F4613081F00E
:10494000623009F048C0FC0146A321E023A743C020
:10495000663011F1673079F1653009F03CC00EC066
:10496000FC0186A50E94FE2436C0FC0116A221E0AF
:1049700023A7411130C00E948C252DC00E947C24A9
:10498000811104C00E948C2580E026C08C2F0E94DB
:104990006B25811120C0F6CF0E947C24882391F3DF
:1049A000CC23C9F0F80181918F010E946B258823E7
:1049B00049F3C150F5CF0E947C24882319F3CC23FE
:1049C00051F0F80184910E946B25882329F00F5F34
:1049D0001F4FC150F4CF81E0CF911F910F910895E7
:1049E00090913B0D911104C080933B0D6093390D64
:1049F000089510923B0D1092390D089580933A0D51
:104A00001092B90084FF02C08CE001C088E480935A
:104A1000B8000C94F9241F93CF93DF9300D0CDB747
:104A2000DEB720ED37E03A8329839091BC009823CC
:104A300099F429813A81232B51F480913A0D182F52
:104A4000127081FD09C081E00E94F02406C0298116
:104A50003A8121503109E7CF11E0812F0F900F905B
:104A6000DF91CF911F910895CF93C82F84EA80934F
:104A7000BC0061E080E80E940B25882359F08091FA
:104A8000B900887F883041F0803131F061E082E008
:104A90000E94F024C0E01CC0C093BB0084E8809357
:104AA000BC0062E080E80E940B25882399F3809186
:104AB0003A0DC82FC27081FD0AC08091B900887F6D
:104AC000883129F062E082E00E94F02401C0C1E058
:104AD0008C2FCF910895CF938093BB0084E880936F
:104AE000BC0063E080E80E940B25C82F882389F072
:104AF00080913A0DC82FC27081FD0AC08091B90023
:104B0000887F883229F063E082E00E94F02401C0AF
:104B1000C1E08C2FCF91089584E98093BC0064E0BC
:104B200080E10C940B252EE93FE0009729F0F90174
:104B30003197F1F70197F9CF0895AF92BF92CF92D5
:104B4000DF92FF920F931F93CF93DF938C01EB01C2
:104B5000F42E690180E1481709F454C0841700F16C
:104B6000EAE04E1721F1FFE04F1357C041E0C801C2
:104B70000E94E62340E0BE01C8010E94032441E8F0
:104B8000BE01C8010E940C24F6014081BE01C8018B
:104B90000E940C2440E0BE01C8010E94E6233BC0F5
:104BA00081E1481791F1E5E14E1761F036C042E02E
:104BB000C8010E94DD234CEB54E1BE01C8010E94F4
:104BC0001C242BC0AA80BB8044EB54E1C8010E9486
:104BD0001C24F5014481406BBE01C8010E940C24D5
:104BE00041E0BE01C8010E940324AE01B801C50125
:104BF0000E94E829882301F140E0BE01C8010E941B
:104C0000E6230BC04BEA54E102C040EA54E1BE0186
:104C1000C8010E941C2481E00FC096014F2DBE01E7
:104C2000C801DF91CF911F910F91FF90DF90CF903E
:104C3000BF90AF900C94542ADF91CF911F910F91A8
:104C4000FF90DF90CF90BF90AF900895FC01E60FEA
:104C5000F11D849190E0982F88273196E4918E0F72
:104C6000911D0895FC01849108950E9432268823A5
:104C700021F0823011F083E0089586E0089580E00D
:104C8000089566E00C94262668E00C9426260A9681
:104C9000FC01849108950B96FC0184910895BF92C4
:104CA000CF92DF92EF92FF920F931F93CF93DF93F8
:104CB0008C01E62EDC011496CD91DC911597CE0186
:104CC0000E943226F82EF801848195810E943526B3
:104CD000C82EF1E0FF1203C02FE0B22E02C0BB24A9
:104CE000BA94D80114968D919C9115970E944726ED
:104CF000F82EF801848195810E944B26D82ED80188
:104D000014968D919C9115970E944426B0E6BE158D
:104D100038F4009729F0C80FD91F91E6F92E10C07A
:104D2000F801848195810E944126F0E4FE1538F453
:104D3000009729F0C80FD91F81E4F82E01C06196B1
:104D4000DE1490F4D80150961C92509753961C9202
:104D5000539754961C92549751961C925197529681
:104D60001C9280E090E067C0DF1460F38C2D90E02F
:104D7000FE0124912F3F11F4219658C0FE104DC022
:104D8000D80114968D919C9115970E9432269E0110
:104D90002F5F3F4FFE01882311F08230E1F48491B0
:104DA000D80153968C935397F901249154962C93E0
:104DB0005497FE013396E4915096EC935097FE0180
:104DC0003496E4915196EC935197FE013596E49117
:104DD0005296EC9320C08491982F9F709250D801E6
:104DE00052969C93529782958F7051968C935197BF
:104DF000F9012491822F8F7054968C9354972295A9
:104E00002F7053962C935397FE013296E491E295BE
:104E1000EF705096EC93CE010EC0FE013296E491F5
:104E2000EB219C012E0F311DC20FD31FFD1409F47D
:104E300089CFF3949DCFDF91CF911F910F91FF9078
:104E4000EF90DF90CF90BF9008956F927F928F92F6
:104E50009F92AF92BF92CF92DF92EF92FF920F9309
:104E60001F93CF93DF93EC01C62E742E622F0E9406
:104E70004F267C01892BC9F18C819D810E943526AA
:104E8000B82E1B890C898989C80E8A89781AD72C73
:104E9000D01A212F4D2D6C2DCE010E94BB238823CB
:104EA00011F1EB0CF11C195F169516951695812ED4
:104EB000912C7D14C1F06C2C57018A2D8E1981170D
:104EC00070F4F501049120E04D2D662DCE010E9475
:104ED0005A29FFEFAF1ABF0A88E0680EEECFE80C40
:104EE000F91CD394E6CF888901C080E0DF91CF918F
:104EF0001F910F91FF90EF90DF90CF90BF90AF90F8
:104F00009F908F907F906F900895FF920F931F93C3
:104F1000CF93DF93EC01062F142FF22EED89FE893B
:104F20000995482F410F2F2D602FCE01DF91CF9192
:104F30001F910F91FF900C942527CF92DF92EF9253
:104F4000FF920F931F93CF93DF937C01D62E042FF4
:104F5000C22E132FDC015596ED91FC9156970995C1
:104F6000080FCC2DD12F10E02991222341F0402FA2
:104F70006D2DC7010E942527D80E180FF5CF812F60
:104F8000DF91CF911F910F91FF90EF90DF90CF9025
:104F90000895DC0114962D913C911597211531054A
:104FA00009F43FC057968C915797F901811108C0B9
:104FB0003596E4915896EC935897F9013C9611C0B8
:104FC000813041F43F96E4915896EC935897F9015B
:104FD000709607C03D96E4915896EC935897F90166
:104FE0003E96E4915996EC93599758968C91589720
:104FF000082E000C990B59962C915997821B9109F8
:1050000027FD93955A962C915A97203441F0829F10
:10501000C001112426E0969587952A95E1F75B96C5
:105020008C9308952FE336E2FC01368B258B08958F
:10503000CF93DF93FC01248135812617370749F090
:10504000EC01758364830E94C9278FE396E29E8BEF
:105050008D8BDF91CF9108951F93CF93DF93EC0158
:105060001D821C821F821E82198681E0888782E24F
:105070008A871F861E86FE01B396CE01C1962FEF4A
:105080002193E817F907E1F711E018A3CE010E9478
:1050900012281F8B188E198E80E48A8F1B8E8BE945
:1050A0009AE29AAB89ABDF91CF911F910895DB0112
:1050B000ED91FC9109940F931F93CF93DF93EC0133
:1050C0008B01E9A9FAA982E0099520E030E04AE0E5
:1050D000B801CE010E945728182FE9A9FAA983E048
:1050E0000995E9A9FAA980E00995812FDF91CF916F
:1050F0001F910F9108950F931F93CF93DF93EC01AE
:105100008B01E9A9FAA982E00995E9A9FAA981E048
:10511000099520E030E044E1B801CE010E94572813
:105120009E012D5C3F4F47E1B801CE010E945728F8
:10513000E9A9FAA980E0DF91CF911F910F9109941D
:10514000EF92FF921F93CF93DF93EC017B01E9A9CC
:10515000FAA982E00995E9A9FAA981E0099520E078
:1051600030E045E1B701CE010E945728182F88236F
:1051700041F09E012D5C3F4F47E1B701CE010E94F7
:105180005728E9A9FAA980E00995812FDF91CF91ED
:105190001F91FF90EF900895FC01448F258F9C0193
:1051A000245E3F4F42E30C945728CF93DF931F9226
:1051B000CDB7DEB79E012F5F3F4F46E40E945728D0
:1051C00089810F90DF91CF910895CF93DF931F9244
:1051D000CDB7DEB79E012F5F3F4F47E40E945728AF
:1051E00089810F90DF91CF91089520E030E048E46D
:1051F0000C945728CF93DF93EC016A817B810E9446
:10520000D52888836A817B81CE010E94E528898325
:105210006A817B81CE010E94F5288B879E012D5CDF
:105220003F4F6A817B8147E1CE01DF91CF910C94A2
:105230005728CF93DF93EC016A817B810E945B2822
:10524000882321F0CE010E94FA2881E0DF91CF91DE
:105250000895EF92FF921F93CF93DF93EC017B01B0
:10526000142F0E942C28FB82EA821EA7CE01DF9118
:10527000CF911F91FF90EF900C941929FC0162814E
:1052800073810C947B28CF93DF93EC01EE85FF852F
:10529000309709F009956A817B81CE01DF91CF912A
:1052A0000C94A028362F242FFC0162817381432F98
:1052B0000C94CC280F93FC0182819381648F458FDD
:1052C000278F068F9F01245E3F4F4BE3BC01CF0128
:1052D0000F910C945728FC0160A3089546954695BC
:1052E00026952695269530E2439FF0011124E22B66
:1052F000DC019096EC939097687F4695469546958D
:10530000462B91964C930895FC0112828081815026
:10531000838314820895FC0130819281930F9283DC
:105320002181921760F494819F5F94838381830F1E
:10533000821710F08FEF820F838381E0089580E061
:105340000895DC011696ED91FC91179715968C91B6
:105350009F01280F311DC9011192E817F907E1F7E4
:10536000089531E0FC012381261708F430E021E0A4
:10537000FC018281481708F420E091E0461708F00C
:1053800090E0892F832B2823832F8923822B089554
:10539000DC01FB01108212968C9112978183159685
:1053A0008C9115978150828313968C9183830895F5
:1053B000FB0141812381213029F0233031F468EF52
:1053C000640F04C0642F485F01C0642F0C94B1299E
:1053D000FC01CB01BA012681378145810C9415244B
:1053E000DC011696ED91FC91179712968C91481B53
:1053F000477081E090E001C0880F4A95EAF7E60F18
:10540000F11D3081222311F0832B02C0809583236C
:1054100080830895FB014181DC0112962C91129743
:10542000421768F013962C911397241740F060816F
:1054300015962C91621718F424810C94F029089584
:10544000CF92DF92FF920F931F93CF93DF936C0164
:10545000EB01FA808B81813051F030F0823049F0DD
:10546000833051F41FEF09C010E001E007C011E0E4
:1054700004C010E00FEF02C010E000E0F7FE04C02F
:10548000BE01C6010E940A2A8881800F8883898113
:10549000810F8983FF0C91F7DF91CF911F910F91BD
:1054A000FF90DF90CF9008950F931F93CF93DF93DA
:1054B0008901FB01C281D3814233F9F068F445319F
:1054C00009F1473141F1443181F5CE010E94A12912
:1054D000CE010E94842929C0463411F1473411F1CC
:1054E0004B3319F5B901CE010E94D8298823E9F080
:1054F000B801CE010E94202A18C0B901CE010E9435
:105500000A2A13C0CE010E948B29882379F0CE018C
:105510000E94A1290AC0B901CE010E94C82905C074
:105520008D8101C08981F801808381E0DF91CF9175
:105530001F910F9108950895BC016E5F7F4FDC01AC
:10554000ED91FC910190F081E02D40E0099591E012
:10555000811190E0892F08952091BE0D222399F0AA
:105560004FB7F8942091BE0D213059F42DB32093FC
:10557000BC0D3DB32091BD0D209523232DBB4FBF06
:1055800002C04093BC0D8CBD9DBD08958EBD000032
:105590000DB407FEFDCF8EB508958091BE0D882312
:1055A00061F09FB7F8942091BE0D8091BC0D213021
:1055B00019F48DBB9FBF08958FBF0895AF92BF921E
:1055C000CF92DF92EF92FF920F931F93CF93DF93CF
:1055D0006C01A42E79016068B62E83E590E00E94EC
:1055E000AC2A60E0F60186850E948734AA948B2D50
:1055F0000E94C62A0023A1F0CFEFD0E001C0CC0F5B
:105600000A95EAF78B2D0E94C62A2C2F2095F701C8
:10561000908192238C23892BF701808311E001C0B4
:1056200010E0812F90E0E701C80FD91F1A1530F460
:105630008B2D0E94C62A88831F5FF3CF80E00E94D3
:10564000C62A888361E0F60186850E948734DF914F
:10565000CF911F910F91FF90EF90DF90CF90BF906F
:10566000AF900C94CD2AFC0181E393E09183808379
:105670006687478708950F931F93CF93DF93EC01BD
:10568000062F142F83E590E00E94AC2A60E08E85FF
:105690000E948734802F0E94C62A812F0E94C62A2A
:1056A00061E08E850E948734DF91CF911F910F9129
:1056B0000C94CD2ADF92EF92FF920F931F93CF931A
:1056C000DF938C01C62FF42ED22EE32E83E590E0DB
:1056D0000E94AC2A60E0F80186850E9487348C2FF6
:1056E0000E94C62ACD2DDE2DCE018F0D911D7C018D
:1056F000EC16FD0621F089910E94C62AF9CF61E0DF
:10570000F80186850E948734DF91CF911F910F9118
:10571000FF90EF90DF900C94CD2A1F93CF93DF93EF
:10572000EC01162F83E590E00E94AC2A60E08E85A4
:105730000E948734812F80680E94C62A80E00E94E0
:10574000C62A182F61E08E850E9487340E94CD2AD8
:10575000812FDF91CF911F9108950F9341110E94E6
:10576000DE2A0F9108950F931F93CF93DF938C013F
:10577000D62FC42F0E948D2B482F4C2B6D2FC80184
:10578000DF91CF911F910F910C943B2B0F931F939F
:10579000CF93DF938C01D62FC42F0E948D2BC09501
:1057A0004C2F48236D2FC801DF91CF911F910F918E
:1057B0000C943B2BCF92DF92EF92FF920F931F93AB
:1057C000CF93DF93EC016B01142F790140E062E08D
:1057D0000E943B2B44E06AE0CE010E943B2B40E854
:1057E00064E1CE010E943B2B9601412F62E1CE0184
:1057F0000E945A2B43E062E0CE010E943B2B08E856
:1058000013E16AE0CE010E948D2B82FF13C040E0BD
:1058100062E0CE010E943B2B64E4CE010E948D2BFE
:10582000F701808362E4CE010E948D2BF701818312
:1058300080E004C00150110921F783E0DF91CF918E
:105840001F910F91FF90EF90DF90CF9008950F93ED
:105850001F93CF938C014FE062E00E943B2BC3E08B
:1058600062E370E080E090E00E948D3362E0C80166
:105870000E948D2B84FF02C0C15091F7CF911F91E0
:105880000F910895CF93DF93EC0168E20E948D2B76
:10589000982F9370933041F0482F436068E2CE0117
:1058A000DF91CF910C943B2BDF91CF910895CF9353
:1058B000DF93EC0161E08E850E944B3461E08E85C0
:1058C0000E9487348F858F3F09F451C060E00E94A9
:1058D0004B348F850E94B634892B09F048C061E0B3
:1058E0008F850E944B3460E08F850E94873482E070
:1058F00090E00E94C93361E08F850E94873462E3A3
:1059000070E080E090E00E948D3340E064E2CE01E0
:105910000E943B2B40E066E2CE010E943B2B46E218
:1059200068E4CE010E943B2B40E864E5CE010E9472
:105930003B2B49EA66E5CE010E943B2B43E068E53C
:10594000CE010E943B2B48EE6AE5CE010E943B2B24
:1059500040E46AE2CE010E943B2B4DE362E2CE01BD
:105960000E943B2BCE01DF91CF910C94422CCE01B3
:105970000E94272CCACF3F924F925F926F927F92E4
:105980008F929F92AF92BF92CF92DF92EF92FF924F
:105990000F931F93CF93DF9300D0CDB7DEB73C01B9
:1059A000162F942E2901A114B10419F0F50140819C
:1059B00001C040E0342EF0E18F9E300C112440E015
:1059C00062E0C3010E943B2B4FE768E0C3010E94E5
:1059D0003B2B40E864E1C3010E943B2B9201402F26
:1059E00062E1C3010E945A2B432D6AE1C3010E9468
:1059F0003B2B412F62E0C3010E943B2B1C3029F45A
:105A000040E86AE1C3010E94B32B00ED17E068E0B3
:105A1000C3010E948D2B982F992139F480FD03C07A
:105A200001501109A1F783E065C06CE0C3010E9439
:105A30008D2B182F837109F05AC0E114F104F9F08D
:105A4000C114D104E1F064E1C3010E948D2BF60181
:105A50009081981708F445C08083082D9701482F3E
:105A600062E1C3010E94AD2B68E1C3010E948D2B4E
:105A70008770A114B10421F0F501808301C080E09A
:105A800013FD31C0E114F10481F1C114D10469F1B5
:105A90009E89992351F1F6014081413021F48430EF
:105AA00041F58FEF27C0423020F1811122C04250D2
:105AB0009E012F5F3F4FB701C3010E94DA2B811176
:105AC00019C0F6018081E80EF11CF7013297908130
:105AD000898198130EC0319690818A81981309C0EC
