:1000000000800020BD0100005D2A0000152A0000CC
:10001000152A0000152A0000152A0000152A0000E4
:10002000152A0000152A0000152A00005D2A00008C
:100030005D2A0000152A0000D9480000DD490000B3
:100040005D2A00005D2A00005D2A00005D2A000094
:100050005D2A00005D2A00005D2A00005D2A000084
:100060005D2A00005D2A00005D2A00005D2A000074
:100070005D2A00005D2A00005D2A00005D2A000064
:100080005D2A00005D2A00005D2A00005D2A000054
:100090005D2A00005D2A00005D2A00005D2A000044
:1000A000CD240000D92400005D2A00005D2A000054
:1000B0005D2A00005D2A00005D2A00005D2A000024
:1000C0005D2A00005D2A00005D2A00005D2A000014
:1000D0005D2A00005D2A00005D2A00005D2A000004
:1000E0005D2A00005D2A00005D2A00005D2A0000F4
:1000F0005D2A0000F54A00005D2A00007535000009
:100100005D2A0000214C00005D2A00005D2A0000ED
:100110005D2A00005D2A00005D2A00005D2A0000C3
:100120005D2A00005D2A00005D2A00005D2A0000B3
:100130005D2A00005D2A00005D2A00005D2A0000A3
:100140005D2A00005D2A00005D2A00005D2A000093
:100150005D2A00005D2A00005D2A00005D2A000083
:100160005D2A0000353800005D2A00005D2A00008D
:100170005D2A00005D2A00005D2A00005D2A000063
:100180005D2A00005D2A00005D2A00005D2A000053
:100190005D2A00005D2A00005D2A00005D2A000043
:1001A0005D2A00005D2A00005D2A00005D2A000033
:1001B0005D2A00005D2A00005D2A0000564B4CF2CB
:1001C000205210B51A804DF628121A8000BF00BFC9
:1001D00002F048FC514B4FF010621A60504A9A608E
:1001E000504ADA60504A136813F4807304D14F49BF
:1001F0000B604FF4A85313604D4B1A78110703D5C9
:100200001A7842F008021A704A4B4B492A221A7097
:100210004A4A4B4B8B4204D252F8040F43F8040B6A
:10022000F8E7484B484900228B4202D243F8042B9E
:10023000FAE74649464A002352F8230041F82300D2
:1002400001336F2BF8D1434B434A802103F8011B44
:100250009342FBD1414B3D4A1A60414B8A221A70AE
:10026000A3F5805324225A70A0221A709A7992071B
:10027000FCD59A79D406FCD43A4A937903F00C035E
:10028000082B384BF9D103221A7140225A719A79FE
:100290009006FCD5334A9179324B4906FBD5324A58
:1002A000324911600221516020221A709A7902F0BD
:1002B0000C020C2AFAD12E4B2E4A1A602E4B2F4AD2
:1002C0001A6000225A60072243F8042C2C4AC3F813
:1002D0000C2D62B602F0B8FD144B1B68DA0705D589
:1002E000284802F045FD284B284A1A60284B1B7805
:1002F0005B0609D5244C254B22689A4204D121483B
:1003000002F036FD0023236006F092FA02F0B0FB03
:1003100002F0DEFAFEE700BF0E2005403080044008
:10032000823F04000100002B10D0034014D0034092
:1003300002D0074000E007409898FF1F6CB1000012
:100340002087FF1F9898FF1FCCA8FF1F0082FF1F68
:100350000000000000E400E05FE400E008ED00E0E1
:100360000050064000400640448004400000030165
:1003700004800440C010050014E000E0FF76010096
:10038000000020209434935D1CE00340A5C3945AE0
:1003900000F00740FFFFFFFFFFFFFFFFFFFFFFFF32
:1003A000FFFFFFFFFFFFFFFFFFFFFFFFFFFFFFFF5D
:1003B000FFFFFFFFFFFFFFFFFFFFFFFFFFFFFFFF4D
:1003C000FFFFFFFFFFFFFFFFFFFFFFFFFFFFFFFF3D
:1003D000FFFFFFFFFFFFFFFFFFFFFFFFFFFFFFFF2D
:1003E000FFFFFFFFFFFFFFFFFFFFFFFFFFFFFFFF1D
:1003F000FFFFFFFFFFFFFFFFFFFFFFFFFFFFFFFF0D
:10040000FFFFFFFFFFFFFFFFFFFFFFFFDEF9FFFF23
:1004100010B5054C237833B9044B13B10448AFF33E
:1004200000800123237010BD9898FF1F000000007A
:1004300068B10000084B10B51BB108490848AFF37C
:1004400000800848036803B910BD074B002BFBD0A0
:10045000BDE81040184700BF000000009C98FF1F37
:1004600068B100009898FF1F0000000090B583B0AD
:1004700000AF786039607B681B6804331C6838689B
:1004800006F09EFF03461A4639687868A04703467F
:1004900018460C37BD4690BD80B582B000AF78607D
:1004A0000B46FB707B681B681B68FA7811467868FE
:1004B0009847034618460837BD4680BD80B582B0D0
:1004C00000AF7860396039687868FFF7CFFF03467E
:1004D00018460837BD4680BD80B582B000AF786051
:1004E0000B46FB70F97800230A22786802F0A8F91D
:1004F000034618460837BD4680BD00BF80B582B0B0
:1005000000AF786039603968786802F0D9F903463D
:1005100018460837BD4680BD90B583B000AF7860FF
:100520000B46FB70FB7819467868FFF7B5FF044669
:10053000786802F05FF90346234418460C37BD463D
:1005400090BD00BF90B583B000AF78603960396866
:100550007868FFF7B3FF0446786802F04BF903466A
:10056000234418460C37BD4690BD00BF90B583B0FC
:1005700000AF78600B46FB70FB7819467868FFF790
:10058000ABFF0446786802F035F903462344184669
:100590000C37BD4690BD00BF90B583B000AF78600A
:1005A000396039687868FFF7A9FF0446786802F077
:1005B00021F90346234418460C37BD4690BD00BFC1
:1005C00080B582B000AF786039603B685B0803F1AA
:1005D000376303F5D8333A68B3FBF2F3184602F0F9
:1005E000A3FC00BF0837BD4680BD00BF80B483B008
:1005F00000AF7860396000BF0C37BD4680BC7047E3
:1006000080B582B000AF786003F07CFF03461846E7
:100610000837BD4680BD00BF80B582B000AF7860AE
:1006200003F034FF034618460837BD4680BD00BFBF
:1006300080B483B000AF78600B46FB70FB789B0002
:100640000133034AD35C18460C37BD4680BC704763
:1006500068AB000080B483B000AF78600B46FB70DD
:10066000FB789B000233034AD35C18460C37BD4627
:1006700080BC704768AB0000F0B589B006AF786009
:10068000084611461A460346FB700B46BB701346DC
:100690007B707B681C697B685D7B7B78194678681A
:1006A000FFF7C6FF03461E467B7819467868FFF7BA
:1006B000D1FF03461846B978FA7897F828300593A1
:1006C0007B6A049397F820300393029001960023ED
:1006D00000930B462946204601F008FB00BF0C376B
:1006E000BD46F0BD80B582B000AF786039607B68F0
:1006F0001B681B683A68D2B211467868984703466F
:1007000018460837BD4680BD80B584B000AFF8609C
:10071000B9607A60FB681B6804331B687A68B96843
:10072000F8689847034618461037BD4680BD00BF9D
:1007300080B584B000AFF860B9607A60FB681B696F
:100740007A68B968184601F057FB03461846103717
:10075000BD4680BD80B483B000AF786039607B68EF
:100760001B693A68C3F8682200BF0C37BD4680BCDD
:10077000704700BF80B483B000AF786039607B6899
:100780001B693A68C3F86C2200BF0C37BD4680BCB9
:10079000704700BF84B080B582B000AF07F1100E83
:1007A0008EE80F0020233B7400237B607B68B3F549
:1007B000806F09DA07F111027B68134400221A7076
:1007C0007B6801337B60F1E700233B603B682F2BA4
:1007D00009DC07F211423B681344FF221A703B68A0
:1007E00001333B60F2E7002387F84134FF2387F8A9
:1007F000423400BF0837BD46BDE8804004B07047B2
:1008000084B0B0B598B000AF07F1700484E80F0071
:100810004E4A07F1400307CA83E807005C23FB65E3
:10082000FB6D832B36DCFB6D6F2B02DDFB6D7F2BAD
:100830002BDDFB6D6F2B12DCFB6D5C3B07F1710157
:10084000FA6D0A44127807F160010B4403F8382C62
:10085000FB6D5C3B19463E48FFF79EFE16E0FB6DC4
:100860007F2B13DDFB6D6C3B07F17101FA6D0A44C0
:10087000127807F160010B4403F8382CFB6D6C3BD8
:1008800019463348FFF788FE00E000BFFB6D0133D7
:10089000FB65C5E7012387F85B3000237B657B6D33
:1008A0000B2B17D807F140027B6D13441A7807F120
:1008B00028017B6D0B441B7807F160010B4413F892
:1008C000383C9A4202D0002387F85B307B6D0133BD
:1008D0007B65E4E71F4B3C1D1D460FCD0FC40FCDBC
:1008E0000FC42B68237097F85B30002B11D00023C6
:1008F0003B653B6D1E2B1CDC3A1D3B6D1344197888
:10090000154A3B6D13440A461A703B6D01333B6533
:10091000EFE70023FB64FB6C1E2B0ADC0F4BD9B204
:100920000D4AFB6C13440A461A70FB6C0133FB64DE
:10093000F1E7094B0122DA77094B01221A7000BF57
:100940006037BD46BDE8B04004B070478CAA0000D7
:10095000348EFF1F9CAA000040A1FF1F88AA000040
:1009600061A1FF1F80B485B000AF786039607B68FB
:100970003A6893FBF2F2396801FB02F29B1AFB60C2
:10098000FB68002B01D13B6804E03B687B60FB689F
:100990003B60ECE718461437BD4680BC704700BF8B
:1009A00084B0B0B5A4B000AF07F1A00484E80F0094
:1009B00097F8ED301B1103F0010297F8EE309B1110
:1009C0005B0003F002031A4497F8EE30DB109B0043
:1009D00003F004031A4497F8EE30DB0003F0080339
:1009E0001A4497F8ED30DB09DBB21B011A4497F883
:1009F000ED305B105B0103F020031A4497F8EE30F2
:100A0000DB09DBB29B011344184605F0C1FB03462A
:100A10000C46C7E91C3497F8EE305B1103F0010275
:100A200097F8ED305B0003F002031A4497F8EE30BC
:100A30005B109B0003F004031A4497F8ED309B1100
:100A4000DB0003F008031A4497F8ED305B111B013B
:100A500003F010031A4497F8ED309B105B0103F08C
:100A600020031A4497F8EE305B119B0103F040031A
:100A70001344184605F08CFB03460C46C7E91A34AC
:100A800087A4D4E90034C7E9183497F8ED30DB10B7
:100A900003F00103184605F07BFBD7E91C2305F0A2
:100AA000DDFB03460C46184621464FF00002804B02
:100AB00005F020FA03460C4625461C4697F8EE3012
:100AC0009B1003F00103184605F062FBD7E91A23D7
:100AD00005F0C4FB02460B46104619464FF00002D3
:100AE000734B05F007FA02460B462046294605F0EF
:100AF000B5FB03460C46C7E916344FF000036D4CB6
:100B0000C7E9223468A4D4E90034C7E914344FF0AB
:100B10000003694CC7E91234012387F847300123E9
:100B20001C46D7E91623D7E9220105F009FE034642
:100B3000002B01D100231C46E3B283F00103DBB29A
:100B4000002B36D197F8473083F00103DBB2002B3E
:100B50002FD1D7E9220105F031FE0446D7E916016D
:100B600005F02CFE034619462046FFF7FBFE034620
:100B7000184605F00DFB03460C46C7E90E344FF04E
:100B800000024B4BD7E90E0105F0D0FD0346002BC8
:100B900003D0002387F847300BE04FF00002444BAE
:100BA000D7E9220105F0A8F903460C46C7E922342B
:100BB000B5E7D7E92223D7E9120104F0DFF8C7E946
:100BC0000C01D7E91423D7E90C0104F0D7F8C7E9E1
:100BD0000A01002387F88730D7E91C0105F0EEFDF4
:100BE0000446D7E91A0105F0E9FD034603FB04F3C7
:100BF00041F6AF02934203D1012387F8873002E028
:100C0000002387F887302D4B3C1D1D460FCD0FC4A8
:100C10000FCD0FC42B68237097F88730002B17D0A7
:100C20000023C7F88030D7F880301E2B20DC3A1D17
:100C3000D7F8803013441978214AD7F8803013440C
:100C40000A461A70D7F880300133C7F88030EAE7D7
:100C50000023FB67FB6F1E2B0ADC1A4BD9B2184A24
:100C6000FB6F13440A461A70FB6F0133FB67F1E711
:100C7000134B0022DA7712491348FFF763FC104B3D
:100C8000DB7F19461048FFF787FC104B01221A70D2
:100C900000BF9037BD46BDE8B04004B0704700BF0C
:100CA0000000000000AFB84000000040C571BC3F2C
:100CB0000000F03F0000184000002240C0AA0000E1
:100CC00040A1FF1F88AA0000348EFF1F61A1FF1FF3
:100CD00084B0B0B590B002AF07F1480484E80F00CB
:100CE000684A07F1200307CA83E80700664B3C46C1
:100CF0001D4628686968AA68EB680FC42869696995
:100D0000AA69EB690FC400237B637B6B052B40DC76
:100D10003A467B6B13441A7807F120017B6B0B4436
:100D20001B785340D9B23A467B6B13440A461A707B
:100D300097F8A3301A467B6B42FA03F303F00103E2
:100D4000002B11D13A467B6B13441A787B6B4E33E0
:100D500007F148010B445B78D31AD9B23A467B6B52
:100D600013440A461A7010E03A467B6B13441A7813
:100D70007B6B4E3307F148010B445B781344D9B2C7
:100D80003A467B6B13440A461A707B6B01337B63D4
:100D9000BBE711233B633B6B162B4FDC3B6B03F133
:100DA00011023B6B0B3B009313463A6B37493848B3
:100DB00001F038FD3A463B6B13441A783B6B0B3B12
:100DC00007F138010B4413F8183C5340D9B23A46A6
:100DD0003B6B13440A461A7097F8A4301A463B6BD3
:100DE000113B42FA03F303F00103002B11D13A4601
:100DF0003B6B13441A783B6B433307F148010B44B8
:100E00005B78D31AD9B23A463B6B13440A461A7040
:100E100010E03A463B6B13441A783B6B433307F1BF
:100E200048010B445B781344D9B23A463B6B1344F8
:100E30000A461A703B6B01333B63ACE73B461946ED
:100E40001348FFF77FFB0023FB62FB6A1E2B0CDCC1
:100E50003A46FB6A134419780E4AFB6A13440A4661
:100E60001A70FB6A0133FB62EFE70A4B0222DA7762
:100E7000094B01221A7000BF3837BD46BDE8B040AB
:100E800004B07047F0AA000000AB0000E4AA000024
:100E9000348EFF1F40A1FF1F61A1FF1F84B0B0B5BA
:100EA00096B000AF07F1680484E80F00494A07F1E3
:100EB000340307CA83E8070000237B657B6D0B2B97
:100EC0000FDC7B6D403307F168021344597807F15A
:100ED00028027B6D13440A461A707B6D01337B65D3
:100EE000ECE700233B653B6D0B2B11D807F1340277
:100EF0003B6D13441B7883F00F03D9B207F1340222
:100F00003B6D13440A461A703B6D01333B65EAE7BB
:100F1000012387F84F300023BB64BB6C0B2B12DC22
:100F200007F13402BB6C13441A7807F12801BB6C3B
:100F30000B441B789A4202D0002387F84F30BB6CD9
:100F40000133BB64E9E7244B3C1D1D460FCD0FC4A4
:100F50000FCD0FC42B68237097F84F30002B11D0A2
:100F600000237B647B6C1E2B1CDC3A1D7B6C1344C2
:100F700019781A4A7B6C13440A461A707B6C013349
:100F80007B64EFE700233B643B6C1E2B0ADC144BB5
:100F9000D9B2124A3B6C13440A461A703B6C0133B7
:100FA0003B64F1E70D4B0322DA770C490D48FFF75C
:100FB000C9FA0A4BDB7F19460A48FFF7EDFA0A4BDC
:100FC00001221A7000BF5837BD46BDE8B04004B0DA
:100FD000704700BF8CAA000020AB000040A1FF1F9B
:100FE00088AA0000348EFF1F61A1FF1F84B080B566
:100FF000ADF5856D4FF485676F4407F1080E8EE8F7
:101000000F002F492F48FFF79DFA684607F1180394
:1010100040F22342194601F063FC07F108030FCBAD
:1010200000F06CF897F83A34032B43D801A252F839
:1010300023F000BF45100000611000007D1000008B
:1010400099100000684607F1180340F22342194640
:1010500001F046FC07F108030FCBFFF7A1FC29E0E4
:10106000684607F1180340F22342194601F038FCA4
:1010700007F108030FCBFFF7C3FB1BE0684607F13E
:10108000180340F22342194601F02AFC07F1080335
:101090000FCBFFF71DFE0DE0684607F1180340F285
:1010A0002342194601F01CFC07F108030FCBFFF7A0
:1010B000F5FE00BF00BFBD46BDE8804004B07047EC
:1010C00044AB0000348EFF1F80B483B000AF002318
:1010D0007B607B6840F23942934208DC064A7B68B9
:1010E000134400221A707B6801337B60F1E700BF74
:1010F0000C37BD4680BC70476CA1FF1F84B080B523
:1011000084B000AF07F1180E8EE80F003B7E194641
:101110003048FFF701FA0023FB60FB68B3F5806FEE
:101120001EDA0023BB60BB681F2B12DCFA68BB68A9
:10113000134407F1180213445B7819462548FFF75A
:10114000CBF925492348FFF7B9F9BB680133BB60E8
:10115000E9E7204801F04EFBFB682033FB60DCE749
:1011600000237B607B682F2B20DC00233B603B68E7
:10117000022B13DC7A683B68134407F1180213440E
:1011800093F8013419461348FFF7A6F9124911489C
:10119000FFF794F93B6801333B60E8E70F490D48DE
:1011A000FFF7D0F97B6803337B60DBE797F84934BE
:1011B00019460848FFF7DAF997F84A3419460548FE
:1011C000FFF7D4F900BF1037BD46BDE8804004B03A
:1011D000704700BF348EFF1F88AA000058AB000084
:1011E00090B5ADF2444D4FF485676F447448FFF7F6
:1011F00007FA0346002B14BF01230023DBB2002BA8
:1012000000F0D9800123FB756E4B00221A60002389
:101210007B606C4B1B6840F2324293423DDC684875
:10122000FFF7EEF90346002BCCBF01230023DBB20E
:10123000002B0ED0634B1C686148FFF7EDF90346A5
:10124000DAB2614B1A555F4B1B6801335D4A13607C
:10125000DFE7012001F0AAFD5B4B1B78702BD8D093
:10126000594B1B78632BD4D0574B1B78612BD0D0B4
:101270005348FFF7C5F90346002BCCBF01230023D9
:10128000DBB2002B03D04E48FFF7C6F9F0E700238E
:10129000FB754C4B42F210721A60FB7D002B00F084
:1012A0008880494B1A78494B1A70484B1B78702B31
:1012B00024D100233B613B69B3F5806F0DDA3B69B4
:1012C0000133414AD15C414A3B69134401330A4628
:1012D0001A703B6901333B61EDE73C4C684604F111
:1012E000100340F22342194601F0FAFA94E80F0085
:1012F000FFF704FF364B01221A705AE0334B1B787C
:10130000632B2DD10023FB60FB68B3F5806F0DDAF2
:10131000FB6801332C4AD15C2C4AFB68134401332F
:101320000A461A70FB680133FB60EDE7264B93F821
:101330003224264B83F83124234B93F83324234B58
:1013400083F83224214C684604F1100340F2234212
:10135000194601F0C5FA94E80F00FFF7CFFE28E028
:101360001A4B1B78612B1AD14FF48063BB60BB68AA
:10137000B3F5866F0FDABB68A3F58063BA680132F4
:101380001149895C114A13440A4683F80124BB6859
:101390000133BB60EBE70F4B01221A7009E00848EC
:1013A000FFF73AF90346DB43DB0FDBB2002B00D03B
:1013B000F5E7FFF789FE00BF1C37BD4690BD00BFB3
:1013C000348EFF1FD498FF1F6CA1FF1F0C9DFF1FC1
:1013D00060A1FF1F68A1FF1F80B584B004AF17494B
:1013E0001748FFF703F94FF461411648FFF7E8F893
:1013F000154B00221A70154B00221A70012302931C
:10140000134B019301230093012301220121114871
:10141000FFF732F910490F48FFF79CF90F490D48C3
:10142000FFF7A8F90E490648FFF78CF84FF47A70D9
:1014300001F0BCFC00BFBD4680BD00BF80841E0023
:10144000348EFF1F3C8DFF1F60A1FF1F68A1FF1F8F
:10145000A0860100BCA5FF1F951400002516000002
:101460005CAB000080B500AF0948FFF7C9F8034640
:10147000002B14BF01230023DBB2002B01D0FFF7A8
:10148000AFFE4FF4FA7001F091FC00BF80BD00BFC9
:10149000348EFF1F90B5ADF24C4D4FF485676F440D
:1014A00078607A685A495B48FFF742F9584B1B78D5
:1014B0003B61574B5B78FB603B69002B06D1564A7A
:1014C0003B691360554AFB6813609DE03B69012B43
:1014D0007DD1514A3B691360504AFB6813604F4B02
:1014E0001B68002B04D14A4B9A784D4B1A708BE045
:1014F0004A4B1B68002B20DD484B1B68232B1CDC50
:101500000223FB61FA697B689A427CD2434B1B68D9
:101510005A1E13461B019B1A5B001A46FB691344B3
:10152000023B3B49FA690A4411783D4A13440A4692
:101530005A70FB690133FB61E4E7384B1B68242BCD
:1015400014D10223BB61BA697B689A425CD2BB6941
:10155000023B2F49BA690A441178314A13440A46BA
:1015600083F80124BB690133BB61ECE72B4B1B689B
:10157000252B14D102237B617A697B689A4243D27E
:101580007B691C3322497A690A441178244A13443E
:101590000A4683F801247B6901337B61ECE71C4B2D
:1015A0009A781F4B83F83124194BDA781C4B83F857
:1015B00032241B4C684604F1100340F223421946C2
:1015C00001F08EF994E80F00FFF710FD1CE03B6975
:1015D000022B06D1104A3B691360104AFB68136066
:1015E00012E03B69032B06D10B4A3B6913600B4A9F
:1015F000FB68136008E0094B00221A60064B4FF0AD
:10160000FF321A6000E000BF00BF2437BD4690BD26
:10161000B498FF1FBCA5FF1F0088FF1F64A1FF1F18
:10162000D898FF1F90B5ADF23C4D4FF485676F44DD
:10163000794B1B68002B56D1784B1B78002B4DD073
:10164000774B1B68002B04D170217648FFF74AF8CE
:10165000DEE0734B1B68002B21DD714B1B68202BD8
:101660001DDC0023FB60FB681F2B11DC6C4B1B682F
:10167000013B5A01FB6813446B4A134459786B4A87
:10168000FB6813440A461A70FB680133FB60EAE703
:10169000202266496348FFF737F800BFB8E0624B85
:1016A00093F8313419465F4800F0F8F85E4B93F830
:1016B000323419465B4800F0F1F8584B00221A709A
:1016C000594C684604F1100340F22342194601F0D8
:1016D00007F994E80F00FFF75DF899E07821514889
:1016E000FFF700F894E04C4B1B68012B30D1504BB6
:1016F0001B78002B27D04A4B1B68002B04D172218A
:101700004848FEF7EFFF83E0454B1B68012B7FD174
:101710000023BB60BB681F2B0CDC464ABB6813442C
:101720001978424ABB6813440A461A70BB680133F1
:10173000BB60EFE720223D493A48FEF7E5FF3C4B0E
:1017400000221A7064E078213648FEF7CBFF5FE094
:10175000314B1B68032B5BD1374B1B78002B53D0CD
:101760002F4B1B68002B04D161212E48FEF7BAFFD6
:101770004EE02B4B1B68012B19D100237B607B684B
:101780001F2B0EDC284A7B68134403F201431978AF
:10179000264A7B6813440A461A707B6801337B60D3
:1017A000EDE7202221491F48FEF7AEFF30E01C4B39
:1017B0001B68022B2CD120233B603B682F2B0DDCB8
:1017C0003B68203B18493A680A4402F2014211780A
:1017D000164AD1543B6801333B60EEE710221349AF
:1017E0001048FEF791FF144B00221A700E4C684609
:1017F00004F1100340F22342194601F071F894E815
:101800000F00FEF7C7FF03E078210648FEF76AFFE6
:1018100000BF1437BD4690BD0088FF1F60A1FF1FA9
:1018200064A1FF1FBCA5FF1F0C9DFF1FB498FF1FE5
:1018300061A1FF1F40A1FF1F68A1FF1F002070478B
:101840000369D3F83801D3F83431C01A704700BFA8
:101850000369D3F83411D3F83821914208D2D3F870
:101860003421511C1A44C3F8341192F830007047E7
:101870004FF0FF30704700BF0369D3F83411D3F83D
:10188000382191423DBFD3F834219B1893F83000A2
:101890004FF0FF30704700BF704700BF0369D3F8B7
:1018A0004422B2F5817F03D90123037100207047E0
:1018B000D3F8442210B49C180132C3F8442284F8AF
:1018C0003C11012010BC704738B503690A4A026018
:1018D00093F84822022A044601D0204638BDD3F8A6
:1018E0007452002DF9D0284600F0CEFE284608217B
:1018F00001F0F6F8204638BD84AB000038B5036926
:101900000546D3F84402B0F5817F1AD81446D3F8BF
:101910004422D3F84402C2F58172013203F59E736A
:10192000A242184402D2012314462B71224600F031
:10193000D7FF2A69D2F844322344C2F84432204601
:1019400038BD01232B71002038BD00BF2DE9F047C1
:101950001E46044617469DF820909DF824309DF8B9
:1019600028A00D4659B301290FD090F84A329A4267
:101970004FF0000800D14DB3012D0ED094F84B323A
:101980009E4212D00020BDE8F0871D2F4FD01A2FA5
:1019900077D094F84A324FF000081E2E1AD01F2E2E
:1019A0006DD094F84B329E42ECD1BAF1000FE9D0E1
:1019B0000025B8F1000FE5D0002DE3D031E0102A6A
:1019C00035D0132A33D090F84A328846A6F1110355
:1019D000012BE6D8022594F84B329E4257D0BAF13B
:1019E000000F09D094F84C3294F84B02002B14BF2E
:1019F0000221002101F0D4F92B02B9F1000F13D11B
:101A000043F06403264A02EBC602012152681360C8
:101A100084F84B6284F84C9284F89912B8F1000F64
:101A2000B0D00120BDE8F08743F00303EAE74FF0B0
:101A3000020894F84A22974226D04BB194F84C32CF
:101A400094F84A02002B14BF0221002101F0A8F9EA
:101A50004FEA0822B9F1000F0ED142F06402104B98
:101A600003EBC703596801230A6084F84A7284F8BB
:101A70004C9284F898327EE742F00302EFE70625A5
:101A8000A9E74FF00608D4E7002BE1D073E7BAF1DD
:101A9000000FB1D0B8F1000F3FF474AF8CE700BF76
:101AA00018AD0000F8B5C3681B789B0610D4836896
:101AB0000D4680211970C3681221197090F84932BF
:101AC000012B044606D08AB980F848220120F8BDCF
:101AD0000020F8BD1A4675B9474B4FF08071196068
:101AE000022A0FD0012084F84802F8BD531E012BB2
:101AF000F1D90120F8BD012DF2D13F4B4FF000711B
:101B00001960EDE7D4F87462002E6AD03379102B97
:101B100030D0002D3CD132683849938B384F9BB27E
:101B200043F0080393833279531102F110009B00B4
:101B300041F8207003F1604303F56143012102F095
:101B40001F0201FA02F231681A608B8B9BB243F0DC
:101B500002038B83337903F1804303F50433962228
:101B60001D701A700022022384F85E2284F8483225
:101B70000120F8BD304600F087FD3046082100F016
:101B8000AFFF00230120C4F8743284F84802F8BD86
:101B9000012DE7D132681949938B1A4F9BB243F05C
:101BA000080393833279531102F110009B0041F82E
:101BB000207003F1604303F5614302F01F0295407A
:101BC00032681D60938B9BB243F002039383337999
:101BD00003F1804303F504330021972219701A7032
:101BE000C0E7082000F07AFF314607463E4600F085
:101BF000E7FCC4F8747289E700E100E00082FF1F8F
:101C0000CD240000D9240000F0B5284EDFF8ACE068
:101C1000A6FB0143A6FB02429E09370275469609C0
:101C200014240023B7FBF6F604E00133372B1BD056
:101C300055F8044F22029642F7DA83BB14241C4A5B
:101C40004568B1FBF4F491422B70C0F8504207D8BC
:101C5000184B8269A3FB0131C1F307511170F0BD2C
:101C6000836904221A70F0BD002422464FF47027C5
:101C70004FF470654FF0360CB21AF71B002A87EA52
:101C8000E776A6EBE776B8BF5242964202DD0A4AF3
:101C9000D35CD4E7084B2C4613F80C30CFE703F1A4
:101CA000FF3C5EF82C502F02E6E700BFD34D6210D8
:101CB000FF6BDC02819F5E167CAC0000A0AB0000D5
:101CC000F0B49DF814409DF810609DF818503CB198
:101CD00035B1C7683F78BF0602D50020F0BC704719
:101CE000069505940496F0BCFFF730BE2DE9F0414F
:101CF00084B0044694469DF828609DF82C209DF8F9
:101D000030009DF834E09DF83C700D4600294BD121
:101D1000DFF8E080D8F8001041F04001C8F800106A
:101D2000002184F849C284F85512BCF1000F2AD171
:101D300063692021197012B994F84A22D2B210B9FD
:101D400094F84B02C0B294F8981294F899620296F3
:101D50000346CDF800E0019120462946FFF7B0FF89
:101D60000E9A23492046FFF74FFF3A462946204660
:101D7000FFF798FE94F8493263B3A368C0221A7043
:101D800004B0BDE8F0816169CEB14FF0280C81F854
:101D900000C09E42216823D95B00DBB20B70760045
:101DA000E369F6B21E70C6E70129B9D1DFF84480B5
:101DB000D8F8001041F08001C8F80010B0E74FF0EB
:101DC000200C81F800C021685B00DBB20B70E36976
:101DD0001E70B0E7A36880221A7004B0BDE8F081DD
:101DE0007600F6B20E705E00E369F6B21E70A2E7EE
:101DF000006CDC023480044070B5D0F83841D0F873
:101E000034319C4218D9D0F83831D0F83451D0F858
:101E100034615D1B954228BF1546044600F130032E
:101E20002A460846991900F05BFDD4F834312B445A
:101E3000C4F83431284670BD002070BD2DE9F04152
:101E4000C04E337804460133DBB2C068A7683370F4
:101E500005783B78DBB203F0200282B0EDB23AB3F2
:101E600013F0100F94F85E327AD0022B00F0D88075
:101E700094F85E32032B00F0D38094F85532082B8F
:101E800000F0298294F85532092B00F0648294F80E
:101E90005532012B00F0D38180233B70E36802228E
:101EA0001A703378013BDBB2337002B0BDE8F081C9
:101EB00002F0FF08EA0624D405F0400202F0FF0E0B
:101EC0001ABB03F0100303F0FF02002B00F0838025
:101ED00015F0010540F0A881D4F84022D4F844322E
:101EE0009A4207D2D4F840325A1C2344C4F8402204
:101EF00093F83C5123691D70A368D0221A70E068E2
:101F00006EE0102303706806C8D594F855320C2B88
:101F100000F0098105F0040505F0FF07002D64D0ED
:101F2000A3680021D0220B2084F85502C4F8441283
:101F30001A702269D4F86C1213785B0884F8563250
:101F400009B188472269D4F84432002B00F074812B
:101F500094F83C8182F800800123C4F840329DE768
:101F6000022B00F0A68094F85E32032B00F0A180D3
:101F7000D4F83831D4F858220233934200F04F811C
:101F800094F85532012B00F04581D4F838310133F3
:101F9000934280F0198194F85532012B00F00F81A3
:101FA000D4F838312269591CC4F838112344127806
:101FB00083F83020E36802221A7094F85532DBB2BD
:101FC000012B7FF46EAF94F85D22002A7FF469AF95
:101FD00084F85D3265E794F855320C2B00F09C8153
:101FE0000223037002B0BDE8F081574B574A94F8C2
:101FF0004B0284F85C72002914BF11461946032273
:1020000000F0F6FDA3680C21C02284F85512C4F834
:1020100038711A7023691B785B0884F856323DE7E3
:10202000D4F8742213689B8B190604D594F85E3299
:10203000022B00F0B88094F85E32032B00F08E8003
:10204000434B12791968012393400B423FF429AFA7
:102050004049414B0A70D4F8741209791970002272
:10206000072384F85E2284F85532D4F89432013381
:1020700004D0D4F894320133C4F89432EA0611D56E
:10208000042384F85532D4F88C32013304D0D4F8C8
:102090008C320133C4F88C32E268102100231170B5
:1020A000C4F84032A36880221A70E36802221A70D2
:1020B00032E0D4F874321A68928B120603D594F881
:1020C0005E22022A63D094F85E22032A00F0DA80AE
:1020D0001F491A790968012393400B423FF4E1AE8E
:1020E0001C491D4B0A70D4F8742212791A70A36827
:1020F00080220020072184F85E0284F855121A70AD
:10210000E36802221A70D4F89432013304D0D4F870
:1021100094320133C4F89432D4F87032002B3FF477
:10212000C0AE9847BDE6D4F86832002B3FF4F2AE5B
:102130000022C4F83421D4F838010191984701995C
:10214000E8E600BFD0A5FF1F3D250000492500009F
:102150002C8000401E8000401F800040037819063C
:10216000FCD5C14B12791A70002384F85E32D4F882
:1021700044322169013BC4F84032D4F84032234450
:10218000022293F83C310B70E3681A7089E6B74974
:102190001B790B70A368E8211970E368032184F8A8
:1021A0005E121A707DE6B14912790A70A268F021B8
:1021B0001170E268032184F85E12137071E694F8DE
:1021C0005D32002B3FF4ECAEA3680021B02284F80E
:1021D0005D121A70D4F838312269591CC4F83811CC
:1021E0002344127883F8302094F85432012B00F005
:1021F000C480E36802221A7094F85532012B33D060
:10220000D4F86432002284F85522002B3FF4D5AE76
:102210009847D2E694F85D32002B7FF4B6AEE823FF
:102220003B70D4F85822B0E6C0233B702369E068C5
:102230001B7884F855E2D3E684F83C318AE694F8BA
:102240005432012B0CBF8023B0233B70E368022281
:102250001A70D4F8803201333FF45EAFD4F8803284
:102260000133C4F8803257E7D4F88032013304D008
:10227000D4F880320133C4F88032D4F87032002BA5
:10228000C6D19AE6784A1B791370A3680021B02260
:1022900084F85E121A70D4F858322269013BC4F8EF
:1022A0003831D4F83831591CC4F838112344127825
:1022B00083F8302094F85432012B00F0C180E36899
:1022C00002221A70D4F86432002284F85522002BBE
:1022D0007FF427AFE5E505F0100303F0FF02002BC4
:1022E00052D000230421102284F85E3284F8551263
:1022F0000270A26880211170E268C4F840320223A3
:102300001370D4F88C3201333FF406AFD4F88C321A
:102310000133C4F88C32FFE6554B564D84F85C22ED
:10232000002914BF29461946032294F84B0200F0F5
:102330005FFC23691B78D4F83821B2F5817FDBB2CA
:1023400007D8D4F83821A1180132C4F8382181F80F
:102350003030E06844E6EB062ED50422102384F8E2
:1023600055220370A36880221A70E36802221A7053
:10237000D4F88C320133C9D1CEE62023013BFDD104
:10238000A36880221A7034E715F0010528D084F87C
:102390005E22D4F84032002B59D1022384F8553202
:1023A000D4F88432013304D0D4F884320133C4F831
:1023B000843280233B7078E6E9072CD50223802203
:1023C00084F855323A70E2681370D4F884320133DD
:1023D0003FF4A2AED4F884320133C4F884329BE6D1
:1023E000D4F840320133C4F84032D4F84422934246
:1023F00042D394F8543284F85552012B0CBF8023F9
:10240000B0233B70E36802221A70D4F86032002BCC
:102410007FF487AE45E594F85E32012B34D0D4F8D2
:102420005832012B4FF00A020CBFE823E02384F856
:1024300055223B702269E368127802221A7030E557
:102440002023013BFDD1A36880221A7037E70323C4
:1024500084F85532D4F888320133AAD0D4F88832BF
:102460000133C4F88832A4E71C8000401F8000407C
:102470003D2500004925000094F85E32012B12D062
:10248000D4F8403221697AE60223E12284F85E32F0
:102490003A70D4F874120C4A097911702169E26813
:1024A00009781370FDE40223F12284F85E323A7059
:1024B000D4F87412044A09791170226994F83D1114
:1024C0001170E2681370ECE41B80004000210148A9
:1024D000FFF7B4BC0488FF1F01210148FFF7AEBC21
:1024E000A08AFF1FC3681B7803F020035BB190F83C
:1024F0005C320133DBB2012B80F85C3217D990F8E3
:102500004B0200F0F1BB70B503F0FF05044680F804
:10251000555290F84B0200F0E7FBD4F868325BB1FB
:10252000C4F83451D4F83801BDE87040184790F829
:102530004932012BE3D1704770BD00BF0021014833
:10254000FFF7D0BF0488FF1F01210148FFF7CABF72
:10255000A08AFF1F2DE9F843134BDFF85C90DFF8EA
:102560005C80124E124D1E6000244FF47A774A466A
:1025700041461C711C739F6018465C731D6104F01A
:1025800045F90C4B4FF0010E05F527751C711C73B6
:1025900083F80DE04A46414618461D619F601E6063
:1025A000BDE8F84304F032B9BCA5FF1F84AB0000BE
:1025B0000488FF1FA8A5FF1FFC87FF1FC918000084
:1025C000F0B572B699B902688AB103790F2B0ED8AB
:1025D000274C218841FA03F5ED070AD503F1007372
:1025E00003F59063B2EB431F03D162B6F0BD204CFC
:1025F0002188002341FA03F212F0010207D00133CF
:10260000102BF7D162B6002203710260F0BD0125E4
:102610009D402943218062B6164E174D174FDFF8B3
:1026200064E0D9B20171346844F0020434602C686B
:1026300044F002042C60A6F580268224A5F58025AE
:1026400003F100733C6003F59063223E243D0C4C83
:102650008EF800105B0131702970217003601A60E0
:102660005A609A60DA601A615A619A61DA61F0BD63
:10267000D2A5FF1F408004403C8004400080004001
:102680001F8000401A80004003790F2B11D8094A9F
:1026900010B4137072B6084904790A880123A34064
:1026A00022EA03030B8062B61022002310BC0271E1
:1026B000036070471A800040D2A5FF1F08B5084686
:1026C00000F0FCFD012008BD08B5084600F0F6FD4D
:1026D000012008BD38B508460D4604F071FE0446D9
:1026E0000146284600F042FE204638BD10B5084697
:1026F0001446114600F03AFE204610BD00F014BF0B
:1027000008B5084600F0BAFD003018BF012008BD2A
:1027100008B5084600F090FD003018BF012008BD44
:102720000846114600F020BD084600F057BD00BF26
:10273000084600F0FDBC00BF00F098BC10B54B0887
:1027400003F13760144600F5D830B0FBF1F000F02B
:10275000EBFB2046BDE8104000F05CBC00F0CCBEB6
:1027600000F096BE00F084BE00F064BE00F06EBEC5
:102770000368064A1B68934205D110B5C8B200F041
:102780009DFD012010BDC9B2184700BFC926000039
:102790000368064A1B68934205D110B5C8B200F021
:1027A0008DFD012010BDC9B2184700BFC926000029
:1027B0000368064A1B68934205D110B5C8B200F001
:1027C0007DFD012010BDC9B2184700BFC926000019
:1027D0000368064A1B68934205D110B5C8B200F0E1
:1027E0006DFD012010BDC9B2184700BFC926000009
:1027F000704700BF00B5064A036812885B6883B063
:1028000001A9ADF804200222984703B05DF804FB4B
:1028100014AD000010B5036814465B689847204665
:1028200010BD00BF0EB400B582B003AA52F8041B5D
:10283000019204F059FE02B05DF804EB03B070475A
:10284000F0B507468BB0002A33D0012A08BF0A2210
:1028500051B3212400E0F4B2B1FBF2F502FB1511F3
:10286000C8B2092900F1300198BFC8B20AA988BFCF
:102870003730214488BFC0B201F8240C661E2946B7
:10288000002DE8D133B1013CE4B20AAB23442D2240
:1028900003F8242C3B6801AA11195B683846C4F17F
:1028A000220298470BB0F0BD30228DF8252021245C
:1028B000E8E70368C9B21B6898470BB0F0BD00BFDA
:1028C0000029BABF49422D2300230A22FFF7B8BFCF
:1028D00008B5FEF781FDFEF7C5FD01F041FFFAE7FF
:1028E000844641EA000313F003036DD1403A41D31B
:1028F00051F8043B40F8043B51F8043B40F8043BDA
:1029000051F8043B40F8043B51F8043B40F8043BC9
:1029100051F8043B40F8043B51F8043B40F8043BB9
:1029200051F8043B40F8043B51F8043B40F8043BA9
:1029300051F8043B40F8043B51F8043B40F8043B99
:1029400051F8043B40F8043B51F8043B40F8043B89
:1029500051F8043B40F8043B51F8043B40F8043B79
:1029600051F8043B40F8043B51F8043B40F8043B69
:10297000403ABDD2303211D351F8043B40F8043B09
:1029800051F8043B40F8043B51F8043B40F8043B49
:1029900051F8043B40F8043B103AEDD20C3205D319
:1029A00051F8043B40F8043B043AF9D2043208D011
:1029B000D2071CBF11F8013B00F8013B01D30B8883
:1029C00003806046704700BF082A13D38B078DD061
:1029D00010F003038AD0C3F10403D21ADB071CBF33
:1029E00011F8013B00F8013B80D331F8023B20F89D
:1029F000023B7BE7043AD9D3013A11F8013B00F8D6
:102A0000013BF9D20B7803704B7843708B7883705D
:102A10006046704708B5104C08E0236859050DD48E
:102A200023681A050FD42368DB0411D423685803E4
:102A3000F3D500F0FFFE23685905F1D502F05AF8EE
:102A400023681A05EFD500F095FD2368DB04EDD56A
:102A500002F0E6F8EAE700BF3480044008B5FFF76B
:102A6000D9FF00BF014B10221A807047002005409B
:102A7000704700BF094908B50B6830B16A46184471
:102A8000A2F58052904202D20860184608BD03F0B9
:102A9000C9FE0C2303604FF0FF3008BD4C8DFF1FB3
:102AA000EFF3138070B9EFF310836BB9EFF3058286
:102AB0005AB94FF48070EFF311832BB1984228BFBD
:102AC000184670474FF0FF3070470F2A01D818465C
:102AD000F1E7014BD05CEEE7F0E300E003F0D0BE9D
:102AE00003F0D6BEF0B44D1E2E46002400E00134A3
:102AF000B0FBF2F302FB1300092800F130078ABF94
:102B00003730F8B2C0B206F8010F1846002BEED1EC
:102B10000A1953704CB1107815F8016F2870013301
:102B2000E01A834202F80169F5DB0846F0BC704701
:102B3000704700BF10B40F4B53F8302092F880421A
:102B40002CB1012369B182F8803010BC704703EBCF
:102B5000C0035B681A6841B922F002021A6010BC17
:102B6000704782F8003110BC704742F003021A60CF
:102B700010BC704718AD00001C4A02EBC0030129CD
:102B80005B6811D004291BD052F83000002280F875
:102B9000802229B1022920D0032922D01A6070474F
:102BA0004FF480721A60704752F830004FF4A272EE
:102BB00080F880121A601A6822F020021A607047AA
:102BC00052F830104FF4A272012081F880021A608E
:102BD0001A6842F020021A60704740F203121A602D
:102BE00070474FF481721A60704700BF18AD000043
:102BF000212848D8F8B5042A44D8DFE802F0484B29
:102C00004E0345004FF410262B4B03EBC0030D463B
:102C10005C68216811F4E06148D0284B284A2949B2
:102C2000C3F89C2104F140422748C3F8A411A2F53F
:102C30009221264FC3F8A0017C292548C3F8A8712A
:102C4000C3F8AC012CD9A2F594237C2B2AD9A2F588
:102C500096237C2B28D9A2F598237C2B29D9A2F581
:102C60009A227C2A27D81B4872B6236823F4702343
:102C700043F08072C4F384011643236040F821506E
:102C8000266062B6F8BD70474FF43026BCE74FF4BB
:102C90000026B9E74FF44026B6E74FF42026B3E705
:102CA0000D48E1E70D48DFE70D48DDE7FFF764FF7A
:102CB000B3E70C48D8E7F8BD18AD00000082FF1F4D
:102CC000D187FF1F7987FF1FA587FF1F4D87FF1F34
:102CD0002187FF1F288EFF1F508DFF1F888DFF1F2C
:102CE000D88DFF1F088EFF1F1A4B03EBC00010B4D6
:102CF000426802F14043A3F592217C2923D9A3F530
:102D000094217C290DD9A3F596217C291FD9A3F5FF
:102D100098217C2919D9A3F59A237C2B11D80E4C24
:102D200000E00E4C72B613680D4823F08773C2F3AF
:102D3000840123F4803343F08073136044F821004E
:102D400062B610BC7047074CECE7074CEAE7074C4B
:102D5000E8E700BF18AD0000288EFF1F888DFF1F19
:102D6000312B0000508DFF1F088EFF1FD88DFF1FD5
:102D700030B4054B054D064C002210211A602A6024
:102D80002060196030BC704714D0034004D0034069
:102D900000D00340212801D8FFF7CCBE704700BF08
:102DA000212801D8FFF7E8BE704700BF2DE9F8439E
:102DB000054672B6204F214B214A1B683C681268B9
:102DC00062B6520102D5322B88BF013495B3C3F5E8
:102DD000BB331C4EDFF86490DFF86480FF334FF4A0
:102DE0007A72A6FB031302FB04F404EB931472B68D
:102DF000D9F800103A68D8F800E062B6C1F5BB33E4
:102E0000FF33A6FB03031EF0806FC4EB93134FF454
:102E10007A7002D0322988BF013200FB0233B3F549
:102E20007A7F04D3013D05D004F57A74DFE701F021
:102E300097FCDCE7BDE8F883D4A5FF1F18E000E0AD
:102E400004ED00E0ABAAAAAAF8B52D4B2D49DFF896
:102E5000D0E0DFF8D0C02C4E2C4D2D4C2D4A2E4FFB
:102E60004FF4000018604FF0807018604FF0007051
:102E700018604FF0806018604FF00060186000200C
:102E8000086028234BF6FF71CCF80010CEF8003014
:102E9000336013602B6023603B60B362936209224E
:102EA00045F8242CC4F8D80F05F57F65C7F8D41F62
:102EB00007F5FF2707F5FA67C6F8F83F2B6006F518
:102EC000FF26C4F8D42F05F5FD2504F5FF2438604E
:102ED00006F2F4761148316005F5FF6504F5FD64EE
:102EE0002B602360026001F085FD1920FFF75EFF73
:102EF00001F008FA40F21310BDE8F840FFF756BFA2
:102F000008E100E004800340148003402480034073
:102F10002C8003401C8003403480034000800B4021
:102F20000C800340088003402B4A2C491368F0B5FD
:102F300043F4006313600A78294F2A4E2A4D2B4C24
:102F40002B490023092A3B7033702B7023700B70C0
:102F50003DD01A2A21D0274B1B780A2B25D01F2BB6
:102F600030D01F2827D8002002460125224B234CB1
:102F70001A7023495D7004224FF0020E88273C2608
:102F8000402598729A704FF4004083F813E05A7508
:102F90001F74DE7025700860F0BD1A4B40F21332CA
:102FA0001A60144B1B780A2BD9D1174B4FF451726E
:102FB0001F281A60D7D9C0F34432C0F3471500F078
:102FC0001F00D3E7114B4FF451721A60C9E7104B41
:102FD00040F213321A60BEE734800440308EFF1F87
:102FE00048A6FF1FDDA5FF1F50A6FF1F49A6FF1F14
:102FF000DCA5FF1F318EFF1F00B006402FE400E06C
:1030000004E100E004D0044010B0044000D00440CB
:103010000CB00440144B14499B7803F0EC0200F010
:1030200003031343420700F00F0248BF43F01003AD
:10303000042A8B7013D00C4B0B4A5B79C10603F04A
:10304000EF0348BF43F0100353719379820603F0F6
:10305000EF03054A48BF43F01003937170478B7923
:1030600043F040038B71E6E700B00640234B1B683A
:103070001B0542D510B5224C237823B101F070FB1B
:103080002378002BFAD11F481F4A204B4FF40044ED
:1030900000210460D1701B78092B1FD01A2B03D19B
:1030A0001B4B40F203121A601A4B1B7803F07F038C
:1030B0000A2B1DD01F2B03D1174B40F203121A60AD
:1030C000164A114B1648174912681C79DB79002300
:1030D00003700B700AB10123137010BD124B40F244
:1030E00003121A600B4B1B7803F07F030A2BE1D10C
:1030F0000E4B40F203121A60E2E77047348004403E
:10310000DCA5FF1F84E100E000B00640308EFF1F09
:1031100004D00440318EFF1F00D00440D8A5FF1F0B
:1031200048A6FF1FDDA5FF1F0CB0044010B00440EF
:103130000A4A38B50546137803F0FF04002BFAD18C
:1031400001212846FFF72CFE21462846FFF722FEE4
:10315000034A044B52F835201A6038BDDCA5FF1F26
:1031600018AD00004CA6FF1F09B140F08000174ABF
:103170001378984216D010B4154C246824050FD546
:1031800003F07F030A2B1CD01F2B11D0002900F065
:103190007F0114BF602344230A290DD01F2902D0C8
:1031A000107010BC70470B4943F440730B60F7E795
:1031B000084B00241C60E9E7074943F440730B60A7
:1031C000EEE7054B00241C60E0E700BF318EFF1FD7
:1031D0003480044000D0044010B00440124B1A78F0
:1031E00082420CD011490968090507D5092A16D071
:1031F0001A2A0AD009280DD01A2801D01870704751
:103200000B4A40F213311160F8E7094A00210928FE
:103210001160F1D1074A40F213311160EEE7054A1F
:1032200000211160E6E700BF308EFF1F34800440AC
:1032300004D004400CB004400D4B1B6813F4006331
:1032400005D0212805D90B4B00201860704718467F
:103250007047094B10B5074C53F8303023600121FB
:10326000FFF79EFD236800221A70012010BD00BFE9
:1032700034800440D8A5FF1F18AD00000C4B1B681C
:1032800013F4006306D0172806D00A4A537B03F0D4
:10329000FE03537300207047074B064A40F2023189
:1032A0001960537B43F0010353730120704700BF43
:1032B0003480044000B0064008B004402DE9F84FC7
:1032C000234B1B681A053BD5224B1B680BB101220F
:1032D0001A70DFF89090204D99F80040DFF8888050
:1032E0001E4E0134272C8ABF4FF0000A5FFA84FA81
:1032F00054460746AB462B789C4216D1FFF7D0FBCD
:1033000040281FDC33791B06F5D59BF800300133CC
:10331000272B86BF00221346DAB218F80330DBB23F
:10332000F3712A702B789C42E8D00D490B4BFFB209
:103330000120BC2208F80470087089F800A0DA7037
:10334000BDE8F88FFF28D6DD01F00AFAD3E700BF09
:10335000348004404CA6FF1F49A6FF1F00B0064062
:10336000DCA5FF1F50A6FF1FE0A5FF1F2DE9F84FAA
:10337000294B1B681A0548D5284B1B6805460BB11D
:1033800001221A7005EB010A554540D2DFF89C80F6
:10339000234CDFF89C90234F0AE015F8012B09F825
:1033A0000B20214A0123AA45137088F800602ED013
:1033B00098F80030227803F1010BBBF1270F86BF8C
:1033C0000026B3465FFA8BF69345E6D1BC22FA702D
:1033D00005E03A7913060BD422789345DDD1FFF747
:1033E0005FFB4028F5DDFF28F6DD01F0B9F9F3E7D2
:1033F00022780132272A86BF00210A46D1B219F865
:103400000220D2B2FA712170E6E7BDE8F88F054BD1
:10341000BC22DA70BDE8F88F348004404CA6FF1F50
:1034200049A6FF1F00B00640DCA5FF1F50A6FF1FE6
:10343000E0A5FF1F10B5044C237823B101F090F9EB
:103440002378002BFAD110BDDCA5FF1F064A074BDD
:103450001B781078DBB2C0B283422CBF273000F15A
:10346000FF30C01A704700BF49A6FF1F50A6FF1FBC
:10347000054A064B10781B78C0B2DBB2984238BFC1
:103480004030C01A704700BF48A6FF1FDDA5FF1FD0
:1034900030B4154B154C1A782378D2B2DBB29A426D
:1034A0001ED001333F2B0ED91149124B08781968F1
:1034B0000023C0B2237021B1D31A1A2B01DC0023E0
:1034C0000B7030BC70470A480A49C05C0968DDB21D
:1034D000C0B225700029F4D09A4238BF4032EBE7E1
:1034E0004FF0FF30EDE700BF48A6FF1FDDA5FF1F2F
:1034F00008A6FF1FD8A5FF1F084A094B12781B78A2
:10350000DBB29A4207D00133402B28BF0023054A83
:10351000D05CC0B270474FF0FF30704748A6FF1F25
:10352000DDA5FF1F08A6FF1F0D4B1B681B0516D549
:1035300030B40C4B0C4CDA780C480D4902F0CB023D
:103540004025DA705D74DA7842F03402DA7023785C
:103550000268DBB20B700AB10023137030BC7047F5
:103560003480044000B00640DDA5FF1FD8A5FF1F32
:1035700048A6FF1FF0B4384B1A7912F0300F2CD048
:1035800072B6997D01F0FF0200293DD062B6334F3B
:10359000334938780D78334E1C46C0B2EDB2431C27
:1035A000402BE17928BF0023AB4202F1FF32C9B2C0
:1035B0001CBFF154184612F0FF02F0D12A4B1B68D1
:1035C000C2B23A704BB1A84236BFC5F14005401BAC
:1035D00040192728C4BF01221A701F49CA78D2B2E5
:1035E000150616D452060DD51B4B1B795B0609D563
:1035F0001E4B1F491B6800220A7003B11A70164B3C
:103600003C22DA70F0BC70474022D9795A7462B615
:10361000E3E70B791C06E5D5164B174E1C7833787B
:10362000E4B2DBB29C420ED0144D01E0A3420AD0BA
:103630000133282B28BF00230879E85CC0B2C87189
:10364000087D0728F2D9DBB2034933700B791806DD
:1036500044BF7C23CB70C5E700B0064048A6FF1FDF
:10366000DDA5FF1F08A6FF1FD8A5FF1F4CA6FF1F43
:10367000DCA5FF1F50A6FF1F49A6FF1FE0A5FF1FE7
:10368000431E032B14D872B60A4951F8230068B1BF
:1036900070B4094C058834F81320466841F823605B
:1036A000521B24F8132062B670BC704762B6704794
:1036B00000207047ACA6FF1FB4A8FF1F01380328E5
:1036C0000BD872B6074B53F8203043B100205B682B
:1036D0000130002BFBD162B67047002070471846BE
:1036E000F9E700BF00A7FF1F30B472B62B4A13786A
:1036F0001D0706D52A4B196A002936D0996A002978
:1037000041D053781C0706D5254B196C00293ED0B3
:10371000996C002939D09378190705D5204B196E7B
:10372000002936D0996E89B1D3781B0707D51C4B79
:10373000D3F880207AB3D3F8882011213AB162B649
:10374000184B00221A7030BC00F07ABE0D21154CC7
:10375000154D227843F8315003EBC1030830013A8C
:103760005860227062B630BC704704220D4C0F4D79
:10377000217843F8325003EBC20308304A1E5860E8
:10378000227062B6EFE70521E1E70921DFE70822B1
:10379000ECE70C22EAE71022E8E700BF50AE000099
:1037A0000080FF1F29A7FF1FC800400088004000BD
:1037B000431E032B1DD81B4A400140F0100030B4BB
:1037C000104472B6184CE25C032A1BD8DFE802F002
:1037D0000212151703220D88E25410F0080F14BFCF
:1037E000C823882343EA054308310360416062B679
:1037F00030BC704708300222EDE70522EBE70830C5
:103800000422E8E7094A52F8230038B1084A52F87E
:103810002300416042F8231062B6E9E742F8231022
:10382000034AF7E70080FF1F38A7FF1F00A7FF1F0D
:1038300010A7FF1F2DE9F04FDFF80CB3DFF80CA342
:1038400087B044E0AB4F4FEA930807EBC809013E4D
:10385000D9F8042003F00803F6B2A2F1080003F03F
:10386000FF04002B40F0028157F838301B0C99B24E
:1038700022F8081C002B00F0F0809F4B22F8064C29
:1038800042F8044C53F82620002A00F0C5829B4DD4
:1038900055F8263058609A4C45F8260034F8163012
:1038A000194424F8161000F0ABFD002800F0AD829A
:1038B000944A954B19F0080F00F1080018BF134601
:1038C000C9F8040047F8383008238BF800309BF81B
:1038D0000040E4B261071AD58C4B1B78A3B18C4928
:1038E0000A7802F0FF0322B1013BDBB20B7003B98F
:1038F00000BE88490A7802F0FF032AB1013BDBB21F
:103900000B70002B00F0578204238BF8003004F07A
:10391000080303F0FF02002B00F0CC809AF800307F
:10392000DBB21E098ED19C08DFF8C89159F834200B
:1039300009EBC401C2F38302013A49680C2A00F280
:103940008880DFE802F07C7C8686868686864786CD
:10395000868607000868704D4A68704F704E286070
:1039600081B240F28160674B6A604FF0010E002225
:10397000814249F834303A60C9F81020C9F818205B
:1039800086F800E05B4C00F2E380B1F5D06F80F088
:103990004683B1F5817F00F0FC8200F28D828029A0
:1039A00000F07783822940F0FA82A98801F07F0134
:1039B000042900F2F4825B485B4C890008442270C1
:1039C00062700278930740F1588484F800E04FF069
:1039D000020E42E3514F3A6832B3544B504E5449B1
:1039E000188834780D784028864645F0020828BFAC
:1039F0004FF0400E002C84F001043470CEEB000038
:103A00000CBF8824C82409EBC80680B285F00105E4
:103A100044EA0E447260188049F8384072440D70D0
:103A2000002800F045813A603B4B1A88B2F5A06F40
:103A30000FD100219A7859703E4B1A7009E0364A2E
:103A4000108842F22102904200F037812D4A49F855
:103A50003420394A0123137036E72A4A2A4B19F0D9
:103A6000080F18BF134647F838302DE700F0E8FC80
:103A7000324A334952F82630002B00F0D181586881
:103A80008C5D42F8260003F10802C9F80420032CDB
:103A900005D8DFE804F02C02292602228A551A886C
:103AA00019F0080F0CBF8823C82343EA024347F8E4
:103AB000383009E7E00700F18181210600F1F28149
:103AC000A20706D51F4A204913780220DBB21370E3
:103AD0000870E30602D51C4B10221A7007B0BDE82F
:103AE000F08F04228A55DAE705228A55D7E70322A8
:103AF0008A55D4E70080FF1FACA6FF1F58A6FF1F02
:103B0000B4A8FF1FC80040008800400034A7FF1F72
:103B1000BDA6FF1F3CA7FF1F20A7FF1F54A6FF1F26
:103B2000BCA6FF1FC02007402CA7FF1F68A6FF1FD1
:103B300028A7FF1F982007409420074000A7FF1FD9
:103B400038A7FF1F882007408020074090200740AB
:103B500042F22100814200F02A8100F2D880B1F5C2
:103B6000086F00F07682B1F5106F40F01882226A7B
:103B7000B349A8780870120600F13A83D9F82820D2
:103B8000B049130600F10C83D9F83020AD49150671
:103B900000F10183D9F83820AA49140600F1F68211
:103BA000D9F84020A749100600F14A83D9F84820E7
:103BB000A449120600F13F83D9F85020A149130609
:103BC00000F13483D9F858209E49150600F1298365
:103BD000D9F860209B49140600F11E83D9F86820AB
:103BE0009849100600F11383D9F870209549120600
:103BF00000F10883D9F878209249130600F1FD827C
:103C0000D9F880208F49150600F13183D9F8882032
:103C10008C49140600F12583D9F8902089491006B3
:103C200000F11983D9F898208649120600F10D8316
:103C30008548864A864901908648874D874C049777
:103C400000230596029580460F4616461D460394AE
:103C5000306828B1446800F0F3FB2046002CF9D10D
:103C600000233360029B38681A46002342F825304F
:103C700028B1446800F0E4FB2046002CF9D1002272
:103C80003A60019A98F800301146002241F8042B5E
:103C9000039A0191023B4FF0000122F81510032B0B
:103CA00000F22B81DFE813F070012501700125017E
:103CB000BEF1400F18BF0022B5E6694A0D7848787A
:103CC000157050708D78C8789570D07010680D7927
:103CD000157186284D7989795571917100F09B8114
:103CE0006049614E0A78307882F00105002842F080
:103CF00002020D700CBF8821C82149F8321009EB6F
:103D0000C20280F001000021307051609EE642F254
:103D10002120814240F0CB81544B554C5549A87825
:103D20001D682560CDF804E00870002002908046F0
:103D3000844604464B490D7845F0020E09EBCE034C
:103D40000393019B002B039B5C600CBF8824C82459
:103D500044EA080385F0010449F83E3032700C70E3
:103D6000DFF8E0E0404BDFF8FC80002840F01E81E7
:103D7000BCF1400F1BD144F0020C09EBCC03029CB8
:103D8000DFF8C0E05C60002A40F02681020442F0C7
:103D900088029DF804304EF83C20044433700D70C6
:103DA0002346402803D10020334A3B601080334A29
:103DB000012313704DE600F0AFFCA5E5214B2F4821
:103DC00028491A614FF0020E80F800E02C4F0A706B
:103DD0002C49196099602C4E2C4D2D4C9A610D2167
:103DE0003970FF213170DFF8B8E029702270294D59
:103DF000294A8EF800109F27012406F8047C5D6094
:103E00000470DA6007B0BDE8F08F244A47F8380044
:103E100013780133137057E543F826000E4D3AE549
:103E20008B5D032B00F2F08001A252F823F000BF5B
:103E3000C9380000C9380000ED3E0000E73E000030
:103E400034A7FF1F0080FF1F10A7FF1FACA6FF1F96
:103E500000A7FF1F38A7FF1F58A6FF1FB4A8FF1F0A
:103E6000BCA8FF1F28A7FF1FBCA6FF1FD4A5FF1FCC
:103E7000C4A8FF1F4CA7FF1F68A6FF1F9420074080
:103E8000C02007408800400088200740802007406D
:103E9000982007406CA6FF1FC0A6FF1F29A7FF1F81
:103EA0008C200740C149C24B80220D2008701A7037
:103EB000A2077FF50EAE05E640F20232914240F0D5
:103EC000EE80A98801F07F01042968D86A88002A59
:103ED00065D1B648CDF804E089000844017841F086
:103EE0000201017021E701238B55EDE400238B557E
:103EF000EAE44FF0010388F800300135042D06F1A3
:103F0000040607F1040708F101087FF4A1AEA94CEB
:103F1000A94B2278A94D049F059E002129701A7093
:103F2000130700F105816278A549DFF8A0820A70C5
:103F300010074FF00001C9F83010C9F8381000F12F
:103F4000E080A049A2780A700021C9F85010C9F891
:103F500058101107DFF8748200F10181E2789A4964
:103F60009A4C0A7000211207C9F87010C9F878102D
:103F700000F1B08033780193002183F00102C9F889
:103F80009010C9F89810D0E64FF0000388F8003080
:103F9000B3E7A98801F07F01042940F28D80834AAC
:103FA0000F2313708A4A0123137052E540287FF6CD
:103FB000E2AE44F002040EEBC401029E4E60BAB1C0
:103FC0009DF80410834A19703346403888F8005031
:103FD00040334EF83420E7E69DF804303370020495
:103FE000029B0D7042F0C80203444EF83C20D8E614
:103FF0009DF804101970029B774A88F800504038E9
:1040000040334EF83420CFE619F0080F0CBF0223DE
:1040100003238B5558E4714A0F21117060E6704AF2
:104020005468002CBBD06888B5F804E003E00C327B
:104030005468002CB3D013888342F8D15388734559
:10404000F5D1000A03280CBF94F800E0B2F808E0AC
:1040500003E0644A644C12782270E888704580F06E
:104060003F8162490D784028844645F0020E28BF02
:104070004FF0400C04EB0C0309EBCE02029301233A
:104080005460CCEB00004FEA0C4800220193C82496
:104090005EE6554C4FF0020E22706270DDE7B1F51E
:1040A000A06F7FF47CAF0123002201933DE642F232
:1040B00021329142F7D072E76A88002A7FF46FAF0D
:1040C0003A48CDF804E089000844017821F0020163
:1040D00001702AE600F094F9002800F0EF80083023
:1040E0003D4AC4F88400C4F8802000F089F9002813
:1040F00000F0DE800830374AC9F88C00C9F8882003
:1041000038E700F07DF9002800F0C0800830324A1E
:10411000C8F84400C8F8402000F072F9002800F008
:10412000AF8008302B4AC9F84C00C9F8482008E78E
:1041300000F066F9002800F0CD800830264AC9F862
:104140002400C9F8202000F05BF9002800F0BC80B2
:104150000830204AC9F82C00C9F82820E3E600F00E
:104160004FF9002800F09E8008301B4AC8F8640010
:10417000C8F8602000F044F9002800F08D80083075
:10418000144AC9F86C00C9F86820E7E6C86B08381B
:1041900000F056F904E5486B083800F051F9F9E4ED
:1041A000C86A083800F04CF9EEE400BFC0200740B0
:1041B0008020074050AE0000C420074029A7FF1F01
:1041C000C8200740CC200740D02007400080FF1FB8
:1041D00094200740C800400088004000BDA6FF1F93
:1041E00054AE000034A7FF1F2CA7FF1F28A7FF1FF6
:1041F000606A083800F024F9C0E4C86F083800F09D
:104200001FF9FDE4486F083800F01AF9F2E4C86EAF
:10421000083800F015F9E7E4486E083800F010F9A6
:10422000DCE4C86D083800F00BF9D1E4486D0838BB
:1042300000F006F9C6E4C86C083800F001F9BBE4E8
:10424000486C083800F0FCF8B0E4D1F89C0008385D
:1042500000F0F6F8ECE4D1F89400083800F0F0F83B
:10426000E0E4D1F88C00083800F0EAF8D4E4D1F8A2
:104270008400083800F0E4F8C8E44FF0020EECE6E1
:104280002A78C9F8480001322A705AE62A78C8F814
:10429000400001322A703FE72A78C9F868000132ED
:1042A0002A705BE62A78C8F8600001322A7061E75C
:1042B0002A78C9F8880001322A705BE62A78C4F8A7
:1042C000800001322A7010E72A78C9F828000132EC
:1042D0002A7028E62A78C9F8200001322A7032E7CD
:1042E000BEF1400FF44628BF4FF0400C04EB0C0326
:1042F00002930123CCEB0E004FEA0C4800220193FD
:1043000018E500BFF8B500F0F7FC294B29482A4C06
:104310002A4F2B4DDFF8BCC0DFF8BCE0294E00224D
:104320001A605A609A60DA601A615A619A61DA61B9
:104330001A625A629A62DA621A635A639A63DA6399
:104340001A645A649A64DA641A655A659A65DA6579
:104350001A665A669A66DA661A675A679A67DA6759
:10436000C3F880200168C3F8842041F480210160F3
:10437000C3F307212170C3F30740134938701B0EA4
:104380002B70FF238CF80030104D8EF80030104851
:104390000B700123337084F8642070264FF400748E
:1043A000102207F82C3C2E70046081F8F820F8BD2C
:1043B0000080FF1F348004409C200740B02007404D
:1043C000B4200740942007401020074049E400E053
:1043D00008E100E0802007408820074000F0A0B8F6
:1043E00000F078B800F06CB900F046B90846114604
:1043F00000F0B2B8084600F033B900BF704700BF04
:1044000072B60D480268B2FA82F30B2B10DC4FF043
:104410000041D94022EA0102026062B6074803EB7C
:10442000C303DB00C2180021C15010465160704721
:1044300062B60020704700BF448EFF1FBC83FF1F81
:104440000D4B0E4AC31AA2FB03231B090B2B0CD8DE
:104450000B4A127852B972B60A484FF0004102680E
:1044600021FA03F31A43026062B67047064A1278D3
:10447000002AF0D0FFF738B9BC83FF1F398EE3382C
:1044800029A7FF1F448EFF1F34A7FF1F38B50F4D0C
:10449000286878B143880288C118013393420C7AA6
:1044A00002D24380204638BDFFF7CAFF00232046D2
:1044B0002B6038BD064B1B782BB10320FFF7E0F8CB
:1044C00028600028E6D14FF0FF3038BD48A7FF1F15
:1044D00034A7FF1F10B5094C206818B14388184451
:1044E000007A10BD064B1B782BB10320FFF7C8F8EC
:1044F00020600028F2D14FF0FF3010BD48A7FF1F09
:1045000034A7FF1F044B054A1B6890881BB11A880B
:104510005B88D31A1844704748A7FF1FB4A8FF1F31
:104520000B4B1B789BB110B50A4C206848B1FFF7C4
:1045300087FF002303202360FFF7A2F830B1FFF7C5
:104540007FFF0320FFF79CF80028F8D110BD7047CB
:1045500034A7FF1F48A7FF1F2DE9F04FDFF8F890A1
:1045600083B0012289F80020019169B3DFF8EC8063
:10457000364F019E8346D8F80000B0B3344D4488CE
:10458000C4F14001B14228BF314604EB010E0022C4
:104590001FFA8EFE2A70761AA0F802E000F10802D7
:1045A00051B1013C224459441BF8014B02F8014F20
:1045B0008B45F9D1B0F802E0BEF13F0F0BD8254A88
:1045C00005211170002ED6D10198002389F8003002
:1045D00003B0BDE8F08F4022028001460420FFF7BF
:1045E000E7F80022C8F80020E9E73A782AB3184D26
:1045F0004AF2F9244FF0010A07E0013C16D02A786C
:10460000A2B900F0ADF83A78BAB10420FFF756F835
:104610000728F2D889F800A0FFF7F2FEC8F80000DA
:104620000028ACD10C4B013C1870E8D101234FF0AD
:10463000FF302B7003B0BDE8F08F00234FF0FF3048
:1046400089F8003003B0BDE8F08F00BF34A7FF1F2A
:1046500044A7FF1F3CA7FF1F3DA7FF1F40A7FF1F49
:1046600000B583B002AB012103F8010D1846FFF736
:1046700073FF03B05DF804FB38B50E4D0E4C28688F
:104680000123237028B1408800232370C0F140002B
:1046900038BD0A4B1B7813B90020207038BD0420A8
:1046A000FFF70CF80728F7D8FFF7AAFE28600028C4
:1046B000E9D1F1E740A7FF1F3DA7FF1F34A7FF1F68
:1046C000F8B5114B1B788BB1104E114D3468012792
:1046D0002F7064B10F4A638800271770214623802A
:1046E0000420FFF765F8376000232B70F8BDFFF753
:1046F00087FE084B28B1014604201C70FFF758F8CC
:10470000F2E71F70F0E700BF34A7FF1F40A7FF1FAD
:104710003DA7FF1F3CA7FF1F38B50E4B1B7873B991
:104720000D4C216861B103F0FF054B880B8004201C
:10473000FFF73EF8256038BD084B01221A7038BDDE
:10474000FFF75EFE0028F7D00146BDE838400420A0
:10475000FFF72EB83DA7FF1F40A7FF1F3CA7FF1F75
:1047600038B5224C237803B138BD01232370FFF7FD
:10477000C9FE70BB00F0AEF940BBFEF779FE10BB7E
:1047800000F03EFAE0B900232370EFF30583002B1D
:10479000EAD1EFF3108172B6154B1868E0B1154CF1
:1047A0002278CAB945691D6001232370C5B1AA6189
:1047B00001B962B600254577836898472570D3E72D
:1047C00000F016F9DFE7FEF713F8D9E700F00EF96D
:1047D000D3E7FFF713FECDE70029C5D162B638BD98
:1047E000054B1D600029E5D1E3E700BF4DA7FF1F82
:1047F00060A7FF1F64A7FF1F5CA7FF1F10B4EFF3A4
:10480000108272B6437F33B9017F012907D0032993
:104810000FD00123437702B962B610BC7047124C27
:104820002168A1B1114943610B6883610860586137
:10483000EFE70F4C216881B10E4943610B6883613A
:10484000086058610C4B4FF080511960E1E7074B4D
:104850004161816120601860DBE7064B4161816145
:1048600020601860EEE700BF60A7FF1F5CA7FF1F76
:1048700050A7FF1F54A7FF1F04ED00E010B4047FF2
:104880004160022CC26002D010BCFFF7B7BF836842
:1048900010BC184770B5EFF3108272B60C4C20684C
:1048A00080B10C4E00254369236073B19D6102B94C
:1048B00062B6457783689847EFF3108272B6206836
:1048C0000028F0D102B962B670BD3360EFE700BFD7
:1048D00050A7FF1F54A7FF1FFFF7DCBF184A30B4D3
:1048E0001468002C27D0036821688B420ED2CB1AA3
:1048F00000218460C1602360E060106002230375C2
:1049000030BC704711688B42144608D3A2685B1A0A
:104910000360002AF6D18260C460A060EEE7D2682E
:10492000C2608460E060C568CB1A0222A860236080
:10493000027530BC70478460C4601060DEE700BF61
:1049400058A7FF1FF8B5224E34682CB32368002BFC
:104950003AD1204F1D4604E03468ECB12368002BA7
:1049600032D1A36803B1DD60206933600368257527
:104970001B68BB4221D1037F4560022BC46020D05D
:10498000FFF73CFF6368002BE6D023602046FFF76B
:10499000A5FF3468002CE1D1EFF3108372B60E4A04
:1049A00000211068116003B962B628B18468FFF76E
:1049B00095FF20460028F9D1F8BD224600219847EE
:1049C000E0E783689847DDE7013B2360E4E700BF49
:1049D00058A7FF1F7D48000068A7FF1F024A136801
:1049E00001331360FFF7AEBFD4A5FF1F704700BFB0
:1049F000704700BF30B42948294A2A4B2A4D602409
:104A0000E121047011701B78284C082B30D00A2B40
:104A10002748284937D00C2B0CBF35223D221223C2
:104A20002A60236002600B60234B24491B78244AD0
:104A3000BBB101230B601360224B23491B78234A2F
:104A4000012B26D9042B0FD9082B1ED9102B94BF6C
:104A5000862387230B6013601D4B01221A7030BC24
:104A600070470B601360E7E784230B601360F3E784
:104A700000F58E200F490830012213232A6023609D
:104A800002600B60D0E73922F7E785230B601360E3
:104A9000E2E780230B601360DEE700BF00400740C1
:104AA00001400740488EFF1F08B003400CB0034090
:104AB00008B00B400CB00B406DA7FF1F20B00340A7
:104AC00020B00B40498EFF1F24B0034024B00B40A0
:104AD0006CA7FF1F054A064B10781B78C0B2DBB2EB
:104AE000984238BF4030C01A704700BF74A7FF1FFC
:104AF00075A7FF1FF0B4384B1A7912F0300F2CD085
:104B000072B6997D01F0FF0200293DD062B6334FA5
:104B1000334938780D78334E1C46C0B2EDB2431C91
:104B2000402BE17928BF0023AB4202F1FF32C9B22A
:104B30001CBFF154184612F0FF02F0D12A4B1B683B
:104B4000C2B23A704BB1A84236BFC5F14005401B16
:104B500040192728C4BF01221A701F49CA78D2B24F
:104B6000150616D452060DD51B4B1B795B0609D5CD
:104B70001E4B1F491B6800220A7003B11A70164BA6
:104B80003C22DA70F0BC70474022D9795A7462B680
:104B9000E3E70B791C06E5D5164B174E1C783378E6
:104BA000E4B2DBB29C420ED0144D01E0A3420AD025
:104BB0000133402B28BF00230879E85CC0B2C871DC
:104BC000087D0728F2D9DBB2034933700B79180648
:104BD00044BF7C23CB70C5E700A0064074A7FF1F2D
:104BE00075A7FF1FB8A7FF1F70A7FF1FFCA7FF1F18
:104BF000F8A7FF1F00A8FF1FF9A7FF1F78A7FF1F37
:104C0000054A064B10781B78C0B2DBB2984238BF19
:104C10004030C01A704700BF08A8FF1F09A8FF1F37
:104C200030B42B4B1A7994061FD52A48DA790378C9
:104C3000294901333F2B0978C8BF00238B42D2B2E8
:104C400003D0264CD9B2E2540170254A116861B1F3
:104C5000244A1278D2B2934236BFC2F140029B1A64
:104C60009B18272BC4BF01230B70194AD378DBB2E2
:104C7000180611D45A060DD5154B1B795B0609D5BC
:104C8000194B1A491B6800220A7003B11A70104BA5
:104C90002C22DA7030BC704711790906EAD5144924
:104CA00010480C780178C9B28C420DD04A1C272AD2
:104CB00084BF00210A460F4D054C98BFD1B2AA5CB3
:104CC000D2B2E2710170D5E76C21D170D2E700BF9A
:104CD00000C0064008A8FF1F09A8FF1F34A8FF1F37
:104CE00004A8FF1F75A8FF1F78A8FF1F74A8FF1F47
:104CF0007CA8FF1F0CA8FF1F70B584B072B6194BBB
:104D0000194D1A48702241260F2480211A702E70E6
:104D10001A460470197013781B06FCD5144B1868DA
:104D200062B6144B144C984298BF00EB800001A966
:104D300098BF40000A22FDF7D5FE01A920460023B6
:104D400011F8012B01333AB10A2B20F8022FF7D1C9
:104D50001623237004B070BD5B00DBB2237004B077
:104D600070BD00BF00000240070002400600024084
:104D7000080002407F969800D88EFF1F2DE9F04F63
:104D8000DFF8E4928DB006460F4614461D4600F04B
:104D90006FF999F90080B8F1FF3FCDE9000146D0E5
:104DA00022462B462046294601F0F2FC8346002885
:104DB0003DD132463B463046394601F0E9FC0022FF
:104DC00082460023002840F084803046394601F0B6
:104DD000ADFC002830D0002200232046294601F0F7
:104DE000A5FC8346A8B10122984B02920021002223
:104DF000CDF828A0CDE90467CDE90645CDE9081234
:104E00000393B8F1000F53D0914900200DB0BDE8D5
:104E1000F08F2046294600F049FF40B100220023D0
:104E20002046294601F08CFC002840F0B780DDE9DF
:104E300000010DB0BDE8F08FDDE9000100F036FFA4
:104E4000804600285DD04FF0000A4FF0000B52461C
:104E50005B46DDE9000101F069FC0028E7D030463F
:104E6000394600F023FF0028E1D02046294600F013
:104E70001DFF0028DBD099F90030744A0392042109
:104E80000022022BCDE90467CDE90645CDE908AB48
:104E900002910A9203D002A800F00EFF70B901F04F
:104EA000C1FC2223036009E000230024CDE908347B
:104EB00002A800F001FF002800F086800A9B1BB1C9
:104EC00001F0B0FC0A9B0360DDE908010DB0BDE80C
:104ED000F08F2046294601F029FC0028A7D05C4924
:104EE0005A4BCDF828B001220020B8F1020FCDE9CD
:104EF0000467CDE9064502920393CDE90801D7D1B5
:104F000097E73046394600F0D1FE00289BD0204676
:104F1000294600F0CBFE002895D0DDE9002310469D
:104F2000194601F035FC002873D1032399F900805C
:104F30000293464B0A900393CDE90467CDE90645F9
:104F40000022002330463946B8F1000F41D1414FCD
:104F50004FF06046CDE9086701F0F2FB00289AD0D7
:104F600000223D4B2046294601F078F904460D46C3
:104F700000F0AAFE02460B462046294601F0D6FB69
:104F8000002843D1354B99F900804FF06042CDE9BC
:104F90000823B8F1020F7FF47EAF80E799F9003063
:104FA0002A4ACDF828B00121CDE90467CDE90645AC
:104FB00002910392002B3FF477AF29490020022B86
:104FC000CDE908017FF474AF01F02CFC21230360CC
:104FD00074E7244F0026CDE9086701F0B1FB0028F3
:104FE000D7D000221C4B2046294601F037F9044651
:104FF0000D4600F069FE02460B462046294601F0A8
:1050000095FB18B9164B0022CDE9082399F90080C9
:10501000BFE799F900900D4BCDF828800122CDE92A
:105020000467CDE9064502920393B9F1000F3FF4FE
:105030003BAF002200231046194601F039FAB9F1BE
:10504000020FCDE90801BFD032E700BFA8AE0000D3
:105050000000F03FFFFFEF470000E03FFFFFEFC71A
:105060000000F0FF0000F07FEE8EFF1FFFFFFFFF4C
:105070002DE9F04F23F0004858EA020993B03CD0E4
:10508000714C21F00046A64283460D460CDD06F128
:10509000404606F5801656EA0B0038D16B49834628
:1050A000584613B0BDE8F08F9A4696462BD0A045DF
:1050B000EDDC654CA04578D0002D0F468146CDE94A
:1050C000002376DB0024BEF1000F27D15E4B98450C
:1050D00000F08B805D4B984552D0BAF1804F00F0C4
:1050E000C2835B4B9A4519D1002D17DB48463946E0
:1050F00013B0BDE8F04F00F015BDCB4653495846FC
:1051000013B0BDE8F08F0028C1D1B045D1DD5148C2
:1051100013B0BDE8F04F00F0D1BD00244846394639
:1051200000F0C0FDBBF1000F1CD0ED0F013D54EAB3
:10513000050370D0484B984540F3948003F1047305
:10514000984540F30584454B9E4270DDBAF1000F4F
:1051500070DD3BA3D3E900231046194601F07EF829
:1051600083469DE726B1394B25F040429A42DCD177
:10517000BAF1000FC0F2B083002D08DB83468FE741
:10518000BAF1000FC0F25684CB46394688E706F1E3
:10519000404606F5801656EA040300F07B84012C95
:1051A000ECD1834601F100417AE7BEF1000F83D0D4
:1051B0006DE72B4B98452CDCA3F15473984581DDAA
:1051C0004FEA2853A3F2FF33142B40F34B84C3F16F
:1051D00034032EFA03F202FA03F39E457FF472AF12
:1051E00002F00102C2F102046DE706F1404303F54B
:1051F000801353EA0B0300F03383184B9E4240F3B5
:105200006083BAF1000F15DBDDE900349B462146CF
:1052100046E7022457E74A4648463B46394600F0EF
:1052200069FE02460B4601F043F9834638E7BAF1BE
:10523000000F8EDB4FF0000B594631E7AFF30080D3
:105240009C7500883CE4377E0000F07F0000F03F52
:105250000000E03F1CB100000000E041FFFFEF3F15
:10526000FFFF3F43B6F5801F4FF0000205DAD44B35
:1052700000F0F4FF6FF034020E463315D14FC6F341
:105280001306A3F2FF33134446F07F5ABE421A4678
:105290000D934AF4401A40F3C183CB4B9E4240F336
:1052A000FD83134601330D93C84B0022CDE906233D
:1052B00000270026CDE90867CDE90E67AAF5801A18
:1052C0000027024653465146CDE90A23DDE906236D
:1052D00000F010FEDDE9062380468946DDE90A017B
:1052E00000F00AFE02460B460020B84901F0E0F843
:1052F0000A460146CDE91012134649460246404689
:1053000000F0ACFF4FEA6A0343F000538C4683463B
:1053100003F50023CDE904BCDA468B46D9190023F6
:10532000CDE902AB0293DDE902AB002006460F4651
:1053300002460B465046594600F090FF02460B4687
:105340004046494600F0D6FDDDE906238046894601
:105350003046394600F0CEFD02460B46DDE90A0133
:1053600000F0C8FD52465B4600F078FF02460B464F
:105370004046494600F0BEFDDDE9102300F06EFF17
:10538000DDE90467CDE9060132463B463046394641
:1053900000F064FF78A3D3E9002306460F4600F02F
:1053A0005DFF77A3D3E9002300F0A6FD32463B461C
:1053B00000F054FF74A3D3E9002300F09DFD3246B2
:1053C0003B4600F04BFF72A3D3E9002300F094FDAD
:1053D00032463B4600F042FF6FA3D3E9002300F0C2
:1053E0008BFD32463B4600F039FF6DA3D3E9002325
:1053F00000F082FD3246804689463B4630463946BB
:1054000000F02CFF02460B464046494600F026FFBE
:10541000524606460F465B46DDE9040100F06CFD8E
:10542000DDE9062300F01AFF32463B4600F064FD3A
:105430005246804689465B465046594600F00EFF6C
:105440000022634BCDE90A0100F056FD42464B466F
:1054500000F052FD02980F46064632463B46504643
:10546000594600F0FBFE002282468B46584B3046E0
:10547000394600F03FFDDDE90A2300F03BFD02461E
:105480000B464046494600F035FDDDE9042300F0B7
:10549000E5FE3246804689463B46DDE9060100F0DE
:1054A000DDFE02460B464046494600F025FD80469B
:1054B000894602460B4650465946CDE904AB00F0FA
:1054C0001BFDDDE902AB38A3D3E9002350460F46AC
:1054D00000F0C4FEDDE90423CDE90201394650465F
:1054E00000F008FD02460B464046494600F002FD2A
:1054F0002FA3D3E9002300F0B1FE2FA3D3E90023AB
:10550000804689465046394600F0A8FE02460B46C2
:105510004046494600F0F0FCDDE90E2300F0ECFCCB
:1055200080460D98894600F033FE424606460F46F7
:105530004B46DDE9020100F0DFFCDDE9082300F065
:10554000DBFC32463B4600F0D7FC32463B46504639
:105550008B4600F0CFFCDDE9082300F0CBFCDDE951
:10556000022300F0C7FC02460B464046494600F0C5
:10557000C1FC80462EE000BFEF4E454A287ECA3F60
:1055800065DBC9934A86CD3F01411DA96074D13FB7
:105590004D268F515555D53FFFAB6FDBB66DDB3FC9
:1055A000033333333333E33F000000E009C7EE3FFA
:1055B000FD033ADC09C7EE3FF5015B14E02F3EBE68
:1055C000000040438E98030079B60B000000F03FC6
:1055D000000008408946013C54EA0503DDE900016A
:1055E00014BFD54CD54C0023CDE9043403460C46FA
:1055F000CDE9023400230293DDE9024522462B4621
:1056000000F078FC52465B4600F028FEDDE90023FE
:1056100006460F464046494600F020FE02460B462D
:105620003046394600F068FC224606460F462B46B7
:1056300050465946CDE9006700F010FE0B46024681
:10564000804689463046394600F056FCBC4B9942AC
:1056500006460D460C4640F30E8101F13F4303F52B
:10566000E003034340F0EF819FA3D3E90023DDE98A
:10567000000100F041FC424682468B464B463046D4
:10568000294600F037FC02460B465046594601F0C9
:1056900075F8002840F0D7812F463B154FF4801253
:1056A000A3F2FE3342FA03F32344C3F30A52A54E96
:1056B000A2F2FF321641C3F3130B0020C2F114050E
:1056C00023EA06014BF4801B02460B46002C4BFAE2
:1056D00005FB40464946B8BFCBF1000B00F00AFC81
:1056E00002460B4680468946DDE9000100F004FCD5
:1056F0004FEA0B5A00247EA3D3E9002320460D462F
:1057000000F0ACFD424606460F464B462046294671
:1057100000F0F0FB02460B46DDE9000100F0EAFB79
:1057200075A3D3E9002300F099FD75A3D3E9002305
:10573000804689462046294600F090FD02460B46E9
:105740004046494600F0D8FB8046894602460B4653
:105750003046394600F0D0FB32463B4604460D4603
:1057600000F0C8FB02460B464046494600F0C2FB2B
:105770002246804689462B462046294600F06EFD8B
:1057800061A3D3E9002306460F4600F067FD60A33E
:10579000D3E9002300F0AEFB32463B4600F05EFD4D
:1057A0005DA3D3E9002300F0A7FB32463B4600F09F
:1057B00055FD5BA3D3E9002300F09CFB32463B463A
:1057C00000F04CFD58A3D3E9002300F095FB3246CE
:1057D0003B4600F043FD02460B462046294600F0BA
:1057E00089FB06460F4602460B462046294600F036
:1057F00035FD0022CDE900014FF0804330463946A7
:1058000000F078FB02460B46DDE9000100F050FE97
:10581000424606460F464B462046294600F01EFDEE
:1058200042464B4600F068FB02460B46304639467E
:1058300000F060FB22462B4600F05CFB02460B4664
:1058400000203D4900F056FB8A44BAF5801FC0F2A3
:1058500036815146DDE9042300F000FD83461FE454
:10586000F34635491CE44A4648463B46394600F073
:10587000F5FC834614E4344B21F000479F4240F38B
:105880000081324B0B4403430CD142464B4600F09F
:1058900031FB02460B46DDE9000100F05BFF00280A
:1058A0003FF4FBAE22A3D3E90023DDE9040100F0BD
:1058B000D5FC1FA3D3E9002300F0D0FC8346FFF7FB
:1058C000EFBBBAF1000FBFF6B5ACDDE900349B4683
:1058D00004F10041FFF7E4BB02460B4600201649E5
:1058E00000F0E6FD48E400BFFE822B654715973CBB
:1058F00000000000432EE63FEF39FAFE422EE63F5D
:10590000396CA80C615C20BED0A4BE726937663EBB
:10591000F16BD2C541BDBB3E2CDE25AF6A56113FAF
:1059200093BDBE166CC1663F3E5555555555C53F96
:1059300059F3F8C21F6EA5010000F03F0000F0BF50
:10594000FFFF8F40FFFF0F00FFCB904000346F3F01
:105950006F4B9E427FF76BAC6E4B9E423FF7F6ABB0
:1059600000226C4B00F0C6FA5BA3D3E90023064685
:105970000F4600F073FC5AA3D3E900238046894602
:105980003046394600F06AFC002282468B46624B64
:105990003046394600F062FC02460B4652A1D1E97E
:1059A000000100F0A7FA32463B4600F057FC0246E1
:1059B0000B460020594900F09DFA3246CDE902011C
:1059C0003B463046394600F049FC02460B46DDE9CD
:1059D000020100F043FC46A3D3E9002300F03EFCA3
:1059E00002460B465046594600F084FA02460B46E2
:1059F00006460F464046494600F07EFA42464B4670
:105A0000002082468B4600F075FA02460B4630466F
:105A1000394600F06FFA80468946DCE50022002313
:105A2000CDE90823CDE90E233A4B00220027CDE92A
:105A3000062346E44A463B460020364900F038FD3E
:105A40008346FFF72DBB2CA3D3E90023DDE9040136
:105A500000F004FC28A3D3E9002300F0FFFB8346F9
:105A6000FFF71EBBBEF1000F7FF457ABC3F1140369
:105A700048FA03F202FA03F3984524D07446FFF77C
:105A800029BB264B9F423FF708AEDDE902349A4618
:105A90009B462FE602460B46FFF7C1BB18A3D3E98E
:105AA0000023CDE9082318A3D3E90023CDE90E2371
:105AB0001B4B00224FF48027CDE9062301E45A4610
:105AC00000F08EF9C6E602F00102C2F10204FFF70F
:105AD00001BB00BFAFF30080000000604715F73F37
