:1000000000800020BD010000F1260000A9260000AC
:10001000A9260000A9260000A9260000A9260000A4
:10002000A9260000A9260000A9260000F12600004C
:10003000F1260000A92600006D24000071250000B3
:10004000F1260000F1260000F1260000F126000054
:10005000F1260000F1260000F1260000F126000044
:10006000F1260000F1260000F1260000F126000034
:10007000F1260000F1260000F1260000F126000024
:10008000F1260000F1260000F1260000F126000014
:10009000F1260000F1260000F1260000F126000004
:1000A000F1260000F1260000F1260000F1260000F4
:1000B000F1260000F1260000F1260000F1260000E4
:1000C000F1260000F1260000F1260000F1260000D4
:1000D000F1260000F1260000F1260000F1260000C4
:1000E000F1260000F1260000F1260000F1260000B4
:1000F000F126000029270000F12600005528000005
:10010000F126000081290000F1260000F126000000
:10011000F1260000F1260000F1260000F126000083
:10012000F1260000F1260000F1260000F126000073
:10013000F1260000F1260000F1260000F126000063
:10014000F1260000F1260000F1260000F126000053
:10015000F1260000F1260000F1260000F126000043
:10016000F1260000F5140000F1260000F126000041
:10017000F1260000F1260000F1260000F126000023
:10018000F1260000F1260000F1260000F126000013
:10019000F1260000F1260000F1260000F126000003
:1001A000F1260000F1260000F1260000F1260000F3
:1001B000F1260000F1260000F1260000564B4CF21B
:1001C000205210B51A804DF628121A8000BF00BFC9
:1001D00002F092FA514B4FF010621A60504A9A6046
:1001E000504ADA60504A136813F4807304D14F49BF
:1001F0000B604FF4A85313604D4B1A78110703D5C9
:100200001A7842F008021A704A4B4B492A221A7097
:100210004A4A4B4B8B4204D252F8040F43F8040B6A
:10022000F8E7484B484900228B4202D243F8042B9E
:10023000FAE74649464A002352F8230041F82300D2
:1002400001336F2BF8D1434B434A802103F8011B44
:100250009342FBD1414B3D4A1A60414B8A221A70AE
:10026000A3F5805324225A70A0221A709A7992071B
:10027000FCD59A79D406FCD43A4A937903F00C035E
:10028000082B384BF9D103221A7140225A719A79FE
:100290009006FCD5334A9179324B4906FBD5324A58
:1002A000324911600221516020221A709A7902F0BD
:1002B0000C020C2AFAD12E4B2E4A1A602E4B2F4AD2
:1002C0001A6000225A60072243F8042C2C4AC3F813
:1002D0000C2D62B600F0C4FF144B1B68DA0705D57D
:1002E000284800F045FE284B284A1A60284B1B7806
:1002F0005B0609D5244C254B22689A4204D121483B
:1003000000F036FE0023236002F010FC02F0FAF940
:1003100000F0C8FDFEE700BF0E200540308004401D
:10032000823F04000100002B10D0034014D0034092
:1003300002D0074000E00740F88BFF1FF02D0000BF
:100340002087FF1FF88BFF1F0090FF1F0082FF1FF9
:100350000000000000E400E05FE400E008ED00E0E1
:100360000050064000400640448004400000030165
:1003700004800440C010050014E000E0FF76010096
:100380000000202024E4705D1CE00340A5C3945AC3
:1003900000F00740FFFFFFFFFFFFFFFFFFFFFFFF32
:1003A000FFFFFFFFFFFFFFFFFFFFFFFFFFFFFFFF5D
:1003B000FFFFFFFFFFFFFFFFFFFFFFFFFFFFFFFF4D
:1003C000FFFFFFFFFFFFFFFFFFFFFFFFFFFFFFFF3D
:1003D000FFFFFFFFFFFFFFFFFFFFFFFFFFFFFFFF2D
:1003E000FFFFFFFFFFFFFFFFFFFFFFFFFFFFFFFF1D
:1003F000FFFFFFFFFFFFFFFFFFFFFFFFFFFFFFFF0D
:10040000FFFFFFFFFFFFFFFFFFFFFFFFDEF9FFFF23
:1004100010B5054C237833B9044B13B10448AFF33E
:1004200000800123237010BDF88BFF1F0000000027
:10043000F42D0000084B10B51BB108490848AFF374
:1004400000800848036803B910BD074B002BFBD0A0
:10045000BDE81040184700BF00000000FC8BFF1FE4
:10046000F42D0000F88BFF1F0000000010B5124BA8
:10047000124A1B6882B0019301991368CB1A272B8B
:1004800013D90F4C11602178A1F12002D2B2A02A19
:100490000DD90C480278524253B203700B44DBB2C0
:1004A00019460920237000F075FD02B010BD054B00
:1004B00093F90030F2E700BF408DFF1F2C8CFF1F27
:1004C0002187FF1F2087FF1F08B501F051FE00287C
:1004D000FBD001F029FEC0B208BD00BF00280FDD2F
:1004E00038B5084C451E2544013C01F041FE00286A
:1004F000FBD001F019FE04F8010FAC42F5D138BD74
:10050000704700BF3C8CFF1F38B50C46C5B20121B7
:10051000284600F03DFE1E2000F054FE0021284633
:1005200000F036FE013C1E2000F04CFE631CEED1B4
:1005300038BD00BF08B50121072000F03DFE0221B3
:100540000720FFF7E1FF0121082000F035FE02211E
:100550000820FFF7D9FF0121092000F02DFE02211C
:100560000920BDE80840FFF7CFBF00BF2DE9F843E1
:10057000444C80460F4616461D464FF008094FEA88
:10058000D8110B2000F004FE01210D2000F000FE28
:1005900023685B0101D0013BFDD10C2000F0FEFD82
:1005A000002140EA48080D2000F0F2FD23685B01BD
:1005B0005FFA88F801D0013BFDD1B9F10109DED124
:1005C0004FF00808F9090B2000F0E2FD01210D2091
:1005D00000F0DEFD23685B0101D0013BFDD10C2062
:1005E00000F0DCFD002140EA47070D2000F0D0FDBF
:1005F00023685B01FFB201D0013BFDD1B8F10108D6
:10060000E0D10827F1090B2000F0C2FD01210D20E7
:1006100000F0BEFD23685B0101D0013BFDD10C2041
:1006200000F0BCFD002140EA46060D2000F0B0FDC0
:1006300023685B01F6B201D0013BFDD1013FE1D15E
:100640000826E9090B2000F0A3FD01210D2000F090
:100650009FFD23685B0101D0013BFDD10C2000F020
:100660009DFD002140EA45050D2000F091FD236825
:100670005B01EDB201D0013BFDD1013EE1D1284645
:10068000BDE8F8833C8DFF1F08B501F071FD00281F
:10069000FBD001F049FDC0B2202808D0084A1368F9
:1006A000013313601520BDE8084001F0F3BD1420AC
:1006B00001F0F0FD1020BDE8084001F0EBBD00BFE7
:1006C000348CFF1F10B5044601F052FD0028FBD00A
:1006D00001F02AFDC0B2202808D00A4A136815206C
:1006E0000133BDE81040136001F0D4BD142001F0C7
:1006F000D1FD204601F0CEFD1020BDE8104001F0F4
:10070000C9BD00BF348CFF1F8038132817D8DFE81D
:1007100000F013100D1616161616161616161616C7
:1007200016161616160A5320FFF7CCBF1220FFF735
:10073000C9BF0120FFF7C6BF0220FFF7C3BF0020DB
:10074000FFF7C0BFF0B51B4B1B4A587C1D7C9E7C3D
:10075000D97C93F80AE0DC7A1F7B93F80EC000EB9B
:10076000052506EB052501EB052515615D7855701E
:100770009D789570DD78D5701D7915715D7955710D
:100780009D799571DD79D5711D78D97B1E7A587B5D
:100790001672DF2D094E01EB0C2304EB0E2400EB47
:1007A000072094BF0021012154819081D3811570CD
:1007B0003170F0BD3C8CFF1F188CFF1F148CFF1F85
:1007C00010B5214C0A20217800F0E2FC01210A201A
:1007D00000F0F2FC00210D2000F0DAFC00210B20DB
:1007E00000F0D6FC01210D2000F0E6FC01210B20D9
:1007F00000F0E2FC00210C2000F0DEFC134B042290
:1008000000210D201A6000F0C3FC142000F0DAFC77
:1008100021780A2081F0010100F0BAFC4FF448630E
:10082000013BFDD10A20217800F0B2FC322000F01B
:10083000C9FC00231A465321AC20FFF797FE044B56
:1008400001221A6010BD00BF148CFF1F3C8DFF1FDA
:10085000308CFF1F08B500210B2000F0ADFC0021FB
:100860000D2000F0A9FC074B19780A2081F0010146
:1008700000F08EFC00210A2000F09EFC024B0022BA
:100880001A6008BD148CFF1F308CFF1F08B50420B0
:10089000FFF724FE0548C378827841780078FFF797
:1008A00065FEBDE80840FFF70DBF00BF3C8CFF1F91
:1008B00010B500210446072000F06AFCC4F30721AC
:1008C000E2B200234C20FFF751FE1E2000F07AFC1C
:1008D00001210720BDE8104000F05ABC0F4B9B8956
:1008E000202B0BD0402B0ED0802B11D0B3F5807F66
:1008F0000B4B186808BF20F07F007047084B186842
:1009000020F00F007047064B186820F01F0070475A
:10091000034B186820F03F00704700BF188CFF1F82
:10092000388CFF1FF8B50246FFF7D8FF002A0646AD
:1009300027DD571E27F00107144C154D02372744B9
:1009400029682378CAB24020C1F30721FFF70EFEC1
:1009500029686378CAB24820C1F30721FFF706FE71
:100960002B6802340133BC422B600AD0FFF7B6FF7C
:100970008642E5D03046FFF79BFFFFF7AFFF064604
:10098000DEE73046FFF794FF1020F8BD3C8CFF1FD8
:10099000388CFF1F10B50446FFF7A0FD01F0E8FBFF
:1009A0000028FBD001F0C0FBC0B2202808D0094AC3
:1009B000136815200133BDE81040136001F06ABCD4
:1009C000142001F067FC2046FFF7ACFFBDE81040A3
:1009D00001F060BC348CFF1F70B5044608460E461B
:1009E000FFF77CFD0021072000F0D2FB7EB10B4D0C
:1009F0002644E2B2C4F3072115F8013FC020FFF7F7
:100A0000B5FD01342D2000F0DDFBB442F1D1012110
:100A1000072000F0BDFB102070BD00BF3B8CFF1F06
:100A2000F8B5154BDB89984220D8144B1F68202855
:100A300006464FEA470713D905463C462046203D67
:100A40002021FFF7C9FF202D04F12004F6D8A6F1DC
:100A500021035B092037203E07EB4317A6EB431623
:100A600031463846FFF7B8FF1020F8BD044A136836
:100A7000013313601120F8BD188CFF1F388CFF1F45
:100A8000348CFF1F10B501F073FB0028FBD001F080
:100A90004BFBC0B2040201F06BFB0028FBD001F05D
:100AA00043FB54FA80F401F063FB0028FBD001F013
:100AB0003BFBC0B2462824D0452804D01120BDE815
:100AC000104001F0E7BB2046FFF7AAFF044601F003
:100AD0004FFB0028FBD001F027FBC0B2202808D034
:100AE0000A4A136815200133BDE81040136001F075
:100AF000D1BB142001F0CEFB2046BDE8104001F030
:100B0000C9BB2046BDE81040FFF744BF348CFF1F2F
:100B1000002822DD70B5124C461E26F00106216821
:100B200002360025CAB20023C1F307212020FFF7B7
:100B30001DFD01F0AFFB21680023CAB22820C1F3DC
:100B40000721FFF713FD01F0A5FB216802350131F4
:100B5000B5422160E6D1102070BD1020704700BF63
:100B6000388CFF1F38B50A4B00281C680EDD640066
:100B700005462544E2B2C4F30721FF23A020FFF776
:100B8000F5FC013401F086FBAC42F3D1102038BDF6
:100B9000388CFF1F70B501F0EBFA0028FBD001F094
:100BA000C3FA064601F0E4FA0028FBD001F0BCFAD3
:100BB000044601F0DDFA0028FBD001F0B5FA054645
:100BC00001F0D6FA0028FBD001F0AEFAC0B220281E
:100BD00008D0114A136815200133BDE87040136036
:100BE00001F058BBEDB21420F6B2E4B201F052FBB2
:100BF000462D04EB062406D0452D08D01120BDE873
:100C0000704001F047BB2046FFF782FFF7E7204620
:100C1000FFF7A8FFF3E700BF348CFF1F08B501F012
:100C2000A7FA0028FBD001F07FFAC0B2202808D034
:100C3000144A1368013313601520BDE8084001F021
:100C400029BB142001F026FB00231A461946302048
:100C5000FFF78CFC01F01EFB002319460122302017
:100C6000FFF784FC01F016FB002319460222302016
:100C7000FFF77CFC01F00EFB1020BDE8084001F0FE
:100C800009BB00BF348CFF1F10B501F071FA0028BA
:100C9000FBD001F049FAC0B22038552800F2A880F4
:100CA000DFE800F035A6A6A6A6A6A6A6A6A6A6A636
:100CB000A6A6A6A6612BA6A6A6A6A6A6A6A6A6A694
:100CC000A6A6A6A6A65668A6A671A6A6A6A6A6A687
:100CD000A6A6A6A6787FA6A6A63E88A6A6A6A6A68F
:100CE000A6A6A6A68C94A6A69AA6A6A6A6A6A6A6DC
:100CF000A6A6A6A6A6A6A6A69EA201F039FA002838
:100D0000FBD001F011FAC0B2202800F083804A4ADB
:100D1000136815200133BDE81040136001F0BABA22
:100D200001F026FA0028FBD001F0FEF9434CC0B2D6
:100D3000206001F01DFA0028FBD001F0F5F92368CE
:100D4000C0B203EB00232360BDE81040FFF79CBC5A
:100D500001F00EFA0028FBD001F0E6F9BDE81040E2
:100D6000C0B2FFF7D1BC344B0022BDE810401A607E
:100D7000FFF78ABC1420FFF7B1FBFFF7E3FCBDE8E7
:100D80001040FFF781BC0520FFF7A8FBBDE810402D
:100D9000FFF77ABC2A4B1B68002BD5D1FFF710FD5B
:100DA000D2E7254B00221A60FFF754FDBDE8104042
:100DB000FFF76ABCBDE81040FFF768BDFFF784FB92
:100DC000FFF782FBBDE81040FFF75EBCFFF77CFB3E
:100DD000BDE81040FFF758BCBDE81040FFF752BE19
:100DE000BDE81040FFF7D6BEBDE81040FFF716BFC4
:100DF000114A13680133136001F0BAF90028FBD0DF
:100E000001F092F9C0B2202810D01520BDE81040A2
:100E100001F040BA142001F03DFA0721094801F021
:100E2000B5F91020BDE8104001F034BA1220BDE839
:100E3000104001F02FBA00BF348CFF1F388CFF1F09
:100E4000308CFF1F682C000008B5144B196881B165
:100E50000121072000F09CF9114B196881B1012193
:100E6000082000F095F9FFF701FB01F081F980B946
:100E700008BD072000F08CF9094B19680029EED154
:100E8000082000F085F9FFF7F1FA01F071F9002868
:100E9000EED0BDE80840FFF7F7BE00BF308CFF1F63
:100EA000348CFF1F08B5FFF745FBFFF7CDFF01F0BE
:100EB00021FAFAE710B40F4B53F8302092F8804231
:100EC0002CB1012369B182F8803010BC704703EB6C
:100ED000C0035B681A6841B922F002021A6010BCB4
:100EE000704782F8003110BC704742F003021A606C
:100EF00010BC7047702C00001C4A02EBC003012993
:100F00005B6811D004291BD052F83000002280F811
:100F1000802229B1022920D0032922D01A607047EB
:100F20004FF480721A60704752F830004FF4A2728A
:100F300080F880121A601A6822F020021A60704746
:100F400052F830104FF4A272012081F880021A602A
:100F50001A6842F020021A60704740F203121A60C9
:100F600070474FF481721A60704700BF702C000008
:100F700030B4054B054D064C002210211A602A6042
:100F80002060196030BC704714D0034004D0034087
:100F900000D00340282838B52ED0002904464FDD64
:100FA0005F4B1B78012505FA03F28A4202D82128FB
:100FB00037D938BD0338C2B2012A3AD9202C4AD0D9
:100FC000192C48D0574A126802FB011222FA03F387
:100FD0001D2800F29B80DFE800F0928B847D9999B8
:100FE000766F99999999999999999968615A5399AC
:100FF0004C99999999999945494B1B780B2B08D98C
:101000000C2B1CBF0C3B19410846BDE8384001F0D1
:101010002DBBC3F10C0399400846BDE8384001F0F0
:1010200025BB2946FFF746FF2946BDE83840FFF7B4
:1010300063BF3D4A126802FB011222FA03F3C7E7BD
:101040002128B6D80021FFF735FF20460121BDE851
:101050003840FFF751BF354A126802FB011222FAED
:1010600003F3B5E73249334A0B604FF45173136011
:1010700038BD3149314A0B604FF45173136038BDAC
:101080002F49304A0B6040F24443136038BD2E496B
:101090002E4A0B6040F24443136038BD2C492D4A60
:1010A0000B6040F24443136038BD2B492B4A0B6060
:1010B00040F24443136038BD29492A4A0B6040F28C
:1010C0004443136038BD2849284A0B6040F244432A
:1010D000136038BD2649274A0B6040F24443136031
:1010E00038BD2549254A0B6040F24443136038BDA2
:1010F0002349244A0B604FF45173136038BD2249D1
:10110000224A0B604FF45173136038BD212C3FF617
:1011100050AF7F29D4BF00210121204693E700BFB3
:101120002287FF1F088003400890034008800B407F
:1011300010800B4048A0044018800B404CA0044095
:101140001880034008B004401080034004B00440FD
:101150004080034018C004403880034014C004405D
:101160002880034010B00440208003400CB00440AD
:101170003080034010C00440488003401CC004403D
:101180001890034034900440109003403090044085
:10119000212801D8FFF78EBE704700BF212806D84E
:1011A000044B53F8303093F80002C0B2704700206F
:1011B000704700BF702C0000212801D8FFF79CBEAB
:1011C000704700BF2DE9F843054672B6204F214B0A
:1011D000214A1B683C68126862B6520102D5322B64
:1011E00088BF013495B3C3F5BB331C4EDFF8649060
:1011F000DFF86480FF334FF47A72A6FB031302FB1F
:1012000004F404EB931472B6D9F800103A68D8F8D5
:1012100000E062B6C1F5BB33FF33A6FB03031EF04B
:10122000806FC4EB93134FF47A7002D0322988BFD9
:10123000013200FB0233B3F57A7F04D3013D05D0C0
:1012400004F57A74DFE701F055F8DCE7BDE8F883D0
:10125000408DFF1F18E000E004ED00E0ABAAAAAA51
:10126000F8B52D4B2D49DFF8D0E0DFF8D0C02C4E7B
:101270002C4D2D4C2D4A2E4F4FF4000018604FF08E
:10128000807018604FF0007018604FF08060186038
:101290004FF0006018600020086028234BF6FF71B3
:1012A000CCF80010CEF80030336013602B60236060
:1012B0003B60B3629362092245F8242CC4F8D80F2E
:1012C00005F57F65C7F8D41F07F5FF2707F5FA670F
:1012D000C6F8F83F2B6006F5FF26C4F8D42F05F5B5
:1012E000FD2504F5FF24386006F2F47611483160DC
:1012F00005F5FF6504F5FD642B602360026001F0D5
:1013000045F91920FFF75EFF00F05CFE40F2131074
:10131000BDE8F840FFF756BF08E100E00480034055
:1013200014800340248003402C8003401C80034031
:101330003480034000800B400C8003400880034051
:10134000431E032B14D872B60A4951F8230068B122
:1013500070B4094C058834F81320466841F82360BE
:10136000521B24F8132062B670BC704762B67047F7
:10137000002070479C8DFF1FEC8FFF1F0138032852
:101380000BD872B6074B53F8203043B100205B688E
:101390000130002BFBD162B6704700207047184621
:1013A000F9E700BFF08DFF1F30B472B62B4A1378F7
:1013B0001D0706D52A4B196A002936D0996A0029DB
:1013C00041D053781C0706D5254B196C00293ED017
:1013D000996C002939D09378190705D5204B196EDF
:1013E000002936D0996E89B1D3781B0707D51C4BDD
:1013F000D3F880207AB3D3F8882011213AB162B6AD
:10140000184B00221A7030BC00F068BE0D21154C3C
:10141000154D227843F8315003EBC1030830013AEF
:101420005860227062B630BC704704220D4C0F4DDC
:10143000217843F8325003EBC20308304A1E58604B
:10144000227062B6EFE70521E1E70921DFE7082214
:10145000ECE70C22EAE71022E8E700BF802D00004D
:101460000080FF1F198EFF1FC80040008800400049
:10147000431E032B1DD81B4A400140F0100030B41E
:10148000104472B6184CE25C032A1BD8DFE802F065
:101490000212151703220D88E25410F0080F14BF32
:1014A000C823882343EA054308310360416062B6DC
:1014B00030BC704708300222EDE70522EBE7083028
:1014C0000422E8E7094A52F8230038B1084A52F8E2
:1014D0002300416042F8231062B6E9E742F8231086
:1014E000034AF7E70080FF1F288EFF1FF08DFF1FC4
:1014F000008EFF1F2DE9F04FDFF80CB3DFF80CA3CF
:1015000087B044E0AB4F4FEA930807EBC809013EB0
:10151000D9F8042003F00803F6B2A2F1080003F0A2
:10152000FF04002B40F0028157F838301B0C99B2B1
:1015300022F8081C002B00F0F0809F4B22F8064C8C
:1015400042F8044C53F82620002A00F0C5829B4D37
:1015500055F8263058609A4C45F8260034F8163075
:10156000194424F8161000F099FD002800F0AD820F
:10157000944A954B19F0080F00F1080018BF134664
:10158000C9F8040047F8383008238BF800309BF87E
:101590000040E4B261071AD58C4B1B78A3B18C498B
:1015A0000A7802F0FF0322B1013BDBB20B7003B9F2
:1015B00000BE88490A7802F0FF032AB1013BDBB282
:1015C0000B70002B00F0578204238BF8003004F0DE
:1015D000080303F0FF02002B00F0CC809AF80030E3
:1015E000DBB21E098ED19C08DFF8C89159F834206F
:1015F00009EBC401C2F38302013A49680C2A00F2E4
:101600008880DFE802F07C7C868686868686478630
:10161000868607000868704D4A68704F704E2860D3
:1016200081B240F28160674B6A604FF0010E002288
:10163000814249F834303A60C9F81020C9F81820BE
:1016400086F800E05B4C00F2E380B1F5D06F80F0EB
:101650004683B1F5817F00F0FC8200F28D82802903
:1016600000F07783822940F0FA82A98801F07F0197
:10167000042900F2F4825B485B4C89000844227024
:1016800062700278930740F1588484F800E04FF0CC
:10169000020E42E3514F3A6832B3544B504E544914
:1016A000188834780D784028864645F0020828BF0F
:1016B0004FF0400E002C84F001043470CEEB00009B
:1016C0000CBF8824C82409EBC80680B285F0010548
:1016D00044EA0E447260188049F8384072440D7034
:1016E000002800F045813A603B4B1A88B2F5A06FA4
:1016F0000FD100219A7859703E4B1A7009E0364A92
:10170000108842F22102904200F037812D4A49F8B8
:101710003420394A0123137036E72A4A2A4B19F03C
:10172000080F18BF134647F838302DE700F0D6FCF5
:10173000324A334952F82630002B00F0D1815868E4
:101740008C5D42F8260003F10802C9F80420032C3E
:1017500005D8DFE804F02C02292602228A551A88CF
:1017600019F0080F0CBF8823C82343EA024347F847
:10177000383009E7E00700F18181210600F1F281AC
:10178000A20706D51F4A204913780220DBB2137046
:101790000870E30602D51C4B10221A7007B0BDE892
:1017A000F08F04228A55DAE705228A55D7E703220B
:1017B0008A55D4E70080FF1F9C8DFF1F488DFF1FB7
:1017C000EC8FFF1FC800400088004000248EFF1FE0
:1017D000AD8DFF1F2C8EFF1F108EFF1F448DFF1F2E
:1017E000AC8DFF1FC02007401C8EFF1F588DFF1FB0
:1017F000188EFF1F9820074094200740F08DFF1F90
:10180000288EFF1F88200740802007409020074037
:1018100042F22100814200F02A8100F2D880B1F525
:10182000086F00F07682B1F5106F40F01882226ADE
:10183000B349A8780870120600F13A83D9F8282035
:10184000B049130600F10C83D9F83020AD491506D4
:1018500000F10183D9F83820AA49140600F1F68274
:10186000D9F84020A749100600F14A83D9F848204A
:10187000A449120600F13F83D9F85020A14913066C
:1018800000F13483D9F858209E49150600F12983C8
:10189000D9F860209B49140600F11E83D9F868200E
:1018A0009849100600F11383D9F870209549120663
:1018B00000F10883D9F878209249130600F1FD82DF
:1018C000D9F880208F49150600F13183D9F8882096
:1018D0008C49140600F12583D9F890208949100617
:1018E00000F11983D9F898208649120600F10D837A
:1018F0008548864A864901908648874D874C0497DB
:1019000000230596029580460F4616461D46039411
:10191000306828B1446800F0E1FB2046002CF9D182
:1019200000233360029B38681A46002342F82530B2
:1019300028B1446800F0D2FB2046002CF9D10022E7
:101940003A60019A98F800301146002241F8042BC1
:10195000039A0191023B4FF0000122F81510032B6E
:1019600000F22B81DFE813F07001250170012501E1
:10197000BEF1400F18BF0022B5E6694A0D784878DD
:10198000157050708D78C8789570D07010680D798A
:10199000157186284D7989795571917100F09B8177
:1019A0006049614E0A78307882F00105002842F0E3
:1019B00002020D700CBF8821C82149F8321009EBD2
:1019C000C20280F001000021307051609EE642F2B8
:1019D0002120814240F0CB81544B554C5549A87889
:1019E0001D682560CDF804E0087000200290804654
:1019F000844604464B490D7845F0020E09EBCE03B0
:101A00000393019B002B039B5C600CBF8824C824BC
:101A100044EA080385F0010449F83E3032700C7046
:101A2000DFF8E0E0404BDFF8FC80002840F01E814A
:101A3000BCF1400F1BD144F0020C09EBCC03029C1B
:101A4000DFF8C0E05C60002A40F02681020442F02A
:101A500088029DF804304EF83C20044433700D7029
:101A60002346402803D10020334A3B601080334A8C
:101A7000012313704DE600F019FCA5E5214B2F481A
:101A800028491A614FF0020E80F800E02C4F0A70CE
:101A90002C49196099602C4E2C4D2D4C9A610D21CA
:101AA0003970FF213170DFF8B8E029702270294DBC
:101AB000294A8EF800109F27012406F8047C5D60F7
:101AC0000470DA6007B0BDE8F08F244A47F83800A8
:101AD00013780133137057E543F826000E4D3AE5AD
:101AE0008B5D032B00F2F08001A252F823F000BFBF
:101AF0008915000089150000AD1B0000A71B000020
:101B0000248EFF1F0080FF1F008EFF1F9C8DFF1F74
:101B1000F08DFF1F288EFF1F488DFF1FEC8FFF1FCA
:101B2000F48FFF1F188EFF1FAC8DFF1F408DFF1F0E
:101B3000FC8FFF1F3C8EFF1F588DFF1F9420074016
:101B4000C0200740880040008820074080200740D0
:101B5000982007405C8DFF1FB08DFF1F198EFF1F5F
:101B60008C200740C149C24B80220D2008701A709A
:101B7000A2077FF50EAE05E640F20232914240F038
:101B8000EE80A98801F07F01042968D86A88002ABC
:101B900065D1B648CDF804E089000844017841F0E9
:101BA0000201017021E701238B55EDE400238B55E1
:101BB000EAE44FF0010388F800300135042D06F106
:101BC000040607F1040708F101087FF4A1AEA94C4F
:101BD000A94B2278A94D049F059E002129701A70F7
:101BE000130700F105816278A549DFF8A0820A7029
:101BF00010074FF00001C9F83010C9F8381000F193
:101C0000E080A049A2780A700021C9F85010C9F8F4
:101C100058101107DFF8748200F10181E2789A49C7
:101C20009A4C0A7000211207C9F87010C9F8781090
:101C300000F1B08033780193002183F00102C9F8EC
:101C40009010C9F89810D0E64FF0000388F80030E3
:101C5000B3E7A98801F07F01042940F28D80834A0F
:101C60000F2313708A4A0123137052E540287FF630
:101C7000E2AE44F002040EEBC401029E4E60BAB123
:101C80009DF80410834A19703346403888F8005094
:101C900040334EF83420E7E69DF8043033700204F8
:101CA000029B0D7042F0C80203444EF83C20D8E677
:101CB0009DF804101970029B774A88F8005040384C
:101CC00040334EF83420CFE619F0080F0CBF022342
:101CD00003238B5558E4714A0F21117060E6704A56
:101CE0005468002CBBD06888B5F804E003E00C32DF
:101CF0005468002CB3D013888342F8D153887345BD
:101D0000F5D1000A03280CBF94F800E0B2F808E00F
:101D100003E0644A644C12782270E888704580F0D1
:101D20003F8162490D784028844645F0020E28BF65
:101D30004FF0400C04EB0C0309EBCE02029301239D
:101D40005460CCEB00004FEA0C4800220193C824F9
:101D50005EE6554C4FF0020E22706270DDE7B1F581
:101D6000A06F7FF47CAF0123002201933DE642F295
:101D700021329142F7D072E76A88002A7FF46FAF70
:101D80003A48CDF804E089000844017821F00201C6
:101D900001702AE600F082F9002800F0EF80083098
:101DA0003D4AC4F88400C4F8802000F077F9002888
:101DB00000F0DE800830374AC9F88C00C9F8882066
:101DC00038E700F06BF9002800F0C0800830324A94
:101DD000C8F84400C8F8402000F060F9002800F07E
:101DE000AF8008302B4AC9F84C00C9F8482008E7F2
:101DF00000F054F9002800F0CD800830264AC9F8D8
:101E00002400C9F8202000F049F9002800F0BC8027
:101E10000830204AC9F82C00C9F82820E3E600F071
:101E20003DF9002800F09E8008301B4AC8F8640085
:101E3000C8F8602000F032F9002800F08D800830EA
:101E4000144AC9F86C00C9F86820E7E6C86B08387E
:101E500000F044F904E5486B083800F03FF9F9E474
:101E6000C86A083800F03AF9EEE400BFC020074025
:101E700080200740802D0000C4200740198EFF1FDE
:101E8000C8200740CC200740D02007400080FF1F1B
:101E900094200740C800400088004000AD8DFF1F1F
:101EA000842D0000248EFF1F1C8EFF1F188EFF1F25
:101EB000606A083800F012F9C0E4C86F083800F012
:101EC0000DF9FDE4486F083800F008F9F2E4C86E37
:101ED000083800F003F9E7E4486E083800F0FEF82F
:101EE000DCE4C86D083800F0F9F8D1E4486D083832
:101EF00000F0F4F8C6E4C86C083800F0EFF8BBE472
:101F0000486C083800F0EAF8B0E4D1F89C000838D2
:101F100000F0E4F8ECE4D1F89400083800F0DEF8C2
:101F2000E0E4D1F88C00083800F0D8F8D4E4D1F817
:101F30008400083800F0D2F8C8E44FF0020EECE656
:101F40002A78C9F8480001322A705AE62A78C8F877
:101F5000400001322A703FE72A78C9F86800013250
:101F60002A705BE62A78C8F8600001322A7061E7BF
:101F70002A78C9F8880001322A705BE62A78C4F80A
:101F8000800001322A7010E72A78C9F8280001324F
:101F90002A7028E62A78C9F8200001322A7032E730
:101FA000BEF1400FF44628BF4FF0400C04EB0C0389
:101FB00002930123CCEB0E004FEA0C480022019360
:101FC00018E500BFF8B500F047FD294B29482A4C19
:101FD0002A4F2B4DDFF8BCC0DFF8BCE0294E0022B1
:101FE0001A605A609A60DA601A615A619A61DA611D
:101FF0001A625A629A62DA621A635A639A63DA63FD
:102000001A645A649A64DA641A655A659A65DA65DC
:102010001A665A669A66DA661A675A679A67DA67BC
:10202000C3F880200168C3F8842041F48021016056
:10203000C3F307212170C3F30740134938701B0E07
:102040002B70FF238CF80030104D8EF800301048B4
:102050000B700123337084F8642070264FF40074F1
:10206000102207F82C3C2E70046081F8F820F8BD8F
:102070000080FF1F348004409C200740B0200740B0
:10208000B4200740942007401020074049E400E0B6
:1020900008E100E0802007408820074072B60D4824
:1020A0000268B2FA82F30B2B10DC4FF00041D940EA
:1020B00022EA0102026062B6074803EBC303DB00B9
:1020C000C2180021C15010465160704762B600200E
:1020D000704700BF2487FF1FBC83FF1F0D4B0E4AB4
:1020E000C31AA2FB03231B090B2B0CD80B4A127833
:1020F00052B972B60A484FF00041026821FA03F360
:102100001A43026062B67047064A1278002AF0D07D
:10211000FFF74AB9BC83FF1F398EE338198EFF1FC2
:102120002487FF1F248EFF1F38B50F4D286878B114
:1021300043880288C118013393420C7A02D243804B
:10214000204638BDFFF7CAFF002320462B6038BD6C
:10215000064B1B782BB10320FFF7F2F8286000280C
:10216000E6D14FF0FF3038BD388EFF1F248EFF1FA1
:10217000044B054A1B6890881BB11A885B88D31AE8
:1021800018447047388EFF1FEC8FFF1F2DE9F04F6A
:10219000DFF8F89083B0012289F80020019169B33B
:1021A000DFF8EC80364F019E8346D8F80000B0B3CC
:1021B000344D4488C4F14001B14228BF314604EB9C
:1021C000010E00221FFA8EFE2A70761AA0F802E095
:1021D00000F1080251B1013C224459441BF8014B63
:1021E00002F8014F8B45F9D1B0F802E0BEF13F0F84
:1021F0000BD8254A05211170002ED6D10198002355
:1022000089F8003003B0BDE8F08F4022028001461B
:102210000420FFF72DF90022C8F80020E9E73A78FA
:102220002AB3184D4AF2F9244FF0010A07E0013CA5
:1022300016D02A78A2B900F05DF83A78BAB1042035
:10224000FFF79CF80728F2D889F800A0FFF726FFCF
:10225000C8F800000028ACD10C4B013C1870E8D144
:1022600001234FF0FF302B7003B0BDE8F08F002347
:102270004FF0FF3089F8003003B0BDE8F08F00BFA9
:10228000248EFF1F348EFF1F2C8EFF1F2D8EFF1FED
:10229000308EFF1F00B583B002AB012103F8010DA2
:1022A0001846FFF773FF03B05DF804FB38B50E4B1B
:1022B0001B7873B90D4C216861B103F0FF054B88A1
:1022C0000B800420FFF7D4F8256038BD084B0122AD
:1022D0001A7038BDFFF7E2FE0028F7D00146BDE8CE
:1022E00038400420FFF7C4B82D8EFF1F308EFF1F2B
:1022F0002C8EFF1F38B5224C237803B138BD012343
:102300002370FFF735FF70BB00F0FEF940BB00F013
:1023100091FA10BB00F024FBE0B900232370EFF327
:102320000583002BEAD1EFF3108172B6154B1868C4
:10233000E0B1154C2278CAB945691D6001232370AC
:10234000C5B1AA6101B962B600254577836898478F
:102350002570D3E700F018F9DFE700F013F9D9E7AB
:1023600000F00EF9D3E700F0B9FBCDE70029C5D1A5
:1023700062B638BD054B1D600029E5D1E3E700BF1B
:102380003D8EFF1F508EFF1F548EFF1F4C8EFF1F70
:1023900010B4EFF3108272B6437F33B9017F012985
:1023A00007D003290FD00123437702B962B610BCCE
:1023B0007047124C2168A1B1114943610B688361D8
:1023C00008605861EFE70F4C216881B10E49436105
:1023D0000B688361086058610C4B4FF080511960A5
:1023E000E1E7074B4161816120601860DBE7064B44
:1023F0004161816120601860EEE700BF508EFF1FD1
:102400004C8EFF1F408EFF1F448EFF1F04ED00E027
:1024100010B4047F4160022CC26002D010BCFFF7F0
:10242000B7BF836810BC184770B5EFF3108272B65F
:102430000C4C206880B10C4E00254369236073B1B9
:102440009D6102B962B6457783689847EFF31082C1
:1024500072B620680028F0D102B962B670BD336050
:10246000EFE700BF408EFF1F448EFF1FFFF7DCBF6A
:10247000184A30B41468002C27D0036821688B42B6
:102480000ED2CB1A00218460C1602360E06010602E
:102490000223037530BC704711688B42144608D381
:1024A000A2685B1A0360002AF6D18260C460A06053
:1024B000EEE7D268C2608460E060C568CB1A022291
:1024C000A8602360027530BC70478460C4601060EF
:1024D000DEE700BF488EFF1FF8B5224E34682CB3EC
:1024E0002368002B3AD1204F1D4604E03468ECB13C
:1024F0002368002B32D1A36803B1DD60206933600B
:10250000036825751B68BB4221D1037F4560022B00
:10251000C46020D0FFF73CFF6368002BE6D0236047
:102520002046FFF7A5FF3468002CE1D1EFF31083BC
:1025300072B60E4A00211068116003B962B628B164
:102540008468FFF795FF20460028F9D1F8BD2246A0
:1025500000219847E0E783689847DDE7013B236067
:10256000E4E700BF488EFF1F11240000588EFF1FB4
:10257000024A136801331360FFF7AEBF408DFF1F9F
:10258000704700BF704700BF704700BF30B4294894
:10259000294A2A4B2A4D6024E121047011701B78CE
:1025A000284C082B30D00A2B2748284937D00C2B31
:1025B0000CBF35223D2212232A60236002600B608B
:1025C000234B24491B78244ABBB101230B601360C1
:1025D000224B23491B78234A012B26D9042B0FD9E0
:1025E000082B1ED9102B94BF862387230B60136002
:1025F0001D4B01221A7030BC70470B601360E7E777
:1026000084230B601360F3E700F58E200F49083038
:10261000012213232A60236002600B60D0E7392275
:10262000F7E785230B601360E2E780230B601360FC
:10263000DEE700BF00400740014007402887FF1F3A
:1026400008B003400CB0034008B00B400CB00B4086
:102650005D8EFF1F20B0034020B00B402987FF1F75
:1026600024B0034024B00B405C8EFF1F0A4A0B4984
:10267000136843F4805313600B7843B9084BC022AE
:102680001A70084B80F30C0000B218807047044B9E
:1026900080221A70F5E700BF2C8004405D8EFF1F7A
:1026A00021C00C4000C00C4008B5104C08E0236865
:1026B00059050DD423681A050FD42368DB0411D4FF
:1026C00023685803F3D5FEF715FF23685905F1D5A4
:1026D00000F02AF823681A05EFD500F0BBF823684C
:1026E000DB04EDD500F04CF9EAE700BF348004408C
:1026F00008B5FFF7D9FF00BF014B10221A807047C1
:1027000000200540704700BF054A064B10781B7833
:10271000C0B2DBB2984238BF4030C01A704700BF29
:10272000648EFF1F658EFF1FF0B4384B1A7912F0CC
:10273000300F2CD072B6997D01F0FF0200293DD0F8
:1027400062B6334F334938780D78334E1C46C0B2E9
:10275000EDB2431C402BE17928BF0023AB4202F1CC
:10276000FF32C9B21CBFF154184612F0FF02F0D17B
:102770002A4B1B68C2B23A704BB1A84236BFC5F1B2
:102780004005401B40192728C4BF01221A701F4969
:10279000CA78D2B2150616D452060DD51B4B1B793A
:1027A0005B0609D51E4B1F491B6800220A7003B146
:1027B0001A70164B3C22DA70F0BC70474022D9796F
:1027C0005A7462B6E3E70B791C06E5D5164B174E33
:1027D0001C783378E4B2DBB29C420ED0144D01E099
:1027E000A3420AD00133402B28BF00230879E85CBC
:1027F000C0B2C871087D0728F2D9DBB20349337033
:102800000B79180644BF7C23CB70C5E700A00640B7
:10281000648EFF1F658EFF1FA88EFF1F608EFF1F37
:10282000EC8EFF1FE88EFF1FF08EFF1FE98EFF1F4B
:10283000688EFF1F054A064B10781B78C0B2DBB2CA
:10284000984238BF4030C01A704700BF648FFF1FE6
:10285000F98EFF1FF0B4384B1A7912F0300F2CD0DC
:1028600072B6997D01F0FF0200293DD062B6334F68
:10287000334938780D78334E1C46C0B2EDB2431C54
:10288000402BE17928BF0023AB4202F1FF32C9B2ED
:102890001CBFF154184612F0FF02F0D12A4B1B68FE
:1028A000C2B23A704BB1A84236BFC5F14005401BD9
:1028B00040192728C4BF01221A701F49CA78D2B212
:1028C000150616D452060DD51B4B1B795B0609D590
:1028D0001E4B1F491B6800220A7003B11A70164B69
:1028E0003C22DA70F0BC70474022D9795A7462B643
:1028F000E3E70B791C06E5D5164B174E1C783378A9
:10290000E4B2DBB29C420ED0144D01E0A3420AD0E7
:102910000133282B28BF00230879E85CC0B2C871B6
:10292000087D0728F2D9DBB2034933700B7918060A
:1029300044BF7C23CB70C5E700B00640648FFF1F07
:10294000F98EFF1F248FFF1FF48EFF1F688FFF1F5C
:10295000F88EFF1F6C8FFF1F658FFF1FFC8EFF1F00
:10296000054A064B10781B78C0B2DBB2984238BFDC
:102970004030C01A704700BF748FFF1F758FFF1F54
:1029800030B42B4B1A7994061FD52A48DA7903788C
:10299000294901333F2B0978C8BF00238B42D2B2AB
:1029A00003D0264CD9B2E2540170254A116861B1B6
:1029B000244A1278D2B2934236BFC2F140029B1A27
:1029C0009B18272BC4BF01230B70194AD378DBB2A5
:1029D000180611D45A060DD5154B1B795B0609D57F
:1029E000194B1A491B6800220A7003B11A70104B68
:1029F0002C22DA7030BC704711790906EAD51449E7
:102A000010480C780178C9B28C420DD04A1C272A94
:102A100084BF00210A460F4D054C98BFD1B2AA5C75
:102A2000D2B2E2710170D5E76C21D170D2E700BF5C
:102A300000C00640748FFF1F758FFF1FA08FFF1F00
:102A4000708FFF1FE18FFF1FE48FFF1FE08FFF1FBD
:102A5000E88FFF1F788FFF1F70B584B072B6194BD7
:102A6000194D1A48702241260F2480211A702E70A9
:102A70001A460470197013781B06FCD5144B18689D
:102A800062B6144B144C984298BF00EB800001A929
:102A900098BF40000A2200F023F801A92046002335
:102AA00011F8012B01333AB10A2B20F8022FF7D18C
:102AB0001623237004B070BD5B00DBB2237004B03A
:102AC00070BD00BF00000240070002400600024047
:102AD000080002407F969800B887FF1F704700BF2C
:102AE000F0B44D1E2E46002400E00134B0FBF2F39A
:102AF00002FB1300092800F130078ABF3730F8B213
:102B0000C0B206F8010F1846002BEED10A19537017
:102B10004CB1107815F8016F28700133E01A834228
:102B200002F80169F5DB0846F0BC704770B50F4E3E
:102B30000F4D761BB61018BF002405D0013455F890
:102B4000043B9847A642F9D10A4E0B4D761B00F084
:102B500045F9B61018BF002406D0013455F8043BDF
:102B60009847A642F9D170BD70BD00BFE82D0000A6
:102B7000E82D0000F02D0000E82D0000024B13B1FD
:102B8000024800F005B87047000000009D2B0000CF
:102B9000002301461A46184600F014B838B5074D10
:102BA000074C2C1BA41005D0013C55F8043D984758
:102BB000002CF9D1BDE8384000F01AB9000000003F
:102BC000000000002DE9F047254C2568D5F8484164
:102BD0000646884692469946C4B360681F2817DCAB
:102BE000431C76B104EB80050122C5F888A0D4F817
:102BF000881182401143022EC4F88811C5F808914B
:102C00001ED00230636044F820800020BDE8F087C9
:102C1000144B03B34FF4C870AFF300800446D0B137
:102C2000D5F84831002780E88800C5F84841384683
:102C30000123C4F88871C4F88C71002EE1D0D1E76B
:102C4000D4F88C110A43C4F88C21DAE705F5A67490
:102C5000C5F84841C1E74FF0FF30BDE8F08700BF3D
:102C6000D82D00000000000041565220495350006A
:102C70004008FE4340A004404408FE4344A00440F2
:102C80000018FE4300C004403000FE433090044072
:102C90003400FE43349004401C18FE431CC0044022
:102CA0001018FE4310C004400818FE4308C004403A
:102CB0000C18FE430CC004400C10FE430CB0044042
:102CC0001010FE4310B004401810FE4318B004402A
:102CD0001C10FE431CB004401410FE4314B004400A
:102CE0000418FE4304C004400010FE4300B004403A
:102CF0000008FE4300A004400408FE4304A0044072
:102D00000C08FE430CA004400808FE4308A0044041
:102D10001418FE4314C004401818FE4318C00440A1
:102D20000410FE4304B004400810FE4308B0044001
:102D30001400FE43149004404C08FE434CA0044091
:102D40000420FE4304D004402410FE4324B0044079
:102D50002010FE4320B004402810FE4328B0044059
:102D60002C10FE432CB004400020FE4300D0044051
:102D70004808FE4348A004401000FE431090044061
:102D800000151915000100002C87FF1F120000001C
:102D9000000200005887FF1F4300000000030000EE
:102DA000B487FF1F00000000010309044087FF1FD4
:102DB00000000000020309049C87FF1F00000000C0
:102DC00003030904B887FF1F000000000000000093
:102DD0000000000000000000D087FF1FF8B500BF12
:102DE000F8BC08BC9E4670477D2B000035040000EF
:042DF000F8B500BF73
:102DF40008800800FFFFFFFF0A0400001201100111
:102E040002000040C01683047502010203010000A1
:102E140018035400650065006E00730079006400B7
:102E2400750069006E006F0009024300020100C0D2
:102E3400320904000001020201000524001001050A
:102E44002401010104240206052406000107058269
:102E54000310004009040100020A000000070503F2
:102E640002400000070584024000000016035500DC
:102E740053004200200053006500720069006100A5
:102E84006C000000040309040C03000000000000AF
:102E9400000000000000000000000000000000002E
:102EA40000000000BC8AFF1F248BFF1F8C8BFF1FB8
:102EB400000000000000000000000000000000000E
:102EC40000000000000000000000000000000000FE
:102ED40000000000000000000000000000000000EE
:102EE40000000000000000000000000000000000DE
:102EF40000000000000000000000000000000000CE
:102F040000000000000000000000000000000000BD
:102F140000000000000000000000000000000000AD
:102F2400000000000000000000000000000000009D
:102F3400000000000000000000000000000000008D
:102F4400000000000000000001000000000000007C
:102F54000E33CDAB34126DE6ECDE05000B00000041
:102F6400000000000000000000000000000000005D
:102F7400000000000000000000000000000000004D
:102F8400000000000000000000000000000000003D
:102F9400000000000000000000000000000000002D
:00000001FF
